:020000040800F2
:10000000C8580120A1370008019000081D90000881
:100010003990000855900008719000080000000019
:100020000000000000000000000000008D900008AB
:10003000A990000800000000C59000089D34000849
:10004000FD370008FD370008FD370008FD370008C0
:10005000FD370008FD370008FD370008FD370008B0
:10006000FD370008FD370008FD370008FD370008A0
:10007000FD370008FD370008FD370008FD37000890
:10008000FD370008FD370008FD370008FD37000880
:1000900069700008FD370008FD370008FD370008CB
:1000A000FD37000889220008FD370008FD370008E9
:1000B000D12200081D23000865230008FD37000831
:1000C000FD370008FD370008FD370008FD37000840
:1000D000FD370008FD370008E16A0008796B000869
:1000E000FD370008FD370008C92700083D24000837
:1000F000F5230008FD370008FD370008FD3700082C
:10010000FD370008B5920008AD230008FD37000850
:10011000FD370008FD370008FD370008FD370008EF
:10012000FD370008FD370008FD370008C1920008C0
:10013000FD370008FD370008FD370008FD370008CF
:10014000FD370008FD370008FD370008B927000813
:10015000FD370008FD370008FD370008FD370008AF
:10016000FD370008FD370008FD370008FD3700089F
:10017000FD370008FD370008FD370008FD3700088F
:10018000FD370008FD37000810B5054C237833B95A
:10019000044B13B10448AFF300800123237010BD5A
:1001A0001009002000000000A0580208084B10B5FC
:1001B0001BB108480849AFF300800848036803B939
:1001C00010BD074B002BFBD0BDE81040184700BF07
:1001D00000000000A05802081409002008090020AF
:1001E0000000000080B584B000AFF8600B467A6074
:1001F000FB72FB7A013B032B52D801A252F823F089
:100200001102000835020008590200087D020008AA
:10021000FB68DB6A184610F0D5F803461846796883
:1002200010F028F90346184610F010FB0246FB6850
:100230005A6336E0FB68DB6A184610F0C3F80346E1
:100240001846796810F016F90346184610F0FEFAC1
:100250000246FB689A6324E0FB68DB6A184610F0EC
:10026000B1F803461846796810F004F903461846B9
:1002700010F0ECFA0246FB68DA6312E0FB68DB6A16
:10028000184610F09FF803461846796810F0F2F807
:100290000346184610F0DAFA0246FB681A6400E0DA
:1002A00000BF1037BD4680BD80B582B000AF78601A
:1002B0000B46FB70FB78012B06D17B685B6B184605
:1002C00010F080F803461FE0FB78022B06D17B6814
:1002D0009B6B184610F076F8034615E0FB78032B6D
:1002E00006D17B68DB6B184610F06CF803460BE018
:1002F000FB78042B06D17B681B6C184610F062F863
:10030000034601E04FF0000318460837BD4680BDA4
:1003100090B5ADB002AFF860B9603B601346FB80AA
:100320000023C7F8A4300023C7F8A0300023C7F883
:100330009C300123C7F898300023A7F8963009F0C5
:1003400031F907F14403184607F060FAFB68B3F18E
:10035000804F03D3FB68944A934207D9FB68934AC2
:10036000934211D9FB68924A93420DD8FB6C914A93
:10037000D2F88C20120E02F00102013202FB03F3CC
:100380005B00C7F8A4300CE03B6D8A4AD2F88C20A1
:10039000120E02F00102013202FB03F35B00C7F808
:1003A000A4303B68002B0ADDD7F8A430824A82FBD8
:1003B00003125211DB17D21A3B689A4201DA012369
:1003C000EEE01FE0D7F8A0300133C7F8A030D7F82F
:1003D000A420D7F8A03092FBF3F23B6892FBF3F332
:1003E000C7F89C30D7F89C30B3F5803F02DA002381
:1003F000C7F89830D7F8A0304FF6FE72934201DD6F
:100400000123CDE0D7F89830002BDBD1D7F8A4201A
:10041000D7F8A03092FBF3F2D7F89C3092FBF3F3BD
:100420003B60F8680BF026FAFA880023009302205C
:10043000B968002301F080FED7F89C30013BFB63D4
:10044000D7F8A0309BB2013B9BB23B870023A7F8B3
:10045000403000237B87002387F8423007F13803C0
:10046000F86819460CF0AAF86023BB8400233B8689
:100470000123FB8404233B8508237B864FF4807390
:10048000BB864FF40073FB8607F12403F868194616
:100490000CF06CF9F86800210CF056FB07F124030E
:1004A000F86819460CF0DCF9F86800210CF068FBDC
:1004B00007F12403F86819460CF05AFAF86800218D
:1004C0000CF07CFB07F12403F86819460CF0D6FA0F
:1004D000F86800210CF08EFBFB68384A934203D089
:1004E000FB68374A934211D107F1140318460CF008
:1004F000C7FB4FF480433B8407F11403F8681946A7
:100500000CF096FBF86801210CF0D8FBFA8807F193
:100510005403104619460BF02BF80023A7F8963029
:1005200025E0B7F896305B0007F1A802134433F8D2
:10053000543C012B16D1B7F8963010335B0007F10D
:10054000A802134433F8523C18460BF017FB03463D
:100550009CB2F8680BF088FB0346B86821461A463F
:1005600008F0ACFFB7F896300133A7F89630B7F82B
:1005700096300F2BD5D9FB6800225A63FB68002206
:100580009A63FB680022DA63FB6800221A64F86849
:1005900001210CF0ABF8F86801210CF0C7F800233A
:1005A0001846AC37BD4690BD00140040FF17004010
:1005B00000200040003802401F85EB510000014040
:1005C0000004014080B489B000AFF860B960114602
:1005D0001A460B46FB711346BB800023FB76FB6873
:1005E000DB78002B22D100237B610023FB61BB88D9
:1005F0000333002B00DA03339B107B61FB79FA682D
:1006000032339B0013449B683B610023FB6109E08C
:10061000BB681A683B691A60FB690133FB61BB6800
:100620000433BB60FA697B699A42F1D3FB7E1846BA
:100630002437BD465DF8047B704700BF80B489B0A5
:1006400000AFF860B9601346FB800023FB61FB88B4
:100650000333002B00DA03339B10BB61FB68D3F834
:10066000D0307B610023FB6109E07B691A68BB68BD
:100670001A60FB690133FB61BB680433BB60FA6934
:10068000BB699A42F1D3BB6818462437BD465DF872
:10069000047B704780B586B000AF78603960002376
:1006A000FB7400237B610023FB60FB6843F02003A5
:1006B000FB603B68DBB203F01F03DBB203F01F03F8
:1006C0009B01FA6822F4F8621343FB607B68DB68E5
:1006D000FA681A617B68DB681B69FB607B69013320
:1006E0007B617B69094A934200D906E0FB685B099C
:1006F00003F00103DBB2012BECD0032009F094FDE1
:10070000FB7C18461837BD4680BD00BF400D030076
:1007100080B483B000AF78607B68DB685B6903F00E
:10072000010318460C37BD465DF8047B704700BFD7
:1007300080B582B000AF78607868FFF7E9FF0346C4
:10074000012B14BF01230023DBB218460837BD4636
:1007500080BD00BF80B485B000AF78600023FB602F
:100760007B68DB685B69FB607B68DB689B69FA68B8
:100770001340FB60FB6818461437BD465DF8047BE8
:10078000704700BF80B485B000AF78600023FB7372
:100790007B681B699B68BB603B7AC3F34103DBB298
:1007A000022B09D0032B04D0012B02D00323FB73AF
:1007B00005E00223FB7302E00123FB7300BFFB7B18
:1007C00018461437BD465DF8047B704780B487B087
:1007D00000AF78600023FB750023BB607B681B695A
:1007E0009B683B617B689B691B68FB603B7CC3F338
:1007F0004103DBB2022B04D0BB896FF30A03BB8138
:1008000005E0BB89032262F30A03BB8100BF7B685A
:100810009B69FA681A607B7A43F001037B727B68FC
:100820001B697A6812695168BA68D2431140BA6884
:100830000A435A60FB7D18461C37BD465DF8047BB1
:10084000704700BF80B487B000AF78603960002384
:10085000FB740023FB600023BB603B685B78012BCB
:100860000FD13B681B787A6804339B0013449B6864
:100870007B613B681B781A46012393409BB23B8106
:100880000EE03B681B787A6814339B0013445B6866
:100890007B613B681B781A46012393409BB27B81A6
:1008A0007B691B68FB607B7B23F07F03DBB2002B43
:1008B00027D13B689B689BB2C3F30A039AB2BB89FA
:1008C00062F30A03BB813B68DB7803F00303DAB20F
:1008D000BB7B62F38303BB733B68DB88DBB203F053
:1008E0000F03DAB2FB8962F38913FB81FB7B43F0D0
:1008F0001003FB737B7B43F080037B73FA687B6997
:100900001A607B681B697A681269D169BA680A4300
:10091000DA61FB7C18461C37BD465DF8047B7047E6
:1009200080B588B000AF786039600023FB77002382
:10093000BB6100237B6100233B613B685B78012B3B
:1009400040F0AB803B681B787A6804339B0013440B
:100950009B681B687B613B681B787A6804339B004B
:1009600013449B681B693B613B685B69002B09D1A1
:100970003B696FF312033B617B8A012262F3CC0374
:100980007B8222E03B685B69C3F312023B6962F33E
:1009900012033B613B685A693B689B6813445A1ECB
:1009A0003B689B68B2FBF3F39BB2C3F309039AB2B3
:1009B0007B8A62F3CC037B823B68DB78012B04D11A
:1009C000FB7C012262F34613FB743B681B787A6858
:1009D00004339B0013449B683A691A617B68DB7897
:1009E000012B0AD13B681B787A6804339B001344BF
:1009F0009B683A6812695A6115E03B68DB78012B05
:100A000011D03B685B69002B0DD03B681B781A4600
:100A100001239340BB617B681B697A681269516B43
:100A2000BA690A435A633B68DB78012B14D17B68AF
:100A30001B699B68FB60FB68C3F30D239BB203F04B
:100A40000103002B04D1FB7D43F02003FB7503E081
:100A5000FB7D43F01003FB75FB7D43F00403FB7546
:100A6000FB7D43F08003FB753B681B787A68043399
:100A70009B0013449B687A691A603B68DB78012B02
:100A800040F089803B68D9683B681A783B685B69AD
:100A90009BB27868FFF796FD7DE03B681B787A682B
:100AA00014339B0013445B681B687B613B681B78B5
:100AB0007A6814339B0013445B681B693B613B6895
:100AC0005B69002B0DD13B689B68C3F312023B6945
:100AD00062F312033B617B8A012262F3CC037B82C7
:100AE00020E03B685A693B689B6813445A1E3B6888
:100AF0009B68B2FBF3F39BB2C3F309039AB27B8A00
:100B000062F3CC037B827B8AC3F3C9039BB21A4690
:100B10003B689B6803FB02F3C3F312023B6962F379
:100B200012033B613B681B787A6814339B001344C3
:100B30005B683A691A617B68DB78012B09D13B68F5
:100B40001B787A6814339B0013445B683A68126917
:100B50005A613B68DB78012B0CD13B685B79002B39
:100B600004D0FB7D43F02003FB7503E0FB7D43F0E5
:100B70001003FB75FB7D43F00403FB75FB7D43F025
:100B80008003FB753B681B787A6814339B00134421
:100B90005B687A691A60FB7F18462037BD4680BDC6
:100BA00080B489B000AF786039600023FB77002300
:100BB000BB6100233B610023BB603B685B78012B7A
:100BC00070D17B689B697B617B691B683B617B693A
:100BD0001B69BB603B685B69002B09D13B7A6FF3F3
:100BE00006033B72BB7A012262F3C403BB7223E0AB
:100BF0003B685A693B689B689A420ED93B689A6881
:100C00003B685A613B689B68DBB203F07F03DAB252
:100C10003B7A62F306033B7209E03B685B69DBB237
:100C200003F07F03DAB23B7A62F306033B72BB7ACE
:100C3000012262F3C403BB72BA687B691A617B68E4
:100C4000DB78012B09D13B681B787A6804339B0061
:100C500013449B683A6812695A61FB7C43F00403B1
:100C6000FB74FB7C43F08003FB743A697B691A6078
:100C70007B68DB78002B76D13B685B69002B72D0F8
:100C80003B681B781A46012393401A46BB691343FD
:100C9000BB617B681B697A681269516BBA690A4348
:100CA0005A6360E03B681B787A6814339B001344F6
:100CB0005B681B683B613B681B787A6814339B0058
:100CC00013445B681B69BB603B685B69002B0FD1F9
:100CD0003B689B68DBB203F07F03DAB23B7A62F3D6
:100CE00006033B72BB7A012262F3C403BB7212E0BB
:100CF0003B689A683B685A613B689B68DBB203F0CB
:100D00007F03DAB23B7A62F306033B72BB7A0122BD
:100D100062F3C403BB723B681B787A6814339B0090
:100D200013445B68BA681A617B68DB78012B09D1D0
:100D30003B681B787A6814339B0013445B683A68FD
:100D400012695A61FB7C43F00403FB74FB7C43F0A3
:100D50008003FB743B681B787A6814339B00134450
:100D60005B683A691A60FB7F18462437BD465DF818
:100D7000047B704780B487B000AF7860396000238F
:100D8000FB750023FB603B685B78012B1CD13B6843
:100D90001B787A6804339B0013449B683B613B6972
:100DA0001B68FB60FB7B23F07F03DBB2002B03D0CF
:100DB000FB7B43F04003FB73BB7B43F02003BB731F
:100DC000FA683B691A6011E03B681B787A68143353
:100DD0009B0013445B683B613B691B68FB60BB7B0A
:100DE00043F02003BB73FA683B691A60FB7D184629
:100DF0001C37BD465DF8047B704700BF80B487B0E8
:100E000000AF786039600023FB740023FB603B680F
:100E10005B78012B08D13B681B787A6804339B0010
:100E200013449B687B6107E03B681B787A68143346
:100E30009B0013445B687B617B691B68FB60BB7B29
:100E40006FF34513BB733B68DB78032B03D03B6820
:100E5000DB78022B03D1FB7B43F01003FB73FA68B2
:100E60007B691A60FB7C18461C37BD465DF8047B25
:100E7000704700BF80B485B000AF78607B681B69A5
:100E80009B69FB607B681B69DB69FA681340FB6048
:100E9000FB681B0C18461437BD465DF8047B704791
:100EA00080B485B000AF78600B46FB70FB787A6841
:100EB00014339B0013445B689B68FB607B681B6971
:100EC0005B69FA681340FB60FB6818461437BD463F
:100ED0005DF8047B704700BF80B485B000AF7860D8
:100EE0007B681B699B69FB607B681B69DB69FA682F
:100EF0001340FB60FB689BB218461437BD465DF893
:100F0000047B704780B487B000AF786000233B61FA
:100F1000FB7C43F0C003FB74BB7C012262F3C4037F
:100F2000BB743B7C182262F306033B747B685B6DE9
:100F30003A691A617B68DB78012B16D10023FB60CC
:100F40007B685B6D7A6802F5B9625A617B685B6D9C
:100F50001B68FB60FB7B43F08003FB734FF0802337
:100F6000FB607B685B6DFA681A601C37BD465DF8F4
:100F7000047B704780B485B000AF78607B689B7A53
:100F8000002B1BD07B681B699B68FB603B7B03F0DD
:100F90000103DBB2002B11D07B6803F586731B685D
:100FA000BB603B7A6FF341033B723B7A6FF3000304
:100FB0003B727B68D3F80C31BA681A601437BD46AF
:100FC0005DF8047B704700BF80B483B000AF7860E9
:100FD00039600C37BD465DF8047B704780B582B040
:100FE00000AF78607B68064A1A607B681033184649
:100FF00001F05EF87B6818460837BD4680BD00BF2B
:10100000B031020880B582B000AF786039607B688B
:101010001846FFF7E3FF7B68074A1A607B683A6867
:10102000C3F820217B680022C3F81C217B68184686
:101030000837BD4680BD00BF181F020880B582B0CA
:1010400000AF78600B46FB707B6803F11002FB7801
:101050001046194601F040F80346002B0CBF01234F
:101060000023DBB2002B0AD0FB780D2B13D17B6859
:10107000D3F81C315A1C7B68C3F81C210BE07B6839
:10108000D3F81C31002B06D1FB780D2B03D17B68E4
:101090000122C3F81C210837BD4680BD90B587B03A
:1010A00002AFF860B9607A603B60FB6801229A6029
:1010B0004FF4927016F024FF04462046F968FFF7BB
:1010C000A1FFFB685C60FB681B681C68FB685B68D1
:1010D0001A467B680093F868B9683B68A0470346E6
:1010E00018461437BD4690BD80B584B000AF786017
:1010F0007B681B680C331B68786898470346FB6065
:10110000FB68002B01D0FB6803E07B6801225A607A
:10111000002318461037BD4680BD00BF80B584B09F
:1011200000AF78607B681B6810331B68786898474D
:101130000346FB60FB68002B01D0FB6803E07B6883
:1011400002225A60002318461037BD4680BD00BFFA
:1011500080B584B000AF78607B681B6814331B686F
:10116000786898470346FB60FB68002B01D0FB685A
:1011700003E07B6803225A60002318461037BD46FF
:1011800080BD00BF80B584B000AF78607B681B680D
:1011900018331B68786898470346FB60FB68002B90
:1011A00001D0FB6803E07B6804225A6000231846E4
:1011B0001037BD4680BD00BF80B582B000AF7860FB
:1011C00039607B685B68002B00D125E07B685B6839
:1011D000022B07D17B681B6804331B687868396869
:1011E000984719E03B68012B06D17B681B682433C4
:1011F0001B68786898470FE03B68002B06D17B6836
:101200001B6828331B687868984705E07B681B6873
:101210001C331B68786898470837BD4680BD00BFFF
:1012200080B582B000AF78607B685B68002B01D12D
:10123000002311E07B685B68012B07D17B681B688A
:1012400008331B6878689847034605E07B681B688D
:101250001B6878689847034618460837BD4680BD26
:1012600080B582B000AF78607B681B682C331B6848
:101270007868012198470837BD4680BD80B582B0A7
:1012800000AF78607B681B682C331B68786800218E
:1012900098470837BD4680BD90B583B000AF7860F1
:1012A0007B681B682C331C687B681B6830331B68A9
:1012B000786898470346002B0CBF01230023DBB25C
:1012C00078681946A0470C37BD4690BD80B582B0FE
:1012D00000AF78607B681B681B6878689847034696
:1012E00018460837BD4680BD80B582B000AF786033
:1012F0007B681B6804331B68786898470346184668
:101300000837BD4680BD00BF80B584B000AFF8602F
:10131000B9607A60FB681B681B68F868B9687A680E
:101320009847034618461037BD4680BD80B582B049
:1013300000AF786039607B681B6804331B6878688D
:10134000396898470837BD4680BD00BF80B582B078
:1013500000AF78607B681B6808331B687868984723
:10136000034618460837BD4680BD00BF80B483B031
:1013700000AF78607B68044A1A607B6818460C37B7
:10138000BD465DF8047B7047D01E020880B483B070
:1013900000AF78607B68044A1A607B6818460C3797
:1013A000BD465DF8047B7047B01E020880B582B070
:1013B00000AF78607B681846FFF7D8FF7B6808337A
:1013C0001846FFF7E3FF7B68064A1A607B68064A07
:1013D0009A607B680022DA607B6818460837BD4651
:1013E00080BD00BFE02402083825020880B582B025
:1013F00000AF78607B681846FFF7B8FF7B6808335A
:101400001846FFF7C3FF7B68064A1A607B68064AE6
:101410009A607B680022DA607B6818460837BD4610
:1014200080BD00BF68240208C024020880B582B0D5
:1014300000AF78607B681846FFF798FF7B68083339
:101440001846FFF7A3FF7B68064A1A607B68064AC6
:101450009A607B680022DA607B6818460837BD46D0
:1014600080BD00BFF02302084824020880B483B086
:1014700000AF78607B68044A1A607B6818460C37B6
:10148000BD465DF8047B7047901E020880B582B0AF
:1014900000AF78607B681846FFF768FF7B68083309
:1014A0001846FFF7E3FF7B68064A1A607B68064A26
:1014B0009A607B680022DA607B6818460837BD4670
:1014C00080BD00BF002302085423020880B582B00B
:1014D00000AF78607B681846FFF748FF7B680833E9
:1014E0001846FFF7C3FF7B68064A1A607B68064A06
:1014F0009A607B680022DA607B6818460837BD4630
:1015000080BD00BF88220208DC22020880B582B0BC
:1015100000AF78607B681846FFF728FF7B680833C8
:101520001846FFF7A3FF7B68064A1A607B68064AE5
:101530009A607B680022DA607B6818460837BD46EF
:1015400080BD00BF102202086422020880B582B06C
:1015500000AF78607B681846FFF708FF7B680833A8
:101560001846FFF783FF7B68064A1A607B68064AC5
:101570009A607B680022DA607B6818460837BD46AF
:1015800080BD00BF98210208EC21020880B483B01E
:1015900000AF78607B68044A1A607B6818460C3795
:1015A000BD465DF8047B70478031020880B582B08B
:1015B00000AF78607B681846FFF7E8FF7B68034A56
:1015C0001A607B6818460837BD4680BD482002086F
:1015D00080B582B000AF78607B681846FFF7C6FE22
:1015E0007B68034A1A607B6818460837BD4680BD91
:1015F000802A020880B582B000AF78607B68184608
:10160000FFF7B4FE7B68034A1A607B681846083708
:10161000BD4680BD382A020880B582B000AF786030
:101620007B681846FFF7A2FE7B68034A1A607B6856
:1016300018460837BD4680BDF029020880B582B043
:1016400000AF78607B681846FFF790FE7B68034A1E
:101650001A607B6818460837BD4680BDA02802087E
:1016600080B582B000AF78607B681846FFF77EFED9
:101670007B68034A1A607B6818460837BD4680BD00
:101680001028020880B582B000AF78607B681846E9
:10169000FFF76CFE7B68034A1A607B6818460837C0
:1016A000BD4680BD8027020880B582B000AF78605B
:1016B0007B681846FFF75AFE7B68034A1A607B680E
:1016C00018460837BD4680BDF026020880B582B0B6
:1016D00000AF78607B681846FFF748FE7B68034AD6
:1016E0001A607B6818460837BD4680BDE8280208A6
:1016F00080B582B000AF78607B681846FFF736FE91
:101700007B68034A1A607B6818460837BD4680BD6F
:101710005828020880B582B000AF78607B68184610
:10172000FFF724FE7B68034A1A607B681846083777
:10173000BD4680BDC827020880B582B000AF786082
:101740007B681846FFF712FE7B68034A1A607B68C5
:1017500018460837BD4680BD3827020880B582B0DC
:1017600000AF78607B681846FFF700FE7B6808339F
:101770001846FFF77BFE7B68044A1A607B68044AC0
:101780009A607B6818460837BD4680BD302902083C
:1017900084290208B0B582B000AF78607B6800226F
:1017A0001A607B68BB4A5A607B6800229A607B683B
:1017B0000022DA607B6800221A617B6800225A618D
:1017C0007B6801229A617B680022DA617B680022D3
:1017D0001A627B6800225A627B684FF00002DA626C
:1017E0007B68AD4A9A647B680122DA647B68503377
:1017F00000221A60043300221A60043300221A60A7
:10180000043300221A60043300221A6004330022D9
:101810001A60043300221A60043300221A60043371
:1018200000221A60043300221A6004337B689B4A4A
:101830005A667B689A4A9A667B68994ADA667B6838
:10184000783300221A60043300221A600433002225
:101850001A60043300221A60043300221A60043331
:1018600000221A60043300221A60043300221A6036
:10187000043300221A60043300221A6004337B68A8
:10188000884A9A677B68884AC3F884207B68864ABE
:10189000C3F88C207B68844AC3F890207B68834A15
:1018A00003F1A00415460FCD0FC40FCD0FC495E86A
:1018B000030084E803007B687D4A03F1C8041546F1
:1018C0000FCD0FC40FCD0FC495E8030084E80300CB
:1018D0007B68774A03F1F00415460FCD0FC40FCD96
:1018E0000FC495E8030084E803007B68714A03F5A0
:1018F0008C7415460FCD0FC40FCD0FC495E80300AF
:1019000084E803007B686C4A03F5A07415460FCD8C
:101910000FC40FCD0FC495E8030084E803007B6873
:10192000634A03F5B47415460FCD0FC40FCD0FC431
:1019300095E8030084E803007B680022C3F8902147
:101940007B680122C3F894217B680022C3F89821A8
:101950007B680022C3F89C217B684FF00002C3F82B
:10196000A0217B684FF00002C3F8A4217B684FF0F0
:101970000002C3F8A8217B684FF00002C3F8AC2135
:101980007B684FF00002C3F8B0217B680022C3F8E7
:10199000B4217B680022C3F8B8217B680022C3F819
:1019A000BC217B680022C3F8C0217B680022C3F8F9
:1019B000C4217B6803F5E4731846FFF7F7FD7B68E5
:1019C00003F5EA731846FFF703FE7B6803F5EE7331
:1019D0001846FFF70FFE7B6803F5F2731846FFF712
:1019E0001BFE7B6803F5F6731846FFF727FE7B683E
:1019F00003F5FA731846FFF733FE7B6803F5FE73B1
:101A00001846FFF73FFE7B6803F501731846FFF7A2
:101A10004BFE7B6803F503731846FFF757FE7B68A0
:101A200003F505731846FFF763FE7B6803F507733C
:101A30001846FFF76FFE7B6803F509731846FFF73A
:101A40007BFE7B6803F50B731846FFF71FFD7B6871
:101A500003F50F731846FFF739FD7B6803F5137321
:101A60001846FFF753FD7B6803F517731846FFF719
:101A70006DFD7B6803F51B731846FFF797FC7B68C9
:101A800003F51F731846FFF7B1FC7B6803F523735A
:101A900014E000BF00F2052A286BEE4D00007A43E7
:101AA00000007AC30000FA440000FA43C01D020897
:101AB000E81D0208101E0208381E02081846FFF72B
:101AC000B5FC7B6803F527731846FFF747FE7B6874
:101AD00003F5E47318464FF4E13100220823FFF7C1
:101AE000DDFA7B6803F5EA731846FFF7FDFA7B68B9
:101AF00003F5EE731846FFF7F7FA7B6803F5F27308
:101B00001846FFF7F1FA7B6803F5F6731846FFF7FE
:101B100005FB7B6803F5FA731846FFF7FFFA7B684D
:101B200003F5FE731846FFF7F9FA7B6803F50373B4
:101B30001846FFF7F3FA7B6803F505731846FFF7BD
:101B4000EDFA7B6803F507731846FFF7E7FA7B6841
:101B500003F50D7318461E494FF07E52FFF7D4FB74
:101B60007B6803F51173184619494FF07E52FFF751
:101B7000CBFB7B6803F51573184615494FF07E5271
:101B8000FFF7C2FB7B6803F51973184610494FF045
:101B90007E52FFF7B9FB7B6803F51F731846FFF70A
:101BA000A3FA7B6803F523731846FFF79DFA7B6859
:101BB00003F51B731846FFF797FA7B6803F5277345
:101BC0001846FFF7ABFA7B6818460837BD46B0BD2C
:101BD0000050C34790B583B000AF78607B6803F5D1
:101BE000EA731846FFF71CFB0346002B06D17B68FF
:101BF000D3F8B431012B01D0012300E00023002BE6
:101C000016D07B680122C3F8B42101F059FC0246CA
:101C10000B46104619460EF0EFFB02467B68C3F8F0
:101C2000AC217B6803F527731846FFF719FB72E0B8
:101C30007B6803F5EE731846FFF7F2FA0346002BB4
:101C400006D17B68D3F8B431022B01D0012300E028
:101C50000023002B16D07B680222C3F8B42101F0C8
:101C60002FFC02460B46104619460EF0C5FB0246F5
:101C70007B68C3F8AC217B6803F527731846FFF730
:101C8000EFFA48E07B6803F5F2731846FFF7C8FAED
:101C90000346002B06D17B68D3F8B431002B01D06A
:101CA000012300E00023002B35D07B680022C3F81D
:101CB000B4217B6803F5197318464FF07E51FFF786
:101CC00035FB7B6803F50D7318464FF07E51FFF727
:101CD0002DFB7B6803F5117318464FF07E51FFF71B
:101CE00025FB7B6803F5157318464FF07E51FFF70F
:101CF0001DFB01F0E5FB02460B46104619460EF0AF
:101D00007BFB02467B68C3F8AC217B6803F5277335
:101D10001846FFF7A5FA01F0D3FB02460B46104622
:101D200019460EF069FB02467B68D3F8AC311046C9
:101D300019460EF095FA03461A4601231C46104632
:101D400009490EF049FD0346002B01D100231C4632
:101D5000E3B2002B05D07B6803F527731846FFF725
:101D60008DFA0C37BD4690BD0000FA4380B582B0B5
:101D700000AF786039600D4839680EF071FA03469B
:101D800023F0004318464FF07E510EF01BFD034632
:101D9000002B07D07B68D3F890217B683C3201216F
:101DA00043F822100837BD4680BD00BF0000B44292
:101DB00080B582B000AF78607B6800225A627B6891
:101DC00000221A627B6803F523731846FFF728FA8E
:101DD0000346012B0CBF01230023DBB2002B02D0F2
:101DE0007B6801225A627B6803F51B731846FFF774
:101DF00017FA0346012B0CBF01230023DBB2002B93
:101E000002D07B6801221A627B689A697B685B6AF0
:101E10009A421BD07B68DA697B681B6A9A4215D0AC
:101E20007B681A6A7B68DA617B685A6A7B689A61A8
:101E300001F046FB02460B46104619460EF0DCFA4E
:101E400002467B689A647B680022DA6401F038FB02
:101E500002460B46104619460EF0CEFA02467B6843
:101E60009B6C104619460EF0FBF9034618462149B3
:101E70000EF0B2FC0346002B05D07B68DB6C002B18
:101E800001D1012300E00023002B12D07B68D3F89E
:101E900090217B684632002143F822107B68D3F8FA
:101EA00090217B683232012143F822107B680122A5
:101EB000DA647B68D3F890217B68463253F822209D
:101EC0007B68C3F8BC217B68D3F890217B685032D3
:101ED00053F822207B68C3F8C0217B68D3F8902197
:101EE0007B685A3253F822207B68C3F8C421083734
:101EF000BD4680BD00007A44B0B584B000AFF86044
:101F0000B9607A60FB68D3F89021FB68143253F80B
:101F100022301846B9680EF0A3F903461A46FB684A
:101F2000C3F8A421FB68D3F89021FB681E3253F854
:101F30002230184679680EF093F903461A46FB687A
:101F4000C3F8A821FB68D3F8A43118460DF0FEFDB4
:101F500004460D46FB68D3F8A83118460DF0F6FD8F
:101F600002460B46204629460AF0DCFF02460B4695
:101F7000104619460EF020F90246FB68DA62FB684B
:101F8000DB6A18464FF000010EF008FC0346002BF8
:101F900000D029E0FB68DB6A184615490EF012FCF8
:101FA0000346002B0FD001F08BFAFB681B681A4622
:101FB0004FEAE273821A61EB0303C82A73F100034C
:101FC00001DB012300E00023002B0CD0FB68D3F8D9
:101FD00090315A1CFB68C3F8902101F071FA024657
:101FE0000B46FB681A6000BF1037BD46B0BD00BF8E
:101FF000000020412DE9F04F95B00CAFF861B961B8
:102000007A613B61FB6903F523731846FFF708F912
:10201000034618460EF0DAF90246FB69C3F8B02110
:10202000FB6903F5E476BB691B6818460DF08EFD6D
:10203000C7E902017B691B6818460DF087FD04465D
:102040000D463B691B6818460DF080FD82468B46A5
:10205000BB6C1B6818460DF079FD80468946FB6C09
:102060001B6818460DF072FDC7E900013B6D1B6847
:1020700018460DF06BFDFB69D3F89031CDE90045B2
:10208000CDE902ABCDE90489D7E90045CDE90645A4
:10209000CDE908010A9330460449D7E902230AF042
:1020A0007FF800BF2437BD46BDE8F08F601E0208F0
:1020B00080B483B000AF78607B680022C3F804214D
:1020C0007B680022C3F808217B6818460C37BD46A0
:1020D0005DF8047B704700BF80B485B000AF7860C6
:1020E0000B46FB707B68D3F808315A1C114B83FBFD
:1020F0000213D911D317C91A0B461B020B44D31A6A
:10210000FB607B68D3F80421FB689A4201D101236C
:102110000AE07B68D3F808317A68F978D1547B6893
:10212000FA68C3F80821002318461437BD465DF845
:10213000047B7047817F807F80B584B000AF3960B9
:1021400011461A460346FB710B46BB801346BB7112
:102150003B68254A934204D10120012105F000FC8F
:1021600022E03B68214A934204D10220012105F07C
:10217000F7FB19E03B681E4A934204D10420012179
:1021800005F0EEFB10E03B681A4A934204D10820A8
:10219000012105F0E5FB07E03B68174A934203D1B4
:1021A0001020012105F0DCFB07F10803184607F0B9
:1021B0001BF9BB88BB60FB793B733B7EBB73BB7970
:1021C000FB7303237B7307F108033868194607F094
:1021D0007DF8FB79012B04D1BB883868194607F0DC
:1021E0005FF91037BD4680BD000002400004024088
:1021F00000080240000C02400010024080B483B08E
:1022000000AF78600B46FB70FB78002B06D00949C5
:10221000084BDA6B7B681343CB6306E00549054B3B
:10222000DA6B7B68DB431340CB630C37BD465DF84C
:10223000047B7047002C014080B485B000AF78600B
:102240000023FB73084B5A6B7B681340002B02D0B2
:102250000123FB7301E00023FB73FB7B184614375B
:10226000BD465DF8047B7047002C014080B483B00C
:1022700000AF7860034A7B6893630C37BD465DF816
:10228000047B7047002C014080B500AF0E4B1B88CB
:102290009BB21B099BB2002B05D00C4B1B68013B6A
:1022A0000A4A13600BE0084B1B889BB21B099BB2C8
:1022B000002B04D1054B1B680133044A136002480C
:1022C00001210AF045FD80BD000001402C090020DD
:1022D00080B500AF4FF080431B889BB21B099BB2B7
:1022E000002B05D00C4B1B68013B0B4A13600CE024
:1022F0004FF080431B889BB21B099BB2002B04D17B
:10230000054B1B680133044A13604FF080400121E4
:102310000AF01EFD80BD00BF3009002080B500AF6F
:102320000E4B1B889BB21B099BB2002B05D00C4B9C
:102330001B68013B0A4A13600BE0084B1B889BB2E9
:102340001B099BB2002B04D1054B1B680133044AC7
:102350001360024801210AF0FBFC80BD000400402C
:102360003409002080B500AF0E4B1B889BB21B09BF
:102370009BB2002B05D00C4B1B68013B0A4A136033
:102380000BE0084B1B889BB21B099BB2002B04D1AE
:10239000054B1B680133044A1360024801210AF00F
:1023A000D7FC80BD000800403809002080B500AF90
:1023B0000E4B1B889BB21B099BB2002B05D00C4B0C
:1023C0001B68013B0A4A13600BE0084B1B889BB259
:1023D0001B099BB2002B04D1054B1B680133044A37
:1023E0001360024801210AF0B3FC80BD000C0040DC
:1023F0003C09002080B500AF0E4B1B889BB21B0927
:102400009BB2002B05D00C4B1B68013B0A4A1360A2
:102410000BE0084B1B889BB21B099BB2002B04D11D
:10242000054B1B680133044A1360024801210AF07E
:102430008FFC80BD000401404009002080B500AF42
:102440000E4B1B889BB21B099BB2002B05D00C4B7B
:102450001B68013B0A4A13600BE0084B1B889BB2C8
:102460001B099BB2002B04D1054B1B680133044AA6
:102470001360024801210AF06BFC80BD0018004087
:102480004409002080B500AF04480AF023F9024651
:10249000034B1B681B041344184680BD0000014019
:1024A0002C09002080B500AF4FF080400AF012F9EF
:1024B0000246034B1B681B041344184680BD00BF33
:1024C0003009002080B500AF04480AF003F9024645
:1024D000034B1B681B041344184680BD00040040D6
:1024E0003409002080B500AF04480AF0F3F8024632
:1024F000034B1B681B041344184680BD00080040B2
:102500003809002080B500AF04480AF0E3F802461D
:10251000034B1B681B041344184680BD000C00408D
:102520003C09002080B500AF04480AF0D3F8024609
:10253000034B1B681B041344184680BD0004014074
:102540004009002080B500AF04480AF0C3F80246F5
:10255000034B1B681B041344184680BD0018004041
:102560004409002090B59DB002AFF860B9601346F1
:10257000FB800023A7F866300023A7F86430F868D2
:1025800009F078F9FA88002300930220B968012342
:10259000FFF7D2FDFA8807F120031046194608F02C
:1025A000E7FF0023A7F8663025E0B7F866305B0048
:1025B00007F16802134433F8483C012B16D1B7F8F1
:1025C000663010335B0007F16802134433F8463C71
:1025D000184609F0D3FA03469CB2F86809F044FBA8
:1025E0000346B86821461A4606F068FFB7F8663019
:1025F0000133A7F86630B7F866300F2BD5D91D4BDD
:102600001B681D4AA2FB03235B0E9BB2013BA7F88C
:1026100064304FF6FE73BB610023BB820023BB8393
:102620000023FB8207F11403F868194609F0C6FF7E
:10263000B7F86430F868194601220AF029F8F868FA
:102640000321002200230AF093FBF86801210122F4
:102650000AF05AFBF86801210AF068F8F86809F0F6
:10266000BFF80346184609F073FA00F055F86C37C6
:10267000BD4690BD4000002029D9426680B582B099
:1026800000AF78607B681E4A934203D1FFF7FAFEE1
:10269000034630E07B68B3F1804F03D1FFF702FFC0
:1026A000034628E07B68174A934203D1FFF70AFFED
:1026B000034620E07B68144A934203D1FFF712FFE0
:1026C000034618E07B68114A934203D1FFF71AFFD3
:1026D000034610E07B680E4A934203D1FFF722FFC6
:1026E000034608E07B680B4A934203D1FFF72AFFB9
:1026F000034600E0002318460837BD4680BD00BFF2
:10270000000001400004004000080040000C0040B0
:10271000000401400018004080B500AF194B0022B2
:102720001A60194B00221A60184B00221A60184BCD
:1027300000221A60174B00221A60174B00221A6001
:10274000164B00221A601648002109F0B5FF4FF021
:102750008040002109F0B0FF1248002109F0ACFFD1
:102760001148002109F0A8FF1048002109F0A4FF3A
:102770000F48002109F0A0FF0E48002109F09CFF3E
:1027800080BD00BF2C090020300900203409002042
:10279000380900203C09002040090020440900209D
:1027A000000001400004004000080040000C004010
:1027B000000401400018004080B500AF014808F057
:1027C00099F980BDD012002080B500AF094B9B7AEB
:1027D000002B0AD0084A084B1B6823F0060313603D
:1027E00006F0B4FE0348FEF7C5FB4FF4802008F066
:1027F000B1FE80BDD012002010ED00E080B58AB09F
:1028000000AF7860396000237B6200233B620023C5
:10281000FB610023BB617B681B8A9BB27B627B6A86
:1028200023F440537B623B68DB881A467B6A134380
:102830007B627B6A9AB27B681A827B689B899BB2B7
:102840007B627B6A23F4B05323F00C037B623B680A
:102850009A883B681B8913439AB23B685B89134390
:102860009BB21A467B6A13437B627B6A9AB27B688F
:102870009A817B689B8A9BB27B627B6A23F440735C
:102880007B623B689B891A467B6A13437B627B6A47
:102890009AB27B689A8207F10803184604F0B6FFE3
:1028A0007B68314A934203D07B68304A934202D11D
:1028B0007B693B6201E03B693B627B689B899BB221
:1028C0009BB21BB2002B0CDA3A6A13469B001344EE
:1028D0009A001A443B681B685B00B2FBF3F3FB6190
:1028E0000BE03A6A13469B0013449A001A443B6873
:1028F0001B689B00B2FBF3F3FB61FB691C4AA2FB64
:1029000003235B091B017B627B6A1B09642202FBB8
:1029100003F3FA69D31ABB617B689B899BB29BB2B4
:102920001BB2002B0CDABB69DB003233104AA2FB6E
:1029300003235B0903F007037A6A13437B620BE00E
:10294000BB691B0132330A4AA2FB03235B0903F074
:102950000F037A6A13437B627B6A9AB27B681A819F
:102960002837BD4680BD00BF001001400014014063
:102970001F85EB5180B483B000AF78600B46FB70CD
:10298000FB78002B08D07B689B899BB243F40053F3
:102990009AB27B689A8107E07B689B899BB223F49B
:1029A00000539AB27B689A810C37BD465DF8047B70
:1029B000704700BF80B483B000AF78600B467B8067
:1029C0007B88C3F308039AB27B689A800C37BD46B4
:1029D0005DF8047B704700BF80B483B000AF7860BF
:1029E0007B689B889BB2C3F308039BB218460C37E5
:1029F000BD465DF8047B704780B487B000AF786057
:102A00000B467B8013467B7000233B610023FB60F9
:102A10000023BB6000237B617B687B617B88DBB22A
:102A20005B09DBB23B617B8803F01F03FB60FB6843
:102A3000012202FA03F3BB603B69012B03D17B69DE
:102A40000C337B6109E03B69022B03D17B691033B6
:102A50007B6102E07B6914337B617B78002B06D0BD
:102A60007B697A691168BA680A431A6006E07B6973
:102A70007A691168BA68D2430A401A601C37BD46A9
:102A80005DF8047B704700BF80B485B000AF78600C
:102A90000B467B800023FB737B681B889AB27B8884
:102AA00013409BB2002B02D00123FB7301E00023F3
:102AB000FB73FB7B18461437BD465DF8047B7047FB
:102AC00080B485B000AF78607B681B783B737B680F
:102AD0005B787B737B689B78BB737B68DB78FB736D
:102AE000FB6818461437BD465DF8047B704700BF8D
:102AF00080B485B000AF78600B467B807B88BB815B
:102B00003A7B7B681A707B6801337A7B1A701437C2
:102B1000BD465DF8047B704780B582B000AF786039
:102B20007B680D4A93420AD14FF00070012104F0F6
:102B300071FF4FF00070002104F06CFF09E04FF0CE
:102B40008060012104F066FF4FF08060002104F0F6
:102B500061FF0837BD4680BD0064004080B485B089
:102B600000AF786039600023FB730023BB607B6893
:102B70001B6823F002027B681A607B681B6843F0C5
:102B800001027B681A6002E0BB680133BB607B68AE
:102B90005B6803F00103002B04D1BB684FF6FF72A2
:102BA0009342F1D17B685B6803F00103002B02D1F3
:102BB0000023FB739CE03B689B79012B06D17B686B
:102BC0001B6843F080027B681A6005E07B681B6825
:102BD00023F080027B681A603B68DB79012B06D109
:102BE0007B681B6843F040027B681A6005E07B68E5
:102BF0001B6823F040027B681A603B681B7A012B3C
:102C000006D17B681B6843F020027B681A6005E0F0
:102C10007B681B6823F020027B681A603B685B7A44
:102C2000012B06D17B681B6843F010027B681A6099
:102C300005E07B681B6823F010027B681A603B6824
:102C40009B7A012B06D17B681B6843F008027B68E6
:102C50001A6005E07B681B6823F008027B681A6035
:102C60003B68DB7A012B06D17B681B6843F00402CA
:102C70007B681A6005E07B681B6823F004027B68B0
:102C80001A603B689B789A073B68DB781B061A43FF
:102C90003B681B791B041A433B685B791B051A438D
:102CA0003B681B88013B1A437B68DA617B681B68C1
:102CB00023F001027B681A600023BB6002E0BB685E
:102CC0000133BB607B685B6803F00103002B04D019
:102CD000BB684FF6FF729342F1D17B685B6803F0EB
:102CE0000103002B02D00023FB7301E00123FB73DF
:102CF000FB7B18461437BD465DF8047B704700BF68
:102D000080B485B000AF78600023FB607B689B7A5D
:102D10001A4601239340FB60554A554BD3F80032C5
:102D200043F00103C2F800325149514BD3F81C2241
:102D3000FB68DB431340C1F81C327B681B7B002B14
:102D400025D14B494A4BD3F80C22FB68DB43134097
:102D5000C1F80C3246497B689B7A18467B68DB8851
:102D60001B047A6852881A4300F1480341F8332063
:102D70003F497B689B7A18467B689B881B047A686E
:102D800012881A4300F14803DB000B445A607B6849
:102D90001B7B012B24D13649354BD3F80C22FB6821
:102DA0001343C1F80C3232497B689B7A18467B6822
:102DB0001B881B047A6852881A4300F1480341F8C3
:102DC00033202B497B689B7A18467B689B881B04C1
:102DD0007A68D2881A4300F14803DB000B445A603A
:102DE0007B68DB7A002B09D12149214BD3F80422DF
:102DF000FB68DB431340C1F8043207E01C491C4B5D
:102E0000D3F80422FB681343C1F804327B681B89A2
:102E1000002B08D11649164BD3F81422FB68DB436C
:102E20001340C1F814327B681B89012B07D110496C
:102E30000F4BD3F81422FB681343C1F814327B689C
:102E40005B7B012B07D10A49094BD3F81C22FB6895
:102E50001343C1F81C32064A054BD3F8003223F065
:102E60000103C2F800321437BD465DF8047B704799
:102E70000064004080B483B000AF78607B680022BB
:102E80009A717B680022DA717B6800221A727B6873
:102E900000225A727B6800229A727B680022DA72E2
:102EA0007B6800229A707B680022DA707B680322BC
:102EB0001A717B6802225A717B6801221A800C37D2
:102EC000BD465DF8047B704780B485B000AF786084
:102ED00039600023FB737B689B6803F08063002BE1
:102EE00002D00023FB7313E07B689B6803F0006350
:102EF000002B02D00123FB730AE07B689B6803F080
:102F00008053002B02D00223FB7301E00423FB73E8
:102F1000FB7B042B00F09880FB7BFA7B79681832EE
:102F200012010A44126802F00102796818331B0189
:102F30000B441A603B681B7A002B13D1FB7BFA7B96
:102F40007968183212010A4411683A681268520509
:102F50003868407A02430A43796818331B010B44EE
:102F60001A6015E0FB7BFA7B7968183212010A447B
:102F700011683A685268D2003868007A02433868AB
:102F8000407A02430A43796818331B010B441A60E4
:102F90003B689B7A03F00F03DAB23B689A72FB7BC3
:102FA000FA7B7968183212010A44526822F00F0243
:102FB000796818331B010B445A60FB7BFA7B7968F4
:102FC000183212010A4452683968897A0A437968CA
:102FD00018331B010B445A60FB7B3A68927B110645
:102FE0003A68527B120411433A68127B12020A4378
:102FF0003968C97A0A4379681B010B4403F5C47325
:103000001A60FB7B3A68927C11063A68527C120483
:1030100011433A68127C12020A433968C97B0A4399
:1030200079681B010B4403F5C4735A60FB7BFA7B80
:103030007968183212010A44126842F00102796874
:1030400018331B010B441A60FB7B18461437BD462E
:103050005DF8047B704700BF80B485B000AF786036
:103060000B46FB700023FB60FB78012B09D0022B81
:103070000DD0002B11D17B689A68264B1340FB6062
:103080000EE07B689A68244B1340FB6008E07B6885
:103090009A68224B1340FB6002E00023FB6000BFF4
:1030A000FB681F4A93421BD01D4A934208D81D4A11
:1030B000934212D0174A934218D0002B0AD01EE038
:1030C000194A93420FD0154A934215D0124A93429F
:1030D0000FD014E00223FB6014E00023FB6011E03A
:1030E0000023FB600EE00023FB600BE00123FB608C
:1030F00008E00123FB6005E00123FB6002E0002300
:10310000FB6000BFFB68DBB218461437BD465DF8B4
:10311000047B704703000004000300080000031054
:1031200000010008010000040000011080B485B017
:1031300000AFF8600B467A60FB72FB7AFA681B33CB
:103140001B0113441B68DBB203F00403DAB27B6893
:103150001A727B681B7A002B09D1FB7AFA681B3341
:103160001B0113441B685A0D7B681A6008E0FB7A48
:10317000FA681B331B0113441B68DA087B685A602A
:10318000FB7AFA681B331B0113441B68DBB203F0A4
:103190000203DAB27B685A72FB7AFA681B331B01AE
:1031A00013445B68DBB203F00F03DAB27B689A72F8
:1031B000FB7AFA681B331B0113445B681B0ADAB203
:1031C0007B68DA74FB7AFA681B01134403F5DC733D
:1031D0001B68DAB27B68DA72FB7AFA681B01134467
:1031E00003F5DC731B681B0ADAB27B681A73FB7A7F
:1031F000FA681B01134403F5DC731B681B0CDAB27D
:103200007B685A73FB7AFA681B01134403F5DC737D
:103210001B681B0EDAB27B689A73FB7AFA681B0193
:10322000134403F5DC735B68DAB27B68DA73FB7A0C
:10323000FA681B01134403F5DC735B681B0ADAB2FE
:103240007B681A74FB7AFA681B01134403F5DC737C
:103250005B681B0CDAB27B685A74FB7AFA681B0154
:10326000134403F5DC735B681B0EDAB27B689A7457
:10327000FB7A002B06D1FB68DB6843F02002FB6879
:10328000DA6005E0FB681B6943F02002FB681A6105
:103290001437BD465DF8047B704700BF80B485B02D
:1032A00000AFF860B9601346FB71FB79002B06D0C4
:1032B000FB685A69BB681A43FB685A6106E0FB6801
:1032C0005A69BB68DB431A40FB685A611437BD4634
:1032D0005DF8047B704700BF80B584B000AF7860B4
:1032E00039600023FB737B685A693B681340002BED
:1032F00000F0B2803B68402B62D0402B0FD8042BEB
:103300003AD0042B04D8012B24D0022B2BD09FE0E1
:10331000102B43D0202B4AD0082B36D098E0B3F5A1
:10332000006F00F08380B3F5006F09D8B3F5007F1C
:103330006AD0B3F5806F70D0B3F5807F5BD087E043
:10334000B3F5803F45D0B3F5003F4BD0B3F5004F08
:1033500075D07DE07B689B681846434900F086F88D
:103360000346FB7377E07B68DB681846032100F0B7
:103370007DF80346FB736EE07B68DB681846082126
:1033800000F074F80346FB7365E07B68DB68184661
:10339000102100F06BF80346FB735CE07B681B694F
:1033A0001846032100F062F80346FB7353E07B6884
:1033B0001B691846082100F059F80346FB734AE0E0
:1033C0007B681B691846102100F050F80346FB7318
:1033D00041E07B685B681846082100F047F8034627
:1033E000FB7338E07B685B681846102100F03EF8FC
:1033F0000346FB732FE07B689B691846012100F0B0
:1034000035F80346FB7326E07B689B69184602216A
:1034100000F02CF80346FB731DE07B689B6918469F
:10342000042100F023F80346FB7314E07B689B69DA
:103430001846702100F01AF80346FB730BE07B6816
:103440005B681846042100F011F80346FB7302E0A4
:103450000023FB7300BF01E00023FB73FB7B1846D6
:103460001037BD4680BD00BF0101010080B485B0AA
:1034700000AF786039600023FB737A683B681340C3
:10348000002B02D00123FB7301E00023FB73FB7BC5
:1034900018461437BD465DF8047B704780B400AF12
:1034A000064BD3E90023013243F100030349C1E98C
:1034B0000023BD465DF8047B704700BF480900202B
:1034C00080B500AF00F010F802460B4610461946D2
:1034D0004FF47A724FF000030DF0D8F902460B4614
:1034E0001046194680BD00BF80B400AF094BD3E938
:1034F0000023921843EB0303990041EA9271900074
:10350000121843EB010310461946BD465DF8047BD3
:10351000704700BF4809002080B500AF014805F0A2
:103520002BFE80BDACC5273780B58AB002AFF860EE
:103530007A601A460B46FB7213463B8107F114036F
:103540001846FFF797FCFB68012B08D14E48FFF7A0
:10355000E3FA4FF00070012104F020FA0AE0FB6862
:10356000022B07D14948FFF7D7FA4FF080600121BD
:1035700004F014FA3A8900230093022079680123A9
:10358000FEF7DAFDBA8D002300930220B96A012309
:10359000FEF7D2FDFB68012B16D13B89184608F0D7
:1035A000EDFA03469BB278681946092205F086FFBA
:1035B000BB8D184608F0E2FA03469BB2B86A19467A
:1035C000092205F07BFF18E0FB68022B15D13B892F
:1035D000184608F0D3FA03469BB2786819460922C8
:1035E00005F06CFFBB8D184608F0C8FA03469BB285
:1035F000B86A1946092205F061FF0123BB76002352
:10360000FB7600233B7700237B770023BB770023E7
:10361000FB77FB7ABB750023FB7505233B760623FE
:103620007B760323BB82FB68012B06D107F11403D1
:1036300015481946FFF792FA08E0FB68022B05D1FE
:1036400007F1140311481946FFF788FA4FF4E060B8
:1036500008F066FBFB68012B08D1142008F078FA0B
:10366000094802210122FFF719FE0AE0FB68022B3C
:1036700007D1402008F06CFA044802210122FFF72C
:103680000DFE2037BD4680BD00640040006800404C
:1036900080B586B000AF7860084611461A460346EA
:1036A000FB700B463B801346BB700023FB8200235C
:1036B000FB8210E0FB8ADBB2BB7400233B82002359
:1036C0007B7507F108031846FFF71AFBFB8A9BB2CC
:1036D00001339BB2FB82B7F916300D2BEADD7B6814
:1036E000DBB2BB7400233B8201237B75FB78002B8C
:1036F00002D10023FB7404E0FB78012B01D10123EC
:10370000FB7400233B75B7F900305B019AB2BB78BC
:103710001B019BB213439BB29BB27B81B7F9203054
:103720005B019AB297F824301B019BB213439BB202
:103730009BB2FB81B7F928305B019AB297F82C3025
:103740001B019BB213439BB29BB23B81B7F9303054
:103750005B019AB297F834301B019BB213439BB2C2
:103760009BB2BB8107F108031846FFF7C9FA183767
:10377000BD4680BD80B582B000AF786007487968EB
:10378000FFF7A2FB00BF05480021FFF765FC0346D9
:10379000012BF8D10837BD4680BD00BF0064004052
:1037A00080B582B000AF104B7B60104B3B6007E0F0
:1037B0003B681A1D3A607A68111D796012681A60B8
:1037C0003B680B4A9342F3D30A480B494FF000027F
:1037D0008842B8BF40F8042BFADB04F057F903F035
:1037E0002BFE0837BD4680BD106702080000002090
:1037F0000C09002010090020C418002080B400AF7C
:10380000FEE700BF80B584B000AF786007F1080321
:103810007868194607F002F93B7A03F01F03012B81
:103820000AD0022B0FD0002B14D107F108037868BF
:10383000194606F01DFD16E007F1080378681946E1
:1038400006F066FD0FE007F108037868194606F0F8
:1038500093FD08E03B7A23F07F03DBB278681946DA
:1038600008F0A2FB00BF002318461037BD4680BDFC
:1038700080B584B000AF78600B46FB70FB78002BFE
:1038800044D17B6803F55C73FB607B6893F811316E
:10389000032B4ED1FB68DA69FB689B689A4220D9FA
:1038A000FB68DA69FB689B68D21AFB68DA617B689F
:1038B000DB78012B06D1FB68DA68FB689B681A4449
:1038C000FB68DA60FB68D968FB689A68FB68DB69AB
:1038D000934228BF13469BB278681A4608F0BCFD95
:1038E00027E07B68D3F8E0351B69002B0AD07B68A2
:1038F00093F81231032B05D17B68D3F8E0351B69AF
:1039000078689847786808F0BBFD12E07B68D3F8C8
:10391000E0359B69002B0CD07B6893F81231032BA8
:1039200007D17B68D3F8E0359B69FA78786811464F
:103930009847002318461037BD4680BD80B584B037
:1039400000AF78600B46FB70FB78002B60D17B6882
:1039500003F58C73FB607B6893F81131022B6AD1FD
:10396000FB68DA69FB689B689A421CD9FB68DA69D4
:10397000FB689B68D21AFB68DA617B68DB78012BF5
:1039800006D1FB68DA68FB689B681A44FB68DA605A
:10399000FB68DA68FB68DB699BB2786811461A46F7
:1039A00008F046FD47E0FB681B6AFA689268B3FBC3
:1039B000F2F102FB01F29B1A002B14D1FB681A6A88
:1039C000FB689B689A420ED3FB681A6AFB685B6AC5
:1039D0009A4208D278680021002208F029FDFB688D
:1039E00000225A6227E07B68D3F8E035DB68002BC1
:1039F0000AD07B6893F81231032B05D17B68D3F88A
:103A0000E035DB6878689847786808F051FD12E087
:103A10007B68D3F8E0355B69002B0CD07B6893F8AA
:103A20001231032B07D17B68D3F8E0355B69FA7854
:103A3000786811469847002318461037BD4680BD68
:103A400080B582B000AF7860786800214022002302
:103A500008F0D8F9786880214022002308F0D2F9D4
:103A60007B68012283F812217B68D3F8E4355B6818
:103A70007A68927810469847002318460837BD4662
:103A800080BD00BF80B582B000AF78607B68D3F89E
:103A9000E4351B6998477B68032283F812210023D1
:103AA00018460837BD4680BD80B582B000AF78604B
:103AB0007B68042283F812217B68D3F8E435DB6845
:103AC0009847002318460837BD4680BD80B582B0B0
:103AD00000AF78607B68D3F8E035DB69002B05D058
:103AE0007B68D3F8E035DB6978689847002318468F
:103AF0000837BD4680BD00BF80B582B000AF78609A
:103B00000B46FB707B68D3F8E0351B68FA78786861
:103B1000114698477B68D3F8E4359B6898470023A3
:103B200018460837BD4680BD80B582B000AF7860CA
:103B30000B46FB707B68D3F8E0355B68FA787868F1
:103B400011469847002318460837BD4680BD00BF80
:103B500080B582B000AF78607B68D3F8E0351B6A2F
:103B600078689847002318460837BD4680BD00BFD7
:103B700080B582B000AF78607B68D3F8E0355B6ACF
:103B800078689847002318460837BD4680BD00BFB7
:103B900080B483B000AF786039607B683A689A601F
:103BA0007B6800225A60002318460C37BD465DF83A
:103BB000047B704780B582B000AF78607B681033BB
:103BC000184603F057FA0346002B0CBF01230023CD
:103BD000DBB218460837BD4680BD00BF80B483B055
:103BE00000AF78607B68D3F81C3118460C37BD46AF
:103BF0005DF8047B704700BF80B582B000AF78608D
:103C00007B681033184603F04BFA03461846083712
:103C1000BD4680BD90B585B000AF786039607B68E7
:103C20001033184603F026FA0346002B14BF012375
:103C30000023DBB2002B08D03B6800221A707B689F
:103C40000022C3F81C21002354E00023FB604DE058
:103C5000FB683A68D4187B681033184603F020FAE2
:103C600003462370FB683A6813441B780D2B02D07F
:103C7000FB68FE2B1FDDFB683A68134400221A70B4
:103C80007B681033184603F0F5F90346002B14BF88
:103C900001230023DBB2002B04D07B680022C3F891
:103CA0001C2106E07B68D3F81C315A1E7B68C3F8E0
:103CB0001C21FB681EE07B681033184603F0DAF91C
:103CC0000346002B14BF01230023DBB2002B0AD0D4
:103CD000FB683A68134400221A707B680022C3F81C
:103CE0001C21FB6806E0FB680133FB60FB68FF2BCF
:103CF000AEDD002318461437BD4690BD80B582B0B6
:103D000000AF78607B689B68012B06D17B685B689D
:103D10001846FFF763FF034600E000231846083704
:103D2000BD4680BD80B582B000AF786039603B6829
:103D300000221A707B689B68012B07D17B685B6847
:103D400018463968FFF766FF034600E0002318466F
:103D50000837BD4680BD00BF80B582B000AF786037
:103D60007B689B68012B06D17B685B681846FFF770
:103D700021FF034600E0002318460837BD4680BDFA
:103D800080B582B000AF78607B689B68012B06D15C
:103D90007B685B681846FFF72FFF034600E00023AF
:103DA00018460837BD4680BD80B584B000AF786046
:103DB00039600023FB600DE07B681B6804331B68DF
:103DC000FA6839680A441278786811469847FB689F
:103DD0000133FB60FB683A6813441B78002BEBD17E
:103DE0001037BD4680BD00BF90B587B002AFF86008
:103DF000B9607A603B60FB6802229A60FB681B68CE
:103E00001C683B680093F868B9687A683B6AA04709
:103E1000034618461437BD4690BD00BF80B483B03A
:103E200000AF786040F6FF7318460C37BD465DF86A
:103E3000047B7047A0F10800F0E700BF80B483B0B6
:103E400000AF7860034B18460C37BD465DF8047B25
:103E5000704700BF33335340A0F10800EEE700BFC6
:103E600080B483B000AF786040F6FF7318460C371B
:103E7000BD465DF8047B7047A0F10800F0E700BF85
:103E800080B483B000AF7860034B18460C37BD4652
:103E90005DF8047B704700BF33335340A0F1080046
:103EA000EEE700BF80B483B000AF786040F6FF73E8
:103EB00018460C37BD465DF8047B7047A0F108003A
:103EC000F0E700BF80B483B000AF7860034B1846C2
:103ED0000C37BD465DF8047B704700BF3333534059
:103EE000A0F10800EEE700BF80B483B000AF7860B7
:103EF00040F6FF7318460C37BD465DF8047B7047EB
:103F0000A0F10800F0E700BF80B483B000AF786094
:103F1000034B18460C37BD465DF8047B704700BF65
:103F200033335340A0F10800EEE700BF80B483B004
:103F300000AF786040F6FF7318460C37BD465DF859
:103F4000047B7047A0F10800F0E700BF80B483B0A5
:103F500000AF7860034B18460C37BD465DF8047B14
:103F6000704700BF33335340A0F10800EEE700BFB5
:103F700080B582B000AF786004484FF4805105F0FE
:103F800067FA034618460837BD4680BD0004024064
:103F900080B582B000AF786039603B68002B05D1F6
:103FA00006484FF4805105F07BFA04E003484FF4D3
:103FB000805105F067FA0837BD4680BD0004024015
:103FC00080B582B000AF786004484FF4805105F0AE
:103FD00025FA034618460837BD4680BD0004024056
:103FE00080B584B002AF78600023009300200549BB
:103FF0004FF480520023FEF79FF80023184608373D
:10400000BD4680BD0004024080B584B002AF786038
:1040100000230093012005494FF480520023FEF74E
:104020008BF8002318460837BD4680BD00040240C7
:1040300080B584B002AF786000230093002005496A
:104040004FF480520123FEF777F800231846083713
:10405000BD4680BD0004024080B584B002AF7860E8
:1040600000230093002005494FF480520223FEF7FD
:1040700063F8002318460837BD4680BD000402409F
:1040800080B582B000AF786004484FF4004105F07D
:10409000DFF9034618460837BD4680BD00100240D0
:1040A00080B582B000AF786039603B68002B05D1E5
:1040B00006484FF4004105F0F3F904E003484FF4DB
:1040C000004105F0DFF90837BD4680BD0010024011
:1040D00080B582B000AF786004484FF4004105F02D
:1040E0009DF9034618460837BD4680BD00100240C2
:1040F00080B584B002AF78600023009300200549AA
:104100004FF400420023FEF717F801231846083742
:10411000BD4680BD0010024080B584B002AF78601B
:1041200000230093012005494FF400420023FEF7CD
:1041300003F8002318460837BD4680BD0010024032
:1041400080B584B002AF7860002300930020054959
:104150004FF400420123FDF7EFFF01231846083713
:10416000BD4680BD0010024080B584B002AF7860CB
:1041700000230093002005494FF400420223FDF77D
:10418000DBFF002318460837BD4680BD0010024003
:1041900080B582B000AF786004484FF4804105F0EC
:1041A00057F9034618460837BD4680BD0004024053
:1041B00080B582B000AF786039603B68002B05D1D4
:1041C00006484FF4804105F06BF904E003484FF4D2
:1041D000804105F057F90837BD4680BD0004024014
:1041E00080B582B000AF786004484FF4804105F09C
:1041F00015F9034618460837BD4680BD0004024045
:1042000080B584B002AF7860002300930020054998
:104210004FF480420023FDF78FFF00231846083734
:10422000BD4680BD0004024080B584B002AF786016
:1042300000230093012005494FF480420023FDF73D
:104240007BFF002318460837BD4680BD00040240AE
:1042500080B584B002AF7860002300930020054948
:104260004FF480420123FDF767FF0023184608370B
:10427000BD4680BD0004024080B584B002AF7860C6
:1042800000230093002005494FF480420223FDF7EC
:1042900053FF002318460837BD4680BD0004024086
:1042A00080B582B000AF786004484FF4004105F05B
:1042B000CFF8034618460837BD4680BD00040240CB
:1042C00080B582B000AF786039603B68002B05D1C3
:1042D00006484FF4004105F0E3F804E003484FF4CA
:1042E000004105F0CFF80837BD4680BD000402400C
:1042F00080B582B000AF786004484FF4004105F00B
:104300008DF8034618460837BD4680BD00040240BC
:1043100080B584B002AF7860002300930020054987
:104320004FF400420023FDF707FF0023184608372B
:10433000BD4680BD0004024080B584B002AF786005
:1043400000230093012005494FF400420023FDF7AC
:10435000F3FE002318460837BD4680BD0004024026
:1043600080B584B002AF7860002300930020054937
:104370004FF400420123FDF7DFFE00231846083703
:10438000BD4680BD0004024080B584B002AF7860B5
:1043900000230093002005494FF400420223FDF75B
:1043A000CBFE002318460837BD4680BD00040240FE
:1043B00080B582B000AF786004484FF4004105F04A
:1043C00047F8034618460837BD4680BD0000024046
:1043D00080B582B000AF786039603B68002B05D1B2
:1043E00006484FF4004105F05BF804E003484FF441
:1043F000004105F047F80837BD4680BD0000024087
:1044000080B582B000AF786004484FF4004105F0F9
:1044100005F8034618460837BD4680BD0000024037
:1044200080B584B002AF7860002300930020054976
:104430004FF400420023FDF77FFE002318460837A3
:10444000BD4680BD0000024080B483B000AF7860FC
:10445000012318460C37BD465DF8047B704700BF4A
:1044600080B584B002AF7860002300930020054936
:104470004FF400420123FDF75FFE00231846083782
:10448000BD4680BD0000024080B584B002AF7860B8
:1044900000230093002005494FF400420223FDF75A
:1044A0004BFE002318460837BD4680BD0000024081
:1044B00080B582B000AF786004484FF4005104F03A
:1044C000C7FF034618460837BD4680BD00040240BA
:1044D00080B582B000AF786039603B68002B05D1B1
:1044E00006484FF4005104F0DBFF04E003484FF4AA
:1044F000005104F0C7FF0837BD4680BD00040240EC
:1045000080B582B000AF786004484FF4005104F0E9
:1045100085FF034618460837BD4680BD00040240AB
:1045200080B584B002AF7860002300930020054975
:104530004FF400520023FDF7FFFD00231846083713
:10454000BD4680BD0004024080B483B000AF7860F7
:10455000012318460C37BD465DF8047B704700BF49
:1045600080B584B002AF7860002300930020054935
:104570004FF400520123FDF7DFFD002318460837F2
:10458000BD4680BD0004024080B584B002AF7860B3
:1045900000230093002005494FF400520223FDF749
:1045A000CBFD002318460837BD4680BD00040240FD
:1045B00080B582B000AF786004484FF4006104F029
:1045C00047FF034618460837BD4680BD000C024031
:1045D00080B582B000AF786039603B68002B05D1B0
:1045E00006484FF4006104F05BFF04E003484FF419
:1045F000006104F047FF0837BD4680BD000C024053
:1046000080B582B000AF786004484FF4006104F0D8
:1046100005FF034618460837BD4680BD000C024022
:1046200080B584B002AF7860002300930020054974
:104630004FF400620023FDF77FFD00231846083782
:10464000BD4680BD000C024080B483B000AF7860EE
:10465000012318460C37BD465DF8047B704700BF48
:1046600080B584B002AF7860002300930020054934
:104670004FF400620123FDF75FFD00231846083761
:10468000BD4680BD000C024080B584B002AF7860AA
:1046900000230093002005494FF400620223FDF738
:1046A0004BFD002318460837BD4680BD000C024074
:1046B00080B582B000AF786004484FF4806104F0A8
:1046C000C7FE034618460837BD4680BD000C0240B1
:1046D00080B582B000AF786039603B68002B05D1AF
:1046E00006484FF4806104F0DBFE04E003484FF419
:1046F000806104F0C7FE0837BD4680BD000C024053
:1047000080B582B000AF786004484FF4806104F057
:1047100085FE034618460837BD4680BD000C0240A2
:1047200080B584B002AF7860002300930020054973
:104730004FF480620023FDF7FFFC00231846083782
:10474000BD4680BD000C024080B483B000AF7860ED
:10475000012318460C37BD465DF8047B704700BF47
:1047600080B584B002AF7860002300930020054933
:104770004FF480620123FDF7DFFC00231846083761
:10478000BD4680BD000C024080B584B002AF7860A9
:1047900000230093002005494FF480620223FDF7B7
:1047A000CBFC002318460837BD4680BD000C0240F4
:1047B00080B582B000AF78600448022104F048FE62
:1047C000034618460837BD4680BD00BF00040240BE
:1047D00080B582B000AF786039603B68002B04D1AF
:1047E0000548022104F05CFE03E00348022104F0C6
:1047F00049FE0837BD4680BD0004024080B582B046
:1048000000AF78600448022104F008FE0346184611
:104810000837BD4680BD00BF0004024080B584B0AB
:1048200002AF786000230093002005490222002394
:10483000FDF782FC002318460837BD4680BD00BF47
:104840000004024080B584B002AF7860002300937A
:104850000120054902220023FDF76EFC00231846C3
:104860000837BD4680BD00BF0004024080B584B05B
:1048700002AF786000230093002005490222012343
:10488000FDF75AFC002318460837BD4680BD00BF1F
:104890000004024080B584B002AF7860002300932A
:1048A0000020054902220223FDF746FC002318469A
:1048B0000837BD4680BD00BF0004024080B582B00D
:1048C00000AF78600448102104F0C2FD034618468A
:1048D0000837BD4680BD00BF0000024080B582B0F1
:1048E00000AF786039603B68002B04D10548102187
:1048F00004F0D6FD03E00348102104F0C3FD08379F
:10490000BD4680BD0000024080B582B000AF786037
:104910000448102104F082FD034618460837BD46BE
:1049200080BD00BF0000024080B584B002AF786057
:10493000002300930020054910220023FDF7FCFB13
:10494000002318460837BD4680BD00BF0000024066
:1049500080B584B002AF7860002300930120054940
:1049600010220023FDF7E8FB002318460837BD4658
:1049700080BD00BF0000024080B584B002AF786007
:10498000002300930020054910220123FDF7D4FBEA
:10499000002318460837BD4680BD00BF0000024016
:1049A00080B584B002AF78600023009300200549F1
:1049B00010220223FDF7C0FB002318460837BD462E
:1049C00080BD00BF0000024080B582B000AF7860BB
:1049D0000448012104F03CFD034618460837BD4653
:1049E00080BD00BF0008024080B582B000AF786093
:1049F00039603B68002B04D10548012104F050FDCB
:104A000003E00348012104F03DFD0837BD4680BDA9
:104A10000008024080B582B000AF786004480121F0
:104A200004F0FCFC034618460837BD4680BD00BFB5
:104A30000008024080B584B002AF78600023009384
:104A40000020054901220023FDF776FB00231846CC
:104A50000837BD4680BD00BF0008024080B584B065
:104A600002AF786000230093012005490122002352
:104A7000FDF762FB002318460837BD4680BD00BF26
:104A80000008024080B584B002AF78600023009334
:104A90000020054901220123FDF74EFB00231846A3
:104AA0000837BD4680BD00BF0008024080B584B015
:104AB00002AF786000230093002005490122022301
:104AC000FDF73AFB002318460837BD4680BD00BFFE
:104AD0000008024080B582B000AF786004484FF40F
:104AE000805104F0B5FC034618460837BD4680BD2A
:104AF0000010024080B582B000AF786039603B683A
:104B0000002B05D106484FF4805104F0C9FC04E0A5
:104B100003484FF4805104F0B5FC0837BD4680BD12
:104B20000010024080B582B000AF786004484FF4B6
:104B3000805104F073FC034618460837BD4680BD1B
:104B40000010024080B584B002AF7860002300936B
:104B5000002005494FF480520023FDF7EDFA0023B1
:104B600018460837BD4680BD0010024080B584B0AD
:104B700002AF786000230093012005494FF4805272
:104B80000023FDF7D9FA002318460837BD4680BD3B
:104B90000010024080B584B002AF7860002300931B
:104BA000002005494FF480520123FDF7C5FA002388
:104BB00018460837BD4680BD0010024080B584B05D
:104BC00002AF786000230093002005494FF4805223
:104BD0000223FDF7B1FA002318460837BD4680BD11
:104BE0000010024080B582B000AF786004482021F8
:104BF00004F02EFC034618460837BD4680BD00BFB2
:104C00000000024080B582B000AF786039603B6838
:104C1000002B04D10548202104F042FC03E00348A6
:104C2000202104F02FFC0837BD4680BD0000024063
:104C300080B582B000AF78600448202104F0EEFB1C
:104C4000034618460837BD4680BD00BF000002403D
:104C500080B584B002AF786000230093002005493E
:104C600020220023FDF768FA002318460837BD46C6
:104C700080BD00BF0000024080B584B002AF786004
:104C8000002300930120054920220023FDF754FA58
:104C9000002318460837BD4680BD00BF0000024013
:104CA00080B584B002AF78600023009300200549EE
:104CB00020220123FDF740FA002318460837BD469D
:104CC00080BD00BF0000024080B584B002AF7860B4
:104CD000002300930020054920220223FDF72CFA2F
:104CE000002318460837BD4680BD00BF00000240C3
:104CF00080B582B000AF78600448042104F0A8FBBE
:104D0000034618460837BD4680BD00BF0004024078
:104D100080B582B000AF786039603B68002B04D169
:104D20000548042104F0BCFB03E00348042104F01F
:104D3000A9FB0837BD4680BD0004024080B582B0A3
:104D400000AF78600448042104F068FB034618466D
:104D50000837BD4680BD00BF0004024080B584B066
:104D600002AF78600023009300200549042200234D
:104D7000FDF7E2F9002318460837BD4680BD00BFA5
:104D80000004024080B584B002AF78600023009335
:104D90000120054904220023FDF7CEF9002318461F
:104DA0000837BD4680BD00BF0004024080B584B016
:104DB00002AF7860002300930020054904220123FC
:104DC000FDF7BAF9002318460837BD4680BD00BF7D
:104DD0000004024080B584B002AF786000230093E5
:104DE0000020054904220223FDF7A6F900231846F6
:104DF0000837BD4680BD00BF0004024080B582B0C8
:104E000000AF78600448802104F022FB0346184676
:104E10000837BD4680BD00BF0010024080B582B09B
:104E200000AF786039603B68002B04D105488021D1
:104E300004F036FB03E00348802104F023FB08372D
:104E4000BD4680BD0010024080B582B000AF7860E2
:104E50000448802104F0E2FA034618460837BD46AC
:104E600080BD00BF0010024080B584B002AF786002
:104E7000002300930020054980220023FDF75CF900
:104E8000002318460837BD4680BD00BF0010024011
:104E900080B584B002AF78600023009301200549FB
:104EA00080220023FDF748F9002318460837BD4645
:104EB00080BD00BF0010024080B584B002AF7860B2
:104EC000002300930020054980220123FDF734F9D7
:104ED000002318460837BD4680BD00BF00100240C1
:104EE00080B584B002AF78600023009300200549AC
:104EF00080220223FDF720F9002318460837BD461B
:104F000080BD00BF0010024080B582B000AF786065
:104F100004484FF4806104F09BFA034618460837B2
:104F2000BD4680BD0010024080B582B000AF786001
:104F300039603B68002B05D106484FF4806104F0CE
:104F4000AFFA04E003484FF4806104F09BFA08379D
:104F5000BD4680BD0010024080B582B000AF7860D1
:104F600004484FF4806104F059FA034618460837A4
:104F7000BD4680BD0010024080B584B002AF7860AD
:104F800000230093002005494FF480620023FDF7C1
:104F9000D3F8002318460837BD4680BD00100240F4
:104FA00080B584B002AF78600023009301200549EA
:104FB0004FF480620023FDF7BFF80023184608373E
:104FC000BD4680BD0010024080B584B002AF78605D
:104FD00000230093002005494FF480620123FDF770
:104FE000ABF8002318460837BD4680BD00100240CC
:104FF00080B584B002AF786000230093002005499B
:105000004FF480620223FDF797F800231846083713
:10501000BD4680BD0010024080B582B000AF786010
:105020000448012104F014FA034618460837BD4627
:1050300080BD00BF0004024080B582B000AF786040
:1050400039603B68002B04D10548012104F028FA9F
:1050500003E00348012104F015FA0837BD4680BD7E
:105060000004024080B582B000AF7860044801219E
:1050700004F0D4F9034618460837BD4680BD00BF8A
:105080000004024080B584B002AF78600023009332
:105090000020054901220023FDF74EF800231846A1
:1050A0000837BD4680BD00BF0004024080B584B013
:1050B00002AF7860002300930120054901220023FC
:1050C000FDF73AF8002318460837BD4680BD00BFFB
:1050D0000004024080B584B002AF786000230093E2
:1050E0000020054901220123FDF726F80023184678
:1050F0000837BD4680BD00BF0004024080B584B0C3
:1051000002AF7860002300930020054901220223AA
:10511000FDF712F8002318460837BD4680BD00BFD2
:105120000004024080B582B000AF786004481021CE
:1051300004F08EF9034618460837BD4680BD00BF0F
:105140000010024080B582B000AF786039603B68E3
:10515000002B04D10548102104F0A2F903E0034814
:10516000102104F08FF90837BD4680BD00100240C1
:1051700080B582B000AF78600448102104F04EF989
:10518000034618460837BD4680BD00BF00100240E8
:1051900080B584B002AF78600023009300200549F9
:1051A00010220023FCF7C8FF002318460837BD462D
:1051B00080BD00BF0010024080B584B002AF7860AF
:1051C000002300930120054910220023FCF7B4FFBF
:1051D000002318460837BD4680BD00BF00100240BE
:1051E00080B584B002AF78600023009300200549A9
:1051F00010220123FCF7A0FF002318460837BD4604
:1052000080BD00BF0010024080B584B002AF78605E
:10521000002300930020054910220223FCF78CFF95
:10522000002318460837BD4680BD00BF001002406D
:1052300080B582B000AF78600448042104F008F91A
:10524000034618460837BD4680BD00BF0010024027
:1052500080B582B000AF786039603B68002B04D124
:105260000548042104F01CF903E00348042104F07C
:1052700009F90837BD4680BD0010024080B582B0F4
:1052800000AF78600448042104F0C8F803461846CB
:105290000837BD4680BD00BF0010024080B584B015
:1052A00002AF786000230093002005490422002308
:1052B000FCF742FF002318460837BD4680BD00BFFB
:1052C0000010024080B584B002AF786000230093E4
:1052D0000120054904220023FCF72EFF0023184675
:1052E0000837BD4680BD00BF0010024080B584B0C5
:1052F00002AF7860002300930020054904220123B7
:10530000FCF71AFF002318460837BD4680BD00BFD2
:105310000010024080B584B002AF78600023009393
:105320000020054904220223FCF706FF002318464B
:105330000837BD4680BD00BF0010024080B582B076
:1053400000AF786004484FF4807104F081F80346A0
:1053500018460837BD4680BD0010024080B582B0B7
:1053600000AF786039603B68002B05D106484FF4E8
:10537000807104F095F804E003484FF4807104F064
:1053800081F80837BD4680BD0010024080B582B06C
:1053900000AF786004484FF4807104F03FF8034692
:1053A00018460837BD4680BD0010024080B584B065
:1053B00002AF786000230093002005494FF480720B
:1053C0000023FCF7B9FE002318460837BD4680BD10
:1053D0000010024080B584B002AF786000230093D3
:1053E000012005494FF480720023FCF7A5FE00233D
:1053F00018460837BD4680BD0010024080B584B015
:1054000002AF786000230093002005494FF48072BA
:105410000123FCF791FE002318460837BD4680BDE6
:105420000010024080B584B002AF78600023009382
:10543000002005494FF480720223FCF77DFE002313
:1054400018460837BD4680BD0010024080B582B0C6
:1054500000AF78600448082103F0FAFF03461846BD
:105460000837BD4680BD00BF0010024080B582B045
:1054700000AF786039603B68002B04D105480821F3
:1054800004F00EF803E00348082103F0FBFF08379F
:10549000BD4680BD0010024080B582B000AF78608C
:1054A0000448082103F0BAFF034618460837BD46F2
:1054B00080BD00BF0010024080B584B002AF7860AC
:1054C000002300930020054908220023FCF734FE46
:1054D000002318460837BD4680BD00BF00100240BB
:1054E00080B584B002AF78600023009301200549A5
:1054F00008220023FCF720FE002318460837BD468B
:1055000080BD00BF0010024080B584B002AF78605B
:10551000002300930020054908220123FCF70CFE1C
:10552000002318460837BD4680BD00BF001002406A
:1055300080B584B002AF7860002300930020054955
:1055400008220223FCF7F8FD002318460837BD4661
:1055500080BD00BF0010024080B582B000AF78600F
:105560000448202103F074FF034618460837BD465F
:1055700080BD00BF0008024080B582B000AF7860F7
:1055800039603B68002B04D10548202103F088FFD7
:1055900003E00348202103F075FF0837BD4680BDB6
:1055A0000008024080B582B000AF78600448202136
:1055B00003F034FF034618460837BD4680BD00BFE0
:1055C0000008024080B584B002AF786000230093E9
:1055D0000020054920220023FCF7AEFD00231846D9
:1055E0000837BD4680BD00BF0008024080B584B0CA
:1055F00002AF78607B680222DA600023009301200A
:10560000044920220023FCF797FD002318460837A1
:10561000BD4680BD0008024080B584B002AF78600E
:10562000002300930020054920220123FCF784FD7C
:10563000002318460837BD4680BD00BF0008024061
:1056400080B584B002AF7860002300930020054944
:1056500020220223FCF770FD002318460837BD46C0
:1056600080BD00BF0008024080B582B000AF786006
:105670000448022103F0ECFE034618460837BD46F5
:1056800080BD00BF0008024080B582B000AF7860E6
:1056900039603B68002B04D10548022103F000FF6C
:1056A00003E00348022103F0EDFE0837BD4680BD4C
:1056B0000008024080B582B000AF78600448022143
:1056C00003F0ACFE034618460837BD4680BD00BF58
:1056D0000008024080B584B002AF786000230093D8
:1056E0000020054902220023FCF726FD002318466E
:1056F0000837BD4680BD00BF0008024080B584B0B9
:1057000002AF78607B680222DA60002300930120F8
:10571000044902220023FCF70FFD00231846083736
:10572000BD4680BD0008024080B584B002AF7860FD
:10573000002300930020054902220123FCF7FCFC12
:10574000002318460837BD4680BD00BF0008024050
:1057500080B584B002AF7860002300930020054933
:1057600002220223FCF7E8FC002318460837BD4656
:1057700080BD00BF0008024080B582B000AF7860F5
:105780000448042103F064FE034618460837BD466A
:1057900080BD00BF0008024080B582B000AF7860D5
:1057A00039603B68002B04D10548042103F078FEE2
:1057B00003E00348042103F065FE0837BD4680BDC1
:1057C0000008024080B582B000AF78600448042130
:1057D00003F024FE034618460837BD4680BD00BFCF
:1057E0000008024080B584B002AF786000230093C7
:1057F0000020054904220023FCF79EFC00231846E4
:105800000837BD4680BD00BF0008024080B584B0A7
:1058100002AF78607B680222DA60002300930120E7
:10582000044904220023FCF787FC002318460837AC
:10583000BD4680BD0008024080B584B002AF7860EC
:10584000002300930020054904220123FCF774FC87
:10585000002318460837BD4680BD00BF000802403F
:1058600080B584B002AF7860002300930020054922
:1058700004220223FCF760FC002318460837BD46CB
:1058800080BD00BF0008024080B582B000AF7860E4
:105890000448082103F0DCFD034618460837BD46DE
:1058A00080BD00BF0008024080B582B000AF7860C4
:1058B00039603B68002B04D10548082103F0F0FD56
:1058C00003E00348082103F0DDFD0837BD4680BD35
:1058D0000008024080B582B000AF7860044808211B
:1058E00003F09CFD034618460837BD4680BD00BF47
:1058F0000008024080B584B002AF786000230093B6
:105900000020054908220023FCF716FC0023184656
:105910000837BD4680BD00BF0008024080B584B096
:1059200002AF78607B680222DA60002300930120D6
:10593000044908220023FCF7FFFB00231846083720
:10594000BD4680BD0008024080B584B002AF7860DB
:10595000002300930020054908220123FCF7ECFBFB
:10596000002318460837BD4680BD00BF000802402E
:1059700080B584B002AF7860002300930020054911
:1059800008220223FCF7D8FB002318460837BD463F
:1059900080BD00BF0008024080B582B000AF7860D3
:1059A0000448102103F054FD034618460837BD464D
:1059B00080BD00BF0008024080B582B000AF7860B3
:1059C00039603B68002B04D10548102103F068FDC5
:1059D00003E00348102103F055FD0837BD4680BDA4
:1059E0000008024080B582B000AF78600448102102
:1059F00003F014FD034618460837BD4680BD00BFBE
:105A00000008024080B584B002AF786000230093A4
:105A10000020054910220023FCF78EFB00231846C6
:105A20000837BD4680BD00BF0008024080B584B085
:105A300002AF78607B680222DA60002300930120C5
:105A4000044910220023FCF777FB0023184608378F
:105A5000BD4680BD0008024080B584B002AF7860CA
:105A6000002300930020054910220123FCF764FB6A
:105A7000002318460837BD4680BD00BF000802401D
:105A800080B584B002AF7860002300930020054900
:105A900010220223FCF750FB002318460837BD46AE
:105AA00080BD00BF0008024080B582B000AF7860C2
:105AB00004484FF4006103F0CBFC03461846083756
:105AC000BD4680BD0010024080B582B000AF786056
:105AD00039603B68002B05D106484FF4006103F0A4
