:020000040800F2
:10000000C8580120C1380008019000081D90000860
:100010003990000855900008719000080000000019
:100020000000000000000000000000008D900008AB
:10003000A990000800000000C5900008BD35000828
:100040001D3900081D3900081D3900081D39000838
:100050001D3900081D3900081D3900081D39000828
:100060001D3900081D3900081D3900081D39000818
:100070001D3900081D3900081D3900081D39000808
:100080001D3900081D3900081D3900081D390008F8
:10009000897100081D3900081D3900081D39000844
:1000A0001D390008A92300081D3900081D39000862
:1000B000F12300083D240008852400081D390008AC
:1000C0001D3900081D3900081D3900081D390008B8
:1000D0001D3900081D390008016C0008996C0008E2
:1000E0001D3900081D390008E92800085D250008B1
:1000F000152500081D3900081D3900081D390008A4
:100100001D390008B5920008CD2400081D390008EB
:100110001D3900081D3900081D3900081D39000867
:100120001D3900081D3900081D390008C19200085A
:100130001D3900081D3900081D3900081D39000847
:100140001D3900081D3900081D390008D92800088C
:100150001D3900081D3900081D3900081D39000827
:100160001D3900081D3900081D3900081D39000817
:100170001D3900081D3900081D3900081D39000807
:100180001D3900081D39000810B5054C237833B916
:10019000044B13B10448AFF300800123237010BD5A
:1001A0001009002000000000FC580208084B10B5A0
:1001B0001BB108480849AFF300800848036803B939
:1001C00010BD074B002BFBD0BDE81040184700BF07
:1001D00000000000FC580208140900200809002053
:1001E0000000000080B584B000AFF8600B467A6074
:1001F000FB72FB7A013B032B52D801A252F823F089
:100200001102000835020008590200087D020008AA
:10021000FB68DB6A184610F0E9F80346184679686F
:1002200010F03CF90346184610F024FB0246FB6828
:100230005A6336E0FB68DB6A184610F0D7F80346CD
:100240001846796810F02AF90346184610F012FB98
:100250000246FB689A6324E0FB68DB6A184610F0EC
:10026000C5F803461846796810F018F90346184691
:1002700010F000FB0246FB68DA6312E0FB68DB6A01
:10028000184610F0B3F803461846796810F006F9DE
:100290000346184610F0EEFA0246FB681A6400E0C6
:1002A00000BF1037BD4680BD80B582B000AF78601A
:1002B0000B46FB70FB78012B06D17B685B6B184605
:1002C00010F094F803461FE0FB78022B06D17B6800
:1002D0009B6B184610F08AF8034615E0FB78032B59
:1002E00006D17B68DB6B184610F080F803460BE004
:1002F000FB78042B06D17B681B6C184610F076F84F
:10030000034601E04FF0000318460837BD4680BDA4
:1003100090B5ADB002AFF860B9603B601346FB80AA
:100320000023C7F8A4300023C7F8A0300023C7F883
:100330009C300123C7F898300023A7F8963009F0C5
:1003400031F907F14403184607F0D8FAFB68B3F116
:10035000804F03D3FB68944A934207D9FB68934AC2
:10036000934211D9FB68924A93420DD8FB6C914A93
:10037000D2F88C20120E02F00102013202FB03F3CC
:100380005B00C7F8A4300CE03B6D8A4AD2F88C20A1
:10039000120E02F00102013202FB03F35B00C7F808
:1003A000A4303B68002B0ADDD7F8A430824A82FBD8
:1003B00003125211DB17D21A3B689A4201DA012369
:1003C000EEE01FE0D7F8A0300133C7F8A030D7F82F
:1003D000A420D7F8A03092FBF3F23B6892FBF3F332
:1003E000C7F89C30D7F89C30B3F5803F02DA002381
:1003F000C7F89830D7F8A0304FF6FE72934201DD6F
:100400000123CDE0D7F89830002BDBD1D7F8A4201A
:10041000D7F8A03092FBF3F2D7F89C3092FBF3F3BD
:100420003B60F8680BF03AFAFA8800230093022048
:10043000B968002301F010FFD7F89C30013BFB6343
:10044000D7F8A0309BB2013B9BB23B870023A7F8B3
:10045000403000237B87002387F8423007F13803C0
:10046000F86819460CF0BEF86023BB8400233B8675
:100470000123FB8404233B8508237B864FF4807390
:10048000BB864FF40073FB8607F12403F868194616
:100490000CF080F9F86800210CF06AFB07F12403E6
:1004A000F86819460CF0F0F9F86800210CF07CFBB4
:1004B00007F12403F86819460CF06EFAF868002179
:1004C0000CF090FB07F12403F86819460CF0EAFAE7
:1004D000F86800210CF0A2FBFB68384A934203D075
:1004E000FB68374A934211D107F1140318460CF008
:1004F000DBFB4FF480433B8407F11403F868194693
:100500000CF0AAFBF86801210CF0ECFBFA8807F16B
:100510005403104619460BF03FF80023A7F8963015
:1005200025E0B7F896305B0007F1A802134433F8D2
:10053000543C012B16D1B7F8963010335B0007F10D
:10054000A802134433F8523C18460BF02BFB034629
:100550009CB2F8680BF09CFB0346B86821461A462B
:1005600008F0ACFFB7F896300133A7F89630B7F82B
:1005700096300F2BD5D9FB6800225A63FB68002206
:100580009A63FB680022DA63FB6800221A64F86849
:1005900001210CF0BFF8F86801210CF0DBF8002312
:1005A0001846AC37BD4690BD00140040FF17004010
:1005B00000200040003802401F85EB510000014040
:1005C0000004014080B489B000AFF860B960114602
:1005D0001A460B46FB711346BB800023FB76FB6873
:1005E000DB78002B22D100237B610023FB61BB88D9
:1005F0000333002B00DA03339B107B61FB79FA682D
:1006000032339B0013449B683B610023FB6109E08C
:10061000BB681A683B691A60FB690133FB61BB6800
:100620000433BB60FA697B699A42F1D3FB7E1846BA
:100630002437BD465DF8047B704700BF80B489B0A5
:1006400000AFF860B9601346FB800023FB61FB88B4
:100650000333002B00DA03339B10BB61FB68D3F834
:10066000D0307B610023FB6109E07B691A68BB68BD
:100670001A60FB690133FB61BB680433BB60FA6934
:10068000BB699A42F1D3BB6818462437BD465DF872
:10069000047B704780B586B000AF78603960002376
:1006A000FB7400237B610023FB60FB6843F02003A5
:1006B000FB603B68DBB203F01F03DBB203F01F03F8
:1006C0009B01FA6822F4F8621343FB607B68DB68E5
:1006D000FA681A617B68DB681B69FB607B69013320
:1006E0007B617B69094A934200D906E0FB685B099C
:1006F00003F00103DBB2012BECD0032009F0A8FDCD
:10070000FB7C18461837BD4680BD00BF400D030076
:1007100080B483B000AF78607B68DB685B6903F00E
:10072000010318460C37BD465DF8047B704700BFD7
:1007300080B582B000AF78607868FFF7E9FF0346C4
:10074000012B14BF01230023DBB218460837BD4636
:1007500080BD00BF80B485B000AF78600023FB602F
:100760007B68DB685B69FB607B68DB689B69FA68B8
:100770001340FB60FB6818461437BD465DF8047BE8
:10078000704700BF80B485B000AF78600023FB7372
:100790007B681B699B68BB603B7AC3F34103DBB298
:1007A000022B09D0032B04D0012B02D00323FB73AF
:1007B00005E00223FB7302E00123FB7300BFFB7B18
:1007C00018461437BD465DF8047B704780B487B087
:1007D00000AF78600023FB750023BB607B681B695A
:1007E0009B683B617B689B691B68FB603B7CC3F338
:1007F0004103DBB2022B04D0BB896FF30A03BB8138
:1008000005E0BB89032262F30A03BB8100BF7B685A
:100810009B69FA681A607B7A43F001037B727B68FC
:100820001B697A6812695168BA68D2431140BA6884
:100830000A435A60FB7D18461C37BD465DF8047BB1
:10084000704700BF80B487B000AF78603960002384
:10085000FB740023FB600023BB603B685B78012BCB
:100860000FD13B681B787A6804339B0013449B6864
:100870007B613B681B781A46012393409BB23B8106
:100880000EE03B681B787A6814339B0013445B6866
:100890007B613B681B781A46012393409BB27B81A6
:1008A0007B691B68FB607B7B23F07F03DBB2002B43
:1008B00027D13B689B689BB2C3F30A039AB2BB89FA
:1008C00062F30A03BB813B68DB7803F00303DAB20F
:1008D000BB7B62F38303BB733B68DB88DBB203F053
:1008E0000F03DAB2FB8962F38913FB81FB7B43F0D0
:1008F0001003FB737B7B43F080037B73FA687B6997
:100900001A607B681B697A681269D169BA680A4300
:10091000DA61FB7C18461C37BD465DF8047B7047E6
:1009200080B588B000AF786039600023FB77002382
:10093000BB6100237B6100233B613B685B78012B3B
:1009400040F0AB803B681B787A6804339B0013440B
:100950009B681B687B613B681B787A6804339B004B
:1009600013449B681B693B613B685B69002B09D1A1
:100970003B696FF312033B617B8A012262F3CC0374
:100980007B8222E03B685B69C3F312023B6962F33E
:1009900012033B613B685A693B689B6813445A1ECB
:1009A0003B689B68B2FBF3F39BB2C3F309039AB2B3
:1009B0007B8A62F3CC037B823B68DB78012B04D11A
:1009C000FB7C012262F34613FB743B681B787A6858
:1009D00004339B0013449B683A691A617B68DB7897
:1009E000012B0AD13B681B787A6804339B001344BF
:1009F0009B683A6812695A6115E03B68DB78012B05
:100A000011D03B685B69002B0DD03B681B781A4600
:100A100001239340BB617B681B697A681269516B43
:100A2000BA690A435A633B68DB78012B14D17B68AF
:100A30001B699B68FB60FB68C3F30D239BB203F04B
:100A40000103002B04D1FB7D43F02003FB7503E081
:100A5000FB7D43F01003FB75FB7D43F00403FB7546
:100A6000FB7D43F08003FB753B681B787A68043399
:100A70009B0013449B687A691A603B68DB78012B02
:100A800040F089803B68D9683B681A783B685B69AD
:100A90009BB27868FFF796FD7DE03B681B787A682B
:100AA00014339B0013445B681B687B613B681B78B5
:100AB0007A6814339B0013445B681B693B613B6895
:100AC0005B69002B0DD13B689B68C3F312023B6945
:100AD00062F312033B617B8A012262F3CC037B82C7
:100AE00020E03B685A693B689B6813445A1E3B6888
:100AF0009B68B2FBF3F39BB2C3F309039AB27B8A00
:100B000062F3CC037B827B8AC3F3C9039BB21A4690
:100B10003B689B6803FB02F3C3F312023B6962F379
:100B200012033B613B681B787A6814339B001344C3
:100B30005B683A691A617B68DB78012B09D13B68F5
:100B40001B787A6814339B0013445B683A68126917
:100B50005A613B68DB78012B0CD13B685B79002B39
:100B600004D0FB7D43F02003FB7503E0FB7D43F0E5
:100B70001003FB75FB7D43F00403FB75FB7D43F025
:100B80008003FB753B681B787A6814339B00134421
:100B90005B687A691A60FB7F18462037BD4680BDC6
:100BA00080B489B000AF786039600023FB77002300
:100BB000BB6100233B610023BB603B685B78012B7A
:100BC00070D17B689B697B617B691B683B617B693A
:100BD0001B69BB603B685B69002B09D13B7A6FF3F3
:100BE00006033B72BB7A012262F3C403BB7223E0AB
:100BF0003B685A693B689B689A420ED93B689A6881
:100C00003B685A613B689B68DBB203F07F03DAB252
:100C10003B7A62F306033B7209E03B685B69DBB237
:100C200003F07F03DAB23B7A62F306033B72BB7ACE
:100C3000012262F3C403BB72BA687B691A617B68E4
:100C4000DB78012B09D13B681B787A6804339B0061
:100C500013449B683A6812695A61FB7C43F00403B1
:100C6000FB74FB7C43F08003FB743A697B691A6078
:100C70007B68DB78002B76D13B685B69002B72D0F8
:100C80003B681B781A46012393401A46BB691343FD
:100C9000BB617B681B697A681269516BBA690A4348
:100CA0005A6360E03B681B787A6814339B001344F6
:100CB0005B681B683B613B681B787A6814339B0058
:100CC00013445B681B69BB603B685B69002B0FD1F9
:100CD0003B689B68DBB203F07F03DAB23B7A62F3D6
:100CE00006033B72BB7A012262F3C403BB7212E0BB
:100CF0003B689A683B685A613B689B68DBB203F0CB
:100D00007F03DAB23B7A62F306033B72BB7A0122BD
:100D100062F3C403BB723B681B787A6814339B0090
:100D200013445B68BA681A617B68DB78012B09D1D0
:100D30003B681B787A6814339B0013445B683A68FD
:100D400012695A61FB7C43F00403FB74FB7C43F0A3
:100D50008003FB743B681B787A6814339B00134450
:100D60005B683A691A60FB7F18462437BD465DF818
:100D7000047B704780B487B000AF7860396000238F
:100D8000FB750023FB603B685B78012B1CD13B6843
:100D90001B787A6804339B0013449B683B613B6972
:100DA0001B68FB60FB7B23F07F03DBB2002B03D0CF
:100DB000FB7B43F04003FB73BB7B43F02003BB731F
:100DC000FA683B691A6011E03B681B787A68143353
:100DD0009B0013445B683B613B691B68FB60BB7B0A
:100DE00043F02003BB73FA683B691A60FB7D184629
:100DF0001C37BD465DF8047B704700BF80B487B0E8
:100E000000AF786039600023FB740023FB603B680F
:100E10005B78012B08D13B681B787A6804339B0010
:100E200013449B687B6107E03B681B787A68143346
:100E30009B0013445B687B617B691B68FB60BB7B29
:100E40006FF34513BB733B68DB78032B03D03B6820
:100E5000DB78022B03D1FB7B43F01003FB73FA68B2
:100E60007B691A60FB7C18461C37BD465DF8047B25
:100E7000704700BF80B485B000AF78607B681B69A5
:100E80009B69FB607B681B69DB69FA681340FB6048
:100E9000FB681B0C18461437BD465DF8047B704791
:100EA00080B485B000AF78600B46FB70FB787A6841
:100EB00014339B0013445B689B68FB607B681B6971
:100EC0005B69FA681340FB60FB6818461437BD463F
:100ED0005DF8047B704700BF80B485B000AF7860D8
:100EE0007B681B699B69FB607B681B69DB69FA682F
:100EF0001340FB60FB689BB218461437BD465DF893
:100F0000047B704780B487B000AF786000233B61FA
:100F1000FB7C43F0C003FB74BB7C012262F3C4037F
:100F2000BB743B7C182262F306033B747B685B6DE9
:100F30003A691A617B68DB78012B16D10023FB60CC
:100F40007B685B6D7A6802F5B9625A617B685B6D9C
:100F50001B68FB60FB7B43F08003FB734FF0802337
:100F6000FB607B685B6DFA681A601C37BD465DF8F4
:100F7000047B704780B485B000AF78607B689B7A53
:100F8000002B1BD07B681B699B68FB603B7B03F0DD
:100F90000103DBB2002B11D07B6803F586731B685D
:100FA000BB603B7A6FF341033B723B7A6FF3000304
:100FB0003B727B68D3F80C31BA681A601437BD46AF
:100FC0005DF8047B704700BF80B483B000AF7860E9
:100FD00039600C37BD465DF8047B704780B582B040
:100FE00000AF78607B68064A1A607B681033184649
:100FF00001F0EEF87B6818460837BD4680BD00BF9B
:10100000E831020880B582B000AF786039607B6853
:101010001846FFF7E3FF7B68074A1A607B683A6867
:10102000C3F820217B680022C3F81C217B68184686
:101030000837BD4680BD00BF501F020880B582B092
:1010400000AF78600B46FB707B6803F11002FB7801
:101050001046194601F0D0F80346002B0CBF0123BF
:101060000023DBB2002B0AD0FB780D2B13D17B6859
:10107000D3F81C315A1C7B68C3F81C210BE07B6839
:10108000D3F81C31002B06D1FB780D2B03D17B68E4
:101090000122C3F81C210837BD4680BD90B587B03A
:1010A00002AFF860B9607A603B60FB6801229A6029
:1010B0004FF4927016F034FF04462046F968FFF7AB
:1010C000A1FFFB685C60FB681B681C68FB685B68D1
:1010D0001A467B680093F868B9683B68A0470346E6
:1010E00018461437BD4690BD80B584B000AF786017
:1010F0007B681B680C331B68786898470346FB6065
:10110000FB68002B01D0FB6803E07B6801225A607A
:10111000002318461037BD4680BD00BF80B584B09F
:1011200000AF78607B681B6810331B68786898474D
:101130000346FB60FB68002B01D0FB6803E07B6883
:1011400002225A60002318461037BD4680BD00BFFA
:1011500080B584B000AF78607B681B6814331B686F
:10116000786898470346FB60FB68002B01D0FB685A
:1011700003E07B6803225A60002318461037BD46FF
:1011800080BD00BF80B584B000AF78607B681B680D
:1011900018331B68786898470346FB60FB68002B90
:1011A00001D0FB6803E07B6804225A6000231846E4
:1011B0001037BD4680BD00BF80B582B000AF7860FB
:1011C00039607B685B68002B00D125E07B685B6839
:1011D000022B07D17B681B6804331B687868396869
:1011E000984719E03B68012B06D17B681B682433C4
:1011F0001B68786898470FE03B68002B06D17B6836
:101200001B6828331B687868984705E07B681B6873
:101210001C331B68786898470837BD4680BD00BFFF
:1012200080B582B000AF78607B685B68002B01D12D
:10123000002311E07B685B68012B07D17B681B688A
:1012400008331B6878689847034605E07B681B688D
:101250001B6878689847034618460837BD4680BD26
:1012600080B582B000AF78607B681B682C331B6848
:101270007868012198470837BD4680BD80B582B0A7
:1012800000AF78607B681B682C331B68786800218E
:1012900098470837BD4680BD90B583B000AF7860F1
:1012A0007B681B682C331C687B681B6830331B68A9
:1012B000786898470346002B0CBF01230023DBB25C
:1012C00078681946A0470C37BD4690BD80B582B0FE
:1012D00000AF78607B681B681B6878689847034696
:1012E00018460837BD4680BD80B582B000AF786033
:1012F0007B681B6804331B68786898470346184668
:101300000837BD4680BD00BF80B584B000AFF8602F
:10131000B9607A60FB681B681B68F868B9687A680E
:101320009847034618461037BD4680BD80B582B049
:1013300000AF786039607B681B6804331B6878688D
:10134000396898470837BD4680BD00BF80B582B078
:1013500000AF78607B681B6808331B687868984723
:10136000034618460837BD4680BD00BF80B483B031
:1013700000AF78607B68044A1A607B6818460C37B7
:10138000BD465DF8047B7047081F020880B483B037
:1013900000AF78607B68044A1A607B6818460C3797
:1013A000BD465DF8047B7047E81E020880B582B038
:1013B00000AF78607B681846FFF7D8FF7B6808337A
:1013C0001846FFF7E3FF7B68064A1A607B68064A07
:1013D0009A607B680022DA607B6818460837BD4651
:1013E00080BD00BF182502087025020880B582B0B4
:1013F00000AF78607B681846FFF7B8FF7B6808335A
:101400001846FFF7C3FF7B68064A1A607B68064AE6
:101410009A607B680022DA607B6818460837BD4610
:1014200080BD00BFA0240208F824020880B582B065
:1014300000AF78607B681846FFF798FF7B68083339
:101440001846FFF7A3FF7B68064A1A607B68064AC6
:101450009A607B680022DA607B6818460837BD46D0
:1014600080BD00BF282402088024020880B582B015
:1014700000AF78607B681846FFF778FF7B68083319
:101480001846FFF783FF7B68064A1A607B68064AA6
:101490009A607B680022DA607B6818460837BD4690
:1014A00080BD00BFB02302080824020880B483B0C6
:1014B00000AF78607B68044A1A607B6818460C3776
:1014C000BD465DF8047B7047C81E020880B582B037
:1014D00000AF78607B681846FFF748FF7B680833E9
:1014E0001846FFF7E3FF7B68064A1A607B68064AE6
:1014F0009A607B680022DA607B6818460837BD4630
:1015000080BD00BF382302088C23020880B582B05A
:1015100000AF78607B681846FFF728FF7B680833C8
:101520001846FFF7C3FF7B68064A1A607B68064AC5
:101530009A607B680022DA607B6818460837BD46EF
:1015400080BD00BFC02202081423020880B582B00B
:1015500000AF78607B681846FFF708FF7B680833A8
:101560001846FFF7A3FF7B68064A1A607B68064AA5
:101570009A607B680022DA607B6818460837BD46AF
:1015800080BD00BF482202089C22020880B582B0BC
:1015900000AF78607B681846FFF7E8FE7B68083389
:1015A0001846FFF783FF7B68064A1A607B68064A85
:1015B0009A607B680022DA607B6818460837BD466F
:1015C00080BD00BFD02102082422020880B483B06D
:1015D00000AF78607B68044A1A607B6818460C3755
:1015E000BD465DF8047B7047B831020880B582B013
:1015F00000AF78607B681846FFF7E8FF7B68034A16
:101600001A607B6818460837BD4680BD80200208F6
:1016100080B582B000AF78607B681846FFF7A6FE01
:101620007B68034A1A607B6818460837BD4680BD50
:10163000B82A020880B582B000AF78607B6818468F
:10164000FFF794FE7B68034A1A607B6818460837E8
:10165000BD4680BD702A020880B582B000AF7860B8
:101660007B681846FFF782FE7B68034A1A607B6836
:1016700018460837BD4680BD282A020880B582B0CA
:1016800000AF78607B681846FFF770FE7B68034AFE
:101690001A607B6818460837BD4680BDE0290208FD
:1016A00080B582B000AF78607B681846FFF75EFEB9
:1016B0007B68034A1A607B6818460837BD4680BDC0
:1016C000D828020880B582B000AF78607B681846E1
:1016D000FFF74CFE7B68034A1A607B6818460837A0
:1016E000BD4680BD4828020880B582B000AF786052
:1016F0007B681846FFF73AFE7B68034A1A607B68EE
:1017000018460837BD4680BDB827020880B582B0AC
:1017100000AF78607B681846FFF728FE7B68034AB5
:101720001A607B6818460837BD4680BD2827020826
:1017300080B582B000AF78607B681846FFF716FE70
:101740007B68034A1A607B6818460837BD4680BD2F
:101750002029020880B582B000AF78607B68184607
:10176000FFF704FE7B68034A1A607B681846083757
:10177000BD4680BD9028020880B582B000AF786079
:101780007B681846FFF7F2FD7B68034A1A607B68A6
:1017900018460837BD4680BD0028020880B582B0D3
:1017A00000AF78607B681846FFF7E0FD7B68034A6E
:1017B0001A607B6818460837BD4680BD702702084E
:1017C00080B582B000AF78607B681846FFF7CEFD29
:1017D0007B6808331846FFF769FE7B68044A1A6085
:1017E0007B68044A9A607B6818460837BD4680BD0E
:1017F00068290208BC290208B0B582B000AF786041
:101800007B6800221A607B68BA4A5A607B680022B3
:101810009A607B680022DA607B6800221A617B682C
:1018200000225A617B6801229A617B680022DA619A
:101830007B6800221A627B6800225A627B684FF044
:101840000002DA627B684FF000029A647B68012232
:10185000DA647B6800221A657B68543300221A60C0
:10186000043300221A60043300221A600433002279
:101870001A60043300221A60043300221A60043311
:1018800000221A60043300221A60043300221A6016
:10189000043300221A6004337B68974A5A667B68D7
:1018A000964A1A677B68954A5A677B687C330022A0
:1018B0001A60043300221A60043300221A600433D1
:1018C00000221A60043300221A60043300221A60D6
:1018D000043300221A60043300221A600433002209
:1018E0001A60043300221A6004337B68844ADA6782
:1018F0007B68844AC3F88C207B68834AC3F89020B5
:101900007B68824AC3F894207B68814AC3F8982098
:101910007B68804A03F1A40415460FCD0FC40FCD98
:101920000FC495E8030084E803007B687A4A03F15A
:10193000CC0415460FCD0FC40FCD0FC495E803009E
:1019400084E803007B68744A03F1F40415460FCD64
:101950000FC40FCD0FC495E8030084E803007B6833
:101960006E4A03F58E7415460FCD0FC40FCD0FC40C
:1019700095E8030084E803007B68694A03F5A274D4
:1019800015460FCD0FC40FCD0FC495E8030084E8B2
:1019900003007B68604A03F5B67415460FCD0FC48B
:1019A0000FCD0FC495E8030084E803007B68002294
:1019B000C3F894217B680122C3F898217B68002238
:1019C000C3F89C217B680022C3F8A0217B684FF0FC
:1019D0000002C3F8A4217B684FF00002C3F8A821DD
:1019E0007B684FF00002C3F8AC217B684FF0000227
:1019F000C3F8B0217B684FF00002C3F8B4217B68C4
:101A00000022C3F8B8217B680022C3F8BC217B68A0
:101A10000022C3F8C0217B680022C3F8C4217B6880
:101A20000022C3F8C8217B6803F5E6731846FFF768
:101A3000DDFD7B6803F5EC731846FFF7E9FD7B6875
:101A400003F5F0731846FFF7F5FD7B6803F5F473B3
:101A50001846FFF701FE7B6803F5F8731846FFF799
:101A60000DFE7B6803F5FC731846FFF719FE7B68D3
:101A700003F500731846FFF725FE7B6803F5027334
:101A80001846FFF731FE7B6803F504731846FFF72D
:101A90003DFE7B6803F506731846FFF749FE7B6839
:101AA00003F508731846FFF755FE7B6803F50A73C4
:101AB0001846FFF761FE7B6803F50C731846FFF7C5
:101AC0006DFE7B6803F50E731846FFF7FFFC7B681D
:101AD00003F512731846FFF719FD7B6803F51673BB
:101AE0001846FFF733FD7B6803F51A731846FFF7B6
:101AF0004DFD17E000F2052A00803BC400C0DAC4A7
:101B000000C0F344008054440040F1440000E1442C
:101B10000000C843E01D0208081E0208301E02082B
:101B2000581E02087B6803F51E731846FFF73EFC3B
:101B30007B6803F522731846FFF758FC7B6803F5B2
:101B400026731846FFF772FC7B6803F52A73184664
:101B5000FFF78CFC7B6803F52E731846FFF730FE09
:101B60007B6803F5E67318464FF4E1310022082341
:101B7000FFF794FA7B6803F5EC731846FFF7B4FAA5
:101B80007B6803F5F0731846FFF7AEFA7B6803F540
:101B9000F4731846FFF7A8FA7B6803F5F873184644
:101BA000FFF7A2FA7B6803F5FC731846FFF7B6FA55
:101BB0007B6803F500731846FFF7B0FA7B6803F5FE
:101BC00002731846FFF7AAFA7B6803F504731846F8
:101BD000FFF7A4FA7B6803F506731846FFF79EFA31
:101BE0007B6803F508731846FFF798FA7B6803F5DE
:101BF0000A731846FFF792FA7B6803F50C731846D0
:101C0000FFF78CFA7B6803F51073184621494FF0F3
:101C10007E52FFF779FB7B6803F5147318461D4964
:101C20004FF07E52FFF770FB7B6803F51873184680
:101C300018494FF07E52FFF767FB7B6803F51C7372
:101C4000184614494FF07E52FFF75EFB7B6803F5A0
:101C500022731846FFF748FA7B6803F52673184687
:101C6000FFF742FA7B6803F51E731846FFF73CFA4C
:101C70007B6803F52E731846FFF750FA7B6803F56F
:101C80002C731846FFF722FB7B6818460837BD46C1
:101C9000B0BD00BF0050C3472DE9F04389B004AF89
:101CA000F860B9607A603B60FB6803F5E676BB6874
:101CB0001B6818460DF05EFF804689467B681B68EE
:101CC00018460DF057FF04460D463B681B68184642
:101CD0000DF050FF02460B46CDE90045CDE9022349
:101CE0003046044942464B460AF06EFA1437BD4668
:101CF000BDE8F083801E020890B583B000AF786025
:101D00007B6803F5EC731846FFF78AFA0346002B4D
:101D100006D17B68D3F8B831012B01D0012300E054
:101D20000023002B16D07B680122C3F8B82101F0F4
:101D300057FC02460B46104619460EF071FB024650
:101D40007B68C3F8B0217B6803F52E731846FFF754
:101D500087FA8AE07B6803F5F0731846FFF760FAAC
:101D60000346002B06D17B68D3F8B831022B01D093
:101D7000012300E00023002B16D07B680222C3F869
:101D8000B82101F02DFC02460B46104619460EF014
:101D900047FB02467B68C3F8B0217B6803F52E73CE
:101DA0001846FFF75DFA60E07B6803F5F4731846A8
:101DB000FFF736FA0346002B06D17B68D3F8B8311B
:101DC000002B01D0012300E00023002B36D07B68DC
:101DD0000022C3F8B8217B6803F51C7318464FF046
:101DE0007E51FFF7A3FA7B6803F5107318464FF096
:101DF0007E51FFF79BFA7B6803F5147318464FF08A
:101E00007E51FFF793FA7B6803F5187318464FF07D
:101E10007E51FFF78BFA01F0E3FB02460B461046BA
:101E200019460EF0FDFA02467B68C3F8B0217B68C4
:101E300003F52E731846FFF713FA16E07B6803F5D7
:101E4000F8731846FFF7ECF90346002B06D17B68C0
:101E5000D3F8B831032B01D0012300E00023002B7D
:101E600003D07B680322C3F8B82101F0B9FB024616
:101E70000B46104619460EF0D3FA02467B68D3F89B
:101E8000B031104619460EF0FFF903461A460123F9
:101E90001C46104609490EF0B3FC0346002B01D145
:101EA00000231C46E3B2002B05D07B6803F52E739C
:101EB0001846FFF7E3F90C37BD4690BD0000FA4322
:101EC00080B582B000AF786039600D4839680EF097
:101ED000DBF9034623F0004318464FF07E510EF025
:101EE00085FC0346002B08D07B68D3F894317A68D0
:101EF0003C339B00134401225A600837BD4680BD25
:101F00000000B44280B582B000AF78607B681B6D82
:101F1000002B0DD101F064FB02460B46104619461A
:101F20000EF07EFA02467B689A647B6801221A658D
:101F30000837BD4680BD00BF90B583B000AF786064
:101F400001F04EFB02460B46104619460EF068FAA9
:101F500002467B689B6C104619460EF095F90346C5
:101F60001A4601231C46104621490EF049FC03463F
:101F7000002B01D100231C46E3B2002B14D07B6858
:101F8000D3F894317A6846339B00134400225A6098
:101F90007B68D3F894317A6832339B001344012272
:101FA0005A607B6800221A657B68D3F894317A689E
:101FB00046339B0013445A687B68C3F8C0217B6892
:101FC000D3F894317A6850339B0013445A687B6885
:101FD000C3F8C4217B68D3F894317A685A339B00E4
:101FE00013445A687B68C3F8C8210C37BD4690BDBE
:101FF0000080BB44B0B584B000AFF860B9607A60CF
:10200000FB68D3F89431FA6814339B0013445B687F
:102010001846B9680EF038F903461A46FB68C3F84B
:10202000A821FB68D3F89431FA681E339B0013444F
:102030005B68184679680EF027F903461A46FB6874
:10204000C3F8AC21FB68D3F8A83118460DF092FD17
:1020500004460D46FB68D3F8AC3118460DF08AFDF6
:1020600002460B46204629460AF070FF02460B4600
:10207000104619460EF0B4F80246FB68DA6200BF5B
:102080001037BD46B0BD00BF80B582B000AF7860EC
:102090007B68DB6A18464FF000010EF093FB0346A5
:1020A000002B00D02DE07B68DB6A184616490EF045
:1020B0009DFB0346002B13D001F092FA7B681B684E
:1020C0001A464FEAE273821A61EB030340F2DB50D7
:1020D0004FF00001904271EB030301DA012300E0AD
:1020E0000023002B0CD07B68D3F894315A1C7B68FA
:1020F000C3F8942101F074FA02460B467B681A601B
:1021000000BF0837BD4680BD000040402DE9F04FBC
:1021100097B00CAF78623962FA61BB617B6A03F5F4
:1021200026731846FFF77CF8034618460EF062F94E
:1021300002467B6AC3F8B4217B6A03F5E6737B61D0
:102140003B6A1A683A61FB691968F960BB691C68E7
:10215000BC603B6D1B6818460DF00CFD82468B463B
:102160007B6D1B6818460DF005FD80468946BB6DEA
:102170001B6818460DF0FEFC04460D467B6AD3F83A
:1021800094617B6A03F526731846FFF749F8786077
:102190007B6A03F51E731846FFF742F80346B968D9
:1021A0000091CDE902ABCDE90489CDE90645089659
:1021B0007C6809940A93786904493A69FB680AF0D3
:1021C00003F82C37BD46BDE8F08F00BF941E02080F
:1021D00080B483B000AF78607B680022C3F804212C
:1021E0007B680022C3F808217B6818460C37BD467F
:1021F0005DF8047B704700BF80B485B000AF7860A5
:102200000B46FB707B68D3F808315A1C114B83FBDB
:102210000213D911D317C91A0B461B020B44D31A48
:10222000FB607B68D3F80421FB689A4201D101234B
:102230000AE07B68D3F808317A68F978D1547B6872
:10224000FA68C3F80821002318461437BD465DF824
:10225000047B7047817F807F80B584B000AF396098
:1022600011461A460346FB710B46BB801346BB71F1
:102270003B68254A934204D10120012105F0E8FB87
:1022800022E03B68214A934204D10220012105F05B
:10229000DFFB19E03B681E4A934204D10420012170
:1022A00005F0D6FB10E03B681A4A934204D108209F
:1022B000012105F0CDFB07E03B68174A934203D1AB
:1022C0001020012105F0C4FB07F10803184607F0B0
:1022D0008BF8BB88BB60FB793B733B7EBB73BB79E0
:1022E000FB7303237B7307F108033868194606F074
:1022F000EDFFFB79012B04D1BB883868194607F044
:10230000CFF81037BD4680BD0000024000040240F7
:1023100000080240000C02400010024080B483B06C
:1023200000AF78600B46FB70FB78002B06D00949A4
:10233000084BDA6B7B681343CB6306E00549054B1A
:10234000DA6B7B68DB431340CB630C37BD465DF82B
:10235000047B7047002C014080B485B000AF7860EA
:102360000023FB73084B5A6B7B681340002B02D091
:102370000123FB7301E00023FB73FB7B184614373A
:10238000BD465DF8047B7047002C014080B483B0EB
:1023900000AF7860034A7B6893630C37BD465DF8F5
:1023A000047B7047002C014080B500AF0E4B1B88AA
:1023B0009BB21B099BB2002B05D00C4B1B68013B49
:1023C0000A4A13600BE0084B1B889BB21B099BB2A7
:1023D000002B04D1054B1B680133044A13600248EB
:1023E00001210AF0C9FC80BD000001402C09002039
:1023F00080B500AF4FF080431B889BB21B099BB296
:10240000002B05D00C4B1B68013B0B4A13600CE002
:102410004FF080431B889BB21B099BB2002B04D159
:10242000054B1B680133044A13604FF080400121C3
:102430000AF0A2FC80BD00BF3009002080B500AFCB
:102440000E4B1B889BB21B099BB2002B05D00C4B7B
:102450001B68013B0A4A13600BE0084B1B889BB2C8
:102460001B099BB2002B04D1054B1B680133044AA6
:102470001360024801210AF07FFC80BD0004004087
:102480003409002080B500AF0E4B1B889BB21B099E
:102490009BB2002B05D00C4B1B68013B0A4A136012
:1024A0000BE0084B1B889BB21B099BB2002B04D18D
:1024B000054B1B680133044A1360024801210AF0EE
:1024C0005BFC80BD000800403809002080B500AFEB
:1024D0000E4B1B889BB21B099BB2002B05D00C4BEB
:1024E0001B68013B0A4A13600BE0084B1B889BB238
:1024F0001B099BB2002B04D1054B1B680133044A16
:102500001360024801210AF037FC80BD000C004036
:102510003C09002080B500AF0E4B1B889BB21B0905
:102520009BB2002B05D00C4B1B68013B0A4A136081
:102530000BE0084B1B889BB21B099BB2002B04D1FC
:10254000054B1B680133044A1360024801210AF05D
:1025500013FC80BD000401404009002080B500AF9D
:102560000E4B1B889BB21B099BB2002B05D00C4B5A
:102570001B68013B0A4A13600BE0084B1B889BB2A7
:102580001B099BB2002B04D1054B1B680133044A85
:102590001360024801210AF0EFFB80BD00180040E3
:1025A0004409002080B500AF04480AF0A7F80246AD
:1025B000034B1B681B041344184680BD00000140F8
:1025C0002C09002080B500AF4FF080400AF096F84B
:1025D0000246034B1B681B041344184680BD00BF12
:1025E0003009002080B500AF04480AF087F80246A1
:1025F000034B1B681B041344184680BD00040040B5
:102600003409002080B500AF04480AF077F802468C
:10261000034B1B681B041344184680BD0008004090
:102620003809002080B500AF04480AF067F8024678
:10263000034B1B681B041344184680BD000C00406C
:102640003C09002080B500AF04480AF057F8024664
:10265000034B1B681B041344184680BD0004014053
:102660004009002080B500AF04480AF047F8024650
:10267000034B1B681B041344184680BD0018004020
:102680004409002090B59DB002AFF860B9601346D0
:10269000FB800023A7F866300023A7F86430F868B1
:1026A00009F0FCF8FA88002300930220B96801239E
:1026B000FFF7D2FDFA8807F120031046194608F00B
:1026C0006BFF0023A7F8663025E0B7F866305B00A3
:1026D00007F16802134433F8483C012B16D1B7F8D0
:1026E000663010335B0007F16802134433F8463C50
:1026F000184609F057FA03469CB2F86809F0C8FA80
:102700000346B86821461A4606F0D8FEB7F8663088
:102710000133A7F86630B7F866300F2BD5D91D4BBB
:102720001B681D4AA2FB03235B0E9BB2013BA7F86B
:1027300064304FF6FE73BB610023BB820023BB8372
:102740000023FB8207F11403F868194609F04AFFD9
:10275000B7F86430F8681946012209F0ADFFF8684F
:102760000321002200230AF017FBF868012101224F
:102770000AF0DEFAF868012109F0ECFFF86809F0C8
:1027800043F80346184609F0F7F900F055F86C379E
:10279000BD4690BD4000002029D9426680B582B078
:1027A00000AF78607B681E4A934203D1FFF7FAFEC0
:1027B000034630E07B68B3F1804F03D1FFF702FF9F
:1027C000034628E07B68174A934203D1FFF70AFFCC
:1027D000034620E07B68144A934203D1FFF712FFBF
:1027E000034618E07B68114A934203D1FFF71AFFB2
:1027F000034610E07B680E4A934203D1FFF722FFA5
:10280000034608E07B680B4A934203D1FFF72AFF97
:10281000034600E0002318460837BD4680BD00BFD0
:10282000000001400004004000080040000C00408F
:10283000000401400018004080B500AF194B002291
:102840001A60194B00221A60184B00221A60184BAC
:1028500000221A60174B00221A60174B00221A60E0
:10286000164B00221A601648002109F039FF4FF07C
:102870008040002109F034FF1248002109F030FFA8
:102880001148002109F02CFF1048002109F028FF11
:102890000F48002109F024FF0E48002109F020FF15
:1028A00080BD00BF2C090020300900203409002021
:1028B000380900203C09002040090020440900207C
:1028C000000001400004004000080040000C0040EF
:1028D000000401400018004080B500AF014808F036
:1028E0001DF980BDD012002080B500AF094B9B7A46
:1028F000002B0AD0084A084B1B6823F0060313601C
:1029000006F024FE0348FEF735FB4FF4802008F064
:1029100035FE80BDD012002010ED00E080B58AB0F9
:1029200000AF7860396000237B6200233B620023A4
:10293000FB610023BB617B681B8A9BB27B627B6A65
:1029400023F440537B623B68DB881A467B6A13435F
:102950007B627B6A9AB27B681A827B689B899BB296
:102960007B627B6A23F4B05323F00C037B623B68E9
:102970009A883B681B8913439AB23B685B8913436F
:102980009BB21A467B6A13437B627B6A9AB27B686E
:102990009A817B689B8A9BB27B627B6A23F440733B
:1029A0007B623B689B891A467B6A13437B627B6A26
:1029B0009AB27B689A8207F10803184604F09EFFDA
:1029C0007B68314A934203D07B68304A934202D1FC
:1029D0007B693B6201E03B693B627B689B899BB200
:1029E0009BB21BB2002B0CDA3A6A13469B001344CD
:1029F0009A001A443B681B685B00B2FBF3F3FB616F
:102A00000BE03A6A13469B0013449A001A443B6851
:102A10001B689B00B2FBF3F3FB61FB691C4AA2FB42
:102A200003235B091B017B627B6A1B09642202FB97
:102A300003F3FA69D31ABB617B689B899BB29BB293
:102A40001BB2002B0CDABB69DB003233104AA2FB4D
:102A500003235B0903F007037A6A13437B620BE0ED
:102A6000BB691B0132330A4AA2FB03235B0903F053
:102A70000F037A6A13437B627B6A9AB27B681A817E
:102A80002837BD4680BD00BF001001400014014042
:102A90001F85EB5180B483B000AF78600B46FB70AC
:102AA000FB78002B08D07B689B899BB243F40053D2
:102AB0009AB27B689A8107E07B689B899BB223F47A
:102AC00000539AB27B689A810C37BD465DF8047B4F
:102AD000704700BF80B483B000AF78600B467B8046
:102AE0007B88C3F308039AB27B689A800C37BD4693
:102AF0005DF8047B704700BF80B483B000AF78609E
:102B00007B689B889BB2C3F308039BB218460C37C3
:102B1000BD465DF8047B704780B487B000AF786035
:102B20000B467B8013467B7000233B610023FB60D8
:102B30000023BB6000237B617B687B617B88DBB209
:102B40005B09DBB23B617B8803F01F03FB60FB6822
:102B5000012202FA03F3BB603B69012B03D17B69BD
:102B60000C337B6109E03B69022B03D17B69103395
:102B70007B6102E07B6914337B617B78002B06D09C
:102B80007B697A691168BA680A431A6006E07B6952
:102B90007A691168BA68D2430A401A601C37BD4688
:102BA0005DF8047B704700BF80B485B000AF7860EB
:102BB0000B467B800023FB737B681B889AB27B8863
:102BC00013409BB2002B02D00123FB7301E00023D2
:102BD000FB73FB7B18461437BD465DF8047B7047DA
:102BE00080B485B000AF78607B681B783B737B68EE
:102BF0005B787B737B689B78BB737B68DB78FB734C
:102C0000FB6818461437BD465DF8047B704700BF6B
:102C100080B485B000AF78600B467B807B88BB8139
:102C20003A7B7B681A707B6801337A7B1A701437A1
:102C3000BD465DF8047B704780B582B000AF786018
:102C40007B680D4A93420AD14FF00070012104F0D5
:102C500059FF4FF00070002104F054FF09E04FF0DD
:102C60008060012104F04EFF4FF08060002104F0ED
:102C700049FF0837BD4680BD0064004080B485B080
:102C800000AF786039600023FB730023BB607B6872
:102C90001B6823F002027B681A607B681B6843F0A4
:102CA00001027B681A6002E0BB680133BB607B688D
:102CB0005B6803F00103002B04D1BB684FF6FF7281
:102CC0009342F1D17B685B6803F00103002B02D1D2
:102CD0000023FB739CE03B689B79012B06D17B684A
:102CE0001B6843F080027B681A6005E07B681B6804
:102CF00023F080027B681A603B68DB79012B06D1E8
:102D00007B681B6843F040027B681A6005E07B68C3
:102D10001B6823F040027B681A603B681B7A012B1A
:102D200006D17B681B6843F020027B681A6005E0CF
:102D30007B681B6823F020027B681A603B685B7A23
:102D4000012B06D17B681B6843F010027B681A6078
:102D500005E07B681B6823F010027B681A603B6803
:102D60009B7A012B06D17B681B6843F008027B68C5
:102D70001A6005E07B681B6823F008027B681A6014
:102D80003B68DB7A012B06D17B681B6843F00402A9
:102D90007B681A6005E07B681B6823F004027B688F
:102DA0001A603B689B789A073B68DB781B061A43DE
:102DB0003B681B791B041A433B685B791B051A436C
:102DC0003B681B88013B1A437B68DA617B681B68A0
:102DD00023F001027B681A600023BB6002E0BB683D
:102DE0000133BB607B685B6803F00103002B04D0F8
:102DF000BB684FF6FF729342F1D17B685B6803F0CA
:102E00000103002B02D00023FB7301E00123FB73BD
:102E1000FB7B18461437BD465DF8047B704700BF46
:102E200080B485B000AF78600023FB607B689B7A3C
:102E30001A4601239340FB60554A554BD3F80032A4
:102E400043F00103C2F800325149514BD3F81C2220
:102E5000FB68DB431340C1F81C327B681B7B002BF3
:102E600025D14B494A4BD3F80C22FB68DB43134076
:102E7000C1F80C3246497B689B7A18467B68DB8830
:102E80001B047A6852881A4300F1480341F8332042
:102E90003F497B689B7A18467B689B881B047A684D
:102EA00012881A4300F14803DB000B445A607B6828
:102EB0001B7B012B24D13649354BD3F80C22FB6800
:102EC0001343C1F80C3232497B689B7A18467B6801
:102ED0001B881B047A6852881A4300F1480341F8A2
:102EE00033202B497B689B7A18467B689B881B04A0
:102EF0007A68D2881A4300F14803DB000B445A6019
:102F00007B68DB7A002B09D12149214BD3F80422BD
:102F1000FB68DB431340C1F8043207E01C491C4B3B
:102F2000D3F80422FB681343C1F804327B681B8981
:102F3000002B08D11649164BD3F81422FB68DB434B
:102F40001340C1F814327B681B89012B07D110494B
:102F50000F4BD3F81422FB681343C1F814327B687B
:102F60005B7B012B07D10A49094BD3F81C22FB6874
:102F70001343C1F81C32064A054BD3F8003223F044
:102F80000103C2F800321437BD465DF8047B704778
:102F90000064004080B483B000AF78607B6800229A
:102FA0009A717B680022DA717B6800221A727B6852
:102FB00000225A727B6800229A727B680022DA72C1
:102FC0007B6800229A707B680022DA707B6803229B
:102FD0001A717B6802225A717B6801221A800C37B1
:102FE000BD465DF8047B704780B485B000AF786063
:102FF00039600023FB737B689B6803F08063002BC0
:1030000002D00023FB7313E07B689B6803F000632E
:10301000002B02D00123FB730AE07B689B6803F05E
:103020008053002B02D00223FB7301E00423FB73C7
:10303000FB7B042B00F09880FB7BFA7B79681832CD
:1030400012010A44126802F00102796818331B0168
:103050000B441A603B681B7A002B13D1FB7BFA7B75
:103060007968183212010A4411683A6812685205E8
:103070003868407A02430A43796818331B010B44CD
:103080001A6015E0FB7BFA7B7968183212010A445A
:1030900011683A685268D2003868007A024338688A
:1030A000407A02430A43796818331B010B441A60C3
:1030B0003B689B7A03F00F03DAB23B689A72FB7BA2
:1030C000FA7B7968183212010A44526822F00F0222
:1030D000796818331B010B445A60FB7BFA7B7968D3
:1030E000183212010A4452683968897A0A437968A9
:1030F00018331B010B445A60FB7B3A68927B110624
:103100003A68527B120411433A68127B12020A4356
:103110003968C97A0A4379681B010B4403F5C47303
:103120001A60FB7B3A68927C11063A68527C120462
:1031300011433A68127C12020A433968C97B0A4378
:1031400079681B010B4403F5C4735A60FB7BFA7B5F
:103150007968183212010A44126842F00102796853
:1031600018331B010B441A60FB7B18461437BD460D
:103170005DF8047B704700BF80B485B000AF786015
:103180000B46FB700023FB60FB78012B09D0022B60
:103190000DD0002B11D17B689A68264B1340FB6041
:1031A0000EE07B689A68244B1340FB6008E07B6864
:1031B0009A68224B1340FB6002E00023FB6000BFD3
:1031C000FB681F4A93421BD01D4A934208D81D4AF0
:1031D000934212D0174A934218D0002B0AD01EE017
:1031E000194A93420FD0154A934215D0124A93427E
:1031F0000FD014E00223FB6014E00023FB6011E019
:103200000023FB600EE00023FB600BE00123FB606A
:1032100008E00123FB6005E00123FB6002E00023DE
:10322000FB6000BFFB68DBB218461437BD465DF893
:10323000047B704703000004000300080000031033
:1032400000010008010000040000011080B485B0F6
:1032500000AFF8600B467A60FB72FB7AFA681B33AA
:103260001B0113441B68DBB203F00403DAB27B6872
:103270001A727B681B7A002B09D1FB7AFA681B3320
:103280001B0113441B685A0D7B681A6008E0FB7A27
:10329000FA681B331B0113441B68DA087B685A6009
:1032A000FB7AFA681B331B0113441B68DBB203F083
:1032B0000203DAB27B685A72FB7AFA681B331B018D
:1032C00013445B68DBB203F00F03DAB27B689A72D7
:1032D000FB7AFA681B331B0113445B681B0ADAB2E2
:1032E0007B68DA74FB7AFA681B01134403F5DC731C
:1032F0001B68DAB27B68DA72FB7AFA681B01134446
:1033000003F5DC731B681B0ADAB27B681A73FB7A5D
:10331000FA681B01134403F5DC731B681B0CDAB25B
:103320007B685A73FB7AFA681B01134403F5DC735C
:103330001B681B0EDAB27B689A73FB7AFA681B0172
:10334000134403F5DC735B68DAB27B68DA73FB7AEB
:10335000FA681B01134403F5DC735B681B0ADAB2DD
:103360007B681A74FB7AFA681B01134403F5DC735B
:103370005B681B0CDAB27B685A74FB7AFA681B0133
:10338000134403F5DC735B681B0EDAB27B689A7436
:10339000FB7A002B06D1FB68DB6843F02002FB6858
:1033A000DA6005E0FB681B6943F02002FB681A61E4
:1033B0001437BD465DF8047B704700BF80B485B00C
:1033C00000AFF860B9601346FB71FB79002B06D0A3
:1033D000FB685A69BB681A43FB685A6106E0FB68E0
:1033E0005A69BB68DB431A40FB685A611437BD4613
:1033F0005DF8047B704700BF80B584B000AF786093
:1034000039600023FB737B685A693B681340002BCB
:1034100000F0B2803B68402B62D0402B0FD8042BC9
:103420003AD0042B04D8012B24D0022B2BD09FE0C0
:10343000102B43D0202B4AD0082B36D098E0B3F580
:10344000006F00F08380B3F5006F09D8B3F5007FFB
:103450006AD0B3F5806F70D0B3F5807F5BD087E022
:10346000B3F5803F45D0B3F5003F4BD0B3F5004FE7
:1034700075D07DE07B689B681846434900F086F86C
:103480000346FB7377E07B68DB681846032100F096
:103490007DF80346FB736EE07B68DB681846082105
:1034A00000F074F80346FB7365E07B68DB68184640
:1034B000102100F06BF80346FB735CE07B681B692E
:1034C0001846032100F062F80346FB7353E07B6863
:1034D0001B691846082100F059F80346FB734AE0BF
:1034E0007B681B691846102100F050F80346FB73F7
:1034F00041E07B685B681846082100F047F8034606
:10350000FB7338E07B685B681846102100F03EF8DA
:103510000346FB732FE07B689B691846012100F08E
:1035200035F80346FB7326E07B689B691846022149
:1035300000F02CF80346FB731DE07B689B6918467E
:10354000042100F023F80346FB7314E07B689B69B9
:103550001846702100F01AF80346FB730BE07B68F5
:103560005B681846042100F011F80346FB7302E083
:103570000023FB7300BF01E00023FB73FB7B1846B5
:103580001037BD4680BD00BF0101010080B485B089
:1035900000AF786039600023FB737A683B681340A2
:1035A000002B02D00123FB7301E00023FB73FB7BA4
:1035B00018461437BD465DF8047B704780B400AFF1
:1035C000064BD3E90023013243F100030349C1E96B
:1035D0000023BD465DF8047B704700BF480900200A
:1035E00080B500AF00F010F802460B4610461946B1
:1035F0004FF47A724FF000030DF05CF902460B466F
:103600001046194680BD00BF80B400AF094BD3E916
:103610000023921843EB0303990041EA9271900052
:10362000121843EB010310461946BD465DF8047BB2
:10363000704700BF4809002080B500AF014805F081
:103640009BFD80BDACC5273780B58AB002AFF8605E
:103650007A601A460B46FB7213463B8107F114034E
:103660001846FFF797FCFB68012B08D14E48FFF77F
:10367000E3FA4FF00070012104F008FA0AE0FB6859
:10368000022B07D14948FFF7D7FA4FF0806001219C
:1036900004F0FCF93A8900230093022079680123A1
:1036A000FEF7DAFDBA8D002300930220B96A0123E8
:1036B000FEF7D2FDFB68012B16D13B89184608F0B6
:1036C00071FA03469BB278681946092205F0F6FEA6
:1036D000BB8D184608F066FA03469BB2B86A1946D5
:1036E000092205F0EBFE18E0FB68022B15D13B899F
:1036F000184608F057FA03469BB278681946092223
:1037000005F0DCFEBB8D184608F04CFA03469BB270
:10371000B86A1946092205F0D1FE0123BB760023C1
:10372000FB7600233B7700237B770023BB770023C6
:10373000FB77FB7ABB750023FB7505233B760623DD
:103740007B760323BB82FB68012B06D107F11403B0
:1037500015481946FFF792FA08E0FB68022B05D1DD
:1037600007F1140311481946FFF788FA4FF4E06097
:1037700008F0EAFAFB68012B08D1142008F0FCF9E4
:10378000094802210122FFF719FE0AE0FB68022B1B
:1037900007D1402008F0F0F9044802210122FFF788
:1037A0000DFE2037BD4680BD00640040006800402B
:1037B00080B586B000AF7860084611461A460346C9
:1037C000FB700B463B801346BB700023FB8200233B
:1037D000FB8210E0FB8ADBB2BB7400233B82002338
:1037E0007B7507F108031846FFF71AFBFB8A9BB2AB
:1037F00001339BB2FB82B7F916300D2BEADD7B68F3
:10380000DBB2BB7400233B8201237B75FB78002B6A
:1038100002D10023FB7404E0FB78012B01D10123CA
:10382000FB7400233B75B7F900305B019AB2BB789B
:103830001B019BB213439BB29BB27B81B7F9203033
:103840005B019AB297F824301B019BB213439BB2E1
:103850009BB2FB81B7F928305B019AB297F82C3004
:103860001B019BB213439BB29BB23B81B7F9303033
:103870005B019AB297F834301B019BB213439BB2A1
:103880009BB2BB8107F108031846FFF7C9FA183746
:10389000BD4680BD80B582B000AF786007487968CA
:1038A000FFF7A2FB00BF05480021FFF765FC0346B8
:1038B000012BF8D10837BD4680BD00BF0064004031
:1038C00080B582B000AF104B7B60104B3B6007E0CF
:1038D0003B681A1D3A607A68111D796012681A6097
:1038E0003B680B4A9342F3D30A480B494FF000025E
:1038F0008842B8BF40F8042BFADB04F03FF903F02C
:103900002BFE0837BD4680BD8C67020800000020F2
:103910000C09002010090020C418002080B400AF5A
:10392000FEE700BF80B584B000AF786007F1080300
:103930007868194607F086F83B7A03F01F03012BDD
:103940000AD0022B0FD0002B14D107F1080378689E
:10395000194606F0A1FC16E007F10803786819463D
:1039600006F0EAFC0FE007F108037868194606F054
:1039700017FD08E03B7A23F07F03DBB27868194635
:1039800008F026FB00BF002318461037BD4680BD57
:1039900080B584B000AF78600B46FB70FB78002BDD
:1039A00044D17B6803F55C73FB607B6893F811314D
:1039B000032B4ED1FB68DA69FB689B689A4220D9D9
:1039C000FB68DA69FB689B68D21AFB68DA617B687E
:1039D000DB78012B06D1FB68DA68FB689B681A4428
:1039E000FB68DA60FB68D968FB689A68FB68DB698A
:1039F000934228BF13469BB278681A4608F040FDF0
:103A000027E07B68D3F8E0351B69002B0AD07B6880
:103A100093F81231032B05D17B68D3F8E0351B698D
:103A200078689847786808F03FFD12E07B68D3F823
:103A3000E0359B69002B0CD07B6893F81231032B87
:103A400007D17B68D3F8E0359B69FA78786811462E
:103A50009847002318461037BD4680BD80B584B016
:103A600000AF78600B46FB70FB78002B60D17B6861
:103A700003F58C73FB607B6893F81131022B6AD1DC
:103A8000FB68DA69FB689B689A421CD9FB68DA69B3
:103A9000FB689B68D21AFB68DA617B68DB78012BD4
:103AA00006D1FB68DA68FB689B681A44FB68DA6039
:103AB000FB68DA68FB68DB699BB2786811461A46D6
:103AC00008F0CAFC47E0FB681B6AFA689268B3FB1F
:103AD000F2F102FB01F29B1A002B14D1FB681A6A67
:103AE000FB689B689A420ED3FB681A6AFB685B6AA4
:103AF0009A4208D278680021002208F0ADFCFB68E9
:103B000000225A6227E07B68D3F8E035DB68002B9F
:103B10000AD07B6893F81231032B05D17B68D3F868
:103B2000E035DB6878689847786808F0D5FC12E0E3
:103B30007B68D3F8E0355B69002B0CD07B6893F889
:103B40001231032B07D17B68D3F8E0355B69FA7833
:103B5000786811469847002318461037BD4680BD47
:103B600080B582B000AF78607868002140220023E1
:103B700008F05CF9786880214022002308F056F9AB
:103B80007B68012283F812217B68D3F8E4355B68F7
:103B90007A68927810469847002318460837BD4641
:103BA00080BD00BF80B582B000AF78607B68D3F87D
:103BB000E4351B6998477B68032283F812210023B0
:103BC00018460837BD4680BD80B582B000AF78602A
:103BD0007B68042283F812217B68D3F8E435DB6824
:103BE0009847002318460837BD4680BD80B582B08F
:103BF00000AF78607B68D3F8E035DB69002B05D037
:103C00007B68D3F8E035DB6978689847002318466D
:103C10000837BD4680BD00BF80B582B000AF786078
:103C20000B46FB707B68D3F8E0351B68FA78786840
:103C3000114698477B68D3F8E4359B689847002382
:103C400018460837BD4680BD80B582B000AF7860A9
:103C50000B46FB707B68D3F8E0355B68FA787868D0
:103C600011469847002318460837BD4680BD00BF5F
:103C700080B582B000AF78607B68D3F8E0351B6A0E
:103C800078689847002318460837BD4680BD00BFB6
:103C900080B582B000AF78607B68D3F8E0355B6AAE
:103CA00078689847002318460837BD4680BD00BF96
:103CB00080B483B000AF786039607B683A689A60FE
:103CC0007B6800225A60002318460C37BD465DF819
:103CD000047B704780B582B000AF78607B6810339A
:103CE000184603F057FA0346002B0CBF01230023AC
:103CF000DBB218460837BD4680BD00BF80B483B034
:103D000000AF78607B68D3F81C3118460C37BD468D
:103D10005DF8047B704700BF80B582B000AF78606B
:103D20007B681033184603F04BFA034618460837F1
:103D3000BD4680BD90B585B000AF786039607B68C6
:103D40001033184603F026FA0346002B14BF012354
:103D50000023DBB2002B08D03B6800221A707B687E
:103D60000022C3F81C21002354E00023FB604DE037
:103D7000FB683A68D4187B681033184603F020FAC1
:103D800003462370FB683A6813441B780D2B02D05E
:103D9000FB68FE2B1FDDFB683A68134400221A7093
:103DA0007B681033184603F0F5F90346002B14BF67
:103DB00001230023DBB2002B04D07B680022C3F870
:103DC0001C2106E07B68D3F81C315A1E7B68C3F8BF
:103DD0001C21FB681EE07B681033184603F0DAF9FB
:103DE0000346002B14BF01230023DBB2002B0AD0B3
:103DF000FB683A68134400221A707B680022C3F8FB
:103E00001C21FB6806E0FB680133FB60FB68FF2BAD
:103E1000AEDD002318461437BD4690BD80B582B094
:103E200000AF78607B689B68012B06D17B685B687C
:103E30001846FFF763FF034600E0002318460837E3
:103E4000BD4680BD80B582B000AF786039603B6808
:103E500000221A707B689B68012B07D17B685B6826
:103E600018463968FFF766FF034600E0002318464E
:103E70000837BD4680BD00BF80B582B000AF786016
:103E80007B689B68012B06D17B685B681846FFF74F
:103E900021FF034600E0002318460837BD4680BDD9
:103EA00080B582B000AF78607B689B68012B06D13B
:103EB0007B685B681846FFF72FFF034600E000238E
:103EC00018460837BD4680BD80B584B000AF786025
:103ED00039600023FB600DE07B681B6804331B68BE
:103EE000FA6839680A441278786811469847FB687E
:103EF0000133FB60FB683A6813441B78002BEBD15D
:103F00001037BD4680BD00BF90B587B002AFF860E6
:103F1000B9607A603B60FB6802229A60FB681B68AC
:103F20001C683B680093F868B9687A683B6AA047E8
:103F3000034618461437BD4690BD00BF80B483B019
:103F400000AF786040F6FF7318460C37BD465DF849
:103F5000047B7047A0F10800F0E700BF80B483B095
:103F600000AF7860034B18460C37BD465DF8047B04
:103F7000704700BF33335340A0F10800EEE700BFA5
:103F800080B483B000AF786040F6FF7318460C37FA
:103F9000BD465DF8047B7047A0F10800F0E700BF64
:103FA00080B483B000AF7860034B18460C37BD4631
:103FB0005DF8047B704700BF33335340A0F1080025
:103FC000EEE700BF80B483B000AF786040F6FF73C7
:103FD00018460C37BD465DF8047B7047A0F1080019
:103FE000F0E700BF80B483B000AF7860034B1846A1
:103FF0000C37BD465DF8047B704700BF3333534038
:10400000A0F10800EEE700BF80B483B000AF786095
:1040100040F6FF7318460C37BD465DF8047B7047C9
:10402000A0F10800F0E700BF80B483B000AF786073
:10403000034B18460C37BD465DF8047B704700BF44
:1040400033335340A0F10800EEE700BF80B483B0E3
:1040500000AF786040F6FF7318460C37BD465DF838
:10406000047B7047A0F10800F0E700BF80B483B084
:1040700000AF7860034B18460C37BD465DF8047BF3
:10408000704700BF33335340A0F10800EEE700BF94
:1040900080B582B000AF786004484FF4805105F0DD
:1040A000D7F9034618460837BD4680BD00040240D4
:1040B00080B582B000AF786039603B68002B05D1D5
:1040C00006484FF4805105F0EBF904E003484FF443
:1040D000805105F0D7F90837BD4680BD0004024085
:1040E00080B582B000AF786004484FF4805105F08D
:1040F00095F9034618460837BD4680BD00040240C6
:1041000080B584B002AF7860002300930020054999
:104110004FF480520023FEF79FF80023184608371B
:10412000BD4680BD0004024080B584B002AF786017
:1041300000230093012005494FF480520023FEF72D
:104140008BF8002318460837BD4680BD00040240A6
:1041500080B584B002AF7860002300930020054949
:104160004FF480520123FEF777F8002318460837F2
:10417000BD4680BD0004024080B584B002AF7860C7
:1041800000230093002005494FF480520223FEF7DC
:1041900063F8002318460837BD4680BD000402407E
:1041A00080B582B000AF786004484FF4004105F05C
:1041B0004FF9034618460837BD4680BD001002403F
:1041C00080B582B000AF786039603B68002B05D1C4
:1041D00006484FF4004105F063F904E003484FF44A
:1041E000004105F04FF90837BD4680BD0010024080
:1041F00080B582B000AF786004484FF4004105F00C
:104200000DF9034618460837BD4680BD0010024030
:1042100080B584B002AF7860002300930020054988
:104220004FF400420023FEF717F801231846083721
:10423000BD4680BD0010024080B584B002AF7860FA
:1042400000230093012005494FF400420023FEF7AC
:1042500003F8002318460837BD4680BD0010024011
:1042600080B584B002AF7860002300930020054938
:104270004FF400420123FDF7EFFF012318460837F2
:10428000BD4680BD0010024080B584B002AF7860AA
:1042900000230093002005494FF400420223FDF75C
:1042A000DBFF002318460837BD4680BD00100240E2
:1042B00080B582B000AF786004484FF4804105F0CB
:1042C000C7F8034618460837BD4680BD00040240C3
:1042D00080B582B000AF786039603B68002B05D1B3
:1042E00006484FF4804105F0DBF804E003484FF442
:1042F000804105F0C7F80837BD4680BD0004024084
:1043000080B582B000AF786004484FF4804105F07A
:1043100085F8034618460837BD4680BD00040240B4
:1043200080B584B002AF7860002300930020054977
:104330004FF480420023FDF78FFF00231846083713
:10434000BD4680BD0004024080B584B002AF7860F5
:1043500000230093012005494FF480420023FDF71C
:104360007BFF002318460837BD4680BD000402408D
:1043700080B584B002AF7860002300930020054927
:104380004FF480420123FDF767FF002318460837EA
:10439000BD4680BD0004024080B584B002AF7860A5
:1043A00000230093002005494FF480420223FDF7CB
:1043B00053FF002318460837BD4680BD0004024065
:1043C00080B582B000AF786004484FF4004105F03A
:1043D0003FF8034618460837BD4680BD000402403A
:1043E00080B582B000AF786039603B68002B05D1A2
:1043F00006484FF4004105F053F804E003484FF439
:10440000004105F03FF80837BD4680BD000402407A
:1044100080B582B000AF786004484FF4004104F0EA
:10442000FDFF034618460837BD4680BD0004024024
:1044300080B584B002AF7860002300930020054966
:104440004FF400420023FDF707FF0023184608370A
:10445000BD4680BD0004024080B584B002AF7860E4
:1044600000230093012005494FF400420023FDF78B
:10447000F3FE002318460837BD4680BD0004024005
:1044800080B584B002AF7860002300930020054916
:104490004FF400420123FDF7DFFE002318460837E2
:1044A000BD4680BD0004024080B584B002AF786094
:1044B00000230093002005494FF400420223FDF73A
:1044C000CBFE002318460837BD4680BD00040240DD
:1044D00080B582B000AF786004484FF4004104F02A
:1044E000B7FF034618460837BD4680BD00000240AE
:1044F00080B582B000AF786039603B68002B05D191
:1045000006484FF4004104F0CBFF04E003484FF4A9
:10451000004104F0B7FF0837BD4680BD00000240EF
:1045200080B582B000AF786004484FF4004104F0D9
:1045300075FF034618460837BD4680BD000002409F
:1045400080B584B002AF7860002300930020054955
:104550004FF400420023FDF77FFE00231846083782
:10456000BD4680BD0000024080B483B000AF7860DB
:10457000012318460C37BD465DF8047B704700BF29
:1045800080B584B002AF7860002300930020054915
:104590004FF400420123FDF75FFE00231846083761
:1045A000BD4680BD0000024080B584B002AF786097
:1045B00000230093002005494FF400420223FDF739
:1045C0004BFE002318460837BD4680BD0000024060
:1045D00080B582B000AF786004484FF4005104F019
:1045E00037FF034618460837BD4680BD0004024029
:1045F00080B582B000AF786039603B68002B05D190
:1046000006484FF4005104F04BFF04E003484FF418
:10461000005104F037FF0837BD4680BD000402405A
:1046200080B582B000AF786004484FF4005104F0C8
:10463000F5FE034618460837BD4680BD000402401B
:1046400080B584B002AF7860002300930020054954
:104650004FF400520023FDF7FFFD002318460837F2
:10466000BD4680BD0004024080B483B000AF7860D6
:10467000012318460C37BD465DF8047B704700BF28
:1046800080B584B002AF7860002300930020054914
:104690004FF400520123FDF7DFFD002318460837D1
:1046A000BD4680BD0004024080B584B002AF786092
:1046B00000230093002005494FF400520223FDF728
:1046C000CBFD002318460837BD4680BD00040240DC
:1046D00080B582B000AF786004484FF4006104F008
:1046E000B7FE034618460837BD4680BD000C0240A1
:1046F00080B582B000AF786039603B68002B05D18F
:1047000006484FF4006104F0CBFE04E003484FF488
:10471000006104F0B7FE0837BD4680BD000C0240C2
:1047200080B582B000AF786004484FF4006104F0B7
:1047300075FE034618460837BD4680BD000C024092
:1047400080B584B002AF7860002300930020054953
:104750004FF400620023FDF77FFD00231846083761
:10476000BD4680BD000C024080B483B000AF7860CD
:10477000012318460C37BD465DF8047B704700BF27
:1047800080B584B002AF7860002300930020054913
:104790004FF400620123FDF75FFD00231846083740
:1047A000BD4680BD000C024080B584B002AF786089
:1047B00000230093002005494FF400620223FDF717
:1047C0004BFD002318460837BD4680BD000C024053
:1047D00080B582B000AF786004484FF4806104F087
:1047E00037FE034618460837BD4680BD000C024020
:1047F00080B582B000AF786039603B68002B05D18E
:1048000006484FF4806104F04BFE04E003484FF487
:10481000806104F037FE0837BD4680BD000C0240C1
:1048200080B582B000AF786004484FF4806104F036
:10483000F5FD034618460837BD4680BD000C024012
:1048400080B584B002AF7860002300930020054952
:104850004FF480620023FDF7FFFC00231846083761
:10486000BD4680BD000C024080B483B000AF7860CC
:10487000012318460C37BD465DF8047B704700BF26
:1048800080B584B002AF7860002300930020054912
:104890004FF480620123FDF7DFFC00231846083740
:1048A000BD4680BD000C024080B584B002AF786088
:1048B00000230093002005494FF480620223FDF796
:1048C000CBFC002318460837BD4680BD000C0240D3
:1048D00080B582B000AF78600448022104F0B8FDD2
:1048E000034618460837BD4680BD00BF000402409D
:1048F00080B582B000AF786039603B68002B04D18E
:104900000548022104F0CCFD03E00348022104F035
:10491000B9FD0837BD4680BD0004024080B582B0B5
:1049200000AF78600448022104F078FD0346184681
:104930000837BD4680BD00BF0004024080B584B08A
:1049400002AF786000230093002005490222002373
:10495000FDF782FC002318460837BD4680BD00BF26
:104960000004024080B584B002AF78600023009359
:104970000120054902220023FDF76EFC00231846A2
:104980000837BD4680BD00BF0004024080B584B03A
:1049900002AF786000230093002005490222012322
:1049A000FDF75AFC002318460837BD4680BD00BFFE
:1049B0000004024080B584B002AF78600023009309
:1049C0000020054902220223FDF746FC0023184679
:1049D0000837BD4680BD00BF0004024080B582B0EC
:1049E00000AF78600448102104F032FD03461846F9
:1049F0000837BD4680BD00BF0000024080B582B0D0
:104A000000AF786039603B68002B04D10548102165
:104A100004F046FD03E00348102104F033FD08379D
:104A2000BD4680BD0000024080B582B000AF786016
:104A30000448102104F0F2FC034618460837BD462E
:104A400080BD00BF0000024080B584B002AF786036
:104A5000002300930020054910220023FDF7FCFBF2
:104A6000002318460837BD4680BD00BF0000024045
:104A700080B584B002AF786000230093012005491F
:104A800010220023FDF7E8FB002318460837BD4637
:104A900080BD00BF0000024080B584B002AF7860E6
:104AA000002300930020054910220123FDF7D4FBC9
:104AB000002318460837BD4680BD00BF00000240F5
:104AC00080B584B002AF78600023009300200549D0
:104AD00010220223FDF7C0FB002318460837BD460D
:104AE00080BD00BF0000024080B582B000AF78609A
:104AF0000448012104F0ACFC034618460837BD46C3
:104B000080BD00BF0008024080B582B000AF786071
:104B100039603B68002B04D10548012104F0C0FC3A
:104B200003E00348012104F0ADFC0837BD4680BD19
:104B30000008024080B582B000AF786004480121CF
:104B400004F06CFC034618460837BD4680BD00BF24
:104B50000008024080B584B002AF78600023009363
:104B60000020054901220023FDF776FB00231846AB
:104B70000837BD4680BD00BF0008024080B584B044
:104B800002AF786000230093012005490122002331
:104B9000FDF762FB002318460837BD4680BD00BF05
:104BA0000008024080B584B002AF78600023009313
:104BB0000020054901220123FDF74EFB0023184682
:104BC0000837BD4680BD00BF0008024080B584B0F4
:104BD00002AF7860002300930020054901220223E0
:104BE000FDF73AFB002318460837BD4680BD00BFDD
:104BF0000008024080B582B000AF786004484FF4EE
:104C0000805104F025FC034618460837BD4680BD98
:104C10000010024080B582B000AF786039603B6818
:104C2000002B05D106484FF4805104F039FC04E014
:104C300003484FF4805104F025FC0837BD4680BD81
:104C40000010024080B582B000AF786004484FF495
:104C5000805104F0E3FB034618460837BD4680BD8B
:104C60000010024080B584B002AF7860002300934A
:104C7000002005494FF480520023FDF7EDFA002390
:104C800018460837BD4680BD0010024080B584B08C
:104C900002AF786000230093012005494FF4805251
:104CA0000023FDF7D9FA002318460837BD4680BD1A
:104CB0000010024080B584B002AF786000230093FA
:104CC000002005494FF480520123FDF7C5FA002367
:104CD00018460837BD4680BD0010024080B584B03C
:104CE00002AF786000230093002005494FF4805202
:104CF0000223FDF7B1FA002318460837BD4680BDF0
:104D00000010024080B582B000AF786004482021D6
:104D100004F09EFB034618460837BD4680BD00BF21
:104D20000000024080B582B000AF786039603B6817
:104D3000002B04D10548202104F0B2FB03E0034816
:104D4000202104F09FFB0837BD4680BD00000240D3
:104D500080B582B000AF78600448202104F05EFB8B
:104D6000034618460837BD4680BD00BF000002401C
:104D700080B584B002AF786000230093002005491D
:104D800020220023FDF768FA002318460837BD46A5
:104D900080BD00BF0000024080B584B002AF7860E3
:104DA000002300930120054920220023FDF754FA37
:104DB000002318460837BD4680BD00BF00000240F2
:104DC00080B584B002AF78600023009300200549CD
:104DD00020220123FDF740FA002318460837BD467C
:104DE00080BD00BF0000024080B584B002AF786093
:104DF000002300930020054920220223FDF72CFA0E
:104E0000002318460837BD4680BD00BF00000240A1
:104E100080B582B000AF78600448042104F018FB2C
:104E2000034618460837BD4680BD00BF0004024057
:104E300080B582B000AF786039603B68002B04D148
:104E40000548042104F02CFB03E00348042104F08E
:104E500019FB0837BD4680BD0004024080B582B012
:104E600000AF78600448042104F0D8FA03461846DD
:104E70000837BD4680BD00BF0004024080B584B045
:104E800002AF78600023009300200549042200232C
:104E9000FDF7E2F9002318460837BD4680BD00BF84
:104EA0000004024080B584B002AF78600023009314
:104EB0000120054904220023FDF7CEF900231846FE
:104EC0000837BD4680BD00BF0004024080B584B0F5
:104ED00002AF7860002300930020054904220123DB
:104EE000FDF7BAF9002318460837BD4680BD00BF5C
:104EF0000004024080B584B002AF786000230093C4
:104F00000020054904220223FDF7A6F900231846D4
:104F10000837BD4680BD00BF0004024080B582B0A6
:104F200000AF78600448802104F092FA03461846E6
:104F30000837BD4680BD00BF0010024080B582B07A
:104F400000AF786039603B68002B04D105488021B0
:104F500004F0A6FA03E00348802104F093FA08372E
:104F6000BD4680BD0010024080B582B000AF7860C1
:104F70000448802104F052FA034618460837BD461B
:104F800080BD00BF0010024080B584B002AF7860E1
:104F9000002300930020054980220023FDF75CF9DF
:104FA000002318460837BD4680BD00BF00100240F0
:104FB00080B584B002AF78600023009301200549DA
:104FC00080220023FDF748F9002318460837BD4624
:104FD00080BD00BF0010024080B584B002AF786091
:104FE000002300930020054980220123FDF734F9B6
:104FF000002318460837BD4680BD00BF00100240A0
:1050000080B584B002AF786000230093002005498A
:1050100080220223FDF720F9002318460837BD46F9
:1050200080BD00BF0010024080B582B000AF786044
:1050300004484FF4806104F00BFA03461846083721
:10504000BD4680BD0010024080B582B000AF7860E0
:1050500039603B68002B05D106484FF4806104F0AD
:105060001FFA04E003484FF4806104F00BFA08379C
:10507000BD4680BD0010024080B582B000AF7860B0
:1050800004484FF4806104F0C9F903461846083714
:10509000BD4680BD0010024080B584B002AF78608C
:1050A00000230093002005494FF480620023FDF7A0
:1050B000D3F8002318460837BD4680BD00100240D3
:1050C00080B584B002AF78600023009301200549C9
:1050D0004FF480620023FDF7BFF80023184608371D
:1050E000BD4680BD0010024080B584B002AF78603C
:1050F00000230093002005494FF480620123FDF74F
:10510000ABF8002318460837BD4680BD00100240AA
:1051100080B584B002AF7860002300930020054979
:105120004FF480620223FDF797F8002318460837F2
:10513000BD4680BD0010024080B582B000AF7860EF
:105140000448012104F084F9034618460837BD4697
:1051500080BD00BF0004024080B582B000AF78601F
:1051600039603B68002B04D10548012104F098F90F
:1051700003E00348012104F085F90837BD4680BDEE
:105180000004024080B582B000AF7860044801217D
:1051900004F044F9034618460837BD4680BD00BFF9
:1051A0000004024080B584B002AF78600023009311
:1051B0000020054901220023FDF74EF80023184680
:1051C0000837BD4680BD00BF0004024080B584B0F2
:1051D00002AF7860002300930120054901220023DB
:1051E000FDF73AF8002318460837BD4680BD00BFDA
:1051F0000004024080B584B002AF786000230093C1
:105200000020054901220123FDF726F80023184656
:105210000837BD4680BD00BF0004024080B584B0A1
:1052200002AF786000230093002005490122022389
:10523000FDF712F8002318460837BD4680BD00BFB1
:105240000004024080B582B000AF786004481021AD
:1052500004F0FEF8034618460837BD4680BD00BF7F
:105260000010024080B582B000AF786039603B68C2
:10527000002B04D10548102104F012F903E0034883
:10528000102104F0FFF80837BD4680BD0010024031
:1052900080B582B000AF78600448102104F0BEF8F9
:1052A000034618460837BD4680BD00BF00100240C7
:1052B00080B584B002AF78600023009300200549D8
:1052C00010220023FCF7C8FF002318460837BD460C
:1052D00080BD00BF0010024080B584B002AF78608E
:1052E000002300930120054910220023FCF7B4FF9E
:1052F000002318460837BD4680BD00BF001002409D
:1053000080B584B002AF7860002300930020054987
:1053100010220123FCF7A0FF002318460837BD46E2
:1053200080BD00BF0010024080B584B002AF78603D
:10533000002300930020054910220223FCF78CFF74
:10534000002318460837BD4680BD00BF001002404C
:1053500080B582B000AF78600448042104F078F88A
:10536000034618460837BD4680BD00BF0010024006
:1053700080B582B000AF786039603B68002B04D103
:105380000548042104F08CF803E00348042104F0EC
:1053900079F80837BD4680BD0010024080B582B064
:1053A00000AF78600448042104F038F8034618463A
:1053B0000837BD4680BD00BF0010024080B584B0F4
:1053C00002AF7860002300930020054904220023E7
:1053D000FCF742FF002318460837BD4680BD00BFDA
:1053E0000010024080B584B002AF786000230093C3
:1053F0000120054904220023FCF72EFF0023184654
:105400000837BD4680BD00BF0010024080B584B0A3
:1054100002AF786000230093002005490422012395
:10542000FCF71AFF002318460837BD4680BD00BFB1
:105430000010024080B584B002AF78600023009372
:105440000020054904220223FCF706FF002318462A
:105450000837BD4680BD00BF0010024080B582B055
:1054600000AF786004484FF4807103F0F1FF034609
:1054700018460837BD4680BD0010024080B582B096
:1054800000AF786039603B68002B05D106484FF4C7
:10549000807104F005F804E003484FF4807103F0D4
:1054A000F1FF0837BD4680BD0010024080B582B0D4
:1054B00000AF786004484FF4807103F0AFFF0346FB
:1054C00018460837BD4680BD0010024080B584B044
:1054D00002AF786000230093002005494FF48072EA
:1054E0000023FCF7B9FE002318460837BD4680BDEF
:1054F0000010024080B584B002AF786000230093B2
:10550000012005494FF480720023FCF7A5FE00231B
:1055100018460837BD4680BD0010024080B584B0F3
:1055200002AF786000230093002005494FF4807299
:105530000123FCF791FE002318460837BD4680BDC5
:105540000010024080B584B002AF78600023009361
:10555000002005494FF480720223FCF77DFE0023F2
:1055600018460837BD4680BD0010024080B582B0A5
:1055700000AF78600448082103F06AFF034618462C
:105580000837BD4680BD00BF0010024080B582B024
:1055900000AF786039603B68002B04D105480821D2
:1055A00003F07EFF03E00348082103F06BFF083798
:1055B000BD4680BD0010024080B582B000AF78606B
:1055C0000448082103F02AFF034618460837BD4661
:1055D00080BD00BF0010024080B584B002AF78608B
:1055E000002300930020054908220023FCF734FE25
:1055F000002318460837BD4680BD00BF001002409A
:1056000080B584B002AF7860002300930120054983
:1056100008220023FCF720FE002318460837BD4669
:1056200080BD00BF0010024080B584B002AF78603A
:10563000002300930020054908220123FCF70CFEFB
:10564000002318460837BD4680BD00BF0010024049
:1056500080B584B002AF7860002300930020054934
:1056600008220223FCF7F8FD002318460837BD4640
:1056700080BD00BF0010024080B582B000AF7860EE
:105680000448202103F0E4FE034618460837BD46CF
:1056900080BD00BF0008024080B582B000AF7860D6
:1056A00039603B68002B04D10548202103F0F8FE47
:1056B00003E00348202103F0E5FE0837BD4680BD26
:1056C0000008024080B582B000AF78600448202115
:1056D00003F0A4FE034618460837BD4680BD00BF50
:1056E0000008024080B584B002AF786000230093C8
:1056F0000020054920220023FCF7AEFD00231846B8
:105700000837BD4680BD00BF0008024080B584B0A8
:1057100002AF78607B680222DA60002300930120E8
:10572000044920220023FCF797FD00231846083780
:10573000BD4680BD0008024080B584B002AF7860ED
:10574000002300930020054920220123FCF784FD5B
:10575000002318460837BD4680BD00BF0008024040
:1057600080B584B002AF7860002300930020054923
:1057700020220223FCF770FD002318460837BD469F
:1057800080BD00BF0008024080B582B000AF7860E5
:105790000448022103F05CFE034618460837BD4664
:1057A00080BD00BF0008024080B582B000AF7860C5
:1057B00039603B68002B04D10548022103F070FEDC
:1057C00003E00348022103F05DFE0837BD4680BDBB
:1057D0000008024080B582B000AF78600448022122
:1057E00003F01CFE034618460837BD4680BD00BFC7
:1057F0000008024080B584B002AF786000230093B7
:105800000020054902220023FCF726FD002318464C
:105810000837BD4680BD00BF0008024080B584B097
:1058200002AF78607B680222DA60002300930120D7
:10583000044902220023FCF70FFD00231846083715
:10584000BD4680BD0008024080B584B002AF7860DC
:10585000002300930020054902220123FCF7FCFCF1
:10586000002318460837BD4680BD00BF000802402F
:1058700080B584B002AF7860002300930020054912
:1058800002220223FCF7E8FC002318460837BD4635
:1058900080BD00BF0008024080B582B000AF7860D4
:1058A0000448042103F0D4FD034618460837BD46DA
:1058B00080BD00BF0008024080B582B000AF7860B4
:1058C00039603B68002B04D10548042103F0E8FD52
:1058D00003E00348042103F0D5FD0837BD4680BD31
:1058E0000008024080B582B000AF7860044804210F
:1058F00003F094FD034618460837BD4680BD00BF3F
:105900000008024080B584B002AF786000230093A5
:105910000020054904220023FCF79EFC00231846C2
:105920000837BD4680BD00BF0008024080B584B086
:1059300002AF78607B680222DA60002300930120C6
:10594000044904220023FCF787FC0023184608378B
:10595000BD4680BD0008024080B584B002AF7860CB
:10596000002300930020054904220123FCF774FC66
:10597000002318460837BD4680BD00BF000802401E
:1059800080B584B002AF7860002300930020054901
:1059900004220223FCF760FC002318460837BD46AA
:1059A00080BD00BF0008024080B582B000AF7860C3
:1059B0000448082103F04CFD034618460837BD464D
:1059C00080BD00BF0008024080B582B000AF7860A3
:1059D00039603B68002B04D10548082103F060FDC5
:1059E00003E00348082103F04DFD0837BD4680BDA4
:1059F0000008024080B582B000AF786004480821FA
:105A000003F00CFD034618460837BD4680BD00BFB5
:105A10000008024080B584B002AF78600023009394
:105A20000020054908220023FCF716FC0023184635
:105A30000837BD4680BD00BF0008024080B584B075
:105A400002AF78607B680222DA60002300930120B5
:105A5000044908220023FCF7FFFB002318460837FF
:105A6000BD4680BD0008024080B584B002AF7860BA
:105A7000002300930020054908220123FCF7ECFBDA
:105A8000002318460837BD4680BD00BF000802400D
:105A900080B584B002AF78600023009300200549F0
:105AA00008220223FCF7D8FB002318460837BD461E
:105AB00080BD00BF0008024080B582B000AF7860B2
:105AC0000448102103F0C4FC034618460837BD46BD
:105AD00080BD00BF0008024080B582B000AF786092
