:020000040800F2
:10000000C858012011320008C1810008DD810008B4
:10001000F981000815820008318200080000000004
:100020000000000000000000000000004D820008F9
:100030006982000800000000858200080D2F00087A
:100040006D3200086D3200086D3200086D32000814
:100050006D3200086D3200086D3200086D32000804
:100060006D3200086D3200086D3200086D320008F4
:100070006D3200086D3200086D3200086D320008E4
:100080006D3200086D3200086D3200086D320008D4
:10009000D96A00086D3200086D3200086D32000820
:1000A0006D320008F91C00086D3200086D3200083E
:1000B000411D00088D1D0008D51D00086D32000887
:1000C0006D3200086D3200086D3200086D32000894
:1000D0006D3200086D32000851650008E9650008BE
:1000E0006D3200086D32000839220008AD1E00088C
:1000F000651E00086D3200086D3200086D32000880
:100100006D320008758400081D1E00086D3200085D
:100110006D3200086D3200086D3200086D32000843
:100120006D3200086D3200086D32000881840008CD
:100130006D3200086D3200086D3200086D32000823
:100140006D3200086D3200086D3200082922000867
:100150006D3200086D3200086D3200086D32000803
:100160006D3200086D3200086D3200086D320008F3
:100170006D3200086D3200086D3200086D320008E3
:100180006D3200086D32000810B5054C237833B984
:10019000044B13B10448AFF300800123237010BD5A
:1001A000100900200000000074490208084B10B537
:1001B0001BB108480849AFF300800848036803B939
:1001C00010BD074B002BFBD0BDE81040184700BF07
:1001D00000000000744902081409002008090020EA
:1001E0000000000080B584B000AFF8600B467A6074
:1001F000FB72FB7A013B032B52D801A252F823F089
:100200001102000835020008590200087D020008AA
:10021000FB68DB6A18460FF0B5F9034618467968A3
:100220000FF008FA034618460FF0F0FB0246FB6891
:100230005A6336E0FB68DB6A18460FF0A3F9034601
:10024000184679680FF0F6F9034618460FF0DEFB02
:100250000246FB689A6324E0FB68DB6A18460FF0ED
:1002600091F90346184679680FF0E4F903461846F9
:100270000FF0CCFB0246FB68DA6312E0FB68DB6A36
:1002800018460FF07FF90346184679680FF0D2F947
:10029000034618460FF0BAFB0246FB681A6400E0FA
:1002A00000BF1037BD4680BD80B582B000AF78601A
:1002B0000B46FB70FB78012B06D17B685B6B184605
:1002C0000FF060F903461FE0FB78022B06D17B6834
:1002D0009B6B18460FF056F9034615E0FB78032B8D
:1002E00006D17B68DB6B18460FF04CF903460BE038
:1002F000FB78042B06D17B681B6C18460FF042F983
:10030000034601E04FF0000318460837BD4680BDA4
:1003100090B5ADB002AFF860B9603B601346FB80AA
:100320000023C7F8A4300023C7F8A0300023C7F883
:100330009C300123C7F898300023A7F8963008F0C6
:1003400011FA07F14403184606F012FEFB68B3F1F8
:10035000804F03D3FB68944A934207D9FB68934AC2
:10036000934211D9FB68924A93420DD8FB6C914A93
:10037000D2F88C20120E02F00102013202FB03F3CC
:100380005B00C7F8A4300CE03B6D8A4AD2F88C20A1
:10039000120E02F00102013202FB03F35B00C7F808
:1003A000A4303B68002B0ADDD7F8A430824A82FBD8
:1003B00003125211DB17D21A3B689A4201DA012369
:1003C000EEE01FE0D7F8A0300133C7F8A030D7F82F
:1003D000A420D7F8A03092FBF3F23B6892FBF3F332
:1003E000C7F89C30D7F89C30B3F5803F02DA002381
:1003F000C7F89830D7F8A0304FF6FE72934201DD6F
:100400000123CDE0D7F89830002BDBD1D7F8A4201A
:10041000D7F8A03092FBF3F2D7F89C3092FBF3F3BD
:100420003B60F8680AF006FBFA880023009302207C
:10043000B968002301F0B8FBD7F89C30013BFB639F
:10044000D7F8A0309BB2013B9BB23B870023A7F8B3
:10045000403000237B87002387F8423007F13803C0
:10046000F86819460BF08AF96023BB8400233B86A9
:100470000123FB8404233B8508237B864FF4807390
:10048000BB864FF40073FB8607F12403F868194616
:100490000BF04CFAF86800210BF036FC07F124034E
:1004A000F86819460BF0BCFAF86800210BF048FC1C
:1004B00007F12403F86819460BF03AFBF8680021AD
:1004C0000BF05CFC07F12403F86819460BF0B6FB4F
:1004D000F86800210BF06EFCFB68384A934203D0A9
:1004E000FB68374A934211D107F1140318460BF009
:1004F000A7FC4FF480433B8407F11403F8681946C6
:100500000BF076FCF86801210BF0B8FCFA8807F1D3
:100510005403104619460AF00BF90023A7F8963049
:1005200025E0B7F896305B0007F1A802134433F8D2
:10053000543C012B16D1B7F8963010335B0007F10D
:10054000A802134433F8523C18460AF0F7FB03465E
:100550009CB2F8680AF068FC0346B86821461A465F
:1005600008F08CF8B7F896300133A7F89630B7F852
:1005700096300F2BD5D9FB6800225A63FB68002206
:100580009A63FB680022DA63FB6800221A64F86849
:1005900001210BF08BF9F86801210BF0A7F900237A
:1005A0001846AC37BD4690BD00140040FF17004010
:1005B00000200040003802401F85EB510000014040
:1005C0000004014080B489B000AFF860B960114602
:1005D0001A460B46FB711346BB800023FB76FB6873
:1005E000DB78002B22D100237B610023FB61BB88D9
:1005F0000333002B00DA03339B107B61FB79FA682D
:1006000032339B0013449B683B610023FB6109E08C
:10061000BB681A683B691A60FB690133FB61BB6800
:100620000433BB60FA697B699A42F1D3FB7E1846BA
:100630002437BD465DF8047B704700BF80B489B0A5
:1006400000AFF860B9601346FB800023FB61FB88B4
:100650000333002B00DA03339B10BB61FB68D3F834
:10066000D0307B610023FB6109E07B691A68BB68BD
:100670001A60FB690133FB61BB680433BB60FA6934
:10068000BB699A42F1D3BB6818462437BD465DF872
:10069000047B704780B586B000AF78603960002376
:1006A000FB7400237B610023FB60FB6843F02003A5
:1006B000FB603B68DBB203F01F03DBB203F01F03F8
:1006C0009B01FA6822F4F8621343FB607B68DB68E5
:1006D000FA681A617B68DB681B69FB607B69013320
:1006E0007B617B69094A934200D906E0FB685B099C
:1006F00003F00103DBB2012BECD0032008F074FE01
:10070000FB7C18461837BD4680BD00BF400D030076
:1007100080B483B000AF78607B68DB685B6903F00E
:10072000010318460C37BD465DF8047B704700BFD7
:1007300080B582B000AF78607868FFF7E9FF0346C4
:10074000012B14BF01230023DBB218460837BD4636
:1007500080BD00BF80B485B000AF78600023FB602F
:100760007B68DB685B69FB607B68DB689B69FA68B8
:100770001340FB60FB6818461437BD465DF8047BE8
:10078000704700BF80B485B000AF78600023FB7372
:100790007B681B699B68BB603B7AC3F34103DBB298
:1007A000022B09D0032B04D0012B02D00323FB73AF
:1007B00005E00223FB7302E00123FB7300BFFB7B18
:1007C00018461437BD465DF8047B704780B487B087
:1007D00000AF78600023FB750023BB607B681B695A
:1007E0009B683B617B689B691B68FB603B7CC3F338
:1007F0004103DBB2022B04D0BB896FF30A03BB8138
:1008000005E0BB89032262F30A03BB8100BF7B685A
:100810009B69FA681A607B7A43F001037B727B68FC
:100820001B697A6812695168BA68D2431140BA6884
:100830000A435A60FB7D18461C37BD465DF8047BB1
:10084000704700BF80B487B000AF78603960002384
:10085000FB740023FB600023BB603B685B78012BCB
:100860000FD13B681B787A6804339B0013449B6864
:100870007B613B681B781A46012393409BB23B8106
:100880000EE03B681B787A6814339B0013445B6866
:100890007B613B681B781A46012393409BB27B81A6
:1008A0007B691B68FB607B7B23F07F03DBB2002B43
:1008B00027D13B689B689BB2C3F30A039AB2BB89FA
:1008C00062F30A03BB813B68DB7803F00303DAB20F
:1008D000BB7B62F38303BB733B68DB88DBB203F053
:1008E0000F03DAB2FB8962F38913FB81FB7B43F0D0
:1008F0001003FB737B7B43F080037B73FA687B6997
:100900001A607B681B697A681269D169BA680A4300
:10091000DA61FB7C18461C37BD465DF8047B7047E6
:1009200080B588B000AF786039600023FB77002382
:10093000BB6100237B6100233B613B685B78012B3B
:1009400040F0AB803B681B787A6804339B0013440B
:100950009B681B687B613B681B787A6804339B004B
:1009600013449B681B693B613B685B69002B09D1A1
:100970003B696FF312033B617B8A012262F3CC0374
:100980007B8222E03B685B69C3F312023B6962F33E
:1009900012033B613B685A693B689B6813445A1ECB
:1009A0003B689B68B2FBF3F39BB2C3F309039AB2B3
:1009B0007B8A62F3CC037B823B68DB78012B04D11A
:1009C000FB7C012262F34613FB743B681B787A6858
:1009D00004339B0013449B683A691A617B68DB7897
:1009E000012B0AD13B681B787A6804339B001344BF
:1009F0009B683A6812695A6115E03B68DB78012B05
:100A000011D03B685B69002B0DD03B681B781A4600
:100A100001239340BB617B681B697A681269516B43
:100A2000BA690A435A633B68DB78012B14D17B68AF
:100A30001B699B68FB60FB68C3F30D239BB203F04B
:100A40000103002B04D1FB7D43F02003FB7503E081
:100A5000FB7D43F01003FB75FB7D43F00403FB7546
:100A6000FB7D43F08003FB753B681B787A68043399
:100A70009B0013449B687A691A603B68DB78012B02
:100A800040F089803B68D9683B681A783B685B69AD
:100A90009BB27868FFF796FD7DE03B681B787A682B
:100AA00014339B0013445B681B687B613B681B78B5
:100AB0007A6814339B0013445B681B693B613B6895
:100AC0005B69002B0DD13B689B68C3F312023B6945
:100AD00062F312033B617B8A012262F3CC037B82C7
:100AE00020E03B685A693B689B6813445A1E3B6888
:100AF0009B68B2FBF3F39BB2C3F309039AB27B8A00
:100B000062F3CC037B827B8AC3F3C9039BB21A4690
:100B10003B689B6803FB02F3C3F312023B6962F379
:100B200012033B613B681B787A6814339B001344C3
:100B30005B683A691A617B68DB78012B09D13B68F5
:100B40001B787A6814339B0013445B683A68126917
:100B50005A613B68DB78012B0CD13B685B79002B39
:100B600004D0FB7D43F02003FB7503E0FB7D43F0E5
:100B70001003FB75FB7D43F00403FB75FB7D43F025
:100B80008003FB753B681B787A6814339B00134421
:100B90005B687A691A60FB7F18462037BD4680BDC6
:100BA00080B489B000AF786039600023FB77002300
:100BB000BB6100233B610023BB603B685B78012B7A
:100BC00070D17B689B697B617B691B683B617B693A
:100BD0001B69BB603B685B69002B09D13B7A6FF3F3
:100BE00006033B72BB7A012262F3C403BB7223E0AB
:100BF0003B685A693B689B689A420ED93B689A6881
:100C00003B685A613B689B68DBB203F07F03DAB252
:100C10003B7A62F306033B7209E03B685B69DBB237
:100C200003F07F03DAB23B7A62F306033B72BB7ACE
:100C3000012262F3C403BB72BA687B691A617B68E4
:100C4000DB78012B09D13B681B787A6804339B0061
:100C500013449B683A6812695A61FB7C43F00403B1
:100C6000FB74FB7C43F08003FB743A697B691A6078
:100C70007B68DB78002B76D13B685B69002B72D0F8
:100C80003B681B781A46012393401A46BB691343FD
:100C9000BB617B681B697A681269516BBA690A4348
:100CA0005A6360E03B681B787A6814339B001344F6
:100CB0005B681B683B613B681B787A6814339B0058
:100CC00013445B681B69BB603B685B69002B0FD1F9
:100CD0003B689B68DBB203F07F03DAB23B7A62F3D6
:100CE00006033B72BB7A012262F3C403BB7212E0BB
:100CF0003B689A683B685A613B689B68DBB203F0CB
:100D00007F03DAB23B7A62F306033B72BB7A0122BD
:100D100062F3C403BB723B681B787A6814339B0090
:100D200013445B68BA681A617B68DB78012B09D1D0
:100D30003B681B787A6814339B0013445B683A68FD
:100D400012695A61FB7C43F00403FB74FB7C43F0A3
:100D50008003FB743B681B787A6814339B00134450
:100D60005B683A691A60FB7F18462437BD465DF818
:100D7000047B704780B487B000AF7860396000238F
:100D8000FB750023FB603B685B78012B1CD13B6843
:100D90001B787A6804339B0013449B683B613B6972
:100DA0001B68FB60FB7B23F07F03DBB2002B03D0CF
:100DB000FB7B43F04003FB73BB7B43F02003BB731F
:100DC000FA683B691A6011E03B681B787A68143353
:100DD0009B0013445B683B613B691B68FB60BB7B0A
:100DE00043F02003BB73FA683B691A60FB7D184629
:100DF0001C37BD465DF8047B704700BF80B487B0E8
:100E000000AF786039600023FB740023FB603B680F
:100E10005B78012B08D13B681B787A6804339B0010
:100E200013449B687B6107E03B681B787A68143346
:100E30009B0013445B687B617B691B68FB60BB7B29
:100E40006FF34513BB733B68DB78032B03D03B6820
:100E5000DB78022B03D1FB7B43F01003FB73FA68B2
:100E60007B691A60FB7C18461C37BD465DF8047B25
:100E7000704700BF80B485B000AF78607B681B69A5
:100E80009B69FB607B681B69DB69FA681340FB6048
:100E9000FB681B0C18461437BD465DF8047B704791
:100EA00080B485B000AF78600B46FB70FB787A6841
:100EB00014339B0013445B689B68FB607B681B6971
:100EC0005B69FA681340FB60FB6818461437BD463F
:100ED0005DF8047B704700BF80B485B000AF7860D8
:100EE0007B681B699B69FB607B681B69DB69FA682F
:100EF0001340FB60FB689BB218461437BD465DF893
:100F0000047B704780B487B000AF786000233B61FA
:100F1000FB7C43F0C003FB74BB7C012262F3C4037F
:100F2000BB743B7C182262F306033B747B685B6DE9
:100F30003A691A617B68DB78012B16D10023FB60CC
:100F40007B685B6D7A6802F5B9625A617B685B6D9C
:100F50001B68FB60FB7B43F08003FB734FF0802337
:100F6000FB607B685B6DFA681A601C37BD465DF8F4
:100F7000047B704780B485B000AF78607B689B7A53
:100F8000002B1BD07B681B699B68FB603B7B03F0DD
:100F90000103DBB2002B11D07B6803F586731B685D
:100FA000BB603B7A6FF341033B723B7A6FF3000304
:100FB0003B727B68D3F80C31BA681A601437BD46AF
:100FC0005DF8047B704700BF80B483B000AF7860E9
:100FD00039600C37BD465DF8047B704780B582B040
:100FE00000AF78607B68064A1A607B681033184649
:100FF00000F096FD7B6818460837BD4680BD00BFEF
:10100000C022020880B582B000AF786039607B688A
:101010001846FFF7E3FF7B68074A1A607B683A6867
:10102000C3F820217B680022C3F81C217B68184686
:101030000837BD4680BD00BF3010020880B582B0C1
:1010400000AF78600B46FB707B6803F11002FB7801
:101050001046194600F078FD0346002B0CBF012313
:101060000023DBB2002B0AD0FB780D2B13D17B6859
:10107000D3F81C315A1C7B68C3F81C210BE07B6839
:10108000D3F81C31002B06D1FB780D2B03D17B68E4
:101090000122C3F81C210837BD4680BD90B587B03A
:1010A00002AFF860B9607A603B60FB6801229A6029
:1010B0004FF4927016F004F804462046F968FFF7E2
:1010C000A1FFFB685C60FB681B681C68FB685B68D1
:1010D0001A467B680093F868B9683B68A0470346E6
:1010E00018461437BD4690BD80B584B000AF786017
:1010F0007B681B680C331B68786898470346FB6065
:10110000FB68002B01D0FB6803E07B6801225A607A
:10111000002318461037BD4680BD00BF80B584B09F
:1011200000AF78607B681B6810331B68786898474D
:101130000346FB60FB68002B01D0FB6803E07B6883
:1011400002225A60002318461037BD4680BD00BFFA
:1011500080B584B000AF78607B681B6814331B686F
:10116000786898470346FB60FB68002B01D0FB685A
:1011700003E07B6803225A60002318461037BD46FF
:1011800080BD00BF80B584B000AF78607B681B680D
:1011900018331B68786898470346FB60FB68002B90
:1011A00001D0FB6803E07B6804225A6000231846E4
:1011B0001037BD4680BD00BF80B582B000AF7860FB
:1011C00039607B685B68002B00D125E07B685B6839
:1011D000022B07D17B681B6804331B687868396869
:1011E000984719E03B68012B06D17B681B682433C4
:1011F0001B68786898470FE03B68002B06D17B6836
:101200001B6828331B687868984705E07B681B6873
:101210001C331B68786898470837BD4680BD00BFFF
:1012200080B582B000AF78607B685B68002B01D12D
:10123000002311E07B685B68012B07D17B681B688A
:1012400008331B6878689847034605E07B681B688D
:101250001B6878689847034618460837BD4680BD26
:1012600080B582B000AF78607B681B682C331B6848
:101270007868012198470837BD4680BD80B582B0A7
:1012800000AF78607B681B682C331B68786800218E
:1012900098470837BD4680BD90B583B000AF7860F1
:1012A0007B681B682C331C687B681B6830331B68A9
:1012B000786898470346002B0CBF01230023DBB25C
:1012C00078681946A0470C37BD4690BD80B582B0FE
:1012D00000AF78607B681B681B6878689847034696
:1012E00018460837BD4680BD80B582B000AF786033
:1012F0007B681B6804331B68786898470346184668
:101300000837BD4680BD00BF80B584B000AFF8602F
:10131000B9607A60FB681B681B68F868B9687A680E
:101320009847034618461037BD4680BD80B582B049
:1013300000AF786039607B681B6804331B6878688D
:10134000396898470837BD4680BD00BF80B582B078
:1013500000AF78607B681B6808331B687868984723
:10136000034618460837BD4680BD00BF80B483B031
:1013700000AF78607B68044A1A607B6818460C37B7
:10138000BD465DF8047B7047E80F020880B483B067
:1013900000AF78607B68044A1A607B6818460C3797
:1013A000BD465DF8047B7047C80F020880B582B067
:1013B00000AF78607B681846FFF7D8FF7B6808337A
:1013C0001846FFF7E3FF7B68064A1A607B68064A07
:1013D0009A607B680022DA607B6818460837BD4651
:1013E00080BD00BF80150208D815020880B582B004
:1013F00000AF78607B681846FFF7B8FF7B6808335A
:101400001846FFF7C3FF7B68064A1A607B68064AE6
:101410009A607B680022DA607B6818460837BD4610
:1014200080BD00BF081502086015020880B483B0B3
:1014300000AF78607B68044A1A607B6818460C37F6
:10144000BD465DF8047B7047A80F020880B582B0E6
:1014500000AF78607B681846FFF788FF7B68083329
:101460001846FFF7E3FF7B68064A1A607B68064A66
:101470009A607B680022DA607B6818460837BD46B0
:1014800080BD00BF181402086C14020880B582B039
:1014900000AF78607B681846FFF768FF7B68083309
:1014A0001846FFF7C3FF7B68064A1A607B68064A46
:1014B0009A607B680022DA607B6818460837BD4670
:1014C00080BD00BFA0130208F413020880B582B0EB
:1014D00000AF78607B681846FFF748FF7B680833E9
:1014E0001846FFF7A3FF7B68064A1A607B68064A26
:1014F0009A607B680022DA607B6818460837BD4630
:1015000080BD00BF281302087C13020880B483B09A
:1015100000AF78607B68044A1A607B6818460C3715
:10152000BD465DF8047B70479022020880B582B00A
:1015300000AF78607B681846FFF7E8FF7B68034AD6
:101540001A607B6818460837BD4680BD60110208E6
:1015500080B582B000AF78607B681846FFF706FF61
:101560007B68034A1A607B6818460837BD4680BD11
:10157000981B020880B582B000AF78607B6818467F
:10158000FFF7F4FE7B68034A1A607B681846083749
:10159000BD4680BD501B020880B582B000AF7860A8
:1015A0007B681846FFF7E2FE7B68034A1A607B6897
:1015B00018460837BD4680BD081B020880B582B0BA
:1015C00000AF78607B681846FFF7D0FE7B68034A5F
:1015D0001A607B6818460837BD4680BDB8190208F6
:1015E00080B582B000AF78607B681846FFF7BEFE1A
:1015F0007B68034A1A607B6818460837BD4680BD81
:101600002819020880B582B000AF78607B68184660
:10161000FFF7ACFE7B68034A1A607B681846083700
:10162000BD4680BD9818020880B582B000AF7860D2
:101630007B681846FFF79AFE7B68034A1A607B684E
:1016400018460837BD4680BD001A020880B582B032
:1016500000AF78607B681846FFF788FE7B68034A16
:101660001A607B6818460837BD4680BD70190208AD
:1016700080B582B000AF78607B681846FFF776FED1
:101680007B68034A1A607B6818460837BD4680BDF0
:10169000E018020880B582B000AF78607B68002255
:1016A0001A607B68043300221A60043300221A6037
:1016B000043300221A60043300221A60043300222B
:1016C0001A60043300221A60043300221A600433C3
:1016D00000221A60043300221A60043300221A60C8
:1016E00004337B688A4A5A607B688A4ADA607B687E
:1016F000874A5A617B68864A9A617B68854ADA61C3
:101700007B68844A1A627B682C3300221A60043397
:1017100000221A60043300221A60043300221A6087
:10172000043300221A60043300221A6004330022BA
:101730001A60043300221A60043300221A60043352
:1017400000221A6004337B68714ADA627B68724A4D
:101750001A637B686E4A5A637B686F4A1A647B68B7
:101760006D4A5A647B6800225A657B6800229A653C
:101770007B680022DA657B6800221A667B6800229B
:101780005A667B6800229A667B680022DA667B686C
:101790004FF000021A677B684FF000025A677B68BF
:1017A00000229A677B684FF00002DA677B680022AC
:1017B000C3F880207B6884331846FFF7B7FE7B6848
:1017C00090331846FFF7C4FE7B6898331846FFF73E
:1017D000D1FE7B68A0331846FFF7DEFE7B68A83396
:1017E0001846FFF7EBFE7B68B0331846FFF7F8FEAC
:1017F0007B68B8331846FFF705FF7B68C03318468F
:10180000FFF712FF7B68C8331846FFF71FFF7B689E
:10181000D0331846FFF72CFF7B68D8331846FFF704
:1018200015FE7B68E8331846FFF730FE7B68F83317
:101830001846FFF74BFE7B6803F584731846FFF7E5
:10184000B5FD7B6803F58C731846FFF7CFFD7B6809
:10185000843318464FF4E13100220823FFF71EFCC1
:101860007B6890331846FFF73FFC7B689833184637
:10187000FFF73AFC7B68A0331846FFF735FC7B681E
:10188000A8331846FFF74AFC7B68B0331846FFF7C9
:1018900045FC7B68B8331846FFF740FC7B68C033D3
:1018A0001846FFF73BFC7B68C8331846FFF736FC49
:1018B0007B68D0331846FFF731FC7B68E03318466D
:1018C00016494FF07E52FFF71FFD7B68F033184634
:1018D00012494FF07E52FFF717FD7B6803F58073C6
:1018E00018460E494FF07E52FFF70EFD7B6803F558
:1018F00084731846FFF7F8FB7B6803F58C73184672
:10190000FFF7F2FB7B6818460837BD4680BD00BF75
:1019100000007A4300007AC30000FA430050C34736
:1019200080B582B000AF78607B6890331846FFF7CF
:1019300077FC0346002B06D17B68D3F88030012B5F
:1019400001D0012300E00023002B0FD07B6801228F
:10195000C3F8802001F0ECFA02460B461046194607
:101960000DF02AFE02467B68DA6759E07B689833FF
:101970001846FFF755FC0346002B06D17B68D3F8C9
:101980008030022B01D0012300E00023002B0FD078
:101990007B680222C3F8802001F0CAFA02460B4697
:1019A000104619460DF008FE02467B68DA6737E0FC
:1019B0007B68A0331846FFF733FC0346002B06D1A3
:1019C0007B68D3F88030002B01D0012300E0002396
:1019D000002B25D07B680022C3F880207B68E03391
:1019E00018464FF07E51FFF7A1FC7B68F033184694
:1019F0004FF07E51FFF79AFC7B6803F58073184621
:101A00004FF07E51FFF792FC01F092FA02460B462E
:101A1000104619460DF0D0FD02467B68DA6700BF1C
:101A20000837BD4680BD00BF80B584B000AFF86008
:101A3000B9607A603B60BB681B6818464FF07E5106
:101A40000DF0A0FF0346002B08D0FB681B68092B94
:101A500004D0FB681B685A1CFB681A60FB681B6893
:101A6000FA689B0013445A687B681B681046194645
:101A70000DF0D6FC03461A46FB681A67FB681B6824
:101A8000FA680A339B0013445A683B681B68104687
:101A900019460DF0C5FC03461A46FB685A6700BF9D
:101AA0001037BD4680BD00BF2DE9F04F8FB008AFA5
:101AB00078613961FA60BB607B6984337B603B6924
:101AC000D3F800B0FB68D3F800A0BB681E683B6C7D
:101AD0001B6818460DF01AF9804689467B6C1B6816
:101AE00018460DF013F904460D46BB6C1B681846EA
:101AF0000DF00CF902460B460096CDE90289CDE9BE
:101B00000445CDE90623786804495A46534609F04E
:101B100027FC00BF1C37BD46BDE8F08F800F0208D0
:101B200080B483B000AF78607B680022C3F80421E2
:101B30007B680022C3F808217B6818460C37BD4635
:101B40005DF8047B704700BF80B485B000AF78605B
:101B50000B46FB707B68D3F808315A1C114B83FB92
:101B60000213D911D317C91A0B461B020B44D31AFF
:101B7000FB607B68D3F80421FB689A4201D1012302
:101B80000AE07B68D3F808317A68F978D1547B6829
:101B9000FA68C3F80821002318461437BD465DF8DB
:101BA000047B7047817F807F80B584B000AF39604F
:101BB00011461A460346FB710B46BB801346BB71A8
:101BC0003B68254A934204D10120012105F07AFAAD
:101BD00022E03B68214A934204D10220012105F012
:101BE00071FA19E03B681E4A934204D10420012196
:101BF00005F068FA10E03B681A4A934204D10820C5
:101C0000012105F05FFA07E03B68174A934203D1D0
:101C10001020012105F056FA07F10803184606F0D6
:101C2000C3FCBB88BB60FB793B733B7EBB73BB795A
:101C3000FB7303237B7307F108033868194606F02A
:101C400025FCFB79012B04D1BB883868194606F0C6
:101C500007FD1037BD4680BD000002400004024071
:101C600000080240000C02400010024080B483B023
:101C700000AF78600B46FB70FB78002B06D009495B
:101C8000084BDA6B7B681343CB6306E00549054BD1
:101C9000DA6B7B68DB431340CB630C37BD465DF8E2
:101CA000047B7047002C014080B485B000AF7860A1
:101CB0000023FB73084B5A6B7B681340002B02D048
:101CC0000123FB7301E00023FB73FB7B18461437F1
:101CD000BD465DF8047B7047002C014080B483B0A2
:101CE00000AF7860034A7B6893630C37BD465DF8AC
:101CF000047B7047002C014080B500AF0E4B1B8861
:101D00009BB21B099BB2002B05D00C4B1B68013BFF
:101D10000A4A13600BE0084B1B889BB21B099BB25D
:101D2000002B04D1054B1B680133044A13600248A1
:101D300001210AF0EDF880BD000001402C090020CF
:101D400080B500AF4FF080431B889BB21B099BB24C
:101D5000002B05D00C4B1B68013B0B4A13600CE0B9
:101D60004FF080431B889BB21B099BB2002B04D110
:101D7000054B1B680133044A13604FF0804001217A
:101D80000AF0C6F880BD00BF3009002080B500AF62
:101D90000E4B1B889BB21B099BB2002B05D00C4B32
:101DA0001B68013B0A4A13600BE0084B1B889BB27F
:101DB0001B099BB2002B04D1054B1B680133044A5D
:101DC0001360024801210AF0A3F880BD000400401E
:101DD0003409002080B500AF0E4B1B889BB21B0955
:101DE0009BB2002B05D00C4B1B68013B0A4A1360C9
:101DF0000BE0084B1B889BB21B099BB2002B04D144
:101E0000054B1B680133044A1360024801210AF0A4
:101E10007FF880BD000800403809002080B500AF81
:101E20000E4B1B889BB21B099BB2002B05D00C4BA1
:101E30001B68013B0A4A13600BE0084B1B889BB2EE
:101E40001B099BB2002B04D1054B1B680133044ACC
:101E50001360024801210AF05BF880BD000C0040CD
:101E60003C09002080B500AF0E4B1B889BB21B09BC
:101E70009BB2002B05D00C4B1B68013B0A4A136038
:101E80000BE0084B1B889BB21B099BB2002B04D1B3
:101E9000054B1B680133044A1360024801210AF014
:101EA00037F880BD000401404009002080B500AF34
:101EB0000E4B1B889BB21B099BB2002B05D00C4B11
:101EC0001B68013B0A4A13600BE0084B1B889BB25E
:101ED0001B099BB2002B04D1054B1B680133044A3C
:101EE0001360024801210AF013F880BD0018004079
:101EF0004409002080B500AF044809F0CBFC02463D
:101F0000034B1B681B041344184680BD00000140AE
:101F10002C09002080B500AF4FF0804009F0BAFCDA
:101F20000246034B1B681B041344184680BD00BFC8
:101F30003009002080B500AF044809F0ABFC024630
:101F4000034B1B681B041344184680BD000400406B
:101F50003409002080B500AF044809F09BFC02461C
:101F6000034B1B681B041344184680BD0008004047
:101F70003809002080B500AF044809F08BFC024608
:101F8000034B1B681B041344184680BD000C004023
:101F90003C09002080B500AF044809F07BFC0246F4
:101FA000034B1B681B041344184680BD000401400A
:101FB0004009002080B500AF044809F06BFC0246E0
:101FC000034B1B681B041344184680BD00180040D7
:101FD0004409002090B59DB002AFF860B960134687
:101FE000FB800023A7F866300023A7F86430F86868
:101FF00008F020FDFA88002300930220B96801232D
:10200000FFF7D2FDFA8807F120031046194608F0C1
:102010008FFB0023A7F8663025E0B7F866305B0039
:1020200007F16802134433F8483C012B16D1B7F886
:10203000663010335B0007F16802134433F8463C06
:10204000184608F07BFE03469CB2F86808F0ECFEE8
:102050000346B86821461A4606F010FBB7F866300A
:102060000133A7F86630B7F866300F2BD5D91D4B72
:102070001B681D4AA2FB03235B0E9BB2013BA7F822
:1020800064304FF6FE73BB610023BB820023BB8329
:102090000023FB8207F11403F868194609F06EFB70
:1020A000B7F86430F8681946012209F0D1FBF868E6
:1020B00003210022002309F03BFFF86801210122DF
:1020C00009F002FFF868012109F010FCF86808F037
:1020D00067FC0346184608F01BFE00F055F86C3705
:1020E000BD4690BD4000002029D9426680B582B02F
:1020F00000AF78607B681E4A934203D1FFF7FAFE77
:10210000034630E07B68B3F1804F03D1FFF702FF55
:10211000034628E07B68174A934203D1FFF70AFF82
:10212000034620E07B68144A934203D1FFF712FF75
:10213000034618E07B68114A934203D1FFF71AFF68
:10214000034610E07B680E4A934203D1FFF722FF5B
:10215000034608E07B680B4A934203D1FFF72AFF4E
:10216000034600E0002318460837BD4680BD00BF87
:10217000000001400004004000080040000C004046
:10218000000401400018004080B500AF194B002248
:102190001A60194B00221A60184B00221A60184B63
:1021A00000221A60174B00221A60174B00221A6097
:1021B000164B00221A601648002109F05DFB4FF013
:1021C0008040002109F058FB1248002109F054FB1F
:1021D0001148002109F050FB1048002109F04CFB88
:1021E0000F48002109F048FB0E48002109F044FB8C
:1021F00080BD00BF2C0900203009002034090020D8
:10220000380900203C090020400900204409002032
:10221000000001400004004000080040000C0040A5
:10222000000401400018004080B500AF014807F0ED
:1022300041FD80BDD012002080B500AF094B9B7AD4
:10224000002B0AD0084A084B1B6823F006031360D2
:1022500006F05CFA0348FEF78DFE4FF4802008F08C
:1022600059FA80BDD012002010ED00E080B58AB090
:1022700000AF7860396000237B6200233B6200235B
:10228000FB610023BB617B681B8A9BB27B627B6A1C
:1022900023F440537B623B68DB881A467B6A134316
:1022A0007B627B6A9AB27B681A827B689B899BB24D
:1022B0007B627B6A23F4B05323F00C037B623B68A0
:1022C0009A883B681B8913439AB23B685B89134326
:1022D0009BB21A467B6A13437B627B6A9AB27B6825
:1022E0009A817B689B8A9BB27B627B6A23F44073F2
:1022F0007B623B689B891A467B6A13437B627B6ADD
:102300009AB27B689A8207F10803184604F030FEFF
:102310007B68314A934203D07B68304A934202D1B2
:102320007B693B6201E03B693B627B689B899BB2B6
:102330009BB21BB2002B0CDA3A6A13469B00134483
:102340009A001A443B681B685B00B2FBF3F3FB6125
:102350000BE03A6A13469B0013449A001A443B6808
:102360001B689B00B2FBF3F3FB61FB691C4AA2FBF9
:1023700003235B091B017B627B6A1B09642202FB4E
:1023800003F3FA69D31ABB617B689B899BB29BB24A
:102390001BB2002B0CDABB69DB003233104AA2FB04
:1023A00003235B0903F007037A6A13437B620BE0A4
:1023B000BB691B0132330A4AA2FB03235B0903F00A
:1023C0000F037A6A13437B627B6A9AB27B681A8135
:1023D0002837BD4680BD00BF0010014000140140F9
:1023E0001F85EB5180B483B000AF78600B46FB7063
:1023F000FB78002B08D07B689B899BB243F4005389
:102400009AB27B689A8107E07B689B899BB223F430
:1024100000539AB27B689A810C37BD465DF8047B05
:10242000704700BF80B483B000AF78600B467B80FC
:102430007B88C3F308039AB27B689A800C37BD4649
:102440005DF8047B704700BF80B483B000AF786054
:102450007B689B889BB2C3F308039BB218460C377A
:10246000BD465DF8047B704780B487B000AF7860EC
:102470000B467B8013467B7000233B610023FB608F
:102480000023BB6000237B617B687B617B88DBB2C0
:102490005B09DBB23B617B8803F01F03FB60FB68D9
:1024A000012202FA03F3BB603B69012B03D17B6974
:1024B0000C337B6109E03B69022B03D17B6910334C
:1024C0007B6102E07B6914337B617B78002B06D053
:1024D0007B697A691168BA680A431A6006E07B6909
:1024E0007A691168BA68D2430A401A601C37BD463F
:1024F0005DF8047B704700BF80B485B000AF7860A2
:102500000B467B800023FB737B681B889AB27B8819
:1025100013409BB2002B02D00123FB7301E0002388
:10252000FB73FB7B18461437BD465DF8047B704790
:1025300080B485B000AF78607B681B783B737B68A4
:102540005B787B737B689B78BB737B68DB78FB7302
:10255000FB6818461437BD465DF8047B704700BF22
:1025600080B485B000AF78600B467B807B88BB81F0
:102570003A7B7B681A707B6801337A7B1A70143758
:10258000BD465DF8047B704780B582B000AF7860CF
:102590007B680D4A93420AD14FF00070012104F08C
:1025A000EBFD4FF00070002104F0E6FD09E04FF074
:1025B0008060012104F0E0FD4FF08060002104F014
:1025C000DBFD0837BD4680BD0064004080B485B0A7
:1025D00000AF786039600023FB730023BB607B6829
:1025E0001B6823F002027B681A607B681B6843F05B
:1025F00001027B681A6002E0BB680133BB607B6844
:102600005B6803F00103002B04D1BB684FF6FF7237
:102610009342F1D17B685B6803F00103002B02D188
:102620000023FB739CE03B689B79012B06D17B6800
:102630001B6843F080027B681A6005E07B681B68BA
:1026400023F080027B681A603B68DB79012B06D19E
:102650007B681B6843F040027B681A6005E07B687A
:102660001B6823F040027B681A603B681B7A012BD1
:1026700006D17B681B6843F020027B681A6005E086
:102680007B681B6823F020027B681A603B685B7ADA
:10269000012B06D17B681B6843F010027B681A602F
:1026A00005E07B681B6823F010027B681A603B68BA
:1026B0009B7A012B06D17B681B6843F008027B687C
:1026C0001A6005E07B681B6823F008027B681A60CB
:1026D0003B68DB7A012B06D17B681B6843F0040260
:1026E0007B681A6005E07B681B6823F004027B6846
:1026F0001A603B689B789A073B68DB781B061A4395
:102700003B681B791B041A433B685B791B051A4322
:102710003B681B88013B1A437B68DA617B681B6856
:1027200023F001027B681A600023BB6002E0BB68F3
:102730000133BB607B685B6803F00103002B04D0AE
:10274000BB684FF6FF729342F1D17B685B6803F080
:102750000103002B02D00023FB7301E00123FB7374
:10276000FB7B18461437BD465DF8047B704700BFFD
:1027700080B485B000AF78600023FB607B689B7AF3
:102780001A4601239340FB60554A554BD3F800325B
:1027900043F00103C2F800325149514BD3F81C22D7
:1027A000FB68DB431340C1F81C327B681B7B002BAA
:1027B00025D14B494A4BD3F80C22FB68DB4313402D
:1027C000C1F80C3246497B689B7A18467B68DB88E7
:1027D0001B047A6852881A4300F1480341F83320F9
:1027E0003F497B689B7A18467B689B881B047A6804
:1027F00012881A4300F14803DB000B445A607B68DF
:102800001B7B012B24D13649354BD3F80C22FB68B6
:102810001343C1F80C3232497B689B7A18467B68B7
:102820001B881B047A6852881A4300F1480341F858
:1028300033202B497B689B7A18467B689B881B0456
:102840007A68D2881A4300F14803DB000B445A60CF
:102850007B68DB7A002B09D12149214BD3F8042274
:10286000FB68DB431340C1F8043207E01C491C4BF2
:10287000D3F80422FB681343C1F804327B681B8938
:10288000002B08D11649164BD3F81422FB68DB4302
:102890001340C1F814327B681B89012B07D1104902
:1028A0000F4BD3F81422FB681343C1F814327B6832
:1028B0005B7B012B07D10A49094BD3F81C22FB682B
:1028C0001343C1F81C32064A054BD3F8003223F0FB
:1028D0000103C2F800321437BD465DF8047B70472F
:1028E0000064004080B483B000AF78607B68002251
:1028F0009A717B680022DA717B6800221A727B6809
:1029000000225A727B6800229A727B680022DA7277
:102910007B6800229A707B680022DA707B68032251
:102920001A717B6802225A717B6801221A800C3767
:10293000BD465DF8047B704780B485B000AF786019
:1029400039600023FB737B689B6803F08063002B76
:1029500002D00023FB7313E07B689B6803F00063E5
:10296000002B02D00123FB730AE07B689B6803F015
:102970008053002B02D00223FB7301E00423FB737E
:10298000FB7B042B00F09880FB7BFA7B7968183284
:1029900012010A44126802F00102796818331B011F
:1029A0000B441A603B681B7A002B13D1FB7BFA7B2C
:1029B0007968183212010A4411683A68126852059F
:1029C0003868407A02430A43796818331B010B4484
:1029D0001A6015E0FB7BFA7B7968183212010A4411
:1029E00011683A685268D2003868007A0243386841
:1029F000407A02430A43796818331B010B441A607A
:102A00003B689B7A03F00F03DAB23B689A72FB7B58
:102A1000FA7B7968183212010A44526822F00F02D8
:102A2000796818331B010B445A60FB7BFA7B796889
:102A3000183212010A4452683968897A0A4379685F
:102A400018331B010B445A60FB7B3A68927B1106DA
:102A50003A68527B120411433A68127B12020A430D
:102A60003968C97A0A4379681B010B4403F5C473BA
:102A70001A60FB7B3A68927C11063A68527C120419
:102A800011433A68127C12020A433968C97B0A432F
:102A900079681B010B4403F5C4735A60FB7BFA7B16
:102AA0007968183212010A44126842F0010279680A
:102AB00018331B010B441A60FB7B18461437BD46C4
:102AC0005DF8047B704700BF80B485B000AF7860CC
:102AD0000B46FB700023FB60FB78012B09D0022B17
:102AE0000DD0002B11D17B689A68264B1340FB60F8
:102AF0000EE07B689A68244B1340FB6008E07B681B
:102B00009A68224B1340FB6002E00023FB6000BF89
:102B1000FB681F4A93421BD01D4A934208D81D4AA6
:102B2000934212D0174A934218D0002B0AD01EE0CD
:102B3000194A93420FD0154A934215D0124A934234
:102B40000FD014E00223FB6014E00023FB6011E0CF
:102B50000023FB600EE00023FB600BE00123FB6021
:102B600008E00123FB6005E00123FB6002E0002395
:102B7000FB6000BFFB68DBB218461437BD465DF84A
:102B8000047B7047030000040003000800000310EA
:102B900000010008010000040000011080B485B0AD
:102BA00000AFF8600B467A60FB72FB7AFA681B3361
:102BB0001B0113441B68DBB203F00403DAB27B6829
:102BC0001A727B681B7A002B09D1FB7AFA681B33D7
:102BD0001B0113441B685A0D7B681A6008E0FB7ADE
:102BE000FA681B331B0113441B68DA087B685A60C0
:102BF000FB7AFA681B331B0113441B68DBB203F03A
:102C00000203DAB27B685A72FB7AFA681B331B0143
:102C100013445B68DBB203F00F03DAB27B689A728D
:102C2000FB7AFA681B331B0113445B681B0ADAB298
:102C30007B68DA74FB7AFA681B01134403F5DC73D2
:102C40001B68DAB27B68DA72FB7AFA681B011344FC
:102C500003F5DC731B681B0ADAB27B681A73FB7A14
:102C6000FA681B01134403F5DC731B681B0CDAB212
:102C70007B685A73FB7AFA681B01134403F5DC7313
:102C80001B681B0EDAB27B689A73FB7AFA681B0129
:102C9000134403F5DC735B68DAB27B68DA73FB7AA2
:102CA000FA681B01134403F5DC735B681B0ADAB294
:102CB0007B681A74FB7AFA681B01134403F5DC7312
:102CC0005B681B0CDAB27B685A74FB7AFA681B01EA
:102CD000134403F5DC735B681B0EDAB27B689A74ED
:102CE000FB7A002B06D1FB68DB6843F02002FB680F
:102CF000DA6005E0FB681B6943F02002FB681A619B
:102D00001437BD465DF8047B704700BF80B485B0C2
:102D100000AFF860B9601346FB71FB79002B06D059
:102D2000FB685A69BB681A43FB685A6106E0FB6896
:102D30005A69BB68DB431A40FB685A611437BD46C9
:102D40005DF8047B704700BF80B584B000AF786049
:102D500039600023FB737B685A693B681340002B82
:102D600000F0B2803B68402B62D0402B0FD8042B80
:102D70003AD0042B04D8012B24D0022B2BD09FE077
:102D8000102B43D0202B4AD0082B36D098E0B3F537
:102D9000006F00F08380B3F5006F09D8B3F5007FB2
:102DA0006AD0B3F5806F70D0B3F5807F5BD087E0D9
:102DB000B3F5803F45D0B3F5003F4BD0B3F5004F9E
:102DC00075D07DE07B689B681846434900F086F823
:102DD0000346FB7377E07B68DB681846032100F04D
:102DE0007DF80346FB736EE07B68DB6818460821BC
:102DF00000F074F80346FB7365E07B68DB681846F7
:102E0000102100F06BF80346FB735CE07B681B69E4
:102E10001846032100F062F80346FB7353E07B6819
:102E20001B691846082100F059F80346FB734AE075
:102E30007B681B691846102100F050F80346FB73AD
:102E400041E07B685B681846082100F047F80346BC
:102E5000FB7338E07B685B681846102100F03EF891
:102E60000346FB732FE07B689B691846012100F045
:102E700035F80346FB7326E07B689B691846022100
:102E800000F02CF80346FB731DE07B689B69184635
:102E9000042100F023F80346FB7314E07B689B6970
:102EA0001846702100F01AF80346FB730BE07B68AC
:102EB0005B681846042100F011F80346FB7302E03A
:102EC0000023FB7300BF01E00023FB73FB7B18466C
:102ED0001037BD4680BD00BF0101010080B485B040
:102EE00000AF786039600023FB737A683B68134059
:102EF000002B02D00123FB7301E00023FB73FB7B5B
:102F000018461437BD465DF8047B704780B400AFA7
:102F1000064BD3E90023013243F100030349C1E921
:102F20000023BD465DF8047B704700BF48090020C0
:102F300080B500AF00F010F802460B461046194667
:102F40004FF47A724FF000030CF080FD02460B46FE
:102F50001046194680BD00BF80B400AF094BD3E9CD
:102F60000023921843EB0303990041EA9271900009
:102F7000121843EB010310461946BD465DF8047B69
:102F8000704700BF4809002080B500AF014805F038
:102F9000D3F980BDACC5273780B58AB002AFF860E1
:102FA0007A601A460B46FB7213463B8107F1140305
:102FB0001846FFF797FCFB68012B08D14E48FFF736
:102FC000E3FA4FF00070012104F09AF80AE0FB6880
:102FD000022B07D14948FFF7D7FA4FF08060012153
:102FE00004F08EF83A8900230093022079680123C7
:102FF000FEF7DAFDBA8D002300930220B96A01239F
:10300000FEF7D2FDFB68012B16D13B89184607F06D
:1030100095FE03469BB278681946092205F02EFBFF
:10302000BB8D184607F08AFE03469BB2B86A194664
:10303000092205F023FB18E0FB68022B15D13B8920
:10304000184607F07BFE03469BB2786819460922B2
:1030500005F014FBBB8D184607F070FE03469BB2CB
:10306000B86A1946092205F009FB0123BB76002343
:10307000FB7600233B7700237B770023BB7700237D
:10308000FB77FB7ABB750023FB7505233B76062394
:103090007B760323BB82FB68012B06D107F1140367
:1030A00015481946FFF792FA08E0FB68022B05D194
:1030B00007F1140311481946FFF788FA4FF4E0604E
:1030C00007F00EFFFB68012B08D1142007F020FE4B
:1030D000094802210122FFF719FE0AE0FB68022BD2
:1030E00007D1402007F014FE044802210122FFF717
:1030F0000DFE2037BD4680BD0064004000680040E2
:1031000080B586B000AF7860084611461A4603467F
:10311000FB700B463B801346BB700023FB820023F1
:10312000FB8210E0FB8ADBB2BB7400233B820023EE
:103130007B7507F108031846FFF71AFBFB8A9BB261
:1031400001339BB2FB82B7F916300D2BEADD7B68A9
:10315000DBB2BB7400233B8201237B75FB78002B21
:1031600002D10023FB7404E0FB78012B01D1012381
:10317000FB7400233B75B7F900305B019AB2BB7852
:103180001B019BB213439BB29BB27B81B7F92030EA
:103190005B019AB297F824301B019BB213439BB298
:1031A0009BB2FB81B7F928305B019AB297F82C30BB
:1031B0001B019BB213439BB29BB23B81B7F93030EA
:1031C0005B019AB297F834301B019BB213439BB258
:1031D0009BB2BB8107F108031846FFF7C9FA1837FD
:1031E000BD4680BD80B582B000AF78600748796881
:1031F000FFF7A2FB00BF05480021FFF765FC03466F
:10320000012BF8D10837BD4680BD00BF00640040E7
:1032100080B582B000AF104B7B60104B3B6007E085
:103220003B681A1D3A607A68111D796012681A604D
:103230003B680B4A9342F3D30A480B494FF0000214
:103240008842B8BF40F8042BFADB03F0D1FF03F04B
:103250008DFD0837BD4680BDBC5702080000002028
:103260000C09002010090020C418002080B400AF11
:10327000FEE700BF80B584B000AF786007F10803B7
:103280007868194606F0AAFC3B7A03F01F03012B6D
:103290000AD0022B0FD0002B14D107F10803786855
:1032A000194606F0C5F816E007F1080378681946D4
:1032B00006F00EF90FE007F108037868194606F0EA
:1032C0003BF908E03B7A23F07F03DBB278681946CC
:1032D00007F04AFF00BF002318461037BD4680BDE7
:1032E00080B584B000AF78600B46FB70FB78002B94
:1032F00044D17B6803F55C73FB607B6893F8113104
:10330000032B4ED1FB68DA69FB689B689A4220D98F
:10331000FB68DA69FB689B68D21AFB68DA617B6834
:10332000DB78012B06D1FB68DA68FB689B681A44DE
:10333000FB68DA60FB68D968FB689A68FB68DB6940
:10334000934228BF13469BB278681A4608F064F986
:1033500027E07B68D3F8E0351B69002B0AD07B6837
:1033600093F81231032B05D17B68D3F8E0351B6944
:1033700078689847786808F063F912E07B68D3F8BA
:10338000E0359B69002B0CD07B6893F81231032B3E
:1033900007D17B68D3F8E0359B69FA7878681146E5
:1033A0009847002318461037BD4680BD80B584B0CD
:1033B00000AF78600B46FB70FB78002B60D17B6818
:1033C00003F58C73FB607B6893F81131022B6AD193
:1033D000FB68DA69FB689B689A421CD9FB68DA696A
:1033E000FB689B68D21AFB68DA617B68DB78012B8B
:1033F00006D1FB68DA68FB689B681A44FB68DA60F0
:10340000FB68DA68FB68DB699BB2786811461A468C
:1034100008F0EEF847E0FB681B6AFA689268B3FBB5
:10342000F2F102FB01F29B1A002B14D1FB681A6A1D
:10343000FB689B689A420ED3FB681A6AFB685B6A5A
:103440009A4208D278680021002208F0D1F8FB687F
:1034500000225A6227E07B68D3F8E035DB68002B56
:103460000AD07B6893F81231032B05D17B68D3F81F
:10347000E035DB6878689847786808F0F9F812E07A
:103480007B68D3F8E0355B69002B0CD07B6893F840
:103490001231032B07D17B68D3F8E0355B69FA78EA
:1034A000786811469847002318461037BD4680BDFE
:1034B00080B582B000AF7860786800214022002398
:1034C00007F080FD786880214022002307F07AFD14
:1034D0007B68012283F812217B68D3F8E4355B68AE
:1034E0007A68927810469847002318460837BD46F8
:1034F00080BD00BF80B582B000AF78607B68D3F834
:10350000E4351B6998477B68032283F81221002366
:1035100018460837BD4680BD80B582B000AF7860E0
:103520007B68042283F812217B68D3F8E435DB68DA
:103530009847002318460837BD4680BD80B582B045
:1035400000AF78607B68D3F8E035DB69002B05D0ED
:103550007B68D3F8E035DB69786898470023184624
:103560000837BD4680BD00BF80B582B000AF78602F
:103570000B46FB707B68D3F8E0351B68FA787868F7
:10358000114698477B68D3F8E4359B689847002339
:1035900018460837BD4680BD80B582B000AF786060
:1035A0000B46FB707B68D3F8E0355B68FA78786887
:1035B00011469847002318460837BD4680BD00BF16
:1035C00080B582B000AF78607B68D3F8E0351B6AC5
:1035D00078689847002318460837BD4680BD00BF6D
:1035E00080B582B000AF78607B68D3F8E0355B6A65
:1035F00078689847002318460837BD4680BD00BF4D
:1036000080B483B000AF786039607B683A689A60B4
:103610007B6800225A60002318460C37BD465DF8CF
:10362000047B704780B582B000AF78607B68103350
:10363000184603F057FA0346002B0CBF0123002362
:10364000DBB218460837BD4680BD00BF80B483B0EA
:1036500000AF78607B68D3F81C3118460C37BD4644
:103660005DF8047B704700BF80B582B000AF786022
:103670007B681033184603F04BFA034618460837A8
:10368000BD4680BD90B585B000AF786039607B687D
:103690001033184603F026FA0346002B14BF01230B
:1036A0000023DBB2002B08D03B6800221A707B6835
:1036B0000022C3F81C21002354E00023FB604DE0EE
:1036C000FB683A68D4187B681033184603F020FA78
:1036D00003462370FB683A6813441B780D2B02D015
:1036E000FB68FE2B1FDDFB683A68134400221A704A
:1036F0007B681033184603F0F5F90346002B14BF1E
:1037000001230023DBB2002B04D07B680022C3F826
:103710001C2106E07B68D3F81C315A1E7B68C3F875
:103720001C21FB681EE07B681033184603F0DAF9B1
:103730000346002B14BF01230023DBB2002B0AD069
:10374000FB683A68134400221A707B680022C3F8B1
:103750001C21FB6806E0FB680133FB60FB68FF2B64
:10376000AEDD002318461437BD4690BD80B582B04B
:1037700000AF78607B689B68012B06D17B685B6833
:103780001846FFF763FF034600E00023184608379A
:10379000BD4680BD80B582B000AF786039603B68BF
:1037A00000221A707B689B68012B07D17B685B68DD
:1037B00018463968FFF766FF034600E00023184605
:1037C0000837BD4680BD00BF80B582B000AF7860CD
:1037D0007B689B68012B06D17B685B681846FFF706
:1037E00021FF034600E0002318460837BD4680BD90
:1037F00080B582B000AF78607B689B68012B06D1F2
:103800007B685B681846FFF72FFF034600E0002344
:1038100018460837BD4680BD80B584B000AF7860DB
:1038200039600023FB600DE07B681B6804331B6874
:10383000FA6839680A441278786811469847FB6834
:103840000133FB60FB683A6813441B78002BEBD113
:103850001037BD4680BD00BF90B587B002AFF8609D
:10386000B9607A603B60FB6802229A60FB681B6863
:103870001C683B680093F868B9687A683B6AA0479F
:10388000034618461437BD4690BD00BF80B483B0D0
:1038900000AF786040F6FF7318460C37BD465DF800
:1038A000047B7047A0F10800F0E700BF80B483B04C
:1038B00000AF7860034B18460C37BD465DF8047BBB
:1038C000704700BF33335340A0F10800EEE700BF5C
:1038D00080B483B000AF786040F6FF7318460C37B1
:1038E000BD465DF8047B7047A0F10800F0E700BF1B
:1038F00080B483B000AF7860034B18460C37BD46E8
:103900005DF8047B704700BF33335340A0F10800DB
:10391000EEE700BF80B483B000AF786040F6FF737D
:1039200018460C37BD465DF8047B7047A0F10800CF
:10393000F0E700BF80B483B000AF7860034B184657
:103940000C37BD465DF8047B704700BF33335340EE
:10395000A0F10800EEE700BF80B483B000AF78604C
:1039600040F6FF7318460C37BD465DF8047B704780
:10397000A0F10800F0E700BF80B483B000AF78602A
:10398000034B18460C37BD465DF8047B704700BFFB
:1039900033335340A0F10800EEE700BF80B483B09A
:1039A00000AF786040F6FF7318460C37BD465DF8EF
:1039B000047B7047A0F10800F0E700BF80B483B03B
:1039C00000AF7860034B18460C37BD465DF8047BAA
:1039D000704700BF33335340A0F10800EEE700BF4B
:1039E00080B582B000AF786004484FF4805104F095
:1039F0000FFE034618460837BD4680BD000402404E
:103A000080B582B000AF786039603B68002B05D18B
:103A100006484FF4805104F023FE04E003484FF4BD
:103A2000805104F00FFE0837BD4680BD00040240FF
:103A300080B582B000AF786004484FF4805104F044
:103A4000CDFD034618460837BD4680BD0004024040
:103A500080B584B002AF7860002300930020054950
:103A60004FF480520023FEF79FF8002318460837D2
:103A7000BD4680BD0004024080B584B002AF7860CE
:103A800000230093012005494FF480520023FEF7E4
:103A90008BF8002318460837BD4680BD000402405D
:103AA00080B584B002AF7860002300930020054900
:103AB0004FF480520123FEF777F8002318460837A9
:103AC000BD4680BD0004024080B584B002AF78607E
:103AD00000230093002005494FF480520223FEF793
:103AE00063F8002318460837BD4680BD0004024035
:103AF00080B582B000AF786004484FF4004104F014
:103B000087FD034618460837BD4680BD00100240B9
:103B100080B582B000AF786039603B68002B05D17A
:103B200006484FF4004104F09BFD04E003484FF4C5
:103B3000004104F087FD0837BD4680BD00100240FB
:103B400080B582B000AF786004484FF4004104F0C3
:103B500045FD034618460837BD4680BD00100240AB
:103B600080B584B002AF786000230093002005493F
:103B70004FF400420023FEF717F8012318460837D8
:103B8000BD4680BD0010024080B584B002AF7860B1
:103B900000230093012005494FF400420023FEF763
:103BA00003F8002318460837BD4680BD00100240C8
:103BB00080B584B002AF78600023009300200549EF
:103BC0004FF400420123FDF7EFFF012318460837A9
:103BD000BD4680BD0010024080B584B002AF786061
:103BE00000230093002005494FF400420223FDF713
:103BF000DBFF002318460837BD4680BD0010024099
:103C000080B582B000AF786004484FF4804104F082
:103C1000FFFC034618460837BD4680BD000402403D
:103C200080B582B000AF786039603B68002B05D169
:103C300006484FF4804104F013FD04E003484FF4BC
:103C4000804104F0FFFC0837BD4680BD00040240FF
:103C500080B582B000AF786004484FF4804104F032
:103C6000BDFC034618460837BD4680BD000402402F
:103C700080B584B002AF786000230093002005492E
:103C80004FF480420023FDF78FFF002318460837CA
:103C9000BD4680BD0004024080B584B002AF7860AC
:103CA00000230093012005494FF480420023FDF7D3
:103CB0007BFF002318460837BD4680BD0004024044
:103CC00080B584B002AF78600023009300200549DE
:103CD0004FF480420123FDF767FF002318460837A1
:103CE000BD4680BD0004024080B584B002AF78605C
:103CF00000230093002005494FF480420223FDF782
:103D000053FF002318460837BD4680BD000402401B
:103D100080B582B000AF786004484FF4004104F0F1
:103D200077FC034618460837BD4680BD00040240B4
:103D300080B582B000AF786039603B68002B05D158
:103D400006484FF4004104F08BFC04E003484FF4B4
:103D5000004104F077FC0837BD4680BD00040240F6
:103D600080B582B000AF786004484FF4004104F0A1
:103D700035FC034618460837BD4680BD00040240A6
:103D800080B584B002AF786000230093002005491D
:103D90004FF400420023FDF707FF002318460837C1
:103DA000BD4680BD0004024080B584B002AF78609B
:103DB00000230093012005494FF400420023FDF742
:103DC000F3FE002318460837BD4680BD00040240BC
:103DD00080B584B002AF78600023009300200549CD
:103DE0004FF400420123FDF7DFFE00231846083799
:103DF000BD4680BD0004024080B584B002AF78604B
:103E000000230093002005494FF400420223FDF7F0
:103E1000CBFE002318460837BD4680BD0004024093
:103E200080B582B000AF786004484FF4004104F0E0
:103E3000EFFB034618460837BD4680BD0000024030
:103E400080B582B000AF786039603B68002B05D147
:103E500006484FF4004104F003FC04E003484FF42B
:103E6000004104F0EFFB0837BD4680BD0000024072
:103E700080B582B000AF786004484FF4004104F090
:103E8000ADFB034618460837BD4680BD0000024022
:103E900080B584B002AF786000230093002005490C
:103EA0004FF400420023FDF77FFE00231846083739
:103EB000BD4680BD0000024080B483B000AF786092
:103EC000012318460C37BD465DF8047B704700BFE0
:103ED00080B584B002AF78600023009300200549CC
:103EE0004FF400420123FDF75FFE00231846083718
:103EF000BD4680BD0000024080B584B002AF78604E
:103F000000230093002005494FF400420223FDF7EF
:103F10004BFE002318460837BD4680BD0000024016
:103F200080B582B000AF786004484FF4005104F0CF
:103F30006FFB034618460837BD4680BD00040240AB
:103F400080B582B000AF786039603B68002B05D146
:103F500006484FF4005104F083FB04E003484FF49B
:103F6000005104F06FFB0837BD4680BD00040240DD
:103F700080B582B000AF786004484FF4005104F07F
:103F80002DFB034618460837BD4680BD000402409D
:103F900080B584B002AF786000230093002005490B
:103FA0004FF400520023FDF7FFFD002318460837A9
:103FB000BD4680BD0004024080B483B000AF78608D
:103FC000012318460C37BD465DF8047B704700BFDF
:103FD00080B584B002AF78600023009300200549CB
:103FE0004FF400520123FDF7DFFD00231846083788
:103FF000BD4680BD0004024080B584B002AF786049
:1040000000230093002005494FF400520223FDF7DE
:10401000CBFD002318460837BD4680BD0004024092
:1040200080B582B000AF786004484FF4006104F0BE
:10403000EFFA034618460837BD4680BD000C024023
:1040400080B582B000AF786039603B68002B05D145
:1040500006484FF4006104F003FB04E003484FF40A
:10406000006104F0EFFA0837BD4680BD000C024045
:1040700080B582B000AF786004484FF4006104F06E
:10408000ADFA034618460837BD4680BD000C024015
:1040900080B584B002AF786000230093002005490A
:1040A0004FF400620023FDF77FFD00231846083718
:1040B000BD4680BD000C024080B483B000AF786084
:1040C000012318460C37BD465DF8047B704700BFDE
:1040D00080B584B002AF78600023009300200549CA
:1040E0004FF400620123FDF75FFD002318460837F7
:1040F000BD4680BD000C024080B584B002AF786040
:1041000000230093002005494FF400620223FDF7CD
:104110004BFD002318460837BD4680BD000C024009
:1041200080B582B000AF786004484FF4806104F03D
:104130006FFA034618460837BD4680BD000C0240A2
:1041400080B582B000AF786039603B68002B05D144
:1041500006484FF4806104F083FA04E003484FF40A
:10416000806104F06FFA0837BD4680BD000C024044
:1041700080B582B000AF786004484FF4806104F0ED
:104180002DFA034618460837BD4680BD000C024094
:1041900080B584B002AF7860002300930020054909
:1041A0004FF480620023FDF7FFFC00231846083718
:1041B000BD4680BD000C024080B483B000AF786083
:1041C000012318460C37BD465DF8047B704700BFDD
:1041D00080B584B002AF78600023009300200549C9
:1041E0004FF480620123FDF7DFFC002318460837F7
:1041F000BD4680BD000C024080B584B002AF78603F
:1042000000230093002005494FF480620223FDF74C
:10421000CBFC002318460837BD4680BD000C024089
:1042200080B582B000AF78600448022104F0F0F954
:10423000034618460837BD4680BD00BF0004024053
:1042400080B582B000AF786039603B68002B04D144
:104250000548022104F004FA03E00348022104F0B7
:10426000F1F90837BD4680BD0004024080B582B038
:1042700000AF78600448022104F0B0F90346184604
:104280000837BD4680BD00BF0004024080B584B041
:1042900002AF78600023009300200549022200232A
:1042A000FDF782FC002318460837BD4680BD00BFDD
:1042B0000004024080B584B002AF78600023009310
:1042C0000120054902220023FDF76EFC0023184659
:1042D0000837BD4680BD00BF0004024080B584B0F1
:1042E00002AF7860002300930020054902220123D9
:1042F000FDF75AFC002318460837BD4680BD00BFB5
:104300000004024080B584B002AF786000230093BF
:104310000020054902220223FDF746FC002318462F
:104320000837BD4680BD00BF0004024080B582B0A2
:1043300000AF78600448102104F06AF9034618467B
:104340000837BD4680BD00BF0000024080B582B086
:1043500000AF786039603B68002B04D1054810211C
:1043600004F07EF903E00348102104F06BF90837EC
:10437000BD4680BD0000024080B582B000AF7860CD
:104380000448102104F02AF9034618460837BD46B0
:1043900080BD00BF0000024080B584B002AF7860ED
:1043A000002300930020054910220023FDF7FCFBA9
:1043B000002318460837BD4680BD00BF00000240FC
:1043C00080B584B002AF78600023009301200549D6
:1043D00010220023FDF7E8FB002318460837BD46EE
:1043E00080BD00BF0000024080B584B002AF78609D
:1043F000002300930020054910220123FDF7D4FB80
:10440000002318460837BD4680BD00BF00000240AB
:1044100080B584B002AF7860002300930020054986
:1044200010220223FDF7C0FB002318460837BD46C3
:1044300080BD00BF0000024080B582B000AF786050
:104440000448012104F0E4F8034618460837BD4645
:1044500080BD00BF0008024080B582B000AF786028
:1044600039603B68002B04D10548012104F0F8F8BD
:1044700003E00348012104F0E5F80837BD4680BD9C
:104480000008024080B582B000AF78600448012186
:1044900004F0A4F8034618460837BD4680BD00BFA7
:1044A0000008024080B584B002AF7860002300931A
:1044B0000020054901220023FDF776FB0023184662
:1044C0000837BD4680BD00BF0008024080B584B0FB
:1044D00002AF7860002300930120054901220023E8
:1044E000FDF762FB002318460837BD4680BD00BFBC
:1044F0000008024080B584B002AF786000230093CA
:104500000020054901220123FDF74EFB0023184638
:104510000837BD4680BD00BF0008024080B584B0AA
:1045200002AF786000230093002005490122022396
:10453000FDF73AFB002318460837BD4680BD00BF93
:104540000008024080B582B000AF786004484FF4A4
:10455000805104F05DF8034618460837BD4680BD1B
:104560000010024080B582B000AF786039603B68CF
:10457000002B05D106484FF4805104F071F804E097
:1045800003484FF4805104F05DF80837BD4680BD04
:104590000010024080B582B000AF786004484FF44C
:1045A000805104F01BF8034618460837BD4680BD0D
:1045B0000010024080B584B002AF78600023009301
:1045C000002005494FF480520023FDF7EDFA002347
:1045D00018460837BD4680BD0010024080B584B043
:1045E00002AF786000230093012005494FF4805208
:1045F0000023FDF7D9FA002318460837BD4680BDD1
:104600000010024080B584B002AF786000230093B0
:10461000002005494FF480520123FDF7C5FA00231D
:1046200018460837BD4680BD0010024080B584B0F2
:1046300002AF786000230093002005494FF48052B8
:104640000223FDF7B1FA002318460837BD4680BDA6
:104650000010024080B582B000AF7860044820218D
:1046600003F0D6FF034618460837BD4680BD00BF9D
:104670000000024080B582B000AF786039603B68CE
:10468000002B04D10548202103F0EAFF03E0034892
:10469000202103F0D7FF0837BD4680BD000002404F
:1046A00080B582B000AF78600448202103F096FF07
:1046B000034618460837BD4680BD00BF00000240D3
:1046C00080B584B002AF78600023009300200549D4
:1046D00020220023FDF768FA002318460837BD465C
:1046E00080BD00BF0000024080B584B002AF78609A
:1046F000002300930120054920220023FDF754FAEE
:10470000002318460837BD4680BD00BF00000240A8
:1047100080B584B002AF7860002300930020054983
:1047200020220123FDF740FA002318460837BD4632
:1047300080BD00BF0000024080B584B002AF786049
:10474000002300930020054920220223FDF72CFAC4
:10475000002318460837BD4680BD00BF0000024058
:1047600080B582B000AF78600448042103F050FFA8
:10477000034618460837BD4680BD00BF000402400E
:1047800080B582B000AF786039603B68002B04D1FF
:104790000548042103F064FF03E00348042103F00B
:1047A00051FF0837BD4680BD0004024080B582B08D
:1047B00000AF78600448042103F010FF0346184658
:1047C0000837BD4680BD00BF0004024080B584B0FC
:1047D00002AF7860002300930020054904220023E3
:1047E000FDF7E2F9002318460837BD4680BD00BF3B
:1047F0000004024080B584B002AF786000230093CB
:104800000120054904220023FDF7CEF900231846B4
:104810000837BD4680BD00BF0004024080B584B0AB
:1048200002AF786000230093002005490422012391
:10483000FDF7BAF9002318460837BD4680BD00BF12
:104840000004024080B584B002AF7860002300937A
:104850000020054904220223FDF7A6F9002318468B
:104860000837BD4680BD00BF0004024080B582B05D
:1048700000AF78600448802103F0CAFE0346184662
:104880000837BD4680BD00BF0010024080B582B031
:1048900000AF786039603B68002B04D10548802167
:1048A00003F0DEFE03E00348802103F0CBFE08376F
:1048B000BD4680BD0010024080B582B000AF786078
:1048C0000448802103F08AFE034618460837BD4697
:1048D00080BD00BF0010024080B584B002AF786098
:1048E000002300930020054980220023FDF75CF996
:1048F000002318460837BD4680BD00BF00100240A7
:1049000080B584B002AF7860002300930120054990
:1049100080220023FDF748F9002318460837BD46DA
:1049200080BD00BF0010024080B584B002AF786047
:10493000002300930020054980220123FDF734F96C
:10494000002318460837BD4680BD00BF0010024056
:1049500080B584B002AF7860002300930020054941
:1049600080220223FDF720F9002318460837BD46B0
:1049700080BD00BF0010024080B582B000AF7860FB
:1049800004484FF4806103F043FE0346184608379D
:10499000BD4680BD0010024080B582B000AF786097
:1049A00039603B68002B05D106484FF4806103F065
:1049B00057FE04E003484FF4806103F043FE0837DC
:1049C000BD4680BD0010024080B582B000AF786067
:1049D00004484FF4806103F001FE0346184608378F
:1049E000BD4680BD0010024080B584B002AF786043
:1049F00000230093002005494FF480620023FDF757
:104A0000D3F8002318460837BD4680BD0010024089
:104A100080B584B002AF786000230093012005497F
:104A20004FF480620023FDF7BFF8002318460837D3
:104A3000BD4680BD0010024080B584B002AF7860F2
:104A400000230093002005494FF480620123FDF705
:104A5000ABF8002318460837BD4680BD0010024061
:104A600080B584B002AF7860002300930020054930
:104A70004FF480620223FDF797F8002318460837A9
:104A8000BD4680BD0010024080B582B000AF7860A6
:104A90000448012103F0BCFD034618460837BD4613
:104AA00080BD00BF0004024080B582B000AF7860D6
:104AB00039603B68002B04D10548012103F0D0FD8B
:104AC00003E00348012103F0BDFD0837BD4680BD6A
:104AD0000004024080B582B000AF78600448012134
:104AE00003F07CFD034618460837BD4680BD00BF75
:104AF0000004024080B584B002AF786000230093C8
:104B00000020054901220023FDF74EF80023184636
:104B10000837BD4680BD00BF0004024080B584B0A8
:104B200002AF786000230093012005490122002391
:104B3000FDF73AF8002318460837BD4680BD00BF90
:104B40000004024080B584B002AF78600023009377
:104B50000020054901220123FDF726F8002318460D
:104B60000837BD4680BD00BF0004024080B584B058
:104B700002AF786000230093002005490122022340
:104B8000FDF712F8002318460837BD4680BD00BF68
:104B90000004024080B582B000AF78600448102164
:104BA00003F036FD034618460837BD4680BD00BFFA
:104BB0000010024080B582B000AF786039603B6879
:104BC000002B04D10548102103F04AFD03E00348FF
:104BD000102103F037FD0837BD4680BD00100240AC
:104BE00080B582B000AF78600448102103F0F6FC75
:104BF000034618460837BD4680BD00BF001002407E
:104C000080B584B002AF786000230093002005498E
:104C100010220023FCF7C8FF002318460837BD46C2
:104C200080BD00BF0010024080B584B002AF786044
:104C3000002300930120054910220023FCF7B4FF54
:104C4000002318460837BD4680BD00BF0010024053
:104C500080B584B002AF786000230093002005493E
:104C600010220123FCF7A0FF002318460837BD4699
:104C700080BD00BF0010024080B584B002AF7860F4
:104C8000002300930020054910220223FCF78CFF2B
:104C9000002318460837BD4680BD00BF0010024003
:104CA00080B582B000AF78600448042103F0B0FC06
:104CB000034618460837BD4680BD00BF00100240BD
:104CC00080B582B000AF786039603B68002B04D1BA
:104CD0000548042103F0C4FC03E00348042103F069
:104CE000B1FC0837BD4680BD0010024080B582B0DF
:104CF00000AF78600448042103F070FC03461846B6
:104D00000837BD4680BD00BF0010024080B584B0AA
:104D100002AF78600023009300200549042200239D
:104D2000FCF742FF002318460837BD4680BD00BF90
:104D30000010024080B584B002AF78600023009379
:104D40000120054904220023FCF72EFF002318460A
:104D50000837BD4680BD00BF0010024080B584B05A
:104D600002AF78600023009300200549042201234C
:104D7000FCF71AFF002318460837BD4680BD00BF68
:104D80000010024080B584B002AF78600023009329
:104D90000020054904220223FCF706FF00231846E1
:104DA0000837BD4680BD00BF0010024080B582B00C
:104DB00000AF786004484FF4807103F029FC03468B
:104DC00018460837BD4680BD0010024080B582B04D
:104DD00000AF786039603B68002B05D106484FF47E
:104DE000807103F03DFC04E003484FF4807103F050
:104DF00029FC0837BD4680BD0010024080B582B056
:104E000000AF786004484FF4807103F0E7FB03467D
:104E100018460837BD4680BD0010024080B584B0FA
:104E200002AF786000230093002005494FF48072A0
:104E30000023FCF7B9FE002318460837BD4680BDA5
:104E40000010024080B584B002AF78600023009368
:104E5000012005494FF480720023FCF7A5FE0023D2
:104E600018460837BD4680BD0010024080B584B0AA
:104E700002AF786000230093002005494FF4807250
:104E80000123FCF791FE002318460837BD4680BD7C
:104E90000010024080B584B002AF78600023009318
:104EA000002005494FF480720223FCF77DFE0023A9
:104EB00018460837BD4680BD0010024080B582B05C
:104EC00000AF78600448082103F0A2FB03461846AF
:104ED0000837BD4680BD00BF0010024080B582B0DB
:104EE00000AF786039603B68002B04D10548082189
:104EF00003F0B6FB03E00348082103F0A3FB0837E7
:104F0000BD4680BD0010024080B582B000AF786021
:104F10000448082103F062FB034618460837BD46E3
:104F200080BD00BF0010024080B584B002AF786041
:104F3000002300930020054908220023FCF734FEDB
:104F4000002318460837BD4680BD00BF0010024050
:104F500080B584B002AF786000230093012005493A
:104F600008220023FCF720FE002318460837BD4620
:104F700080BD00BF0010024080B584B002AF7860F1
:104F8000002300930020054908220123FCF70CFEB2
:104F9000002318460837BD4680BD00BF0010024000
:104FA00080B584B002AF78600023009300200549EB
:104FB00008220223FCF7F8FD002318460837BD46F7
:104FC00080BD00BF0010024080B582B000AF7860A5
:104FD0000448202103F01CFB034618460837BD4651
:104FE00080BD00BF0008024080B582B000AF78608D
:104FF00039603B68002B04D10548202103F030FBC9
:1050000003E00348202103F01DFB0837BD4680BDA7
:105010000008024080B582B000AF786004482021CB
:1050200003F0DCFA034618460837BD4680BD00BFD2
:105030000008024080B584B002AF7860002300937E
:105040000020054920220023FCF7AEFD002318466E
:105050000837BD4680BD00BF0008024080B584B05F
:1050600002AF78607B680222DA600023009301209F
:10507000044920220023FCF797FD00231846083737
:10508000BD4680BD0008024080B584B002AF7860A4
:10509000002300930020054920220123FCF784FD12
:1050A000002318460837BD4680BD00BF00080240F7
:1050B00080B584B002AF78600023009300200549DA
:1050C00020220223FCF770FD002318460837BD4656
:1050D00080BD00BF0008024080B582B000AF78609C
:1050E0000448022103F094FA034618460837BD46E7
:1050F00080BD00BF0008024080B582B000AF78607C
:1051000039603B68002B04D10548022103F0A8FA5E
:1051100003E00348022103F095FA0837BD4680BD3D
:105120000008024080B582B000AF786004480221D8
:1051300003F054FA034618460837BD4680BD00BF49
:105140000008024080B584B002AF7860002300936D
:105150000020054902220023FCF726FD0023184603
:105160000837BD4680BD00BF0008024080B584B04E
:1051700002AF78607B680222DA600023009301208E
:10518000044902220023FCF70FFD002318460837CC
:10519000BD4680BD0008024080B584B002AF786093
:1051A000002300930020054902220123FCF7FCFCA8
:1051B000002318460837BD4680BD00BF00080240E6
:1051C00080B584B002AF78600023009300200549C9
:1051D00002220223FCF7E8FC002318460837BD46EC
:1051E00080BD00BF0008024080B582B000AF78608B
:1051F0000448042103F00CFA034618460837BD465C
:1052000080BD00BF0008024080B582B000AF78606A
:1052100039603B68002B04D10548042103F020FAD3
:1052200003E00348042103F00DFA0837BD4680BDB2
:105230000008024080B582B000AF786004480421C5
:1052400003F0CCF9034618460837BD4680BD00BFC1
:105250000008024080B584B002AF7860002300935C
:105260000020054904220023FCF79EFC0023184679
:105270000837BD4680BD00BF0008024080B584B03D
:1052800002AF78607B680222DA600023009301207D
:10529000044904220023FCF787FC00231846083742
:1052A000BD4680BD0008024080B584B002AF786082
:1052B000002300930020054904220123FCF774FC1D
:1052C000002318460837BD4680BD00BF00080240D5
:1052D00080B584B002AF78600023009300200549B8
:1052E00004220223FCF760FC002318460837BD4661
:1052F00080BD00BF0008024080B582B000AF78607A
:105300000448082103F084F9034618460837BD46CF
:1053100080BD00BF0008024080B582B000AF786059
:1053200039603B68002B04D10548082103F098F947
:1053300003E00348082103F085F90837BD4680BD26
:105340000008024080B582B000AF786004480821B0
:1053500003F044F9034618460837BD4680BD00BF38
:105360000008024080B584B002AF7860002300934B
:105370000020054908220023FCF716FC00231846EC
:105380000837BD4680BD00BF0008024080B584B02C
:1053900002AF78607B680222DA600023009301206C
:1053A000044908220023FCF7FFFB002318460837B6
:1053B000BD4680BD0008024080B584B002AF786071
:1053C000002300930020054908220123FCF7ECFB91
:1053D000002318460837BD4680BD00BF00080240C4
:1053E00080B584B002AF78600023009300200549A7
:1053F00008220223FCF7D8FB002318460837BD46D5
:1054000080BD00BF0008024080B582B000AF786068
:105410000448102103F0FCF8034618460837BD463F
:1054200080BD00BF0008024080B582B000AF786048
:1054300039603B68002B04D10548102103F010F9B6
:1054400003E00348102103F0FDF80837BD4680BD96
:105450000008024080B582B000AF78600448102197
:1054600003F0BCF8034618460837BD4680BD00BFB0
:105470000008024080B584B002AF7860002300933A
:105480000020054910220023FCF78EFB002318465C
:105490000837BD4680BD00BF0008024080B584B01B
:1054A00002AF78607B680222DA600023009301205B
:1054B000044910220023FCF777FB00231846083725
:1054C000BD4680BD0008024080B584B002AF786060
:1054D000002300930020054910220123FCF764FB00
:1054E000002318460837BD4680BD00BF00080240B3
:1054F00080B584B002AF7860002300930020054996
:1055000010220223FCF750FB002318460837BD4643
:1055100080BD00BF0008024080B582B000AF786057
:1055200004484FF4006103F073F803461846083747
:10553000BD4680BD0010024080B582B000AF7860EB
:1055400039603B68002B05D106484FF4006103F039
:1055500087F804E003484FF4006103F073F808375C
:10556000BD4680BD0010024080B582B000AF7860BB
:1055700004484FF4006103F031F803461846083739
:10558000BD4680BD0010024080B584B002AF786097
:1055900000230093002005494FF400620023FCF72C
:1055A00003FB002318460837BD4680BD00100240AB
:1055B00080B584B002AF78607B680222DA60002395
:1055C0000093012005494FF400620023FCF7ECFA38
:1055D000002318460837BD4680BD00BF00100240BA
:1055E00080B584B002AF78600023009300200549A5
:1055F0004FF400620123FCF7D7FA0023184608375E
:10560000BD4680BD0010024080B584B002AF786016
:1056100000230093002005494FF400620223FCF7A9
:10562000C3FA002318460837BD4680BD001002406B
:1056300080B582B000AF78600448402102F0E8FFF6
:10564000034618460837BD4680BD00BF0010024023
:1056500080B582B000AF786039603B68002B04D120
:105660000548402102F0FCFF03E00348402102F01E
:10567000E9FF0837BD4680BD0010024080B582B00A
:1056800000AF78600448402102F0A8FF03461846A6
:105690000837BD4680BD00BF0010024080B584B011
:1056A00002AF7860002300930020054940220023C8
:1056B000FCF77AFA002318460837BD4680BD00BFC4
:1056C0000010024080B584B002AF78607B6802228F
:1056D000DA60002300930120044940220023FCF7F4
:1056E00063FA002318460837BD4680BD001002400B
:1056F00080B584B002AF7860002300930020054994
:1057000040220123FCF750FA002318460837BD4613
:1057100080BD00BF0010024080B584B002AF786049
:10572000002300930020054940220223FCF73CFAA5
:10573000002318460837BD4680BD00BF0010024058
:1057400080B582B000AF78600448202102F060FF8D
:10575000034618460837BD4680BD00BF0010024012
:1057600080B582B000AF786039603B68002B04D10F
:105770000548202102F074FF03E00348202102F0D5
:1057800061FF0837BD4680BD0010024080B582B081
:1057900000AF78600448202102F020FF034618463D
:1057A0000837BD4680BD00BF0010024080B584B000
:1057B00002AF7860002300930020054920220023D7
:1057C000FCF7F2F9002318460837BD4680BD00BF3C
:1057D0000010024080B584B002AF78607B6802227E
:1057E000DA60002300930120044920220023FCF703
:1057F000DBF9002318460837BD4680BD0010024083
:1058000080B584B002AF7860002300930020054982
:1058100020220123FCF7C8F9002318460837BD46AB
:1058200080BD00BF0010024080B584B002AF786038
:10583000002300930020054920220223FCF7B4F93D
:10584000002318460837BD4680BD00BF0010024047
:1058500080B582B000AF786004484FF4007102F068
:10586000D7FE034618460837BD4680BD00100240EB
:1058700080B582B000AF786039603B68002B05D1FD
:1058800006484FF4007102F0EBFE04E003484FF4C9
:10589000007102F0D7FE0837BD4680BD00100240FF
:1058A00080B582B000AF786004484FF4007102F018
:1058B00095FE034618460837BD4680BD00100240DD
:1058C00080B584B002AF78600023009300200549C2
:1058D0004FF400720023FCF767F9002318460837DD
:1058E000BD4680BD0010024080B584B002AF786034
:1058F0007B680222DA6000230093012005494FF4FF
:1059000000720023FCF750F9002318460837BD4603
:1059100080BD00BF0010024080B584B002AF786047
:1059200000230093002005494FF400720123FCF787
:105930003BF9002318460837BD4680BD00100240E1
:1059400080B584B002AF7860002300930020054941
:105950004FF400720223FCF727F90023184608379A
:10596000BD4680BD0010024080B582B000AF7860B7
:1059700004484FF4804102F04BFE034618460837B6
:10598000BD4680BD0010024080B582B000AF786097
:1059900039603B68002B05D106484FF4804102F086
:1059A0005FFE04E003484FF4804102F04BFE0837ED
:1059B000BD4680BD0010024080B582B000AF786067
:1059C00004484FF4804102F009FE034618460837A8
:1059D000BD4680BD0010024080B584B002AF786043
:1059E00000230093002005494FF480420023FCF778
:1059F000DBF8002318460837BD4680BD0010024082
:105A000080B584B002AF78607B680222DA60002340
:105A10000093012005494FF480420023FCF7C4F8AD
:105A2000002318460837BD4680BD00BF0010024065
:105A300080B584B002AF7860002300930020054950
:105A40004FF480420123FCF7AFF8002318460837D3
:105A5000BD4680BD0010024080B584B002AF7860C2
:105A600000230093002005494FF480420223FCF7F5
:105A70009BF8002318460837BD4680BD0010024041
:105A800080B582B000AF786004484FF4005102F056
:105A9000BFFD034618460837BD4680BD00100240D2
:105AA00080B582B000AF786039603B68002B05D1CB
:105AB00006484FF4005102F0D3FD04E003484FF4D0
:105AC000005102F0BFFD0837BD4680BD0010024006
:105AD00080B582B000AF786004484FF4005102F006
