:020000040800F2
:1000000038580120351A000819780008357800089A
:10001000517800086D780008897800080000000019
:10002000000000000000000000000000A5780008AB
:10003000C178000800000000DD78000851190008B0
:10004000911A0008911A0008911A0008911A0008E4
:10005000911A0008911A0008911A0008911A0008D4
:10006000911A0008911A0008911A0008911A0008C4
:10007000911A0008911A0008911A0008911A0008B4
:10008000911A0008911A0008911A0008911A0008A4
:10009000911A0008911A0008911A0008911A000894
:1000A000911A00085D110008911A0008911A0008C1
:1000B000A5110008F111000839120008911A000872
:1000C000911A0008911A0008911A0008911A000864
:1000D000911A0008911A0008C9500008911A0008E6
:1000E000911A0008911A000829110008111300083C
:1000F000C9120008911A0008911A0008911A000804
:10010000911A0008CD7A000881120008911A00089F
:10011000911A0008911A0008911A0008911A000813
:10012000911A0008911A0008911A0008D97A00085B
:10013000911A0008911A0008911A0008911A0008F3
:10014000911A0008911A0008911A00081911000864
:10015000911A0008911A0008911A0008911A0008D3
:10016000911A0008911A0008911A0008911A0008C3
:10017000911A0008911A0008911A0008911A0008B3
:10018000911A0008911A000810B5054C237833B96C
:10019000044B13B10448AFF300800123237010BD5A
:1001A0001009002000000000A0340208084B10B520
:1001B0001BB108480849AFF300800848036803B939
:1001C00010BD074B002BFBD0BDE81040184700BF07
:1001D00000000000A03402081409002008090020D3
:1001E0000000000080B584B000AFF8600B467A6074
:1001F000FB72FB7A013B032B52D801A252F823F089
:100200001102000835020008590200087D020008AA
:10021000FB68DB6A18460EF0A9F8034618467968B1
:100220000EF0FCF8034618460EF0E4FA0246FB68AE
:100230005A6336E0FB68DB6A18460EF097F803460F
:10024000184679680EF0EAF8034618460EF0D2FA1E
:100250000246FB689A6324E0FB68DB6A18460EF0EE
:1002600085F80346184679680EF0D8F80346184614
:100270000EF0C0FA0246FB68DA6312E0FB68DB6A44
:1002800018460EF073F80346184679680EF0C6F863
:10029000034618460EF0AEFA0246FB681A6400E008
:1002A00000BF1037BD4680BD80B582B000AF78601A
:1002B0000B46FB70FB78012B06D17B685B6B184605
:1002C0000EF054F803461FE0FB78022B06D17B6842
:1002D0009B6B18460EF04AF8034615E0FB78032B9B
:1002E00006D17B68DB6B18460EF040F803460BE046
:1002F000FB78042B06D17B681B6C18460EF036F891
:10030000034601E04FF0000318460837BD4680BDA4
:1003100090B5ADB002AFF860B9603B601346FB80AA
:100320000023C7F8A4300023C7F8A0300023C7F883
:100330009C300123C7F898300023A7F8963007F0C7
:100340003DFD07F14403184606F0A8FDFB68B3F134
:10035000804F03D3FB68944A934207D9FB68934AC2
:10036000934211D9FB68924A93420DD8FB6C914A93
:10037000D2F88C20120E02F00102013202FB03F3CC
:100380005B00C7F8A4300CE03B6D8A4AD2F88C20A1
:10039000120E02F00102013202FB03F35B00C7F808
:1003A000A4303B68002B0ADDD7F8A430824A82FBD8
:1003B00003125211DB17D21A3B689A4201DA012369
:1003C000EEE01FE0D7F8A0300133C7F8A030D7F82F
:1003D000A420D7F8A03092FBF3F23B6892FBF3F332
:1003E000C7F89C30D7F89C30B3F5803F02DA002381
:1003F000C7F89830D7F8A0304FF6FE72934201DD6F
:100400000123CDE0D7F89830002BDBD1D7F8A4201A
:10041000D7F8A03092FBF3F2D7F89C3092FBF3F3BD
:100420003B60F86809F012FBFA8800230093022071
:10043000B968002300F0C8FDD7F89C30013BFB638E
:10044000D7F8A0309BB2013B9BB23B870023A7F8B3
:10045000403000237B87002387F8423007F13803C0
:10046000F86819460AF092F86023BB8400233B86A3
:100470000123FB8404233B8508237B864FF4807390
:10048000BB864FF40073FB8607F12403F868194616
:100490000AF054F9F86800210AF03EFB07F1240342
:1004A000F86819460AF0C4F9F86800210AF050FB10
:1004B00007F12403F86819460AF042FAF8680021A7
:1004C0000AF064FB07F12403F86819460AF0BEFA43
:1004D000F86800210AF076FBFB68384A934203D0A3
:1004E000FB68374A934211D107F1140318460AF00A
:1004F000AFFB4FF480433B8407F11403F8681946BF
:100500000AF07EFBF86801210AF0C0FBFA8807F1C7
:1005100054031046194609F017F90023A7F896303E
:1005200025E0B7F896305B0007F1A802134433F8D2
:10053000543C012B16D1B7F8963010335B0007F10D
:10054000A802134433F8523C184609F003FC034652
:100550009CB2F86809F074FC0346B86821461A4654
:1005600007F0B8FBB7F896300133A7F89630B7F824
:1005700096300F2BD5D9FB6800225A63FB68002206
:100580009A63FB680022DA63FB6800221A64F86849
:1005900001210AF093F8F86801210AF0AFF800236E
:1005A0001846AC37BD4690BD00140040FF17004010
:1005B00000200040003802401F85EB510000014040
:1005C0000004014080B489B000AFF860B960114602
:1005D0001A460B46FB711346BB800023FB76FB6873
:1005E000DB78002B22D100237B610023FB61BB88D9
:1005F0000333002B00DA03339B107B61FB79FA682D
:1006000032339B0013449B683B610023FB6109E08C
:10061000BB681A683B691A60FB690133FB61BB6800
:100620000433BB60FA697B699A42F1D3FB7E1846BA
:100630002437BD465DF8047B704700BF80B489B0A5
:1006400000AFF860B9601346FB800023FB61FB88B4
:100650000333002B00DA03339B10BB61FB68D3F834
:10066000D0307B610023FB6109E07B691A68BB68BD
:100670001A60FB690133FB61BB680433BB60FA6934
:10068000BB699A42F1D3BB6818462437BD465DF872
:10069000047B704780B586B000AF78603960002376
:1006A000FB7400237B610023FB60FB6843F02003A5
:1006B000FB603B68DBB203F01F03DBB203F01F03F8
:1006C0009B01FA6822F4F8621343FB607B68DB68E5
:1006D000FA681A617B68DB681B69FB607B69013320
:1006E0007B617B69094A934200D906E0FB685B099C
:1006F00003F00103DBB2012BECD0032007F080FEF6
:10070000FB7C18461837BD4680BD00BF400D030076
:1007100080B483B000AF78607B68DB685B6903F00E
:10072000010318460C37BD465DF8047B704700BFD7
:1007300080B582B000AF78607868FFF7E9FF0346C4
:10074000012B14BF01230023DBB218460837BD4636
:1007500080BD00BF80B485B000AF78600023FB602F
:100760007B68DB685B69FB607B68DB689B69FA68B8
:100770001340FB60FB6818461437BD465DF8047BE8
:10078000704700BF80B485B000AF78600023FB7372
:100790007B681B699B68BB603B7AC3F34103DBB298
:1007A000022B09D0032B04D0012B02D00323FB73AF
:1007B00005E00223FB7302E00123FB7300BFFB7B18
:1007C00018461437BD465DF8047B704780B487B087
:1007D00000AF78600023FB750023BB607B681B695A
:1007E0009B683B617B689B691B68FB603B7CC3F338
:1007F0004103DBB2022B04D0BB896FF30A03BB8138
:1008000005E0BB89032262F30A03BB8100BF7B685A
:100810009B69FA681A607B7A43F001037B727B68FC
:100820001B697A6812695168BA68D2431140BA6884
:100830000A435A60FB7D18461C37BD465DF8047BB1
:10084000704700BF80B487B000AF78603960002384
:10085000FB740023FB600023BB603B685B78012BCB
:100860000FD13B681B787A6804339B0013449B6864
:100870007B613B681B781A46012393409BB23B8106
:100880000EE03B681B787A6814339B0013445B6866
:100890007B613B681B781A46012393409BB27B81A6
:1008A0007B691B68FB607B7B23F07F03DBB2002B43
:1008B00027D13B689B689BB2C3F30A039AB2BB89FA
:1008C00062F30A03BB813B68DB7803F00303DAB20F
:1008D000BB7B62F38303BB733B68DB88DBB203F053
:1008E0000F03DAB2FB8962F38913FB81FB7B43F0D0
:1008F0001003FB737B7B43F080037B73FA687B6997
:100900001A607B681B697A681269D169BA680A4300
:10091000DA61FB7C18461C37BD465DF8047B7047E6
:1009200080B588B000AF786039600023FB77002382
:10093000BB6100237B6100233B613B685B78012B3B
:1009400040F0AB803B681B787A6804339B0013440B
:100950009B681B687B613B681B787A6804339B004B
:1009600013449B681B693B613B685B69002B09D1A1
:100970003B696FF312033B617B8A012262F3CC0374
:100980007B8222E03B685B69C3F312023B6962F33E
:1009900012033B613B685A693B689B6813445A1ECB
:1009A0003B689B68B2FBF3F39BB2C3F309039AB2B3
:1009B0007B8A62F3CC037B823B68DB78012B04D11A
:1009C000FB7C012262F34613FB743B681B787A6858
:1009D00004339B0013449B683A691A617B68DB7897
:1009E000012B0AD13B681B787A6804339B001344BF
:1009F0009B683A6812695A6115E03B68DB78012B05
:100A000011D03B685B69002B0DD03B681B781A4600
:100A100001239340BB617B681B697A681269516B43
:100A2000BA690A435A633B68DB78012B14D17B68AF
:100A30001B699B68FB60FB68C3F30D239BB203F04B
:100A40000103002B04D1FB7D43F02003FB7503E081
:100A5000FB7D43F01003FB75FB7D43F00403FB7546
:100A6000FB7D43F08003FB753B681B787A68043399
:100A70009B0013449B687A691A603B68DB78012B02
:100A800040F089803B68D9683B681A783B685B69AD
:100A90009BB27868FFF796FD7DE03B681B787A682B
:100AA00014339B0013445B681B687B613B681B78B5
:100AB0007A6814339B0013445B681B693B613B6895
:100AC0005B69002B0DD13B689B68C3F312023B6945
:100AD00062F312033B617B8A012262F3CC037B82C7
:100AE00020E03B685A693B689B6813445A1E3B6888
:100AF0009B68B2FBF3F39BB2C3F309039AB27B8A00
:100B000062F3CC037B827B8AC3F3C9039BB21A4690
:100B10003B689B6803FB02F3C3F312023B6962F379
:100B200012033B613B681B787A6814339B001344C3
:100B30005B683A691A617B68DB78012B09D13B68F5
:100B40001B787A6814339B0013445B683A68126917
:100B50005A613B68DB78012B0CD13B685B79002B39
:100B600004D0FB7D43F02003FB7503E0FB7D43F0E5
:100B70001003FB75FB7D43F00403FB75FB7D43F025
:100B80008003FB753B681B787A6814339B00134421
:100B90005B687A691A60FB7F18462037BD4680BDC6
:100BA00080B489B000AF786039600023FB77002300
:100BB000BB6100233B610023BB603B685B78012B7A
:100BC00070D17B689B697B617B691B683B617B693A
:100BD0001B69BB603B685B69002B09D13B7A6FF3F3
:100BE00006033B72BB7A012262F3C403BB7223E0AB
:100BF0003B685A693B689B689A420ED93B689A6881
:100C00003B685A613B689B68DBB203F07F03DAB252
:100C10003B7A62F306033B7209E03B685B69DBB237
:100C200003F07F03DAB23B7A62F306033B72BB7ACE
:100C3000012262F3C403BB72BA687B691A617B68E4
:100C4000DB78012B09D13B681B787A6804339B0061
:100C500013449B683A6812695A61FB7C43F00403B1
:100C6000FB74FB7C43F08003FB743A697B691A6078
:100C70007B68DB78002B76D13B685B69002B72D0F8
:100C80003B681B781A46012393401A46BB691343FD
:100C9000BB617B681B697A681269516BBA690A4348
:100CA0005A6360E03B681B787A6814339B001344F6
:100CB0005B681B683B613B681B787A6814339B0058
:100CC00013445B681B69BB603B685B69002B0FD1F9
:100CD0003B689B68DBB203F07F03DAB23B7A62F3D6
:100CE00006033B72BB7A012262F3C403BB7212E0BB
:100CF0003B689A683B685A613B689B68DBB203F0CB
:100D00007F03DAB23B7A62F306033B72BB7A0122BD
:100D100062F3C403BB723B681B787A6814339B0090
:100D200013445B68BA681A617B68DB78012B09D1D0
:100D30003B681B787A6814339B0013445B683A68FD
:100D400012695A61FB7C43F00403FB74FB7C43F0A3
:100D50008003FB743B681B787A6814339B00134450
:100D60005B683A691A60FB7F18462437BD465DF818
:100D7000047B704780B487B000AF7860396000238F
:100D8000FB750023FB603B685B78012B1CD13B6843
:100D90001B787A6804339B0013449B683B613B6972
:100DA0001B68FB60FB7B23F07F03DBB2002B03D0CF
:100DB000FB7B43F04003FB73BB7B43F02003BB731F
:100DC000FA683B691A6011E03B681B787A68143353
:100DD0009B0013445B683B613B691B68FB60BB7B0A
:100DE00043F02003BB73FA683B691A60FB7D184629
:100DF0001C37BD465DF8047B704700BF80B487B0E8
:100E000000AF786039600023FB740023FB603B680F
:100E10005B78012B08D13B681B787A6804339B0010
:100E200013449B687B6107E03B681B787A68143346
:100E30009B0013445B687B617B691B68FB60BB7B29
:100E40006FF34513BB733B68DB78032B03D03B6820
:100E5000DB78022B03D1FB7B43F01003FB73FA68B2
:100E60007B691A60FB7C18461C37BD465DF8047B25
:100E7000704700BF80B485B000AF78607B681B69A5
:100E80009B69FB607B681B69DB69FA681340FB6048
:100E9000FB681B0C18461437BD465DF8047B704791
:100EA00080B485B000AF78600B46FB70FB787A6841
:100EB00014339B0013445B689B68FB607B681B6971
:100EC0005B69FA681340FB60FB6818461437BD463F
:100ED0005DF8047B704700BF80B485B000AF7860D8
:100EE0007B681B699B69FB607B681B69DB69FA682F
:100EF0001340FB60FB689BB218461437BD465DF893
:100F0000047B704780B487B000AF786000233B61FA
:100F1000FB7C43F0C003FB74BB7C012262F3C4037F
:100F2000BB743B7C182262F306033B747B685B6DE9
:100F30003A691A617B68DB78012B16D10023FB60CC
:100F40007B685B6D7A6802F5B9625A617B685B6D9C
:100F50001B68FB60FB7B43F08003FB734FF0802337
:100F6000FB607B685B6DFA681A601C37BD465DF8F4
:100F7000047B704780B485B000AF78607B689B7A53
:100F8000002B1BD07B681B699B68FB603B7B03F0DD
:100F90000103DBB2002B11D07B6803F586731B685D
:100FA000BB603B7A6FF341033B723B7A6FF3000304
:100FB0003B727B68D3F80C31BA681A601437BD46AF
:100FC0005DF8047B704700BF80B584B000AF396026
:100FD00011461A460346FB710B46BB801346BB7194
:100FE0003B68254A934204D10120012106F000F814
:100FF00022E03B68214A934204D10220012105F0FE
:10100000F7FF19E03B681E4A934204D104200121F6
:1010100005F0EEFF10E03B681A4A934204D1082025
:10102000012105F0E5FF07E03B68174A934203D131
:101030001020012105F0DCFF07F10803184606F037
:10104000DFFDBB88BB60FB793B733B7EBB73BB7929
:10105000FB7303237B7307F108033868194606F016
:1010600041FDFB79012B04D1BB883868194606F095
:1010700023FE1037BD4680BD000002400004024040
:1010800000080240000C02400010024080B483B00F
:1010900000AF78600B46FB70FB78002B06D0094947
:1010A000084BDA6B7B681343CB6306E00549054BBD
:1010B000DA6B7B68DB431340CB630C37BD465DF8CE
:1010C000047B7047002C014080B485B000AF78608D
:1010D0000023FB73084B5A6B7B681340002B02D034
:1010E0000123FB7301E00023FB73FB7B18461437DD
:1010F000BD465DF8047B7047002C014080B483B08E
:1011000000AF7860034A7B6893630C37BD465DF897
:10111000047B7047002C014080B500AF014807F008
:10112000D5FD80BD4012002080B500AF094B9B7AF1
:10113000002B0AD0084A084B1B6823F006031360F3
:1011400006F010FE0348FFF715FF4FF4802008F06B
:10115000EDFA80BD4012002010ED00E080B500AF38
:101160000E4B1B889BB21B099BB2002B05D00C4B6E
:101170001B68013B0A4A13600BE0084B1B889BB2BB
:101180001B099BB2002B04D1054B1B680133044A99
:1011900013600248012109F0C3FD80BD0000014039
:1011A0002C09002080B500AF4FF080431B889BB214
:1011B0001B099BB2002B05D00C4B1B68013B0B4A53
:1011C00013600CE04FF080431B889BB21B099BB25D
:1011D000002B04D1054B1B680133044A13604FF008
:1011E0008040012109F09CFD80BD00BF3009002036
:1011F00080B500AF0E4B1B889BB21B099BB2002B26
:1012000005D00C4B1B68013B0A4A13600BE0084BEE
:101210001B889BB21B099BB2002B04D1054B1B689A
:101220000133044A13600248012109F079FD80BDB1
:10123000000400403409002080B500AF0E4B1B882D
:101240009BB21B099BB2002B05D00C4B1B68013BCA
:101250000A4A13600BE0084B1B889BB21B099BB228
:10126000002B04D1054B1B680133044A136002486C
:10127000012109F055FD80BD00080040380900201B
:1012800080B500AF0E4B1B889BB21B099BB2002B95
:1012900005D00C4B1B68013B0A4A13600BE0084B5E
:1012A0001B889BB21B099BB2002B04D1054B1B680A
:1012B0000133044A13600248012109F031FD80BD69
:1012C000000C00403C09002080B500AF0E4B1B888D
:1012D0009BB21B099BB2002B05D00C4B1B68013B3A
:1012E0000A4A13600BE0084B1B889BB21B099BB298
:1012F000002B04D1054B1B680133044A13600248DC
:10130000012109F00DFD80BD0004014040090020CD
:1013100080B500AF0E4B1B889BB21B099BB2002B04
:1013200005D00C4B1B68013B0A4A13600BE0084BCD
:101330001B889BB21B099BB2002B04D1054B1B6879
:101340000133044A13600248012109F0E9FC80BD21
:10135000001800404409002080B500AF044809F09F
:10136000A1F90246034B1B681B041344184680BDB9
:10137000000001402C09002080B500AF4FF08040F4
:1013800009F090F90246034B1B681B0413441846EE
:1013900080BD00BF3009002080B500AF044809F0CF
:1013A00081F90246034B1B681B041344184680BD99
:1013B000000400403409002080B500AF044809F063
:1013C00071F90246034B1B681B041344184680BD89
:1013D000000800403809002080B500AF044809F03B
:1013E00061F90246034B1B681B041344184680BD79
:1013F000000C00403C09002080B500AF044809F013
:1014000051F90246034B1B681B041344184680BD68
:10141000000401404009002080B500AF044809F0F5
:1014200041F90246034B1B681B041344184680BD58
:10143000001800404409002090B59DB002AFF8604C
:10144000B9601346FB800023A7F866300023A7F895
:101450006430F86808F0FAFAFA8800230093022052
:10146000B9680123FFF7B0FDFA8807F120031046A1
:10147000194608F069F90023A7F8663025E0B7F8A7
:1014800066305B0007F16802134433F8483C012BD7
:1014900016D1B7F8663010335B0007F168021344C9
:1014A00033F8463C184608F055FC03469CB2F868F1
:1014B00008F0C6FC0346B86821461A4606F00AFC46
:1014C000B7F866300133A7F86630B7F866300F2BEF
:1014D000D5D91D4B1B681D4AA2FB03235B0E9BB293
:1014E000013BA7F864304FF6FE73BB610023BB825B
:1014F0000023BB830023FB8207F11403F86819461D
:1015000009F044F8B7F86430F8681946012209F088
:10151000A7F8F86803210022002309F011FCF868FD
:101520000121012209F0D8FBF868012109F0E6F851
:10153000F86808F041FA0346184608F0F5FB00F099
:1015400055F86C37BD4690BD4000002029D9426651
:1015500080B582B000AF78607B681E4A934203D1A9
:10156000FFF7FAFE034630E07B68B3F1804F03D10A
:10157000FFF702FF034628E07B68174A934203D136
:10158000FFF70AFF034620E07B68144A934203D129
:10159000FFF712FF034618E07B68114A934203D11C
:1015A000FFF71AFF034610E07B680E4A934203D10F
:1015B000FFF722FF034608E07B680B4A934203D102
:1015C000FFF72AFF034600E0002318460837BD4610
:1015D00080BD00BF00000140000400400008004042
:1015E000000C0040000401400018004080B500AF2E
:1015F000194B00221A60194B00221A60184B002266
:101600001A60184B00221A60174B00221A60174B01
:1016100000221A60164B00221A601648002109F0B9
:1016200033F84FF08040002109F02EF812480021D5
:1016300009F02AF81148002109F026F81048002185
:1016400009F022F80F48002109F01EF80E48002189
:1016500009F01AF880BD00BF2C09002030090020D5
:1016600034090020380900203C09002040090020EE
:101670004409002000000140000400400008004030
:10168000000C0040000401400018004080B58AB002
:1016900000AF7860396000237B6200233B62002347
:1016A000FB610023BB617B681B8A9BB27B627B6A08
:1016B00023F440537B623B68DB881A467B6A134302
:1016C0007B627B6A9AB27B681A827B689B899BB239
:1016D0007B627B6A23F4B05323F00C037B623B688C
:1016E0009A883B681B8913439AB23B685B89134312
:1016F0009BB21A467B6A13437B627B6A9AB27B6811
:101700009A817B689B8A9BB27B627B6A23F44073DD
:101710007B623B689B891A467B6A13437B627B6AC8
:101720009AB27B689A8207F10803184605F0B6FB67
:101730007B68314A934203D07B68304A934202D19E
:101740007B693B6201E03B693B627B689B899BB2A2
:101750009BB21BB2002B0CDA3A6A13469B0013446F
:101760009A001A443B681B685B00B2FBF3F3FB6111
:101770000BE03A6A13469B0013449A001A443B68F4
:101780001B689B00B2FBF3F3FB61FB691C4AA2FBE5
:1017900003235B091B017B627B6A1B09642202FB3A
:1017A00003F3FA69D31ABB617B689B899BB29BB236
:1017B0001BB2002B0CDABB69DB003233104AA2FBF0
:1017C00003235B0903F007037A6A13437B620BE090
:1017D000BB691B0132330A4AA2FB03235B0903F0F6
:1017E0000F037A6A13437B627B6A9AB27B681A8121
:1017F0002837BD4680BD00BF0010014000140140E5
:101800001F85EB5180B483B000AF78600B46FB704E
:10181000FB78002B08D07B689B899BB243F4005374
:101820009AB27B689A8107E07B689B899BB223F41C
:1018300000539AB27B689A810C37BD465DF8047BF1
:10184000704700BF80B483B000AF78600B467B80E8
:101850007B88C3F308039AB27B689A800C37BD4635
:101860005DF8047B704700BF80B483B000AF786040
:101870007B689B889BB2C3F308039BB218460C3766
:10188000BD465DF8047B704780B487B000AF7860D8
:101890000B467B8013467B7000233B610023FB607B
:1018A0000023BB6000237B617B687B617B88DBB2AC
:1018B0005B09DBB23B617B8803F01F03FB60FB68C5
:1018C000012202FA03F3BB603B69012B03D17B6960
:1018D0000C337B6109E03B69022B03D17B69103338
:1018E0007B6102E07B6914337B617B78002B06D03F
:1018F0007B697A691168BA680A431A6006E07B69F5
:101900007A691168BA68D2430A401A601C37BD462A
:101910005DF8047B704700BF80B485B000AF78608D
:101920000B467B800023FB737B681B889AB27B8805
:1019300013409BB2002B02D00123FB7301E0002374
:10194000FB73FB7B18461437BD465DF8047B70477C
:1019500080B400AF064BD3E90023013243F100030A
:101960000349C1E90023BD465DF8047B704700BF11
:101970004809002080B500AF00F010F802460B4681
:10198000104619464FF47A724FF000030CF052FFE4
:1019900002460B461046194680BD00BF80B400AF1A
:1019A000094BD3E90023921843EB0303990041EA62
:1019B00092719000121843EB010310461946BD4680
:1019C0005DF8047B704700BF4809002080B500AF78
:1019D000014805F0DDFF80BDACC5273780B584B078
:1019E00000AFC7E900010023FB60FFF7C3FF024619
:1019F0000B461346FB6000BFFFF7BCFFFB681A46AF
:101A00004FEAE273821A61EB0303D7E900019042C7
:101A100071EB0303F0DA1037BD4680BD80B582B0AC
:101A200000AFC7E90001D7E90001FFF7D7FF08378A
:101A3000BD4680BD80B582B000AF104B7B60104BBF
:101A40003B6007E03B681A1D3A607A68111D7960B7
:101A500012681A603B680B4A9342F3D30A480B4959
:101A60004FF000028842B8BF40F8042BFADB05F0C3
:101A700037FB05F0C5F90837BD4680BDE8410208CF
:101A8000000000200C09002010090020341800205C
:101A900080B400AFFEE700BF80B584B000AF7860CF
:101AA00007F108037868194607F0A4F83B7A03F0B9
:101AB0001F03012B0AD0022B0FD0002B14D107F1EA
:101AC00008037868194606F0BFFC16E007F1080322
:101AD0007868194606F008FD0FE007F108037868FA
:101AE000194606F035FD08E03B7A23F07F03DBB2B0
:101AF0007868194608F044FB00BF002318461037E9
:101B0000BD4680BD80B584B000AF78600B46FB70E9
:101B1000FB78002B44D17B6803F55C73FB607B682A
:101B200093F81131032B4ED1FB68DA69FB689B688F
:101B30009A4220D9FB68DA69FB689B68D21AFB6875
:101B4000DA617B68DB78012B06D1FB68DA68FB6819
:101B50009B681A44FB68DA60FB68D968FB689A687E
:101B6000FB68DB69934228BF13469BB278681A462C
:101B700008F05AFC27E07B68D3F8E0351B69002B9E
:101B80000AD07B6893F81231032B05D17B68D3F818
:101B9000E0351B6978689847786808F059FC12E0CE
:101BA0007B68D3F8E0359B69002B0CD07B6893F8F9
:101BB0001231032B07D17B68D3F8E0359B69FA78A3
:101BC000786811469847002318461037BD4680BDF7
:101BD00080B584B000AF78600B46FB70FB78002BBB
:101BE00060D17B6803F58C73FB607B6893F81131DF
:101BF000022B6AD1FB68DA69FB689B689A421CD9A0
:101C0000FB68DA69FB689B68D21AFB68DA617B685B
:101C1000DB78012B06D1FB68DA68FB689B681A4405
:101C2000FB68DA60FB68DA68FB68DB699BB278689E
:101C300011461A4608F0E4FB47E0FB681B6AFA68A5
:101C40009268B3FBF2F102FB01F29B1A002B14D154
:101C5000FB681A6AFB689B689A420ED3FB681A6A93
:101C6000FB685B6A9A4208D278680021002208F07B
:101C7000C7FBFB6800225A6227E07B68D3F8E03597
:101C8000DB68002B0AD07B6893F81231032B05D157
:101C90007B68D3F8E035DB6878689847786808F0A7
:101CA000EFFB12E07B68D3F8E0355B69002B0CD0CA
:101CB0007B6893F81231032B07D17B68D3F8E035AA
:101CC0005B69FA7878681146984700231846103700
:101CD000BD4680BD80B582B000AF786078680021D5
:101CE0004022002308F07AF97868802140220023FE
:101CF00008F074F97B68012283F812217B68D3F81D
:101D0000E4355B687A689278104698470023184655
:101D10000837BD4680BD00BF80B582B000AF786097
:101D20007B68D3F8E4351B6998477B68032283F806
:101D30001221002318460837BD4680BD80B582B009
:101D400000AF78607B68042283F812217B68D3F8A7
:101D5000E435DB689847002318460837BD4680BD48
:101D600080B582B000AF78607B68D3F8E035DB697E
:101D7000002B05D07B68D3F8E035DB69786898479D
:101D8000002318460837BD4680BD00BF80B582B02D
:101D900000AF78600B46FB707B68D3F8E0351B68BA
:101DA000FA787868114698477B68D3F8E4359B68E1
:101DB0009847002318460837BD4680BD80B582B0DD
:101DC00000AF78600B46FB707B68D3F8E0355B684A
:101DD000FA78786811469847002318460837BD46B8
:101DE00080BD00BF80B582B000AF78607B68D3F85B
:101DF000E0351B6A78689847002318460837BD46C7
:101E000080BD00BF80B582B000AF78607B68D3F83A
:101E1000E0355B6A78689847002318460837BD4666
:101E200080BD00BF80B483B000AF786039600C37EC
:101E3000BD465DF8047B704780B582B000AF786026
:101E40007B68064A1A607B681033184603F0D6F99F
:101E50007B6818460837BD4680BD00BF380F0208B2
:101E600080B582B000AF786039607B681846FFF7B4
:101E7000E3FF7B68074A1A607B683A68C3F8202151
:101E80007B680022C3F81C217B6818460837BD46D2
:101E900080BD00BF100D020880B582B000AF786031
:101EA0000B46FB707B6803F11002FB781046194665
:101EB00003F0B8F90346002B0CBF01230023DBB26B
:101EC000002B0AD0FB780D2B13D17B68D3F81C3183
:101ED0005A1C7B68C3F81C210BE07B68D3F81C31CB
:101EE000002B06D1FB780D2B03D17B680122C3F8B0
:101EF0001C210837BD4680BD80B582B000AF786038
:101F00007B681033184603F0BDF90346002B0CBF65
:101F100001230023DBB218460837BD4680BD00BF51
:101F200080B483B000AF78607B68D3F81C3118466A
:101F30000C37BD465DF8047B704700BF80B582B0AA
:101F400000AF78607B681033184603F0B1F90346A0
:101F500018460837BD4680BD90B585B000AF7860A3
:101F600039607B681033184603F08CF90346002B68
:101F700014BF01230023DBB2002B08D03B680022F2
:101F80001A707B680022C3F81C21002354E0002350
:101F9000FB604DE0FB683A68D4187B681033184644
:101FA00003F086F903462370FB683A6813441B78F4
:101FB0000D2B02D0FB68FE2B1FDDFB683A68134433
:101FC00000221A707B681033184603F05BF9034651
:101FD000002B14BF01230023DBB2002B04D07B684D
:101FE0000022C3F81C2106E07B68D3F81C315A1E7E
:101FF0007B68C3F81C21FB681EE07B681033184621
:1020000003F040F90346002B14BF01230023DBB289
:10201000002B0AD0FB683A68134400221A707B68D0
:102020000022C3F81C21FB6806E0FB680133FB605B
:10203000FB68FF2BAEDD002318461437BD4690BD6C
:1020400080B582B000AF78607B689B68012B06D1B9
:102050007B685B681846FFF763FF034600E00023D8
:1020600018460837BD4680BD80B582B000AF7860A5
:1020700039603B6800221A707B689B68012B07D18E
:102080007B685B6818463968FFF766FF034600E027
:10209000002318460837BD4680BD00BF80B582B01A
:1020A00000AF78607B689B68012B06D17B685B681A
:1020B0001846FFF721FF034600E0002318460837C3
:1020C000BD4680BD80B582B000AF78607B689B68FC
:1020D000012B06D17B685B681846FFF72FFF03468C
:1020E00000E0002318460837BD4680BD80B584B0A7
:1020F00000AF786039600023FB600DE07B681B68EF
:1021000004331B68FA6839680A4412787868114603
:102110009847FB680133FB60FB683A6813441B78FF
:10212000002BEBD11037BD4680BD00BF90B587B006
:1021300002AFF860B9607A603B60FB6802229A6087
:10214000FB681B681C683B680093F868B9687A688C
:102150003B6AA047034618461437BD4690BD00BFF2
:1021600090B587B002AFF860B9607A603B60FB68F9
:1021700001229A604FF4927013F056FE04462046F6
:10218000F968FFF76DFEFB685C60FB681B681C6804
:10219000FB685B681A467B680093F868B9683B681F
:1021A000A047034618461437BD4690BD80B584B09D
:1021B00000AF78607B681B680C331B6878689847B1
:1021C0000346FB60FB68002B01D0FB6803E07B68E3
:1021D00001225A60002318461037BD4680BD00BF5B
:1021E00080B584B000AF78607B681B6810331B68D3
:1021F000786898470346FB60FB68002B01D0FB68BA
:1022000003E07B6802225A60002318461037BD465F
:1022100080BD00BF80B584B000AF78607B681B686C
:1022200014331B68786898470346FB60FB68002BF3
:1022300001D0FB6803E07B6803225A600023184644
:102240001037BD4680BD00BF80B584B000AF786058
:102250007B681B6818331B68786898470346FB60E7
:10226000FB68002B01D0FB6803E07B6804225A6006
:10227000002318461037BD4680BD00BF80B582B030
:1022800000AF786039607B685B68002B00D125E087
:102290007B685B68022B07D17B681B6804331B6873
:1022A00078683968984719E03B68012B06D17B684C
:1022B0001B6824331B68786898470FE03B68002B45
:1022C00006D17B681B6828331B687868984705E04F
:1022D0007B681B681C331B68786898470837BD46C5
:1022E00080BD00BF80B582B000AF78607B685B685E
:1022F000002B01D1002311E07B685B68012B07D123
:102300007B681B6808331B6878689847034605E0BC
:102310007B681B681B68786898470346184608372F
:10232000BD4680BD80B582B000AF78607B681B6819
:102330002C331B687868012198470837BD4680BD5B
:1023400080B582B000AF78607B681B682C331B6857
:102350007868002198470837BD4680BD90B583B0A6
:1023600000AF78607B681B682C331C687B681B6837
:1023700030331B68786898470346002B0CBF012355
:102380000023DBB278681946A0470C37BD4690BDE4
:1023900080B582B000AF78607B681B681B68786886
:1023A0009847034618460837BD4680BD80B582B0C1
:1023B00000AF78607B681B6804331B6878689847B7
:1023C000034618460837BD4680BD00BF80B584B0BF
:1023D00000AFF860B9607A60FB681B681B68F8683A
:1023E000B9687A689847034618461037BD4680BDDD
:1023F00080B582B000AF786039607B681B680433B9
:102400001B687868396898470837BD4680BD00BFAB
:1024100080B582B000AF78607B681B6808331B68AA
:1024200078689847034618460837BD4680BD00BF08
:1024300080B483B000AF786040F6FF7318460C3765
:10244000BD465DF8047B7047A0F10800F0E700BFCF
:1024500080B483B000AF7860034B18460C37BD469C
:102460005DF8047B704700BF33335340A0F1080090
:10247000EEE700BF80B483B000AF786040F6FF7332
:1024800018460C37BD465DF8047B7047A0F1080084
:10249000F0E700BF80B483B000AF7860034B18460C
:1024A0000C37BD465DF8047B704700BF33335340A3
:1024B000A0F10800EEE700BF80B483B000AF786001
:1024C00040F6FF7318460C37BD465DF8047B704735
:1024D000A0F10800F0E700BF80B483B000AF7860DF
:1024E000034B18460C37BD465DF8047B704700BFB0
:1024F00033335340A0F10800EEE700BF80B483B04F
:1025000000AF786040F6FF7318460C37BD465DF8A3
:10251000047B7047A0F10800F0E700BF80B483B0EF
:1025200000AF7860034B18460C37BD465DF8047B5E
:10253000704700BF33335340A0F10800EEE700BFFF
:1025400080B483B000AF786040F6FF7318460C3754
:10255000BD465DF8047B7047A0F10800F0E700BFBE
:1025600080B483B000AF7860034B18460C37BD468B
:102570005DF8047B704700BF33335340A0F108007F
:10258000EEE700BF80B582B000AF786004484FF43A
:10259000805105F069FB034618460837BD4680BDEB
:1025A0000004024080B582B000AF786039603B68BB
:1025B000002B05D106484FF4805105F07DFB04E067
:1025C00003484FF4805105F069FB0837BD4680BDD4
:1025D0000004024080B582B000AF786004484FF438
:1025E000805105F027FB034618460837BD4680BDDD
:1025F0000004024080B584B002AF786000230093ED
:10260000002005494FF480520023FEF7DDFC002333
:1026100018460837BD4680BD0004024080B584B02E
:1026200002AF786000230093012005494FF48052E7
:102630000023FEF7C9FC002318460837BD4680BDBD
:102640000004024080B584B002AF7860002300939C
:10265000002005494FF480520123FEF7B5FC00230A
:1026600018460837BD4680BD0004024080B584B0DE
:1026700002AF786000230093002005494FF4805298
:102680000223FEF7A1FC002318460837BD4680BD93
:102690000004024080B582B000AF786004484FF477
:1026A000004105F0E1FA034618460837BD4680BDF3
:1026B0000010024080B582B000AF786039603B689E
:1026C000002B05D106484FF4004105F0F5FA04E06F
:1026D00003484FF4004105F0E1FA0837BD4680BDDC
:1026E0000010024080B582B000AF786004484FF41B
:1026F000004105F09FFA034618460837BD4680BDE5
:102700000010024080B584B002AF786000230093CF
:10271000002005494FF400420023FEF755FC012339
:1027200018460837BD4680BD0010024080B584B011
:1027300002AF786000230093012005494FF4004266
:102740000023FEF741FC002318460837BD4680BD34
:102750000010024080B584B002AF7860002300937F
:10276000002005494FF400420123FEF72DFC012310
:1027700018460837BD4680BD0010024080B584B0C1
:1027800002AF786000230093002005494FF4004217
:102790000223FEF719FC002318460837BD4680BD0A
:1027A0000010024080B582B000AF786004484FF45A
:1027B000804105F059FA034618460837BD4680BDEA
:1027C0000004024080B582B000AF786039603B6899
:1027D000002B05D106484FF4804105F06DFA04E066
:1027E00003484FF4804105F059FA0837BD4680BDD3
:1027F0000004024080B582B000AF786004484FF416
:10280000804105F017FA034618460837BD4680BDDB
:102810000004024080B584B002AF786000230093CA
:10282000002005494FF480420023FEF7CDFB002332
:1028300018460837BD4680BD0004024080B584B00C
:1028400002AF786000230093012005494FF48042D5
:102850000023FEF7B9FB002318460837BD4680BDAC
:102860000004024080B584B002AF7860002300937A
:10287000002005494FF480420123FEF7A5FB002309
:1028800018460837BD4680BD0004024080B584B0BC
:1028900002AF786000230093002005494FF4804286
:1028A0000223FEF791FB002318460837BD4680BD82
:1028B0000004024080B582B000AF786004484FF455
:1028C000004105F0D1F9034618460837BD4680BDE2
:1028D0000004024080B582B000AF786039603B6888
:1028E000002B05D106484FF4004105F0E5F904E05E
:1028F00003484FF4004105F0D1F90837BD4680BDCB
:102900000004024080B582B000AF786004484FF404
:10291000004105F08FF9034618460837BD4680BDD3
:102920000004024080B584B002AF786000230093B9
:10293000002005494FF400420023FEF745FB002329
:1029400018460837BD4680BD0004024080B584B0FB
:1029500002AF786000230093012005494FF4004244
:102960000023FEF731FB002318460837BD4680BD23
:102970000004024080B584B002AF78600023009369
:10298000002005494FF400420123FEF71DFB002300
:1029900018460837BD4680BD0004024080B584B0AB
:1029A00002AF786000230093002005494FF40042F5
:1029B0000223FEF709FB002318460837BD4680BDF9
:1029C0000004024080B582B000AF786004484FF444
:1029D000004105F049F9034618460837BD4680BD59
:1029E0000000024080B582B000AF786039603B687B
:1029F000002B05D106484FF4004105F05DF904E0D5
:102A000003484FF4004105F049F90837BD4680BD41
:102A10000000024080B582B000AF786004484FF4F7
:102A2000004105F007F9034618460837BD4680BD4A
:102A30000000024080B584B002AF786000230093AC
:102A4000002005494FF400420023FEF7BDFA0023A1
:102A500018460837BD4680BD0000024080B483B0F0
:102A600000AF7860012318460C37BD465DF8047B43
:102A7000704700BF80B584B002AF78600023009338
:102A8000002005494FF400420123FEF79DFA002380
:102A900018460837BD4680BD0000024080B584B0AE
:102AA00002AF786000230093002005494FF40042F4
:102AB0000223FEF789FA002318460837BD4680BD79
:102AC0000000024080B582B000AF786004484FF447
:102AD000005105F0C9F8034618460837BD4680BDC9
:102AE0000004024080B582B000AF786039603B6876
:102AF000002B05D106484FF4005105F0DDF804E045
:102B000003484FF4005105F0C9F80837BD4680BDB1
:102B10000004024080B582B000AF786004484FF4F2
:102B2000005105F087F8034618460837BD4680BDBA
:102B30000004024080B584B002AF786000230093A7
:102B4000002005494FF400520023FEF73DFA002310
:102B500018460837BD4680BD0004024080B483B0EB
:102B600000AF7860012318460C37BD465DF8047B42
:102B7000704700BF80B584B002AF78600023009337
:102B8000002005494FF400520123FEF71DFA0023EF
:102B900018460837BD4680BD0004024080B584B0A9
:102BA00002AF786000230093002005494FF40052E3
:102BB0000223FEF709FA002318460837BD4680BDF8
:102BC0000004024080B582B000AF786004484FF442
:102BD000006105F049F8034618460837BD4680BD38
:102BE000000C024080B582B000AF786039603B686D
:102BF000002B05D106484FF4006105F05DF804E0B4
:102C000003484FF4006105F049F80837BD4680BD20
:102C1000000C024080B582B000AF786004484FF4E9
:102C2000006105F007F8034618460837BD4680BD29
:102C3000000C024080B584B002AF7860002300939E
:102C4000002005494FF400620023FEF7BDF9002380
:102C500018460837BD4680BD000C024080B483B0E2
:102C600000AF7860012318460C37BD465DF8047B41
:102C7000704700BF80B584B002AF78600023009336
:102C8000002005494FF400620123FEF79DF900235F
:102C900018460837BD4680BD000C024080B584B0A0
:102CA00002AF786000230093002005494FF40062D2
:102CB0000223FEF789F9002318460837BD4680BD78
:102CC000000C024080B582B000AF786004484FF439
:102CD000806104F0C9FF034618460837BD4680BD31
:102CE000000C024080B582B000AF786039603B686C
:102CF000002B05D106484FF4806104F0DDFF04E0AD
:102D000003484FF4806104F0C9FF0837BD4680BD19
:102D1000000C024080B582B000AF786004484FF4E8
:102D2000806104F087FF034618460837BD4680BD22
:102D3000000C024080B584B002AF7860002300939D
:102D4000002005494FF480620023FEF73DF900237F
:102D500018460837BD4680BD000C024080B483B0E1
:102D600000AF7860012318460C37BD465DF8047B40
:102D7000704700BF80B584B002AF78600023009335
:102D8000002005494FF480620123FEF71DF900235E
:102D900018460837BD4680BD000C024080B584B09F
:102DA00002AF786000230093002005494FF4806251
:102DB0000223FEF709F9002318460837BD4680BDF7
:102DC000000C024080B582B000AF78600448022158
:102DD00004F04AFF034618460837BD4680BD00BFD1
:102DE0000004024080B582B000AF786039603B6873
:102DF000002B04D10548022104F05EFF03E00348E4
:102E0000022104F04BFF0837BD4680BD000402409C
:102E100080B582B000AF78600448022104F00AFF58
:102E2000034618460837BD4680BD00BF0004024077
:102E300080B584B002AF786000230093002005497C
:102E400002220023FEF7C0F8002318460837BD46CB
:102E500080BD00BF0004024080B584B002AF78603E
:102E6000002300930120054902220023FEF7ACF85D
:102E7000002318460837BD4680BD00BF000402404D
:102E800080B584B002AF786000230093002005492C
:102E900002220123FEF798F8002318460837BD46A2
:102EA00080BD00BF0004024080B584B002AF7860EE
:102EB000002300930020054902220223FEF784F834
:102EC000002318460837BD4680BD00BF00040240FD
:102ED00080B582B000AF78600448102104F0C4FED1
:102EE000034618460837BD4680BD00BF00000240BB
:102EF00080B582B000AF786039603B68002B04D1A8
:102F00000548102104F0D8FE03E00348102104F026
:102F1000C5FE0837BD4680BD0000024080B582B0C6
:102F200000AF78600448102104F084FE0346184680
:102F30000837BD4680BD00BF0000024080B584B0A8
:102F400002AF78600023009300200549102200237F
:102F5000FEF73AF8002318460837BD4680BD00BF8B
:102F60000000024080B584B002AF78600023009377
:102F70000120054910220023FEF726F800231846F9
:102F80000837BD4680BD00BF0000024080B584B058
:102F900002AF78600023009300200549102201232E
:102FA000FEF712F8002318460837BD4680BD00BF63
:102FB0000000024080B584B002AF78600023009327
:102FC0000020054910220223FDF7FEFF00231846CA
:102FD0000837BD4680BD00BF0000024080B582B00A
:102FE00000AF78600448012104F03EFE0346184615
:102FF0000837BD4680BD00BF0008024080B582B0E2
:1030000000AF786039603B68002B04D1054801218E
:1030100004F052FE03E00348012104F03FFE0837AC
:10302000BD4680BD0008024080B582B000AF786028
:103030000448012104F0FEFD034618460837BD464A
:1030400080BD00BF0008024080B584B002AF786048
:10305000002300930020054901220023FDF7B4FF5F
:10306000002318460837BD4680BD00BF0008024057
:1030700080B584B002AF7860002300930120054939
:1030800001220023FDF7A0FF002318460837BD46A4
:1030900080BD00BF0008024080B584B002AF7860F8
:1030A000002300930020054901220123FDF78CFF36
:1030B000002318460837BD4680BD00BF0008024007
:1030C00080B584B002AF78600023009300200549EA
:1030D00001220223FDF778FF002318460837BD467A
:1030E00080BD00BF0008024080B582B000AF7860AC
:1030F00004484FF4805104F0B7FD034618460837E2
:10310000BD4680BD0010024080B582B000AF78603F
:1031100039603B68002B05D106484FF4805104F01C
:10312000CBFD04E003484FF4805104F0B7FD0837AD
:10313000BD4680BD0010024080B582B000AF78600F
:1031400004484FF4805104F075FD034618460837D3
:10315000BD4680BD0010024080B584B002AF7860EB
:1031600000230093002005494FF480520023FDF70F
:103170002BFF002318460837BD4680BD00100240D3
:1031800080B584B002AF7860002300930120054928
:103190004FF480520023FDF717FF0023184608372D
:1031A000BD4680BD0010024080B584B002AF78609B
:1031B00000230093002005494FF480520123FDF7BE
:1031C00003FF002318460837BD4680BD00100240AB
:1031D00080B584B002AF78600023009300200549D9
:1031E0004FF480520223FDF7EFFE00231846083704
:1031F000BD4680BD0010024080B582B000AF78604F
:103200000448202104F030FD034618460837BD4627
:1032100080BD00BF0000024080B582B000AF786082
:1032200039603B68002B04D10548202104F044FD9F
:1032300003E00348202104F031FD0837BD4680BD7E
:103240000000024080B582B000AF786004482021C1
:1032500004F0F0FC034618460837BD4680BD00BFA9
:103260000000024080B584B002AF78600023009374
:103270000020054920220023FDF7A6FE0023184662
:103280000837BD4680BD00BF0000024080B584B055
:1032900002AF78600023009301200549202200231B
:1032A000FDF792FE002318460837BD4680BD00BFDB
:1032B0000000024080B584B002AF78600023009324
:1032C0000020054920220123FDF77EFE0023184639
:1032D0000837BD4680BD00BF0000024080B584B005
:1032E00002AF7860002300930020054920220223CA
:1032F000FDF76AFE002318460837BD4680BD00BFB3
:103300000000024080B582B000AF7860044804211C
:1033100004F0AAFC034618460837BD4680BD00BF2E
:103320000004024080B582B000AF786039603B682D
:10333000002B04D10548042104F0BEFC03E003483F
:10334000042104F0ABFC0837BD4680BD00040240F8
:1033500080B582B000AF78600448042104F06AFCB4
:10336000034618460837BD4680BD00BF0004024032
:1033700080B584B002AF7860002300930020054937
:1033800004220023FDF720FE002318460837BD461F
:1033900080BD00BF0004024080B584B002AF7860F9
:1033A000002300930120054904220023FDF70CFEB1
:1033B000002318460837BD4680BD00BF0004024008
:1033C00080B584B002AF78600023009300200549E7
:1033D00004220123FDF7F8FD002318460837BD46F7
:1033E00080BD00BF0004024080B584B002AF7860A9
:1033F000002300930020054904220223FDF7E4FD89
:10340000002318460837BD4680BD00BF00040240B7
:1034100080B582B000AF78600448802104F024FCBD
:10342000034618460837BD4680BD00BF0010024065
:1034300080B582B000AF786039603B68002B04D162
:103440000548802104F038FC03E00348802104F0A3
:1034500025FC0837BD4680BD0010024080B582B013
:1034600000AF78600448802104F0E4FB034618466E
:103470000837BD4680BD00BF0010024080B584B053
:1034800002AF7860002300930020054980220023CA
:10349000FDF79AFD002318460837BD4680BD00BFE2
:1034A0000010024080B584B002AF78600023009322
:1034B0000120054980220023FDF786FD00231846E0
:1034C0000837BD4680BD00BF0010024080B584B003
:1034D00002AF786000230093002005498022012379
:1034E000FDF772FD002318460837BD4680BD00BFBA
:1034F0000010024080B584B002AF786000230093D2
:103500000020054980220223FDF75EFD00231846B6
:103510000837BD4680BD00BF0010024080B582B0B4
:1035200000AF786004484FF4806104F09DFB0346CF
:1035300018460837BD4680BD0010024080B582B0F5
:1035400000AF786039603B68002B05D106484FF426
:10355000806104F0B1FB04E003484FF4806104F0A3
:103560009DFB0837BD4680BD0010024080B582B08B
:1035700000AF786004484FF4806104F05BFB0346C1
:1035800018460837BD4680BD0010024080B584B0A3
:1035900002AF786000230093002005494FF4806259
:1035A0000023FDF711FD002318460837BD4680BDF6
:1035B0000010024080B584B002AF78600023009311
:1035C000012005494FF480620023FDF7FDFC002334
:1035D00018460837BD4680BD0010024080B584B053
:1035E00002AF786000230093002005494FF4806209
:1035F0000123FDF7E9FC002318460837BD4680BDCE
:103600000010024080B584B002AF786000230093C0
:10361000002005494FF480620223FDF7D5FC00230A
:1036200018460837BD4680BD0010024080B582B004
:1036300000AF78600448012104F016FB03461846E9
:103640000837BD4680BD00BF0004024080B582B08F
:1036500000AF786039603B68002B04D10548012138
:1036600004F02AFB03E00348012104F017FB0837AC
:10367000BD4680BD0004024080B582B000AF7860D6
:103680000448012104F0D6FA034618460837BD461F
:1036900080BD00BF0004024080B584B002AF7860F6
:1036A000002300930020054901220023FDF78CFC34
:1036B000002318460837BD4680BD00BF0004024005
:1036C00080B584B002AF78600023009301200549E3
:1036D00001220023FDF778FC002318460837BD4679
:1036E00080BD00BF0004024080B584B002AF7860A6
:1036F000002300930020054901220123FDF764FC0B
:10370000002318460837BD4680BD00BF00040240B4
:1037100080B584B002AF7860002300930020054993
:1037200001220223FDF750FC002318460837BD464E
:1037300080BD00BF0004024080B582B000AF786059
:103740000448102104F090FA034618460837BD4695
:1037500080BD00BF0010024080B582B000AF78602D
:1037600039603B68002B04D10548102104F0A4FA0D
:1037700003E00348102104F091FA0837BD4680BDEC
:103780000010024080B582B000AF7860044810217C
:1037900004F050FA034618460837BD4680BD00BF06
:1037A0000010024080B584B002AF7860002300931F
:1037B0000020054910220023FDF706FC00231846CF
:1037C0000837BD4680BD00BF0010024080B584B000
:1037D00002AF7860002300930120054910220023E6
:1037E000FDF7F2FB002318460837BD4680BD00BF39
:1037F0000010024080B584B002AF786000230093CF
:103800000020054910220123FDF7DEFB00231846A6
:103810000837BD4680BD00BF0010024080B584B0AF
:1038200002AF786000230093002005491022022394
:10383000FDF7CAFB002318460837BD4680BD00BF10
:103840000010024080B582B000AF786004480421C7
:1038500004F00AFA034618460837BD4680BD00BF8B
:103860000010024080B582B000AF786039603B68DC
:10387000002B04D10548042104F01EFA03E003489C
:10388000042104F00BFA0837BD4680BD0010024049
:1038900080B582B000AF78600448042104F0CAF912
:1038A000034618460837BD4680BD00BF00100240E1
:1038B00080B584B002AF78600023009300200549F2
:1038C00004220023FDF780FB002318460837BD467D
:1038D00080BD00BF0010024080B584B002AF7860A8
:1038E000002300930120054904220023FDF76CFB0F
:1038F000002318460837BD4680BD00BF00100240B7
:1039000080B584B002AF78600023009300200549A1
:1039100004220123FDF758FB002318460837BD4653
:1039200080BD00BF0010024080B584B002AF786057
:10393000002300930020054904220223FDF744FBE5
:10394000002318460837BD4680BD00BF0010024066
:1039500080B582B000AF786004484FF4807104F005
:1039600083F9034618460837BD4680BD0010024063
:1039700080B582B000AF786039603B68002B05D11C
:1039800006484FF4807104F097F904E003484FF4BF
:10399000807104F083F90837BD4680BD00100240F5
:1039A00080B582B000AF786004484FF4807104F0B5
:1039B00041F9034618460837BD4680BD0010024055
:1039C00080B584B002AF78600023009300200549E1
:1039D0004FF480720023FDF7F7FA002318460837EA
:1039E000BD4680BD0010024080B584B002AF786053
:1039F00000230093012005494FF480720023FDF756
:103A0000E3FA002318460837BD4680BD0010024087
:103A100080B584B002AF7860002300930020054990
:103A20004FF480720123FDF7CFFA002318460837C0
:103A3000BD4680BD0010024080B584B002AF786002
:103A400000230093002005494FF480720223FDF704
:103A5000BBFA002318460837BD4680BD001002405F
:103A600080B582B000AF78600448082104F0FCF80B
:103A7000034618460837BD4680BD00BF001002400F
:103A800080B582B000AF786039603B68002B04D10C
:103A90000548082104F010F903E00348082104F068
:103AA000FDF80837BD4680BD0010024080B582B0E9
:103AB00000AF78600448082104F0BCF803461846BB
:103AC0000837BD4680BD00BF0010024080B584B0FD
:103AD00002AF7860002300930020054908220023EC
:103AE000FDF772FA002318460837BD4680BD00BFB7
:103AF0000010024080B584B002AF786000230093CC
:103B00000120054908220023FDF75EFA002318462C
:103B10000837BD4680BD00BF0010024080B584B0AC
:103B200002AF78600023009300200549082201239A
:103B3000FDF74AFA002318460837BD4680BD00BF8E
:103B40000010024080B584B002AF7860002300937B
:103B50000020054908220223FDF736FA0023184603
:103B60000837BD4680BD00BF0010024080B582B05E
:103B700000AF78600448202104F076F80346184628
:103B80000837BD4680BD00BF0008024080B582B046
:103B900000AF786039603B68002B04D105482021D4
:103BA00004F08AF803E00348202104F077F808378E
:103BB000BD4680BD0008024080B582B000AF78608D
:103BC0000448202104F036F8034618460837BD465D
:103BD00080BD00BF0008024080B584B002AF7860AD
:103BE000002300930020054920220023FDF7ECF973
:103BF000002318460837BD4680BD00BF00080240BC
:103C000080B584B002AF78607B680222DA6000235E
:103C100000930120044920220023FDF7D5F9002359
:103C200018460837BD4680BD0008024080B584B004
:103C300002AF786000230093002005492022012371
:103C4000FDF7C2F9002318460837BD4680BD00BF06
:103C50000008024080B584B002AF78600023009372
:103C60000020054920220223FDF7AEF90023184663
:103C70000837BD4680BD00BF0008024080B582B055
:103C800000AF78600448022103F0EEFF03461846B7
:103C90000837BD4680BD00BF0008024080B582B035
:103CA00000AF786039603B68002B04D105480221E1
:103CB00004F002F803E00348022103F0EFFF0837A5
:103CC000BD4680BD0008024080B582B000AF78607C
:103CD0000448022103F0AEFF034618460837BD46EC
:103CE00080BD00BF0008024080B584B002AF78609C
:103CF000002300930020054902220023FDF764F908
:103D0000002318460837BD4680BD00BF00080240AA
:103D100080B584B002AF78607B680222DA6000234D
:103D200000930120044902220023FDF74DF90023EE
:103D300018460837BD4680BD0008024080B584B0F3
:103D400002AF78600023009300200549022201237E
:103D5000FDF73AF9002318460837BD4680BD00BF7D
:103D60000008024080B584B002AF78600023009361
:103D70000020054902220223FDF726F900231846F8
:103D80000837BD4680BD00BF0008024080B582B044
:103D900000AF78600448042103F066FF034618462C
:103DA0000837BD4680BD00BF0008024080B582B024
:103DB00000AF786039603B68002B04D105480421CE
:103DC00003F07AFF03E00348042103F067FF08379C
:103DD000BD4680BD0008024080B582B000AF78606B
:103DE0000448042103F026FF034618460837BD4661
:103DF00080BD00BF0008024080B584B002AF78608B
:103E0000002300930020054904220023FDF7DCF87D
:103E1000002318460837BD4680BD00BF0008024099
:103E200080B584B002AF78607B680222DA6000233C
:103E300000930120044904220023FDF7C5F8002364
:103E400018460837BD4680BD0008024080B584B0E2
:103E500002AF78600023009300200549042201236B
:103E6000FDF7B2F8002318460837BD4680BD00BFF5
:103E70000008024080B584B002AF78600023009350
:103E80000020054904220223FDF79EF8002318466E
:103E90000837BD4680BD00BF0008024080B582B033
:103EA00000AF78600448082103F0DEFE03461846A0
:103EB0000837BD4680BD00BF0008024080B582B013
:103EC00000AF786039603B68002B04D105480821B9
:103ED00003F0F2FE03E00348082103F0DFFE083799
:103EE000BD4680BD0008024080B582B000AF78605A
:103EF0000448082103F09EFE034618460837BD46D5
:103F000080BD00BF0008024080B584B002AF786079
:103F1000002300930020054908220023FDF754F8F0
:103F2000002318460837BD4680BD00BF0008024088
:103F300080B584B002AF78607B680222DA6000232B
:103F400000930120044908220023FDF73DF80023D7
:103F500018460837BD4680BD0008024080B584B0D1
:103F600002AF786000230093002005490822012356
:103F7000FDF72AF8002318460837BD4680BD00BF6C
:103F80000008024080B584B002AF7860002300933F
:103F90000020054908220223FDF716F800231846E1
:103FA0000837BD4680BD00BF0008024080B582B022
:103FB00000AF78600448102103F056FE034618460F
:103FC0000837BD4680BD00BF0008024080B582B002
:103FD00000AF786039603B68002B04D105481021A0
:103FE00003F06AFE03E00348102103F057FE083790
:103FF000BD4680BD0008024080B582B000AF786049
:104000000448102103F016FE034618460837BD4643
:1040100080BD00BF0008024080B584B002AF786068
:10402000002300930020054910220023FCF7CCFF59
:10403000002318460837BD4680BD00BF0008024077
:1040400080B584B002AF78607B680222DA6000231A
:1040500000930120044910220023FCF7B5FF002340
:1040600018460837BD4680BD0008024080B584B0C0
:1040700002AF78600023009300200549102201233D
:10408000FCF7A2FF002318460837BD4680BD00BFDD
:104090000008024080B584B002AF7860002300932E
:1040A0000020054910220223FCF78EFF002318464A
:1040B0000837BD4680BD00BF0008024080B582B011
:1040C00000AF786004484FF4006103F0CDFD034673
:1040D00018460837BD4680BD0010024080B582B04A
:1040E00000AF786039603B68002B05D106484FF47B
:1040F000006103F0E1FD04E003484FF4006103F0C8
:10410000CDFD0837BD4680BD0010024080B582B0AD
:1041100000AF786004484FF4006103F08BFD034664
:1041200018460837BD4680BD0010024080B584B0F7
:1041300002AF786000230093002005494FF400622D
:104140000023FCF741FF002318460837BD4680BD19
:104150000010024080B584B002AF78607B68022214
:10416000DA6000230093012005494FF40062002328
:10417000FCF72AFF002318460837BD4680BD00BF64
:104180000010024080B584B002AF78600023009335
:10419000002005494FF400620123FCF715FF0023BE
:1041A00018460837BD4680BD0010024080B584B077
:1041B00002AF786000230093002005494FF40062AD
:1041C0000223FCF701FF002318460837BD4680BDD7
:1041D0000010024080B582B000AF786004484021F2
:1041E00003F042FD034618460837BD4680BD00BFB8
:1041F0000010024080B582B000AF786039603B6843
:10420000002B04D10548402103F056FD03E003488C
:10421000402103F043FD0837BD4680BD0010024039
:1042200080B582B000AF78600448402103F002FD01
:10423000034618460837BD4680BD00BF0010024047
:1042400080B584B002AF7860002300930020054958
:1042500040220023FCF7B8FE002318460837BD466D
:1042600080BD00BF0010024080B584B002AF78600E
:104270007B680222DA600023009301200449402277
:104280000023FCF7A1FE002318460837BD4680BD79
:104290000010024080B584B002AF78600023009324
:1042A0000020054940220123FCF78EFE002318461A
:1042B0000837BD4680BD00BF0010024080B584B005
:1042C00002AF7860002300930020054940220223BA
:1042D000FCF77AFE002318460837BD4680BD00BFB4
:1042E0000010024080B582B000AF78600448202101
:1042F00003F0BAFC034618460837BD4680BD00BF30
:104300000010024080B582B000AF786039603B6831
:10431000002B04D10548202103F0CEFC03E0034824
:10432000202103F0BBFC0837BD4680BD00100240D1
:1043300080B582B000AF78600448202103F07AFC99
:10434000034618460837BD4680BD00BF0010024036
:1043500080B584B002AF7860002300930020054947
:1043600020220023FCF730FE002318460837BD4604
:1043700080BD00BF0010024080B584B002AF7860FD
:104380007B680222DA600023009301200449202286
:104390000023FCF719FE002318460837BD4680BDF0
:1043A0000010024080B584B002AF78600023009313
:1043B0000020054920220123FCF706FE00231846B1
:1043C0000837BD4680BD00BF0010024080B584B0F4
:1043D00002AF7860002300930020054920220223C9
:1043E000FCF7F2FD002318460837BD4680BD00BF2C
:1043F0000010024080B582B000AF786004484FF4EE
:10440000007103F031FC034618460837BD4680BDF5
:104410000010024080B582B000AF786039603B6820
:10442000002B05D106484FF4007103F045FC04E071
:1044300003484FF4007103F031FC0837BD4680BDDE
:104440000010024080B582B000AF786004484FF49D
:10445000007103F0EFFB034618460837BD4680BDE8
:104460000010024080B584B002AF78600023009352
:10447000002005494FF400720023FCF7A5FD00233E
:1044800018460837BD4680BD0010024080B584B094
:1044900002AF78607B680222DA600023009301207B
:1044A00005494FF400720023FCF78EFD00231846E7
:1044B0000837BD4680BD00BF0010024080B584B003
:1044C00002AF786000230093002005494FF400728A
:1044D0000123FCF779FD002318460837BD4680BD4F
:1044E0000010024080B584B002AF786000230093D2
:1044F000002005494FF400720223FCF765FD0023FC
:1045000018460837BD4680BD0010024080B582B015
:1045100000AF786004484FF4804103F0A5FB0346E8
:1045200018460837BD4680BD0010024080B582B0F5
:1045300000AF786039603B68002B05D106484FF426
:10454000804103F0B9FB04E003484FF4804103F0DD
:10455000A5FB0837BD4680BD0010024080B582B083
:1045600000AF786004484FF4804103F063FB0346DA
:1045700018460837BD4680BD0010024080B584B0A3
:1045800002AF786000230093002005494FF4804279
:104590000023FCF719FD002318460837BD4680BDEF
:1045A0000010024080B584B002AF78607B680222C0
:1045B000DA6000230093012005494FF48042002374
:1045C000FCF702FD002318460837BD4680BD00BF3A
:1045D0000010024080B584B002AF786000230093E1
:1045E000002005494FF480420123FCF7EDFC002335
:1045F00018460837BD4680BD0010024080B584B023
:1046000002AF786000230093002005494FF48042F8
:104610000223FCF7D9FC002318460837BD4680BDAD
:104620000010024080B582B000AF786004484FF4BB
:10463000005103F019FB034618460837BD4680BDFC
:104640000010024080B582B000AF786039603B68EE
:10465000002B05D106484FF4005103F02DFB04E078
:1046600003484FF4005103F019FB0837BD4680BDE5
:104670000010024080B582B000AF786004484FF46B
:10468000005103F0D7FA034618460837BD4680BDEF
:104690000010024080B584B002AF78600023009320
:1046A000002005494FF400520023FCF78DFC002345
:1046B00018460837BD4680BD0010024080B584B062
:1046C00002AF78607B680222DA6000230093012049
:1046D00005494FF400520023FCF776FC00231846EE
:1046E0000837BD4680BD00BF0010024080B584B0D1
:1046F00002AF786000230093002005494FF4005278
:104700000123FCF761FC002318460837BD4680BD35
:104710000010024080B584B002AF7860002300939F
:10472000002005494FF400520223FCF74DFC002302
:1047300018460837BD4680BD0010024080B582B0E3
:1047400000AF78607B680122DA600448202102F023
:1047500049FF002318460837BD4680BD00080240C7
:10476000A0F10800FFF7EABF90B583B000AF786012
:104770000C48202103F01EF804467B681B68483370
:104780001B68786898470346184609F0F3FD03460E
:104790002046194609F0F6FE034618460C37BD467A
:1047A00090BD00BF00080240A0F10800FFF7DCBF89
:1047B00080B582B000AF78607B680122DA6004487F
:1047C000022102F00FFF002318460837BD4680BDC6
:1047D00000080240A0F10800FFF7EABF90B583B0DF
:1047E00000AF78600C48022102F0E4FF04467B68C9
:1047F0001B6848331B68786898470346184609F0D9
:10480000B9FD03462046194609F0BCFE034618468A
:104810000C37BD4690BD00BF00080240A0F1080063
:10482000FFF7DCBF80B582B000AF78607B68012203
:10483000DA600448042102F0D5FE00231846083748
:10484000BD4680BD00080240A0F10800FFF7EABFA6
:1048500090B583B000AF78600C48042102F0AAFF45
:1048600004467B681B6848331B6878689847034692
:10487000184609F07FFD03462046194609F082FEDE
:10488000034618460C37BD4690BD00BF00080240E5
:10489000A0F10800FFF7DCBF80B582B000AF786000
:1048A0007B680122DA600448082102F09BFE0023A5
:1048B00018460837BD4680BD00080240A0F1080038
:1048C000FFF7EABF90B583B000AF78600C480821CD
:1048D00002F070FF04467B681B6848331B687868E9
:1048E00098470346184609F045FD034620461946F9
:1048F00009F048FE034618460C37BD4690BD00BF80
:1049000000080240A0F10800FFF7DCBF80B582B0CC
:1049100000AF78607B680122DA600448102102F061
:1049200061FE002318460837BD4680BD00080240DE
:10493000A0F10800FFF7EABF90B583B000AF786040
:104940000C48102102F036FF04467B681B68483390
:104950001B68786898470346184609F00BFD034624
:104960002046194609F00EFE034618460C37BD4690
:1049700090BD00BF00080240A0F10800FFF7DCBFB7
:1049800080B582B000AF7860054806494FF44052C8
:10499000FCF752FD002318460837BD4680BD00BF16
:1049A00000080040000C024080B582B000AF786083
:1049B0007B681B7A002B05D00648FCF7C9FD03462F
:1049C0005B4203E00348FCF7C3FD03461846083783
:1049D000BD4680BD0008004080B582B000AF786061
:1049E00004480549C022FCF727FD00231846083774
:1049F000BD4680BD000400400000024080B582B08A
:104A000000AF78607B681B7A002B05D00648FCF766
:104A10009FFD03465B4203E00348FCF799FD034614
:104A200018460837BD4680BD0004004080B582B0FE
:104A300000AF7860044805490322FCF7FDFC002321
:104A400018460837BD4680BD000C004000000240FB
:104A500080B582B000AF78607B681B7A002B05D0F0
:104A60000648FCF775FD03465B4203E00348FCF78C
:104A70006FFD034618460837BD4680BD000C004058
:104A800080B586B000AFF860B9607A60FB6801223B
:104A9000DA60B86809F088FE0346094809494FF40E
:104AA0000062FBF735FC03467B61054802217A680A
:104AB000FBF798FB7B6918461837BD4680BD00BFE1
:104AC0000000014000100240A0F10800FFF7D8BF2D
:104AD00080B582B000AF78603960044802213A683E
:104AE000FBF780FB0837BD4680BD00BF00000140DA
:104AF000A0F10800FFF7ECBF80B582B000AF78608E
:104B000004480221FBF7D0FB034618460837BD4690
:104B100080BD00BF00000140A0F10800FFF7ECBF1E
:104B200080B586B000AFF860B9607A60FB6801229A
:104B3000DA60B86809F038FE0346084808494022A0
:104B4000FBF7E6FB03467B61044802217A68FBF72A
:104B500049FB7B6918461837BD4680BD00400140BF
:104B600000100240A0F10800FFF7DABF80B582B064
:104B700000AF78603960044802213A68FBF732FBE5
:104B80000837BD4680BD00BF00400140A0F10800CD
:104B9000FFF7ECBF80B582B000AF78600448022117
:104BA000FBF782FB034618460837BD4680BD00BFB1
:104BB00000400140A0F10800FFF7ECBF80B586B0CF
:104BC00000AFF860B9607A60FB680122DA60B8680B
:104BD00009F0EAFD0346084808492022FBF798FB44
:104BE00003467B61044801217A68FBF7FBFA7B6985
:104BF00018461837BD4680BD0040014000100240F5
:104C0000A0F10800FFF7DABF80B582B000AF78608E
:104C10003960044801213A68FBF7E4FA0837BD46D9
:104C200080BD00BF00400140A0F10800FFF7ECBFCD
:104C300080B582B000AF786004480121FBF734FBF7
:104C4000034618460837BD4680BD00BF00400140FE
:104C5000A0F10800FFF7ECBF80B586B000AFF860A8
:104C6000B9607A60FB680122DA60B86809F09CFDDF
:104C70000346094809494FF40072FBF749FB034614
:104C80007B61054801217A68FBF7ACFA7B6918461D
:104C90001837BD4680BD00BF000001400010024033
:104CA000A0F10800FFF7D8BF80B582B000AF7860F0
:104CB0003960044801213A68FBF794FA0837BD4689
:104CC00080BD00BF00000140A0F10800FFF7ECBF6D
:104CD00080B582B000AF786004480121FBF7E4FAA8
:104CE000034618460837BD4680BD00BF000001409E
:104CF000A0F10800FFF7ECBF80B586B000AFF86008
:104D0000B9607A60FB680122DA60B86809F04CFD8E
:104D10000346094809494FF48042FBF7F9FA034674
:104D20007B61054804217A68FBF75CFA7B691846C9
:104D30001837BD4680BD00BF000001400010024092
:104D4000A0F10800FFF7D8BF80B582B000AF78604F
:104D50003960044804213A68FBF744FA0837BD4635
:104D600080BD00BF00000140A0F10800FFF7ECBFCC
:104D700080B582B000AF786004480421FBF794FA54
:104D8000034618460837BD4680BD00BF00000140FD
:104D9000A0F10800FFF7ECBF80B586B000AFF86067
:104DA000B9607A60FB680122DA60B86809F0FCFC3F
:104DB0000346094809494FF40052FBF7A9FA034694
:104DC0007B61054803217A68FBF70CFA7B6918467A
:104DD0001837BD4680BD00BF0000014000100240F2
:104DE000A0F10800FFF7D8BF80B582B000AF7860AF
:104DF0003960044803213A68FBF7F4F90837BD46E7
:104E000080BD00BF00000140A0F10800FFF7ECBF2B
:104E100080B582B000AF786004480321FBF744FA04
:104E2000034618460837BD4680BD00BF000001405C
:104E3000A0F10800FFF7ECBF80B586B000AFF860C6
:104E4000B9607A60FB680122DA60B86809F0ACFCEE
:104E50000346094809494FF48042FBF759FA0346D3
:104E60007B61054802217A68FBF7BCF97B6918462B
:104E70001837BD4680BD00BF000401400004024059
:104E8000A0F10800FFF7D8BF80B582B000AF78600E
:104E90003960044802213A68FBF7A4F90837BD4697
:104EA00080BD00BF00040140A0F10800FFF7ECBF87
:104EB00080B582B000AF786004480221FBF7F4F9B6
:104EC000034618460837BD4680BD00BF00040140B8
:104ED000A0F10800FFF7ECBF80B586B000AFF86026
:104EE000B9607A60FB680122DA60B86809F05CFC9E
:104EF0000346094809494FF40042FBF709FA034603
:104F00007B61054803217A68FBF76CF97B691846D9
:104F10001837BD4680BD00BF0004014000040240B8
:104F2000A0F10800FFF7D8BF80B582B000AF78606D
:104F30003960044803213A68FBF754F90837BD4645
:104F400080BD00BF00040140A0F10800FFF7ECBFE6
:104F500080B582B000AF786004480321FBF7A4F964
:104F6000034618460837BD4680BD00BF0004014017
:104F7000A0F10800FFF7ECBF80B586B000AFF86085
:104F8000B9607A60FB680122DA60B86809F00CFC4D
:104F90000346084808490222FBF7BAF903467B6139
:104FA000044803217A68FBF71DF97B691846183716
:104FB000BD4680BD0004014000040240A0F108008D
:104FC000FFF7DABF80B582B000AF7860396004487F
:104FD00003213A68FBF706F90837BD4680BD00BFDC
:104FE00000040140A0F10800FFF7ECBF80B582B0DB
:104FF00000AF786004480321FBF756F903461846D2
:105000000837BD4680BD00BF00040140A0F1080084
:10501000FFF7ECBF90B589B004AFF860B9607A6073
:105020003B60BC683B689AB23B6A9BB209490091FD
:10503000082101910292039307482146054A04235F
:1050400005F036FA054A7B681360002318461437CA
:10505000BD4690BD000002400044004050090020C1
:1050600080B582B000AF78600B46FB7000BF0A4885
:105070008021FCF751FC0346002B0CBF01230023C9
:10508000DBB2002BF3D1FB789BB203481946FCF747
:10509000D9FB0837BD4680BD00440040B0B500AF25
:1050A000074B1B681B681C68054B1D680548FCF70F
:1050B000DBFB0346DBB228461946A047B0BD00BF64
:1050C000500900200044004080B500AFFFF7E6FF24
:1050D00080BD00BF90B589B004AFF860B9607A6058
:1050E0003B60BC683B689AB23B6A9BB20A4900913C
:1050F0004FF4006101910292039308482146064A49
:105100004FF4806305F0D4F9054A7B6813600023EF
:1051100018461437BD4690BD0004024000480040C8
:105120005409002080B582B000AF78600B46FB7058
:1051300000BF0A488021FCF7EFFB0346002B0CBFA1
:1051400001230023DBB2002BF3D1FB789BB2034891
:105150001946FCF777FB0837BD4680BD0048004084
:1051600080B582B000AF0346FB7100BF0A488021C2
:10517000FCF7D2FB0346002B0CBF01230023DBB25C
:10518000002BF3D1FB799BB203481946FCF75AFB7D
:105190000837BD4680BD00BF0044004090B585B0D3
:1051A00004AF4FF48E7010F03FFE044622464FF4D9
:1051B0008E73104600211A460AF06AFE2046FCF75C
:1051C0003BFE0B4B1C600B4B009308230193002309
:1051D00002930823039308484FF41651054A042309
:1051E00005F066F9002318460437BD4690BD00BFA0
:1051F00050090020000002400044004080B483B009
:1052000000AF78607B680022C3F804217B6800222D
:10521000C3F808217B6818460C37BD465DF8047B4F
:10522000704700BF80B485B000AF78600B46FB705C
:105230007B68D3F808315A1C114B83FB0213D91138
:10524000D317C91A0B461B020B44D31AFB607B68A9
:10525000D3F80421FB689A4201D101230AE07B685C
:10526000D3F808317A68F978D1547B68FA68C3F8C2
:105270000821002318461437BD465DF8047B7047AB
:10528000817F807F80B483B000AF78607B68D3F883
:1052900004217B68D3F808319A4201D1012300E050
:1052A000002318460C37BD465DF8047B704700BFED
:1052B00080B485B000AF78607B68D3F804217B6848
:1052C000D3F808319A4201D1002317E07B68D3F864
:1052D00004317A68D35CFB737B68D3F80431591CC2
:1052E000094B83FB0123DA11CB17D21A13461B0299
:1052F0001344CA1A7B68C3F80421FB7B1846143791
:10530000BD465DF8047B7047817F807F80B483B0A9
:1053100000AF78607B68094A1A607B6801225A6096
:105320007B6800221A727B684FF07E52DA607B68DD
:1053300018460C37BD465DF8047B7047F00D020837
:1053400080B483B000AF78607B68044A1A607B68E1
:1053500018460C37BD465DF8047B7047000E020806
:1053600080B483B000AF78607B68044A1A607B68C1
:1053700018460C37BD465DF8047B7047D00D020817
:1053800080B582B000AF78607B681846FFF7D8FF21
:105390007B6808331846FFF7E3FF7B68064A1A600C
:1053A0007B68064A9A607B680022DA607B68184650
:1053B0000837BD4680BD00BFD8FF01082C00020899
:1053C00080B582B000AF78607B681846FFF7B8FF01
:1053D0007B6808331846FFF7C3FF7B68064A1A60EC
:1053E0007B68064A9A607B680022DA607B68184610
:1053F0000837BD4680BD00BF60FF0108B4FF01084B
:1054000080B582B000AF78607B681846FFF798FFE0
:105410007B6808331846FFF7A3FF7B68064A1A60CB
:105420007B68064A9A607B680022DA607B681846CF
:105430000837BD4680BD00BFE8FE01083CFF0108FB
:1054400080B483B000AF78607B68044A1A607B68E0
:1054500018460C37BD465DF8047B7047080F0208FC
:1054600080B582B000AF78607B681846FFF7E8FF30
:105470007B68034A1A607B6818460837BD4680BDC2
:1054800020FD010880B582B000AF78607B681846C7
:10549000FFF756FF7B68034A1A607B681846083797
:1054A000BD4680BD7805020880B582B000AF786047
:1054B0007B681846FFF744FF7B68034A1A607B68E5
:1054C00018460837BD4680BDE804020880B582B0A2
:1054D00000AF78607B681846FFF732FF7B68034AAD
:1054E0001A607B6818460837BD4680BD580402081C
:1054F00080B582B000AF78607B681846FFF720FF68
:105500007B68034A1A607B6818460837BD4680BD31
:10551000C005020880B582B000AF78607B6818468D
:10552000FFF70EFF7B68034A1A607B68184608374E
:10553000BD4680BD3005020880B582B000AF7860FE
:105540007B681846FFF7FCFE7B68034A1A607B689D
:1055500018460837BD4680BDA004020880B582B059
:1055600000AF78607B681846FFF7D0FE7B68034A7F
:105570001A607B6818460837BD4680BD70FD01087B
:1055800080B582B000AF78607B681846FFF7BEFE3A
:105590007B68034A1A607B6818460837BD4680BDA1
:1055A00060FD010880B582B000AF78607B68184666
:1055B000FFF7ACFE7B68034A1A607B681846083721
:1055C000BD4680BD50FD010880B582B000AF786057
:1055D0007B681846FFF7B4FE7B68034A1A607B6855
:1055E00018460837BD4680BD5807020880B582B00E
:1055F00000AF78607B6800221A60043300221A60D2
:10560000043300221A60043300221A60043300229B
:105610001A60043300221A60043300221A60043333
:1056200000221A60043300221A60043300221A6038
:1056300004337B68BE4A1A607B68BE4A9A607B6806
:10564000BB4A1A617B68BA4A5A617B68B94A9A6157
:105650007B68B84ADA617B68283300221A60043319
:1056600000221A60043300221A60043300221A60F8
:10567000043300221A60043300221A60043300222B
:105680001A60043300221A60043300221A600433C3
:1056900000221A6004337B68A54A9A627B68A64A96
:1056A000DA627B68A24A1A637B68A34ADA637B6882
:1056B000A14A1A647B6800221A657B6800225A6539
:1056C0007B689E4A583307CA83E807007B684FF01F
:1056D00000025A667B684FF000029A667B684FF0C2
:1056E0000002DA667B684FF000021A677B684FF0B1
:1056F00000025A677B684FF000029A677B68904A05
:10570000DA677B684FF00002C3F880207B684FF0B7
:105710000002C3F884207B684FF00002C3F88820A1
:105720007B684FF00002C3F88C207B684FF00002CA
:10573000C3F890207B680022C3F894207B68002285
:10574000C3F898207B684FF00002C3F89C207B6868
:105750007C4AC3F8A0207B687B4AC3F8A4207B68FE
:105760004FF00002C3F8A8207B684FF00002C3F896
:10577000AC207B684FF00002C3F8B0207B684FF08C
:105780000002C3F8B4207B684FF00002C3F8B820D1
:105790007B684FF00002C3F8BC207B684FF000022A
:1057A000C3F8C0207B684FF00002C3F8C4207B68B8
:1057B0004FF00002C3F8C8207B684FF00002C3F826
:1057C000CC207B684FF00002C3F8D0207B684FF0FC
:1057D0000002C3F8D4207B684FF00002C3F8D82041
:1057E0007B684FF00002C3F8DC207B684FF00002BA
:1057F000C3F8E0207B684FF00002C3F8E4207B6828
:105800004FF00002C3F8E8207B684FF00002C3F8B5
:10581000EC207B684FF00002C3F8F0207B684FF06B
:105820000002C3F8F4207B684FF00002C3F8F820B0
:105830007B684FF00002C3F8FC207B684FF0000249
:10584000C3F800217B684FF00002C3F804217B6895
:105850004FF00002C3F808217B684FF00002C3F844
:105860000C217B684FF00002C3F810217B684FF0D9
:105870000002C3F814217B684FF00002C3F818211E
:105880007B684FF00002C3F81C217B684FF00002D8
:10589000C3F820217B684FF00002C3F824217B6805
:1058A0004FF00002C3F828217B684FF00002C3F8D4
:1058B0002C217B684FF00002C3F830217B684FF049
:1058C0000002C3F834217B680022C3F838217B68CA
:1058D0004FF00002C3F83C217B681C4AC3F840210A
:1058E0007B681B4AC3F844217B68194AC3F84821E6
:1058F0007B684FF00002C3F84C217B684FF0000238
:10590000C3F850217B684FF00002C3F854217B6834
:105910004FF00002C3F858217B684FF00002C3F833
:105920005C217B684FF00002C3F8602112E000BFE9
:1059300000007A4300007AC30000FA43800D020899
:105940000000B442610BB63B9A99193F6F12833A3B
:10595000CDCC4C3F7B680022C3F864217B6803F503
:10596000B4731846FFF77CFD7B6803F5BA731846DD
:10597000FFF788FD7B6803F5BE731846FFF794FDBB
:105980007B6803F5C2731846FFF7A0FD7B6803F53B
:10599000C6731846FFF7ACFD7B6803F5CA7318465B
:1059A000FFF7B8FD7B6803F5CE731846FFF7C4FD1B
:1059B0007B6803F5D2731846FFF7E2FC7B6803F5BA
:1059C000DA731846FFF7FCFC7B6803F5E2731846B0
:1059D000FFF716FD7B6803F5EA731846FFF7BEFD77
:1059E0007B6803F5F2731846FFF7CAFD7B6803F581
:1059F000FA731846FFF7D6FD7B6803F50173184666
:105A0000FFF7E2FD7B6803F5BA731846FCF7E8FB85
:105A10007B6803F5BE731846FCF7E2FB7B6803F571
:105A2000C2731846FCF7DCFB7B6803F5C6731846A7
:105A3000FCF7D6FB7B6803F5CA731846FCF7D0FB6E
:105A40007B6803F5CE731846FCF7CAFB7B6803F549
:105A5000D67318461E494FF07E52FCF7B7FC7B68A0
:105A600003F5DE7318461A494FF07E52FCF7AEFC80
:105A70007B6803F5E673184615494FF07E52FCF734
:105A8000A5FC7B6803F5B47318464FF4E13100229E
:105A90000823FCF765FB7B6803F5EA731846FEF7FD
:105AA0006FFF7B6803F5F2731846FEF795FF7B687E
:105AB00003F5FA731846FEF7B9FF7B6803F5017327
:105AC0001846FCF773FB7B6818460837BD4680BD57
:105AD00000409C4780B582B000AF78607B6803F5DA
