:020000040800F2
:10000000D05801203D3C0008219500083D9500088E
:1000100059950008759500089195000800000000AA
:10002000000000000000000000000000AD95000886
:10003000C995000800000000E5950008393900085E
:10004000993C0008993C0008993C0008993C00083C
:10005000993C0008993C0008993C0008993C00082C
:10006000993C0008993C0008993C0008993C00081C
:10007000993C0008993C0008993C0008993C00080C
:10008000993C0008993C0008993C0008993C0008FC
:1000900005750008993C0008993C0008993C000847
:1000A000993C000825270008993C0008993C000865
:1000B0006D270008B927000801280008993C0008AE
:1000C000993C0008993C0008993C0008993C0008BC
:1000D000993C0008993C00087D6F000815700008E5
:1000E000993C0008993C0008652C0008D9280008B4
:1000F00091280008993C0008993C0008993C0008A8
:10010000993C0008D597000849280008993C000848
:10011000993C0008993C0008993C0008993C00086B
:10012000993C0008993C0008993C0008E1970008B8
:10013000993C0008993C0008993C0008993C00084B
:10014000993C0008993C0008993C0008552C00088F
:10015000993C0008993C0008993C0008993C00082B
:10016000993C0008993C0008993C0008993C00081B
:10017000993C0008993C0008993C0008993C00080B
:10018000993C0008993C000810B5054C237833B918
:10019000044B13B10448AFF300800123237010BD5A
:1001A000100900200000000030730208084B10B551
:1001B0001BB108480849AFF300800848036803B939
:1001C00010BD074B002BFBD0BDE81040184700BF07
:1001D0000000000030730208140900200809002004
:1001E0000000000080B584B000AFF8600B467A6074
:1001F000FB72FB7A013B032B52D801A252F823F089
:100200001102000835020008590200087D020008AA
:10021000FB68DB6A184611F01DFB03461846796837
:1002200011F070FB0346184611F058FD0246FB68BA
:100230005A6336E0FB68DB6A184611F00BFB034695
:100240001846796811F05EFB0346184611F046FD2A
:100250000246FB689A6324E0FB68DB6A184611F0EB
:10026000F9FA03461846796811F04CFB0346184624
:1002700011F034FD0246FB68DA6312E0FB68DB6ACA
:10028000184611F0E7FA03461846796811F03AFB70
:100290000346184611F022FD0246FB681A6400E08E
:1002A00000BF1037BD4680BD80B582B000AF78601A
:1002B0000B46FB70FB78012B06D17B685B6B184605
:1002C00011F0C8FA03461FE0FB78022B06D17B68C9
:1002D0009B6B184611F0BEFA034615E0FB78032B22
:1002E00006D17B68DB6B184611F0B4FA03460BE0CD
:1002F000FB78042B06D17B681B6C184611F0AAFA18
:10030000034601E04FF0000318460837BD4680BDA4
:1003100090B5ADB002AFF860B9603B601346FB80AA
:100320000023C7F8A4300023C7F8A0300023C7F883
:100330009C300123C7F898300023A7F8963009F0C5
:10034000C1FB07F14403184607F04AFEFB68B3F10E
:10035000804F03D3FB68944A934207D9FB68934AC2
:10036000934211D9FB68924A93420DD8FB6C914A93
:10037000D2F88C20120E02F00102013202FB03F3CC
:100380005B00C7F8A4300CE03B6D8A4AD2F88C20A1
:10039000120E02F00102013202FB03F35B00C7F808
:1003A000A4303B68002B0ADDD7F8A430824A82FBD8
:1003B00003125211DB17D21A3B689A4201DA012369
:1003C000EEE01FE0D7F8A0300133C7F8A030D7F82F
:1003D000A420D7F8A03092FBF3F23B6892FBF3F332
:1003E000C7F89C30D7F89C30B3F5803F02DA002381
:1003F000C7F89830D7F8A0304FF6FE72934201DD6F
:100400000123CDE0D7F89830002BDBD1D7F8A4201A
:10041000D7F8A03092FBF3F2D7F89C3092FBF3F3BD
:100420003B60F8680BF072FDFA880023009302200D
:10043000B968002301F038FFD7F89C30013BFB631B
:10044000D7F8A0309BB2013B9BB23B870023A7F8B3
:10045000403000237B87002387F8423007F13803C0
:10046000F86819460CF0F6FB6023BB8400233B863A
:100470000123FB8404233B8508237B864FF4807390
:10048000BB864FF40073FB8607F12403F868194616
:100490000CF0B8FCF86800210CF0A2FE07F1240370
:1004A000F86819460CF028FDF86800210CF0B4FE3D
:1004B00007F12403F86819460CF0A6FDF86800213E
:1004C0000CF0C8FE07F12403F86819460CF022FE70
:1004D000F86800210CF0DAFEFB68384A934203D03A
:1004E000FB68374A934211D107F1140318460CF008
:1004F00013FF4FF480433B8407F11403F868194657
:100500000CF0E2FEF86801210CF024FFFA8807F1F4
:100510005403104619460BF077FB0023A7F89630DA
:1005200025E0B7F896305B0007F1A802134433F8D2
:10053000543C012B16D1B7F8963010335B0007F10D
:10054000A802134433F8523C18460BF063FE0346EE
:100550009CB2F8680BF0D4FE0346B86821461A46F0
:1005600009F03CFAB7F896300133A7F89630B7F89F
:1005700096300F2BD5D9FB6800225A63FB68002206
:100580009A63FB680022DA63FB6800221A64F86849
:1005900001210CF0F7FBF86801210CF013FC00239B
:1005A0001846AC37BD4690BD00140040FF17004010
:1005B00000200040003802401F85EB510000014040
:1005C0000004014080B489B000AFF860B960114602
:1005D0001A460B46FB711346BB800023FB76FB6873
:1005E000DB78002B22D100237B610023FB61BB88D9
:1005F0000333002B00DA03339B107B61FB79FA682D
:1006000032339B0013449B683B610023FB6109E08C
:10061000BB681A683B691A60FB690133FB61BB6800
:100620000433BB60FA697B699A42F1D3FB7E1846BA
:100630002437BD465DF8047B704700BF80B489B0A5
:1006400000AFF860B9601346FB800023FB61FB88B4
:100650000333002B00DA03339B10BB61FB68D3F834
:10066000D0307B610023FB6109E07B691A68BB68BD
:100670001A60FB690133FB61BB680433BB60FA6934
:10068000BB699A42F1D3BB6818462437BD465DF872
:10069000047B704780B586B000AF78603960002376
:1006A000FB7400237B610023FB60FB6843F02003A5
:1006B000FB603B68DBB203F01F03DBB203F01F03F8
:1006C0009B01FA6822F4F8621343FB607B68DB68E5
:1006D000FA681A617B68DB681B69FB607B69013320
:1006E0007B617B69094A934200D906E0FB685B099C
:1006F00003F00103DBB2012BECD003200AF0E0F899
:10070000FB7C18461837BD4680BD00BF400D030076
:1007100080B483B000AF78607B68DB685B6903F00E
:10072000010318460C37BD465DF8047B704700BFD7
:1007300080B582B000AF78607868FFF7E9FF0346C4
:10074000012B14BF01230023DBB218460837BD4636
:1007500080BD00BF80B485B000AF78600023FB602F
:100760007B68DB685B69FB607B68DB689B69FA68B8
:100770001340FB60FB6818461437BD465DF8047BE8
:10078000704700BF80B485B000AF78600023FB7372
:100790007B681B699B68BB603B7AC3F34103DBB298
:1007A000022B09D0032B04D0012B02D00323FB73AF
:1007B00005E00223FB7302E00123FB7300BFFB7B18
:1007C00018461437BD465DF8047B704780B487B087
:1007D00000AF78600023FB750023BB607B681B695A
:1007E0009B683B617B689B691B68FB603B7CC3F338
:1007F0004103DBB2022B04D0BB896FF30A03BB8138
:1008000005E0BB89032262F30A03BB8100BF7B685A
:100810009B69FA681A607B7A43F001037B727B68FC
:100820001B697A6812695168BA68D2431140BA6884
:100830000A435A60FB7D18461C37BD465DF8047BB1
:10084000704700BF80B487B000AF78603960002384
:10085000FB740023FB600023BB603B685B78012BCB
:100860000FD13B681B787A6804339B0013449B6864
:100870007B613B681B781A46012393409BB23B8106
:100880000EE03B681B787A6814339B0013445B6866
:100890007B613B681B781A46012393409BB27B81A6
:1008A0007B691B68FB607B7B23F07F03DBB2002B43
:1008B00027D13B689B689BB2C3F30A039AB2BB89FA
:1008C00062F30A03BB813B68DB7803F00303DAB20F
:1008D000BB7B62F38303BB733B68DB88DBB203F053
:1008E0000F03DAB2FB8962F38913FB81FB7B43F0D0
:1008F0001003FB737B7B43F080037B73FA687B6997
:100900001A607B681B697A681269D169BA680A4300
:10091000DA61FB7C18461C37BD465DF8047B7047E6
:1009200080B588B000AF786039600023FB77002382
:10093000BB6100237B6100233B613B685B78012B3B
:1009400040F0AB803B681B787A6804339B0013440B
:100950009B681B687B613B681B787A6804339B004B
:1009600013449B681B693B613B685B69002B09D1A1
:100970003B696FF312033B617B8A012262F3CC0374
:100980007B8222E03B685B69C3F312023B6962F33E
:1009900012033B613B685A693B689B6813445A1ECB
:1009A0003B689B68B2FBF3F39BB2C3F309039AB2B3
:1009B0007B8A62F3CC037B823B68DB78012B04D11A
:1009C000FB7C012262F34613FB743B681B787A6858
:1009D00004339B0013449B683A691A617B68DB7897
:1009E000012B0AD13B681B787A6804339B001344BF
:1009F0009B683A6812695A6115E03B68DB78012B05
:100A000011D03B685B69002B0DD03B681B781A4600
:100A100001239340BB617B681B697A681269516B43
:100A2000BA690A435A633B68DB78012B14D17B68AF
:100A30001B699B68FB60FB68C3F30D239BB203F04B
:100A40000103002B04D1FB7D43F02003FB7503E081
:100A5000FB7D43F01003FB75FB7D43F00403FB7546
:100A6000FB7D43F08003FB753B681B787A68043399
:100A70009B0013449B687A691A603B68DB78012B02
:100A800040F089803B68D9683B681A783B685B69AD
:100A90009BB27868FFF796FD7DE03B681B787A682B
:100AA00014339B0013445B681B687B613B681B78B5
:100AB0007A6814339B0013445B681B693B613B6895
:100AC0005B69002B0DD13B689B68C3F312023B6945
:100AD00062F312033B617B8A012262F3CC037B82C7
:100AE00020E03B685A693B689B6813445A1E3B6888
:100AF0009B68B2FBF3F39BB2C3F309039AB27B8A00
:100B000062F3CC037B827B8AC3F3C9039BB21A4690
:100B10003B689B6803FB02F3C3F312023B6962F379
:100B200012033B613B681B787A6814339B001344C3
:100B30005B683A691A617B68DB78012B09D13B68F5
:100B40001B787A6814339B0013445B683A68126917
:100B50005A613B68DB78012B0CD13B685B79002B39
:100B600004D0FB7D43F02003FB7503E0FB7D43F0E5
:100B70001003FB75FB7D43F00403FB75FB7D43F025
:100B80008003FB753B681B787A6814339B00134421
:100B90005B687A691A60FB7F18462037BD4680BDC6
:100BA00080B489B000AF786039600023FB77002300
:100BB000BB6100233B610023BB603B685B78012B7A
:100BC00070D17B689B697B617B691B683B617B693A
:100BD0001B69BB603B685B69002B09D13B7A6FF3F3
:100BE00006033B72BB7A012262F3C403BB7223E0AB
:100BF0003B685A693B689B689A420ED93B689A6881
:100C00003B685A613B689B68DBB203F07F03DAB252
:100C10003B7A62F306033B7209E03B685B69DBB237
:100C200003F07F03DAB23B7A62F306033B72BB7ACE
:100C3000012262F3C403BB72BA687B691A617B68E4
:100C4000DB78012B09D13B681B787A6804339B0061
:100C500013449B683A6812695A61FB7C43F00403B1
:100C6000FB74FB7C43F08003FB743A697B691A6078
:100C70007B68DB78002B76D13B685B69002B72D0F8
:100C80003B681B781A46012393401A46BB691343FD
:100C9000BB617B681B697A681269516BBA690A4348
:100CA0005A6360E03B681B787A6814339B001344F6
:100CB0005B681B683B613B681B787A6814339B0058
:100CC00013445B681B69BB603B685B69002B0FD1F9
:100CD0003B689B68DBB203F07F03DAB23B7A62F3D6
:100CE00006033B72BB7A012262F3C403BB7212E0BB
:100CF0003B689A683B685A613B689B68DBB203F0CB
:100D00007F03DAB23B7A62F306033B72BB7A0122BD
:100D100062F3C403BB723B681B787A6814339B0090
:100D200013445B68BA681A617B68DB78012B09D1D0
:100D30003B681B787A6814339B0013445B683A68FD
:100D400012695A61FB7C43F00403FB74FB7C43F0A3
:100D50008003FB743B681B787A6814339B00134450
:100D60005B683A691A60FB7F18462437BD465DF818
:100D7000047B704780B487B000AF7860396000238F
:100D8000FB750023FB603B685B78012B1CD13B6843
:100D90001B787A6804339B0013449B683B613B6972
:100DA0001B68FB60FB7B23F07F03DBB2002B03D0CF
:100DB000FB7B43F04003FB73BB7B43F02003BB731F
:100DC000FA683B691A6011E03B681B787A68143353
:100DD0009B0013445B683B613B691B68FB60BB7B0A
:100DE00043F02003BB73FA683B691A60FB7D184629
:100DF0001C37BD465DF8047B704700BF80B487B0E8
:100E000000AF786039600023FB740023FB603B680F
:100E10005B78012B08D13B681B787A6804339B0010
:100E200013449B687B6107E03B681B787A68143346
:100E30009B0013445B687B617B691B68FB60BB7B29
:100E40006FF34513BB733B68DB78032B03D03B6820
:100E5000DB78022B03D1FB7B43F01003FB73FA68B2
:100E60007B691A60FB7C18461C37BD465DF8047B25
:100E7000704700BF80B485B000AF78607B681B69A5
:100E80009B69FB607B681B69DB69FA681340FB6048
:100E9000FB681B0C18461437BD465DF8047B704791
:100EA00080B485B000AF78600B46FB70FB787A6841
:100EB00014339B0013445B689B68FB607B681B6971
:100EC0005B69FA681340FB60FB6818461437BD463F
:100ED0005DF8047B704700BF80B485B000AF7860D8
:100EE0007B681B699B69FB607B681B69DB69FA682F
:100EF0001340FB60FB689BB218461437BD465DF893
:100F0000047B704780B487B000AF786000233B61FA
:100F1000FB7C43F0C003FB74BB7C012262F3C4037F
:100F2000BB743B7C182262F306033B747B685B6DE9
:100F30003A691A617B68DB78012B16D10023FB60CC
:100F40007B685B6D7A6802F5B9625A617B685B6D9C
:100F50001B68FB60FB7B43F08003FB734FF0802337
:100F6000FB607B685B6DFA681A601C37BD465DF8F4
:100F7000047B704780B485B000AF78607B689B7A53
:100F8000002B1BD07B681B699B68FB603B7B03F0DD
:100F90000103DBB2002B11D07B6803F586731B685D
:100FA000BB603B7A6FF341033B723B7A6FF3000304
:100FB0003B727B68D3F80C31BA681A601437BD46AF
:100FC0005DF8047B704700BF80B483B000AF7860E9
:100FD00039600C37BD465DF8047B704780B582B040
:100FE00000AF78607B68064A1A607B681033184649
:100FF00001F016F97B6818460837BD4680BD00BF72
:101000005848020880B582B000AF786039607B68CC
:101010001846FFF7E3FF7B68074A1A607B683A6867
:10102000C3F820217B680022C3F81C217B68184686
:101030000837BD4680BD00BF9835020880B582B034
:1010400000AF78600B46FB707B6803F11002FB7801
:101050001046194601F0F8F80346002B0CBF012397
:101060000023DBB2002B0AD0FB780D2B13D17B6859
:10107000D3F81C315A1C7B68C3F81C210BE07B6839
:10108000D3F81C31002B06D1FB780D2B03D17B68E4
:101090000122C3F81C210837BD4680BD90B587B03A
:1010A00002AFF860B9607A603B60FB6801229A6029
:1010B0004FF4927018F064F904462046F968FFF77F
:1010C000A1FFFB685C60FB681B681C68FB685B68D1
:1010D0001A467B680093F868B9683B68A0470346E6
:1010E00018461437BD4690BD80B584B000AF786017
:1010F0007B681B680C331B68786898470346FB6065
:10110000FB68002B01D0FB6803E07B6801225A607A
:10111000002318461037BD4680BD00BF80B584B09F
:1011200000AF78607B681B6810331B68786898474D
:101130000346FB60FB68002B01D0FB6803E07B6883
:1011400002225A60002318461037BD4680BD00BFFA
:1011500080B584B000AF78607B681B6814331B686F
:10116000786898470346FB60FB68002B01D0FB685A
:1011700003E07B6803225A60002318461037BD46FF
:1011800080BD00BF80B584B000AF78607B681B680D
:1011900018331B68786898470346FB60FB68002B90
:1011A00001D0FB6803E07B6804225A6000231846E4
:1011B0001037BD4680BD00BF80B582B000AF7860FB
:1011C00039607B685B68002B00D125E07B685B6839
:1011D000022B07D17B681B6804331B687868396869
:1011E000984719E03B68012B06D17B681B682433C4
:1011F0001B68786898470FE03B68002B06D17B6836
:101200001B6828331B687868984705E07B681B6873
:101210001C331B68786898470837BD4680BD00BFFF
:1012200080B582B000AF78607B685B68002B01D12D
:10123000002311E07B685B68012B07D17B681B688A
:1012400008331B6878689847034605E07B681B688D
:101250001B6878689847034618460837BD4680BD26
:1012600080B582B000AF78607B681B682C331B6848
:101270007868012198470837BD4680BD80B582B0A7
:1012800000AF78607B681B682C331B68786800218E
:1012900098470837BD4680BD90B583B000AF7860F1
:1012A0007B681B682C331C687B681B6830331B68A9
:1012B000786898470346002B0CBF01230023DBB25C
:1012C00078681946A0470C37BD4690BD80B582B0FE
:1012D00000AF78607B681B681B6878689847034696
:1012E00018460837BD4680BD80B582B000AF786033
:1012F0007B681B6804331B68786898470346184668
:101300000837BD4680BD00BF80B584B000AFF8602F
:10131000B9607A60FB681B681B68F868B9687A680E
:101320009847034618461037BD4680BD80B582B049
:1013300000AF786039607B681B6804331B6878688D
:10134000396898470837BD4680BD00BF80B582B078
:1013500000AF78607B681B6808331B687868984723
:10136000034618460837BD4680BD00BF80B483B031
:1013700000AF78607B68044A1A607B6818460C37B7
:10138000BD465DF8047B70475035020880B483B0D9
:1013900000AF78607B68044A1A607B6818460C3797
:1013A000BD465DF8047B70473035020880B582B0D9
:1013B00000AF78607B681846FFF7D8FF7B6808337A
:1013C0001846FFF7E3FF7B68064A1A607B68064A07
:1013D0009A607B680022DA607B6818460837BD4651
:1013E00080BD00BF883B0208E03B020880B582B0A8
:1013F00000AF78607B681846FFF7B8FF7B6808335A
:101400001846FFF7C3FF7B68064A1A607B68064AE6
:101410009A607B680022DA607B6818460837BD4610
:1014200080BD00BF103B0208683B020880B582B057
:1014300000AF78607B681846FFF798FF7B68083339
:101440001846FFF7A3FF7B68064A1A607B68064AC6
:101450009A607B680022DA607B6818460837BD46D0
:1014600080BD00BF983A0208F03A020880B582B009
:1014700000AF78607B681846FFF778FF7B68083319
:101480001846FFF783FF7B68064A1A607B68064AA6
:101490009A607B680022DA607B6818460837BD4690
:1014A00080BD00BF203A0208783A020880B483B0B9
:1014B00000AF78607B68044A1A607B6818460C3776
:1014C000BD465DF8047B70471035020880B582B0D8
:1014D00000AF78607B681846FFF748FF7B680833E9
:1014E0001846FFF7E3FF7B68064A1A607B68064AE6
:1014F0009A607B680022DA607B6818460837BD4630
:1015000080BD00BFA8390208FC39020880B582B04E
:1015100000AF78607B681846FFF728FF7B680833C8
:101520001846FFF7C3FF7B68064A1A607B68064AC5
:101530009A607B680022DA607B6818460837BD46EF
:1015400080BD00BF303902088439020880B582B0FE
:1015500000AF78607B681846FFF708FF7B680833A8
:101560001846FFF7A3FF7B68064A1A607B68064AA5
:101570009A607B680022DA607B6818460837BD46AF
:1015800080BD00BFB83802080C39020880B582B0AF
:1015900000AF78607B681846FFF7E8FE7B68083389
:1015A0001846FFF783FF7B68064A1A607B68064A85
:1015B0009A607B680022DA607B6818460837BD466F
:1015C00080BD00BF403802089438020880B483B060
:1015D00000AF78607B68044A1A607B6818460C3755
:1015E000BD465DF8047B70472848020880B582B08C
:1015F00000AF78607B681846FFF7E8FF7B68034A16
:101600001A607B6818460837BD4680BDF036020870
:1016100080B582B000AF78607B681846FFF7A6FE01
:101620007B68034A1A607B6818460837BD4680BD50
:101630002841020880B582B000AF78607B68184608
:10164000FFF794FE7B68034A1A607B6818460837E8
:10165000BD4680BDE040020880B582B000AF786032
:101660007B681846FFF782FE7B68034A1A607B6836
:1016700018460837BD4680BD9840020880B582B044
:1016800000AF78607B681846FFF770FE7B68034AFE
:101690001A607B6818460837BD4680BD5040020876
:1016A00080B582B000AF78607B681846FFF75EFEB9
:1016B0007B68034A1A607B6818460837BD4680BDC0
:1016C000483F020880B582B000AF78607B6818465A
:1016D000FFF74CFE7B68034A1A607B6818460837A0
:1016E000BD4680BDB83E020880B582B000AF7860CC
:1016F0007B681846FFF73AFE7B68034A1A607B68EE
:1017000018460837BD4680BD283E020880B582B025
:1017100000AF78607B681846FFF728FE7B68034AB5
:101720001A607B6818460837BD4680BD983D0208A0
:1017300080B582B000AF78607B681846FFF716FE70
:101740007B68034A1A607B6818460837BD4680BD2F
:10175000903F020880B582B000AF78607B68184681
:10176000FFF704FE7B68034A1A607B681846083757
:10177000BD4680BD003F020880B582B000AF7860F2
:101780007B681846FFF7F2FD7B68034A1A607B68A6
:1017900018460837BD4680BD703E020880B582B04D
:1017A00000AF78607B681846FFF7E0FD7B68034A6E
:1017B0001A607B6818460837BD4680BDE03D0208C8
:1017C00080B582B000AF78607B681846FFF7CEFD29
:1017D0007B6808331846FFF769FE7B68044A1A6085
:1017E0007B68044A9A607B6818460837BD4680BD0E
:1017F000D83F02082C40020880B582B000AF786064
:101800007B6800221A607B68CB4A5A607B680022A2
:101810009A607B680022DA607B6800221A617B682C
:1018200000225A617B6800229A617B680122DA619A
:101830007B6800221A627B6800225A627B68002261
:101840009A627B684FF000021A657B6801225A6534
:101850007B6800229A657B68B84A5C331146D822BF
:10186000184611F0EFFC7B68B54A03F59A731146F0
:10187000D822184611F0E6FC7B6803F50373D822E2
:101880001846002111F078FD7B680122C3F8102270
:101890007B680122C3F814227B680122C3F830223E
:1018A0007B680122C3F834227B680122C3F84822F6
:1018B0007B680122C3F84C227B680122C3F878229E
:1018C0007B680122C3F87C227B680122C3F8902246
:1018D0007B680122C3F894227B6803F53973D82210
:1018E0001846002111F048FD7B680122C3F8E82268
:1018F0007B680122C3F808237B680122C3F82023F8
:101900007B680122C3F850237B680122C3F8682357
:101910007B680122C3F894237B680122C3F8B023BB
:101920007B6803F56F73D8221846002111F024FD5F
:101930007B680122C3F8C4237B680122C3F8E42337
:101940007B680122C3F8FC237B680122C3F82C24A6
:101950007B680122C3F844247B687A4A03F29443EB
:101960001146D822184611F06DFC7B68754A03F2C7
:101970006C531146D822184611F064FC7B68002293
:10198000C3F844267B680022C3F848267B680022FF
:10199000C3F84C267B680122C3F850267B680022DE
:1019A000C3F854267B680022C3F858267B684FF0A2
:1019B0000002C3F85C267B684FF00002C3F8602683
:1019C0007B684FF00002C3F864267B684FF000028A
:1019D000C3F868267B684FF00002C3F86C267B686A
:1019E0000022C3F870267B680022C3F874267B6847
:1019F0000022C3F878267B680022C3F87C267B6827
:101A00000022C3F880267B6803F284631846FFF740
:101A1000EDFD7B6803F5D2631846FFF7F9FD7B689F
:101A200003F5D3631846FFF705FE7B6803F5D4631F
:101A30001846FFF711FE7B6803F5D5631846FFF7DC
:101A40001DFE7B6803F5D6631846FFF729FE7B6809
:101A500003F5D7631846FFF735FE7B6803F5D863B7
:101A60001846FFF741FE7B6803F5D9631846FFF778
:101A70004DFE7B6803F5DA631846FFF759FE7B6875
:101A800003F5DB631846FFF765FE7B6803F5DC634F
:101A90001846FFF771FE7B6803F5DD631846FFF714
:101AA0007DFE7B6803F5DE631846FFF70FFD7B685C
:101AB00003F5E0631846FFF729FD7B6803F5E26351
:101AC0001846FFF743FD7B6803F5E4631846FFF70C
:101AD0005DFD7B6803F5E6631846FFF767FC7B68EE
:101AE00003F5E8631846FFF781FC7B6803F5EA63BA
:101AF0001846FFF79BFC7B6803F5EC631846FFF77D
:101B0000B5FC7B6803F5EE631846FFF759FE7B686A
:101B100003F2846318464FF4E13100220823FFF7F3
:101B2000BDFA7B6803F5D2631846FFF7DDFA7B68E0
:101B300003F5D363184607E000F2052A4032020895
:101B400018330208F0330208FFF7CEFA7B6803F57A
:101B5000D4631846FFF7C8FA7B6803F5D5631846C7
:101B6000FFF7C2FA7B6803F5D6631846FFF7D6FA8B
:101B70007B6803F5D7631846FFF7D0FA7B6803F557
:101B8000D8631846FFF7CAFA7B6803F5D96318468D
:101B9000FFF7C4FA7B6803F5DA631846FFF7BEFA6D
:101BA0007B6803F5DB631846FFF7B8FA7B6803F53B
:101BB000DC631846FFF7B2FA7B6803F5DD6318466D
:101BC000FFF7ACFA7B6803F5DF63184621494FF055
:101BD0007E52FFF799FB7B6803F5E16318461D49C8
:101BE0004FF07E52FFF790FB7B6803F5E3631846E6
:101BF00018494FF07E52FFF787FB7B6803F5E563DA
:101C0000184614494FF07E52FFF77EFB7B6803F5C0
:101C1000E8631846FFF768FA7B6803F5EA6318463D
:101C2000FFF762FA7B6803F5E6631846FFF75CFA94
:101C30007B6803F5EE631846FFF770FA7B6803F5DF
:101C4000ED631846FFF742FB7B6818460837BD4630
:101C500080BD00BF0050C34790B583B000AF78602F
:101C60007B6803F5D2631846FFF7DAFA0346002BC8
:101C700006D17B68D3F87036012B01D0012300E038
:101C80000023002B16D07B680122C3F8702601F0D8
:101C900065FE02460B46104619460FF0F5FD02465A
:101CA0007B68C3F868267B6803F5EE631846FFF788
:101CB000D7FA99E07B6803F5D3631846FFF7B0FACB
:101CC0000346002B0CBF01230023DBB2002B17D0EF
:101CD0007B68D3F848365A1C7B68C3F8482601F065
:101CE0003DFE02460B46104619460FF0CDFD02465A
:101CF0007B68C3F868267B680022C3F8702673E00F
:101D00007B6803F5D4631846FFF78AFA0346002B75
:101D100006D17B68D3F87036002B01D0012300E098
:101D20000023002B36D07B680022C3F870267B6826
:101D300003F5E56318464FF07E51FFF7F7FA7B682D
:101D400003F5DF6318464FF07E51FFF7EFFA7B682B
:101D500003F5E16318464FF07E51FFF7E7FA7B6821
:101D600003F5E36318464FF07E51FFF7DFFA01F009
:101D7000F5FD02460B46104619460FF085FD02465A
:101D80007B68C3F868267B6803F5EE631846FFF7A7
:101D900067FA29E07B6803F5D5631846FFF740FA38
:101DA0000346002B06D17B68D3F87036032B01D095
:101DB000012300E00023002B16D07B680022C3F82B
:101DC000702601F0CBFD02460B46104619460FF077
:101DD0005BFD02467B68C3F868267B68D3F844360F
:101DE0005A1C7B68C3F8442601F0B8FD02460B4636
:101DF000104619460FF048FD02467B68D3F8683656
:101E0000104619460FF074FC03461A4601231C467F
:101E100010460A490FF028FF0346002B01D100238A
:101E20001C46E3B2002B05D07B6803F5EE63184631
:101E3000FFF724FA0C37BD4690BD00BF0000FA43FF
:101E400090B583B000AF78603960164839680FF0FC
:101E50004FFC034623F0004318464FF07E510FF02D
:101E6000F9FE0346002B1AD07B68D3F844167B6832
:101E7000D3F848367A68D2F84C4678681A46520049
:101E80001A4453001A460B46DB000B445B00134414
:101E9000234403F5AD739B00034401225A600C37C1
:101EA000BD4690BD0000964280B582B000AF78601C
:101EB0007B689B6D002B0DD101F050FD02460B4657
:101EC000104619460FF0E0FC02467B681A657B68F5
:101ED00001229A650837BD4680BD00BF90B583B02A
:101EE00000AF786001F03AFD02460B4610461946F5
:101EF0000FF0CAFC02467B681B6D104619460FF0B6
:101F0000F7FB03461A4601231C4610464E490FF0C4
:101F1000ABFE0346002B01D100231C46E3B2002B8D
:101F20003AD07B68D3F844167B68D3F848367A6891
:101F3000D2F84C4678681A4652001A4453001A46A2
:101F40000B46DB000B445B001344234482339B00AD
:101F5000034400225A607B68D3F844167B68D3F8A8
:101F600048367A68D2F84C4678681A4652001A44C5
:101F700053001A460B46DB000B445B00134423441A
:101F800003F592739B00034401225A607B68002290
:101F90009A657B6800229A617B68D3F844167B6857
:101FA000D3F848367A68D2F84C4678681A46520018
:101FB0001A4453001A460B46DB000B445B001344E3
:101FC000234482339B0003445A687B68C3F8782615
:101FD0007B68D3F844167B68D3F848367A68D2F821
:101FE0004C4678681A4652001A4453001A460B466B
:101FF000DB000B445B0013442344B8339B000344D1
:102000005A687B68C3F87C267B68D3F844167B68E3
:10201000D3F848367A68D2F84C4678681A465200A7
:102020001A4453001A460B46DB000B445B00134472
:102030002344EE339B0003445A687B68C3F8802630
:1020400000BF0C37BD4690BD0080BB4490B585B045
:1020500000AFF860B9607A60FB68D3F84416FB689B
:10206000D3F84836FA68D2F84C46F8681A46520057
:102070001A4453001A460B46DB000B445B00134422
:10208000234416339B0003445B681846B9680FF07D
:102090002FFB03461A46FB68C3F86026FB68D3F89B
:1020A0004416FB68D3F84836FA68D2F84C46F8680C
:1020B0001A4652001A4453001A460B46DB000B44E2
:1020C0005B00134423444C339B0003445B68184675
:1020D00079680FF00DFB03461A46FB68C3F86426C7
:1020E00000BF1437BD4690BD80B582B000AF7860A8
:1020F000396038684FF000010FF098FD0346002B5F
:1021000000D02BE0386817490FF0A4FD0346002BE0
:1021100013D001F023FC7B681B681A464FEAE27378
:10212000821A61EB030340F2CF704FF0000190423E
:1021300071EB030301DA012300E00023002B0CD034
:102140007B68D3F84C365A1C7B68C3F84C2601F0E8
:1021500005FC02460B467B681A6000BF0837BD4687
:1021600080BD00BF0000A0402DE9F04F93B00CAF40
:1021700078613961FA60BB607B6903F5EA631846F0
:10218000FFF74EF8034618460FF068FB02467B69DE
:10219000C3F86C267B6903F284637B60386C0EF0B5
:1021A0001DFF82468B46786C0EF018FF80468946EC
:1021B000B86C0EF013FF04460D467B69D3F84C66ED
:1021C000F86C15490FF09EFB034618460EF006FF0B
:1021D00002460B46104619460DA3D3E900230FF023
:1021E0007BF802460B46B9680091CDE902ABCDE918
:1021F0000489CDE906450896CDE90A2378680749A0
:102200003A69FB680AF018FB1C37BD46BDE8F08F41
:10221000182D4454FB21094000003443DC340208EB
:1022200080B483B000AF78607B680022C3F80421DB
:102230007B680022C3F808217B6818460C37BD462E
:102240005DF8047B704700BF80B485B000AF786054
:102250000B46FB707B68D3F808315A1C114B83FB8B
:102260000213D911D317C91A0B461B020B44D31AF8
:10227000FB607B68D3F80421FB689A4201D10123FB
:102280000AE07B68D3F808317A68F978D1547B6822
:10229000FA68C3F80821002318461437BD465DF8D4
:1022A000047B7047817F807F80B584B000AF396048
:1022B00011461A460346FB710B46BB801346BB71A1
:1022C0003B68254A934204D10120012105F032FFE9
:1022D00022E03B68214A934204D10220012105F00B
:1022E00029FF19E03B681E4A934204D104200121D2
:1022F00005F020FF10E03B681A4A934204D1082001
:10230000012105F017FF07E03B68174A934203D10C
:102310001020012105F00EFF07F10803184607F011
:10232000F3FABB88BB60FB793B733B7EBB73BB7925
:10233000FB7303237B7307F108033868194607F022
:1023400055FAFB79012B04D1BB883868194607F090
:1023500037FB1037BD4680BD00000240000402403C
:1023600000080240000C02400010024080B483B01C
:1023700000AF78600B46FB70FB78002B06D0094954
:10238000084BDA6B7B681343CB6306E00549054BCA
:10239000DA6B7B68DB431340CB630C37BD465DF8DB
:1023A000047B7047002C014080B485B000AF78609A
:1023B0000023FB73084B5A6B7B681340002B02D041
:1023C0000123FB7301E00023FB73FB7B18461437EA
:1023D000BD465DF8047B7047002C014080B483B09B
:1023E00000AF7860034A7B6893630C37BD465DF8A5
:1023F000047B7047002C014080B584B000AF78604A
:102400007B68D3F81C217B68D3F83031D31A184687
:102410000EF0D2FD02460B461046194650A3D3E9F2
:1024200000230EF02FFE02460B46104619464EA31F
:10243000D3E900230EF050FF02460B461046194622
:102440000FF002F90346FB60F8680EF0C7FD024684
:102450000B461046194642A3D3E900230FF0A2F819
:102460000346002B14D0F8680EF0B8FD02460B4668
:10247000104619463EA3D3E900230EF04FFC024656
:102480000B46104619460FF0DFF80346FB6022E0CA
:10249000F8680EF0A3FD02460B461046194636A317
:1024A000D3E900230FF060F80346002B13D0F8683F
:1024B0000EF094FD02460B46104619462CA3D3E9B4
:1024C00000230EF02DFC02460B46104619460FF075
:1024D000BBF80346FB60F8684FF000010FF0CEFB3D
:1024E0000346002B15D0264B1B6818464FF0000101
:1024F0000FF0A6FB0346002B0BD07B68D3F82031EE
:10250000002B06DA7B68D3F84C315A1E7B68C3F87F
:102510004C21F8684FF000010FF092FB0346002BAE
:1025200015D0174B1B6818464FF000010FF0A6FBA3
:102530000346002B0BD07B68D3F82031002B06DD3F
:102540007B68D3F84C315A1C7B68C3F84C210C4A89
:10255000FB681360FB6818461037BD4680BD00BF9E
:10256000182D4454FB210940000000000094D14084
:10257000182D4454FB211940182D4454FB2109C047
:102580002C090020AFF3008080B489B000AF7860E0
:102590000B46FB707B68D3F844317A681344FA78B1
:1025A00083F834217B6893F83431AA2B03D17B68FC
:1025B0000122C3F848217B68D3F84831012B40F051
:1025C000AB807B68D3F844315A1C7B68C3F8442144
:1025D0007B68D3F844310E2B40F39E807B68002249
:1025E000C3F844217B680022C3F848217B6893F834
:1025F00037311A467B6893F838311B029BB213437C
:10260000FB61FB69B3F5004F05DAFB695A427B6851
:10261000C3F81C2105E0FB69C3F580327B68C3F871
:102620001C217B6893F839311A467B6893F83A315C
:102630001B029BB21343BB61BB69B3F5004F05DAC4
:10264000BB695A427B68C3F8202105E0BB69C3F52A
:1026500080327B68C3F820217B6893F83B311A46AF
:102660007B6893F83C311B029BB213437B617B690F
:10267000B3F5004F05DA7B695A427B68C3F8242121
:1026800005E07B69C3F580327B68C3F824217B6851
:1026900093F83D311A467B6893F83E319B029BB21A
:1026A00013433B613B69B3F5004F05DA3B695A427E
:1026B0007B68C3F8282105E03B69C3F580327B685D
:1026C000C3F828217B6893F83F311A467B6893F85A
:1026D00040319B029BB21343FB60FB68B3F5004F94
:1026E00005DAFB685A427B68C3F82C2105E0FB68D9
:1026F000C3F580327B68C3F82C217B68D3F8503156
:10270000002B09D07B68D3F81C217B68C3F83021EB
:102710007B680022C3F850212437BD465DF8047B56
:10272000704700BF80B500AF0E4B1B889BB21B09E2
:102730009BB2002B05D00C4B1B68013B0A4A13606F
:102740000BE0084B1B889BB21B099BB2002B04D1EA
:10275000054B1B680133044A1360024801210AF04B
:1027600043FE80BD000001403009002080B500AF6D
:102770004FF080431B889BB21B099BB2002B05D0F6
:102780000C4B1B68013B0B4A13600CE04FF080437D
:102790001B889BB21B099BB2002B04D1054B1B6805
:1027A0000133044A13604FF0804001210AF01CFEFF
:1027B00080BD00BF3409002080B500AF0E4B1B88E0
:1027C0009BB21B099BB2002B05D00C4B1B68013B35
:1027D0000A4A13600BE0084B1B889BB21B099BB293
:1027E000002B04D1054B1B680133044A13600248D7
:1027F00001210AF0F9FD80BD0004004038090020E5
:1028000080B500AF0E4B1B889BB21B099BB2002BFF
:1028100005D00C4B1B68013B0A4A13600BE0084BC8
:102820001B889BB21B099BB2002B04D1054B1B6874
:102830000133044A1360024801210AF0D5FD80BD2E
:10284000000800403C09002080B500AF0E4B1B88FB
:102850009BB21B099BB2002B05D00C4B1B68013BA4
:102860000A4A13600BE0084B1B889BB21B099BB202
:10287000002B04D1054B1B680133044A1360024846
:1028800001210AF0B1FD80BD000C0040400900208C
:1028900080B500AF0E4B1B889BB21B099BB2002B6F
:1028A00005D00C4B1B68013B0A4A13600BE0084B38
:1028B0001B889BB21B099BB2002B04D1054B1B68E4
:1028C0000133044A1360024801210AF08DFD80BDE6
:1028D000000401404409002080B500AF0E4B1B8866
:1028E0009BB21B099BB2002B05D00C4B1B68013B14
:1028F0000A4A13600BE0084B1B889BB21B099BB272
:10290000002B04D1054B1B680133044A13600248B5
:1029100001210AF069FD80BD00180040480900202F
:1029200080B500AF04480AF021FA0246034B1B6849
:102930001B041344184680BD0000014030090020EC
:1029400080B500AF4FF080400AF010FA0246034B0A
:102950001B681B041344184680BD00BF34090020C7
:1029600080B500AF04480AF001FA0246034B1B6829
:102970001B041344184680BD0004004038090020A1
:1029800080B500AF04480AF0F1F90246034B1B681A
:102990001B041344184680BD000800403C09002079
:1029A00080B500AF04480AF0E1F90246034B1B680A
:1029B0001B041344184680BD000C00404009002051
:1029C00080B500AF04480AF0D1F90246034B1B68FA
:1029D0001B041344184680BD000401404409002034
:1029E00080B500AF04480AF0C1F90246034B1B68EA
:1029F0001B041344184680BD0018004048090020FD
:102A000090B59DB002AFF860B9601346FB8000231B
:102A1000A7F866300023A7F86430F86809F076FA62
:102A2000FA88002300930220B9680123FFF73CFCD9
:102A3000FA8807F120031046194609F0E5F800234B
:102A4000A7F8663025E0B7F866305B0007F168024A
:102A5000134433F8483C012B16D1B7F866301033D5
:102A60005B0007F16802134433F8463C184609F04E
:102A7000D1FB03469CB2F86809F042FC0346B868F3
:102A800021461A4606F0AAFFB7F866300133A7F8C8
:102A90006630B7F866300F2BD5D91D4B1B681D4A21
:102AA000A2FB03235B0E9BB2013BA7F864304FF6F9
:102AB000FE73BB610023BB820023BB830023FB8228
:102AC00007F11403F86819460AF0C4F8B7F864303F
:102AD000F868194601220AF027F9F8680321002254
:102AE00000230AF091FCF868012101220AF058FC49
:102AF000F86801210AF066F9F86809F0BDF90346A3
:102B0000184609F071FB00F055F86C37BD4690BDD2
:102B10004000002029D9426680B582B000AF7860BD
:102B20007B681E4A934203D1FFF7FAFE034630E06A
:102B30007B68B3F1804F03D1FFF702FF034628E023
:102B40007B68174A934203D1FFF70AFF034620E050
:102B50007B68144A934203D1FFF712FF034618E043
:102B60007B68114A934203D1FFF71AFF034610E036
:102B70007B680E4A934203D1FFF722FF034608E029
:102B80007B680B4A934203D1FFF72AFF034600E01C
:102B9000002318460837BD4680BD00BF0000014035
:102BA0000004004000080040000C00400004014008
:102BB0000018004080B500AF194B00221A60194B75
:102BC00000221A60184B00221A60184B00221A606B
:102BD000174B00221A60174B00221A60164B002276
:102BE0001A60164800210AF0B3F84FF08040002127
:102BF0000AF0AEF8124800210AF0AAF811480021A4
:102C00000AF0A6F8104800210AF0A2F80F480021A7
:102C10000AF09EF80E4800210AF09AF880BD00BF25
:102C20003009002034090020380900203C09002028
:102C3000400900204409002048090020000001400C
:102C40000004004000080040000C00400004014067
:102C50000018004080B500AF014808F097FA80BD29
:102C6000D812002080B500AF094B9B7A002B0AD008
:102C7000084A084B1B6823F00603136006F0F6FEB3
:102C80000348FEF777F94FF4802008F0AFFF80BDCE
:102C9000D812002010ED00E080B58AB000AF786057
:102CA000396000237B6200233B620023FB61002329
:102CB000BB617B681B8A9BB27B627B6A23F44053B7
:102CC0007B623B68DB881A467B6A13437B627B6AC4
:102CD0009AB27B681A827B689B899BB27B627B6A13
:102CE00023F4B05323F00C037B623B689A883B6863
:102CF0001B8913439AB23B685B8913439BB21A4604
:102D00007B6A13437B627B6A9AB27B689A817B6899
:102D10009B8A9BB27B627B6A23F440737B623B6835
:102D20009B891A467B6A13437B627B6A9AB27B68F3
:102D30009A8207F10803184605F052F97B68314A78
:102D4000934203D07B68304A934202D17B693B6255
:102D500001E03B693B627B689B899BB29BB21BB2E3
:102D6000002B0CDA3A6A13469B0013449A001A446B
:102D70003B681B685B00B2FBF3F3FB610BE03A6A54
:102D800013469B0013449A001A443B681B689B003F
:102D9000B2FBF3F3FB61FB691C4AA2FB03235B0953
:102DA0001B017B627B6A1B09642202FB03F3FA6945
:102DB000D31ABB617B689B899BB29BB21BB2002B71
:102DC0000CDABB69DB003233104AA2FB03235B0938
:102DD00003F007037A6A13437B620BE0BB691B01B4
:102DE00032330A4AA2FB03235B0903F00F037A6A1A
:102DF00013437B627B6A9AB27B681A812837BD468F
:102E000080BD00BF00100140001401401F85EB5140
:102E100080B483B000AF78600B46FB70FB78002B6A
:102E200008D07B689B899BB243F400539AB27B68BD
:102E30009A8107E07B689B899BB223F400539AB286
:102E40007B689A810C37BD465DF8047B704700BFF4
:102E500080B483B000AF78600B467B807B88C3F37F
:102E600008039AB27B689A800C37BD465DF8047BF4
:102E7000704700BF80B483B000AF78607B689B88E8
:102E80009BB2C3F308039BB218460C37BD465DF8EE
:102E9000047B704780B487B000AF78600B467B80BE
:102EA00013467B7000233B610023FB600023BB6063
:102EB00000237B617B687B617B88DBB25B09DBB2D3
:102EC0003B617B8803F01F03FB60FB68012202FA71
:102ED00003F3BB603B69012B03D17B690C337B613E
:102EE00009E03B69022B03D17B6910337B6102E06F
:102EF0007B6914337B617B78002B06D07B697A6910
:102F00001168BA680A431A6006E07B697A69116839
:102F1000BA68D2430A401A601C37BD465DF8047B8C
:102F2000704700BF80B485B000AF78600B467B80EF
:102F30000023FB737B681B889AB27B8813409BB28B
:102F4000002B02D00123FB7301E00023FB73FB7B0A
:102F500018461437BD465DF8047B704780B485B0D1
:102F600000AF78607B681B783B737B685B787B7312
:102F70007B689B78BB737B68DB78FB73FB681846C8
:102F80001437BD465DF8047B704700BF80B485B040
:102F900000AF78600B467B807B88BB813A7B7B6887
:102FA0001A707B6801337A7B1A701437BD465DF85E
:102FB000047B704780B582B000AF78607B680D4AB3
:102FC00093420AD14FF00070012105F00DF94FF046
:102FD0000070002105F008F909E04FF08060012140
:102FE00005F002F94FF08060002105F0FDF8083788
:102FF000BD4680BD0064004080B485B000AF7860FD
:1030000039600023FB730023BB607B681B6823F0DF
:1030100002027B681A607B681B6843F001027B68D0
:103020001A6002E0BB680133BB607B685B6803F039
:103030000103002B04D1BB684FF6FF729342F1D11C
:103040007B685B6803F00103002B02D10023FB7354
:103050009CE03B689B79012B06D17B681B6843F0A1
:1030600080027B681A6005E07B681B6823F08002A1
:103070007B681A603B68DB79012B06D17B681B6893
:1030800043F040027B681A6005E07B681B6823F010
:1030900040027B681A603B681B7A012B06D17B6873
:1030A0001B6843F020027B681A6005E07B681B68A0
:1030B00023F020027B681A603B685B7A012B06D103
:1030C0007B681B6843F010027B681A6005E07B6830
:1030D0001B6823F010027B681A603B689B7A012B07
:1030E00006D17B681B6843F008027B681A6005E024
:1030F0007B681B6823F008027B681A603B68DB7AF8
:10310000012B06D17B681B6843F004027B681A60C0
:1031100005E07B681B6823F004027B681A603B684B
:103120009B789A073B68DB781B061A433B681B7940
:103130001B041A433B685B791B051A433B681B88D9
:10314000013B1A437B68DA617B681B6823F001024C
:103150007B681A600023BB6002E0BB680133BB6080
:103160007B685B6803F00103002B04D0BB684FF65B
:10317000FF729342F1D17B685B6803F00103002B7F
:1031800002D00023FB7301E00123FB73FB7B184695
:103190001437BD465DF8047B704700BF80B485B02E
:1031A00000AF78600023FB607B689B7A1A4601239E
:1031B0009340FB60554A554BD3F8003243F001036E
:1031C000C2F800325149514BD3F81C22FB68DB4353
:1031D0001340C1F81C327B681B7B002B25D14B4967
:1031E0004A4BD3F80C22FB68DB431340C1F80C3286
:1031F00046497B689B7A18467B68DB881B047A68A3
:1032000052881A4300F1480341F833203F497B6854
:103210009B7A18467B689B881B047A6812881A433D
:1032200000F14803DB000B445A607B681B7B012BD9
:1032300024D13649354BD3F80C22FB681343C1F82F
:103240000C3232497B689B7A18467B681B881B04CA
:103250007A6852881A4300F1480341F833202B4919
:103260007B689B7A18467B689B881B047A68D288A7
:103270001A4300F14803DB000B445A607B68DB7A99
:10328000002B09D12149214BD3F80422FB68DB43F1
:103290001340C1F8043207E01C491C4BD3F8042248
:1032A000FB681343C1F804327B681B89002B08D1EB
:1032B0001649164BD3F81422FB68DB431340C1F8C0
:1032C00014327B681B89012B07D110490F4BD3F8AF
:1032D0001422FB681343C1F814327B685B7B012B1B
:1032E00007D10A49094BD3F81C22FB681343C1F8E4
:1032F0001C32064A054BD3F8003223F00103C2F812
:1033000000321437BD465DF8047B7047006400400E
:1033100080B483B000AF78607B6800229A717B68CC
:103320000022DA717B6800221A727B6800225A72CE
:103330007B6800229A727B680022DA727B68002226
:103340009A707B680022DA707B6803221A717B68AE
:1033500002225A717B6801221A800C37BD465DF843
:10336000047B704780B485B000AF7860396000237B
:10337000FB737B689B6803F08063002B02D0002303
:10338000FB7313E07B689B6803F00063002B02D0A3
:103390000123FB730AE07B689B6803F08053002BDA
:1033A00002D00223FB7301E00423FB73FB7B042B9D
:1033B00000F09880FB7BFA7B7968183212010A448E
:1033C000126802F00102796818331B010B441A607D
:1033D0003B681B7A002B13D1FB7BFA7B7968183290
:1033E00012010A4411683A68126852053868407A36
:1033F00002430A43796818331B010B441A6015E035
:10340000FB7BFA7B7968183212010A4411683A682A
:103410005268D2003868007A02433868407A024322
:103420000A43796818331B010B441A603B689B7A86
:1034300003F00F03DAB23B689A72FB7BFA7B796880
:10344000183212010A44526822F00F0279681833C8
:103450001B010B445A60FB7BFA7B7968183212011E
:103460000A4452683968897A0A43796818331B011B
:103470000B445A60FB7B3A68927B11063A68527B98
:10348000120411433A68127B12020A433968C97A5E
:103490000A4379681B010B4403F5C4731A60FB7B74
:1034A0003A68927C11063A68527C120411433A68D9
:1034B000127C12020A433968C97B0A4379681B01EE
:1034C0000B4403F5C4735A60FB7BFA7B79681832AE
:1034D00012010A44126842F00102796818331B0194
:1034E0000B441A60FB7B18461437BD465DF8047B1D
:1034F000704700BF80B485B000AF78600B46FB70AA
:103500000023FB60FB78012B09D0022B0DD0002B90
:1035100011D17B689A68264B1340FB600EE07B68F4
:103520009A68244B1340FB6008E07B689A68224B42
:103530001340FB6002E00023FB6000BFFB681F4AF2
:1035400093421BD01D4A934208D81D4A934212D081
:10355000174A934218D0002B0AD01EE0194A934212
:103560000FD0154A934215D0124A93420FD014E05F
:103570000223FB6014E00023FB6011E00023FB60EA
:103580000EE00023FB600BE00123FB6008E0012359
:10359000FB6005E00123FB6002E00023FB6000BF4D
:1035A000FB68DBB218461437BD465DF8047B7047F4
:1035B00003000004000300080000031000010008DD
:1035C000010000040000011080B485B000AFF86075
:1035D0000B467A60FB72FB7AFA681B331B011344BB
:1035E0001B68DBB203F00403DAB27B681A727B68F3
:1035F0001B7A002B09D1FB7AFA681B331B01134499
:103600001B685A0D7B681A6008E0FB7AFA681B3366
:103610001B0113441B68DA087B685A60FB7AFA685E
:103620001B331B0113441B68DBB203F00203DAB245
:103630007B685A72FB7AFA681B331B0113445B6880
:10364000DBB203F00F03DAB27B689A72FB7AFA6896
:103650001B331B0113445B681B0ADAB27B68DA7404
:10366000FB7AFA681B01134403F5DC731B68DAB2BA
:103670007B68DA72FB7AFA681B01134403F5DC738A
:103680001B681B0ADAB27B681A73FB7AFA681B01A3
:10369000134403F5DC731B681B0CDAB27B685A73A6
:1036A000FB7AFA681B01134403F5DC731B681B0EDD
:1036B000DAB27B689A73FB7AFA681B01134403F54C
:1036C000DC735B68DAB27B68DA73FB7AFA681B0139
:1036D000134403F5DC735B681B0ADAB27B681A7467
:1036E000FB7AFA681B01134403F5DC735B681B0C5F
:1036F000DAB27B685A74FB7AFA681B01134403F54B
:10370000DC735B681B0EDAB27B689A74FB7A002B61
:1037100006D1FB68DB6843F02002FB68DA6005E055
:10372000FB681B6943F02002FB681A611437BD4631
:103730005DF8047B704700BF80B485B000AFF860CF
:10374000B9601346FB71FB79002B06D0FB685A6900
:10375000BB681A43FB685A6106E0FB685A69BB689C
:10376000DB431A40FB685A611437BD465DF8047BA1
:10377000704700BF80B584B000AF78603960002327
:10378000FB737B685A693B681340002B00F0B280E2
:103790003B68402B62D0402B0FD8042B3AD0042B2F
:1037A00004D8012B24D0022B2BD09FE0102B43D028
:1037B000202B4AD0082B36D098E0B3F5006F00F0EC
:1037C0008380B3F5006F09D8B3F5007F6AD0B3F5F5
:1037D000806F70D0B3F5807F5BD087E0B3F5803F1A
:1037E00045D0B3F5003F4BD0B3F5004F75D07DE029
:1037F0007B689B681846434900F086F80346FB73D4
:1038000077E07B68DB681846032100F07DF803460B
:10381000FB736EE07B68DB681846082100F074F8E3
:103820000346FB7365E07B68DB681846102100F0F7
:103830006BF80346FB735CE07B681B691846032149
:1038400000F062F80346FB7353E07B681B6918467F
:10385000082100F059F80346FB734AE07B681B69B6
:103860001846102100F050F80346FB7341E07B68D6
:103870005B681846082100F047F80346FB7338E000
:103880007B685B681846102100F03EF80346FB7326
:103890002FE07B689B691846012100F035F803464C
:1038A000FB7326E07B689B691846022100F02CF828
:1038B0000346FB731DE07B689B691846042100F0FA
:1038C00023F80346FB7314E07B689B69184670215C
:1038D00000F01AF80346FB730BE07B685B68184640
:1038E000042100F011F80346FB7302E00023FB7390
:1038F00000BF01E00023FB73FB7B18461037BD4679
:1039000080BD00BF0101010080B485B000AF7860C8
:1039100039600023FB737A683B681340002B02D0A8
:103920000123FB7301E00023FB73FB7B1846143774
:10393000BD465DF8047B704780B400AF064BD3E909
:103940000023013243F100030349C1E90023BD46CE
:103950005DF8047B704700BF5009002080B500AFC0
:1039600000F010F802460B46104619464FF47A72E2
:103970004FF000030EF0D2F902460B4610461946EE
:1039800080BD00BF80B400AF094BD3E9002392187B
:1039900043EB0303990041EA92719000121843EB44
:1039A000010310461946BD465DF8047B704700BF11
:1039B0005009002080B500AF014805F06DFE80BDC4
:1039C000ACC5273780B58AB002AFF8607A601A4676
:1039D0000B46FB7213463B8107F114031846FFF7B1
:1039E00097FCFB68012B08D14E48FFF7E3FA4FF034
:1039F0000070012104F0BCFB0AE0FB68022B07D138
:103A00004948FFF7D7FA4FF08060012104F0B0FB7E
:103A10003A8900230093022079680123FEF744FCD1
:103A2000BA8D002300930220B96A0123FEF73CFC03
:103A3000FB68012B16D13B89184608F0EBFB0346C7
:103A40009BB278681946092205F0C8FFBB8D18465D
:103A500008F0E0FB03469BB2B86A1946092205F05C
:103A6000BDFF18E0FB68022B15D13B89184608F012
:103A7000D1FB03469BB278681946092205F0AEFFD8
:103A8000BB8D184608F0C6FB03469BB2B86A1946C0
:103A9000092205F0A3FF0123BB760023FB76002358
:103AA0003B7700237B770023BB770023FB77FB7AF0
:103AB000BB750023FB7505233B7606237B7603232A
:103AC000BB82FB68012B06D107F114031548194688
:103AD000FFF792FA08E0FB68022B05D107F1140307
:103AE00011481946FFF788FA4FF4E06008F064FCCB
:103AF000FB68012B08D1142008F076FB094802214D
:103B00000122FFF719FE0AE0FB68022B07D14020D3
:103B100008F06AFB044802210122FFF70DFE20375E
:103B2000BD4680BD006400400068004080B586B09E
:103B300000AF7860084611461A460346FB700B46F4
:103B40003B801346BB700023FB820023FB8210E006
:103B5000FB8ADBB2BB7400233B8200237B7507F139
:103B600008031846FFF71AFBFB8A9BB201339BB28E
:103B7000FB82B7F916300D2BEADD7B68DBB2BB7434
:103B800000233B8201237B75FB78002B02D10023AD
:103B9000FB7404E0FB78012B01D10123FB740023AB
:103BA0003B75B7F900305B019AB2BB781B019BB241
:103BB00013439BB29BB27B81B7F920305B019AB271
:103BC00097F824301B019BB213439BB29BB2FB813D
:103BD000B7F928305B019AB297F82C301B019BB2E1
:103BE00013439BB29BB23B81B7F930305B019AB271
:103BF00097F834301B019BB213439BB29BB2BB813D
:103C000007F108031846FFF7C9FA1837BD4680BD0B
:103C100080B582B000AF786007487968FFF7A2FBF3
:103C200000BF05480021FFF765FC0346012BF8D1D2
:103C30000837BD4680BD00BF0064004080B582B03B
:103C400000AF104B7B60104B3B6007E03B681A1DD8
:103C50003A607A68111D796012681A603B680B4AF5
:103C60009342F3D30A480B494FF000028842B8BF91
:103C700040F8042BFADB04F0F3FA03F001FF0837F5
:103C8000BD4680BDC8810208000000200C0900204C
:103C900010090020CC18002080B400AFFEE700BF60
:103CA00080B584B000AF786007F1080378681946E2
:103CB00007F000FA3B7A03F01F03012B0AD0022B16
:103CC0000FD0002B14D107F108037868194606F0CD
:103CD0001BFE16E007F108037868194606F064FE3B
:103CE0000FE007F108037868194606F091FE08E036
:103CF0003B7A23F07F03DBB27868194608F0A0FC1A
:103D000000BF002318461037BD4680BD80B584B083
:103D100000AF78600B46FB70FB78002B44D17B68CA
:103D200003F55C73FB607B6893F81131032B4ED174
:103D3000FB68DA69FB689B689A4220D9FB68DA69FC
:103D4000FB689B68D21AFB68DA617B68DB78012B21
:103D500006D1FB68DA68FB689B681A44FB68DA6086
:103D6000FB68D968FB689A68FB68DB69934228BFE7
:103D700013469BB278681A4608F0BAFE27E07B68C3
:103D8000D3F8E0351B69002B0AD07B6893F8123119
:103D9000032B05D17B68D3F8E0351B697868984719
:103DA000786808F0B9FE12E07B68D3F8E0359B69CB
:103DB000002B0CD07B6893F81231032B07D17B6862
:103DC000D3F8E0359B69FA78786811469847002364
:103DD00018461037BD4680BD80B584B000AF78600E
:103DE0000B46FB70FB78002B60D17B6803F58C736E
:103DF000FB607B6893F81131022B6AD1FB68DA69AA
:103E0000FB689B689A421CD9FB68DA69FB689B686F
:103E1000D21AFB68DA617B68DB78012B06D1FB687C
:103E2000DA68FB689B681A44FB68DA60FB68DA684A
:103E3000FB68DB699BB2786811461A4608F044FEBD
:103E400047E0FB681B6AFA689268B3FBF2F102FB79
:103E500001F29B1A002B14D1FB681A6AFB689B685D
:103E60009A420ED3FB681A6AFB685B6A9A4208D2D0
:103E700078680021002208F027FEFB6800225A62C1
:103E800027E07B68D3F8E035DB68002B0AD07B683D
:103E900093F81231032B05D17B68D3F8E035DB684A
:103EA00078689847786808F04FFE12E07B68D3F88E
:103EB000E0355B69002B0CD07B6893F81231032B43
:103EC00007D17B68D3F8E0355B69FA7878681146EA
:103ED0009847002318461037BD4680BD80B582B094
:103EE00000AF7860786800214022002308F0D6FAFD
:103EF000786880214022002308F0D0FA7B680122F4
:103F000083F812217B68D3F8E4355B687A6892788D
:103F100010469847002318460837BD4680BD00BFAD
:103F200080B582B000AF78607B68D3F8E4351B6958
:103F300098477B68032283F812210023184608372C
:103F4000BD4680BD80B582B000AF78607B6804223A
:103F500083F812217B68D3F8E435DB6898470023A7
:103F600018460837BD4680BD80B582B000AF786086
:103F70007B68D3F8E035DB69002B05D07B68D3F88C
:103F8000E035DB6978689847002318460837BD4656
:103F900080BD00BF80B582B000AF78600B46FB707B
:103FA0007B68D3F8E0351B68FA7878681146984743
:103FB0007B68D3F8E4359B68984700231846083798
:103FC000BD4680BD80B582B000AF78600B46FB7007
:103FD0007B68D3F8E0355B68FA78786811469847D3
:103FE000002318460837BD4680BD00BF80B582B0AB
:103FF00000AF78607B68D3F8E0351B6A7868984733
:10400000002318460837BD4680BD00BF80B582B08A
:1040100000AF78607B68D3F8E0355B6A78689847D2
:10402000002318460837BD4680BD00BF80B483B06A
:1040300000AF786039607B683A689A607B680022DC
:104040005A60002318460C37BD465DF8047B704764
:1040500080B582B000AF78607B681033184603F0FB
:1040600057FA0346002B0CBF01230023DBB218468E
:104070000837BD4680BD00BF80B483B000AF786014
:104080007B68D3F81C3118460C37BD465DF8047BBD
:10409000704700BF80B582B000AF78607B68103396
:1040A000184603F04BFA034618460837BD4680BD54
:1040B00090B585B000AF786039607B6810331846E2
:1040C00003F026FA0346002B14BF01230023DBB2C2
:1040D000002B08D03B6800221A707B680022C3F8CE
:1040E0001C21002354E00023FB604DE0FB683A688C
:1040F000D4187B681033184603F020FA0346237067
:10410000FB683A6813441B780D2B02D0FB68FE2B2A
:104110001FDDFB683A68134400221A707B68103375
:10412000184603F0F5F90346002B14BF01230023C2
:10413000DBB2002B04D07B680022C3F81C2106E010
:104140007B68D3F81C315A1E7B68C3F81C21FB68BE
:104150001EE07B681033184603F0DAF90346002BA3
:1041600014BF01230023DBB2002B0AD0FB683A689E
:10417000134400221A707B680022C3F81C21FB68DC
:1041800006E0FB680133FB60FB68FF2BAEDD00231C
:1041900018461437BD4690BD80B582B000AF786038
:1041A0007B689B68012B06D17B685B681846FFF72C
:1041B00063FF034600E0002318460837BD4680BD74
:1041C00080B582B000AF786039603B6800221A7019
:1041D0007B689B68012B07D17B685B681846396850
:1041E000FFF766FF034600E0002318460837BD4688
:1041F00080BD00BF80B582B000AF78607B689B68EF
:10420000012B06D17B685B681846FFF721FF034648
:1042100000E0002318460837BD4680BD80B582B057
:1042200000AF78607B689B68012B06D17B685B6878
:104230001846FFF72FFF034600E000231846083713
:10424000BD4680BD80B584B000AF78603960002382
:10425000FB600DE07B681B6804331B68FA683968F3
:104260000A441278786811469847FB680133FB606E
:10427000FB683A6813441B78002BEBD11037BD461E
:1042800080BD00BF90B587B002AFF860B9607A60BA
:104290003B60FB6802229A60FB681B681C683B68F5
:1042A0000093F868B9687A683B6AA04703461846E5
:1042B0001437BD4690BD00BF80B483B000AF7860B6
:1042C00040F6FF7318460C37BD465DF8047B704717
:1042D000A0F10800F0E700BF80B483B000AF7860C1
:1042E000034B18460C37BD465DF8047B704700BF92
:1042F00033335340A0F10800EEE700BF80B483B031
:1043000000AF786040F6FF7318460C37BD465DF885
:10431000047B7047A0F10800F0E700BF80B483B0D1
:1043200000AF7860034B18460C37BD465DF8047B40
:10433000704700BF33335340A0F10800EEE700BFE1
:1043400080B483B000AF786040F6FF7318460C3736
:10435000BD465DF8047B7047A0F10800F0E700BFA0
:1043600080B483B000AF7860034B18460C37BD466D
:104370005DF8047B704700BF33335340A0F1080061
:10438000EEE700BF80B483B000AF786040F6FF7303
:1043900018460C37BD465DF8047B7047A0F1080055
:1043A000F0E700BF80B483B000AF7860034B1846DD
:1043B0000C37BD465DF8047B704700BF3333534074
:1043C000A0F10800EEE700BF80B483B000AF7860D2
:1043D00040F6FF7318460C37BD465DF8047B704706
:1043E000A0F10800F0E700BF80B483B000AF7860B0
:1043F000034B18460C37BD465DF8047B704700BF81
:1044000033335340A0F10800EEE700BF80B582B01F
:1044100000AF786004484FF4805105F0A9FA0346D4
:1044200018460837BD4680BD0004024080B582B002
:1044300000AF786039603B68002B05D106484FF427
:10444000805105F0BDFA04E003484FF4805105F0B7
:10445000A9FA0837BD4680BD0004024080B582B08D
:1044600000AF786004484FF4805105F067FA0346C6
:1044700018460837BD4680BD0004024080B584B0B0
:1044800002AF786000230093002005494FF480526A
:104490000023FDF709FF002318460837BD4680BDFD
:1044A0000004024080B584B002AF7860002300931E
:1044B000012005494FF480520023FDF7F5FE00234B
:1044C00018460837BD4680BD0004024080B584B060
:1044D00002AF786000230093002005494FF480521A
:1044E0000123FDF7E1FE002318460837BD4680BDD5
:1044F0000004024080B584B002AF786000230093CE
:10450000002005494FF480520223FDF7CDFE002321
:1045100018460837BD4680BD0004024080B582B011
:1045200000AF786004484FF4004105F021FA0346DB
:1045300018460837BD4680BD0010024080B582B0E5
:1045400000AF786039603B68002B05D106484FF416
:10455000004105F035FA04E003484FF4004105F04E
:1045600021FA0837BD4680BD0010024080B582B0F8
:1045700000AF786004484FF4004105F0DFF90346CE
:1045800018460837BD4680BD0010024080B584B093
:1045900002AF786000230093002005494FF40042E9
:1045A0000023FDF781FE012318460837BD4680BD74
:1045B0000010024080B584B002AF78600023009301
:1045C000012005494FF400420023FDF76DFE002352
:1045D00018460837BD4680BD0010024080B584B043
:1045E00002AF786000230093002005494FF4004299
:1045F0000123FDF759FE012318460837BD4680BD4B
:104600000010024080B584B002AF786000230093B0
:10461000002005494FF400420223FDF745FE002328
:1046200018460837BD4680BD0010024080B582B0F4
:1046300000AF786004484FF4804105F099F90346D3
:1046400018460837BD4680BD0004024080B582B0E0
:1046500000AF786039603B68002B05D106484FF405
:10466000804105F0ADF904E003484FF4804105F0C6
:1046700099F90837BD4680BD0004024080B582B07C
:1046800000AF786004484FF4804105F057F90346C5
:1046900018460837BD4680BD0004024080B584B08E
:1046A00002AF786000230093002005494FF4804258
:1046B0000023FDF7F9FD002318460837BD4680BDED
:1046C0000004024080B584B002AF786000230093FC
:1046D000012005494FF480420023FDF7E5FD00234A
:1046E00018460837BD4680BD0004024080B584B03E
:1046F00002AF786000230093002005494FF4804208
:104700000123FDF7D1FD002318460837BD4680BDC3
:104710000004024080B584B002AF786000230093AB
:10472000002005494FF480420223FDF7BDFD002320
:1047300018460837BD4680BD0004024080B582B0EF
:1047400000AF786004484FF4004105F011F90346CA
:1047500018460837BD4680BD0004024080B582B0CF
:1047600000AF786039603B68002B05D106484FF4F4
:10477000004105F025F904E003484FF4004105F03D
:1047800011F90837BD4680BD0004024080B582B0F3
:1047900000AF786004484FF4004105F0CFF80346BD
:1047A00018460837BD4680BD0004024080B584B07D
:1047B00002AF786000230093002005494FF40042C7
:1047C0000023FDF771FD002318460837BD4680BD64
:1047D0000004024080B584B002AF786000230093EB
:1047E000012005494FF400420023FDF75DFD002341
:1047F00018460837BD4680BD0004024080B584B02D
:1048000002AF786000230093002005494FF4004276
:104810000123FDF749FD002318460837BD4680BD3A
:104820000004024080B584B002AF7860002300939A
:10483000002005494FF400420223FDF735FD002317
:1048400018460837BD4680BD0004024080B582B0DE
:1048500000AF786004484FF4004105F089F8034642
:1048600018460837BD4680BD0000024080B582B0C2
:1048700000AF786039603B68002B05D106484FF4E3
:10488000004105F09DF804E003484FF4004105F0B5
:1048900089F80837BD4680BD0000024080B582B06F
:1048A00000AF786004484FF4004105F047F8034634
:1048B00018460837BD4680BD0000024080B584B070
:1048C00002AF786000230093002005494FF40042B6
:1048D0000023FDF7E9FC002318460837BD4680BDDC
:1048E0000000024080B483B000AF78600123184616
:1048F0000C37BD465DF8047B704700BF80B584B0BF
:1049000002AF786000230093002005494FF4004275
:104910000123FDF7C9FC002318460837BD4680BDBA
:104920000000024080B584B002AF7860002300939D
:10493000002005494FF400420223FDF7B5FC002397
:1049400018460837BD4680BD0000024080B582B0E1
:1049500000AF786004484FF4005105F009F80346B1
:1049600018460837BD4680BD0004024080B582B0BD
:1049700000AF786039603B68002B05D106484FF4E2
:10498000005105F01DF804E003484FF4005105F014
:1049900009F80837BD4680BD0004024080B582B0EA
:1049A00000AF786004484FF4005104F0C7FF03469D
:1049B00018460837BD4680BD0004024080B584B06B
:1049C00002AF786000230093002005494FF40052A5
:1049D0000023FDF769FC002318460837BD4680BD5B
:1049E0000004024080B483B000AF78600123184611
:1049F0000C37BD465DF8047B704700BF80B584B0BE
:104A000002AF786000230093002005494FF4005264
:104A10000123FDF749FC002318460837BD4680BD39
:104A20000004024080B584B002AF78600023009398
:104A3000002005494FF400520223FDF735FC002306
:104A400018460837BD4680BD0004024080B582B0DC
:104A500000AF786004484FF4006104F089FF03461A
:104A600018460837BD4680BD000C024080B582B0B4
:104A700000AF786039603B68002B05D106484FF4E1
:104A8000006104F09DFF04E003484FF4006104F06E
:104A900089FF0837BD4680BD000C024080B582B05A
:104AA00000AF786004484FF4006104F047FF03460C
:104AB00018460837BD4680BD000C024080B584B062
:104AC00002AF786000230093002005494FF4006294
:104AD0000023FDF7E9FB002318460837BD4680BDDB
:104AE000000C024080B483B000AF78600123184608
:104AF0000C37BD465DF8047B704700BF80B584B0BD
:104B000002AF786000230093002005494FF4006253
:104B10000123FDF7C9FB002318460837BD4680BDB9
:104B2000000C024080B584B002AF7860002300938F
:104B3000002005494FF400620223FDF7B5FB002376
:104B400018460837BD4680BD000C024080B582B0D3
:104B500000AF786004484FF4806104F009FF034619
:104B600018460837BD4680BD000C024080B582B0B3
:104B700000AF786039603B68002B05D106484FF4E0
:104B8000806104F01DFF04E003484FF4806104F0ED
:104B900009FF0837BD4680BD000C024080B582B0D9
:104BA00000AF786004484FF4806104F0C7FE03460C
:104BB00018460837BD4680BD000C024080B584B061
:104BC00002AF786000230093002005494FF4806213
:104BD0000023FDF769FB002318460837BD4680BD5A
:104BE000000C024080B483B000AF78600123184607
:104BF0000C37BD465DF8047B704700BF80B584B0BC
:104C000002AF786000230093002005494FF48062D2
:104C10000123FDF749FB002318460837BD4680BD38
:104C2000000C024080B584B002AF7860002300938E
:104C3000002005494FF480620223FDF735FB002375
:104C400018460837BD4680BD000C024080B582B0D2
:104C500000AF78600448022104F08AFE034618463B
:104C60000837BD4680BD00BF0004024080B582B059
:104C700000AF786039603B68002B04D10548022101
:104C800004F09EFE03E00348022104F08BFE083787
:104C9000BD4680BD0004024080B582B000AF7860A0
:104CA0000448022104F04AFE034618460837BD4670
:104CB00080BD00BF0004024080B584B002AF7860C0
:104CC000002300930020054902220023FDF7ECFA9F
:104CD000002318460837BD4680BD00BF00040240CF
:104CE00080B584B002AF78600023009301200549AD
:104CF00002220023FDF7D8FA002318460837BD46E4
:104D000080BD00BF0004024080B584B002AF78606F
:104D1000002300930020054902220123FDF7C4FA75
:104D2000002318460837BD4680BD00BF000402407E
:104D300080B584B002AF786000230093002005495D
:104D400002220223FDF7B0FA002318460837BD46B9
:104D500080BD00BF0004024080B582B000AF786023
:104D60000448102104F004FE034618460837BD46E7
:104D700080BD00BF0000024080B582B000AF786007
:104D800039603B68002B04D10548102104F018FE5F
:104D900003E00348102104F005FE0837BD4680BD3E
:104DA0000000024080B582B000AF78600448102156
:104DB00004F0C4FD034618460837BD4680BD00BF59
:104DC0000000024080B584B002AF786000230093F9
:104DD0000020054910220023FDF766FA002318463B
:104DE0000837BD4680BD00BF0000024080B584B0DA
:104DF00002AF7860002300930120054910220023B0
:104E0000FDF752FA002318460837BD4680BD00BFA3
:104E10000000024080B584B002AF786000230093A8
:104E20000020054910220123FDF73EFA0023184611
:104E30000837BD4680BD00BF0000024080B584B089
:104E400002AF78600023009300200549102202235E
:104E5000FDF72AFA002318460837BD4680BD00BF7B
:104E60000000024080B582B000AF786004480121A4
:104E700004F07EFD034618460837BD4680BD00BFDE
:104E80000008024080B582B000AF786039603B68AE
:104E9000002B04D10548012104F092FD03E00348F2
:104EA000012104F07FFD0837BD4680BD00080240A7
:104EB00080B582B000AF78600448012104F03EFD67
:104EC000034618460837BD4680BD00BF00080240B3
:104ED00080B584B002AF78600023009300200549BC
:104EE00001220023FDF7E0F9002318460837BD46EC
:104EF00080BD00BF0008024080B584B002AF78607A
:104F0000002300930120054901220023FDF7CCF97D
:104F1000002318460837BD4680BD00BF0008024088
:104F200080B584B002AF786000230093002005496B
:104F300001220123FDF7B8F9002318460837BD46C2
:104F400080BD00BF0008024080B584B002AF786029
:104F5000002300930020054901220223FDF7A4F954
:104F6000002318460837BD4680BD00BF0008024038
:104F700080B582B000AF786004484FF4805104F0EF
:104F8000F7FC034618460837BD4680BD00100240B6
:104F900080B582B000AF786039603B68002B05D1E6
:104FA00006484FF4805104F00BFD04E003484FF431
:104FB000805104F0F7FC0837BD4680BD0010024068
:104FC00080B582B000AF786004484FF4805104F09F
:104FD000B5FC034618460837BD4680BD00100240A8
:104FE00080B584B002AF78600023009300200549AB
:104FF0004FF480520023FDF757F900231846083775
:10500000BD4680BD0010024080B584B002AF78601C
:1050100000230093012005494FF480520023FDF73F
:1050200043F9002318460837BD4680BD00100240F2
:1050300080B584B002AF786000230093002005495A
:105040004FF480520123FDF72FF90023184608374B
:10505000BD4680BD0010024080B584B002AF7860CC
:1050600000230093002005494FF480520223FDF7EE
:105070001BF9002318460837BD4680BD00100240CA
:1050800080B582B000AF78600448202104F070FC45
:10509000034618460837BD4680BD00BF00000240E9
:1050A00080B582B000AF786039603B68002B04D1D6
:1050B0000548202104F084FC03E00348202104F08B
:1050C00071FC0837BD4680BD0000024080B582B04B
:1050D00000AF78600448202104F030FC03461846F5
:1050E0000837BD4680BD00BF0000024080B584B0D7
:1050F00002AF78600023009300200549202200239E
:10510000FDF7D2F8002318460837BD4680BD00BF22
:105110000000024080B584B002AF786000230093A5
:105120000120054920220023FDF7BEF80023184680
:105130000837BD4680BD00BF0000024080B584B086
:1051400002AF78600023009300200549202201234C
:10515000FDF7AAF8002318460837BD4680BD00BFFA
:105160000000024080B584B002AF78600023009355
:105170000020054920220223FDF796F80023184657
:105180000837BD4680BD00BF0000024080B582B038
:1051900000AF78600448042104F0EAFB0346184697
:1051A0000837BD4680BD00BF0004024080B582B014
:1051B00000AF786039603B68002B04D105480421BA
:1051C00004F0FEFB03E00348042104F0EBFB083786
:1051D000BD4680BD0004024080B582B000AF78605B
:1051E0000448042104F0AAFB034618460837BD46CC
:1051F00080BD00BF0004024080B584B002AF78607B
:10520000002300930020054904220023FDF74CF8F9
:10521000002318460837BD4680BD00BF0004024089
:1052200080B584B002AF7860002300930120054967
:1052300004220023FDF738F8002318460837BD463E
:1052400080BD00BF0004024080B584B002AF78602A
:10525000002300930020054904220123FDF724F8D0
:10526000002318460837BD4680BD00BF0004024039
:1052700080B584B002AF7860002300930020054918
:1052800004220223FDF710F8002318460837BD4614
:1052900080BD00BF0004024080B582B000AF7860DE
:1052A0000448802104F064FB034618460837BD46D5
:1052B00080BD00BF0010024080B582B000AF7860B2
:1052C00039603B68002B04D10548802104F078FB4D
:1052D00003E00348802104F065FB0837BD4680BD2C
:1052E0000010024080B582B000AF78600448802191
:1052F00004F024FB034618460837BD4680BD00BFB6
:105300000010024080B584B002AF786000230093A3
:105310000020054980220023FCF7C6FF0023184621
:105320000837BD4680BD00BF0010024080B584B084
:1053300002AF7860002300930120054980220023FA
:10534000FCF7B2FF002318460837BD4680BD00BFFA
:105350000010024080B584B002AF78600023009353
:105360000020054980220123FCF79EFF00231846F8
:105370000837BD4680BD00BF0010024080B584B034
:1053800002AF7860002300930020054980220223A9
:10539000FCF78AFF002318460837BD4680BD00BFD2
:1053A0000010024080B582B000AF786004484FF42E
:1053B000806104F0DDFA034618460837BD4680BD1B
:1053C0000010024080B582B000AF786039603B6861
:1053D000002B05D106484FF4806104F0F1FA04E097
:1053E00003484FF4806104F0DDFA0837BD4680BD04
:1053F0000010024080B582B000AF786004484FF4DE
:10540000806104F09BFA034618460837BD4680BD0C
:105410000010024080B584B002AF78600023009392
:10542000002005494FF480620023FCF73DFF002374
:1054300018460837BD4680BD0010024080B584B0D4
:1054400002AF786000230093012005494FF4806289
:105450000023FCF729FF002318460837BD4680BD0E
:105460000010024080B584B002AF78600023009342
:10547000002005494FF480620123FCF715FF00234B
:1054800018460837BD4680BD0010024080B584B084
:1054900002AF786000230093002005494FF480623A
:1054A0000223FCF701FF002318460837BD4680BDE4
:1054B0000010024080B582B000AF7860044801213E
:1054C00004F056FA034618460837BD4680BD00BFB3
:1054D0000004024080B582B000AF786039603B685C
:1054E000002B04D10548012104F06AFA03E00348C7
:1054F000012104F057FA0837BD4680BD0004024080
:1055000080B582B000AF78600448012104F016FA3B
:10551000034618460837BD4680BD00BF0004024060
:1055200080B584B002AF7860002300930020054965
:1055300001220023FCF7B8FE002318460837BD46B9
:1055400080BD00BF0004024080B584B002AF786027
:10555000002300930120054901220023FCF7A4FE4B
:10556000002318460837BD4680BD00BF0004024036
:1055700080B584B002AF7860002300930020054915
:1055800001220123FCF790FE002318460837BD4690
:1055900080BD00BF0004024080B584B002AF7860D7
:1055A000002300930020054901220223FCF77CFE22
:1055B000002318460837BD4680BD00BF00040240E6
:1055C00080B582B000AF78600448102104F0D0F9B3
:1055D000034618460837BD4680BD00BF0010024094
:1055E00080B582B000AF786039603B68002B04D191
:1055F0000548102104F0E4F903E00348102104F009
:10560000D1F90837BD4680BD0010024080B582B098
:1056100000AF78600448102104F090F90346184662
:105620000837BD4680BD00BF0010024080B584B081
:1056300002AF786000230093002005491022002368
:10564000FCF732FE002318460837BD4680BD00BF78
:105650000010024080B584B002AF78600023009350
:105660000120054910220023FCF71EFE00231846E6
:105670000837BD4680BD00BF0010024080B584B031
:1056800002AF786000230093002005491022012317
:10569000FCF70AFE002318460837BD4680BD00BF50
:1056A0000010024080B584B002AF78600023009300
:1056B0000020054910220223FCF7F6FD00231846BE
:1056C0000837BD4680BD00BF0010024080B582B0E3
:1056D00000AF78600448042104F04AF903461846F4
:1056E0000837BD4680BD00BF0010024080B582B0C3
:1056F00000AF786039603B68002B04D10548042175
:1057000004F05EF903E00348042104F04BF9083784
:10571000BD4680BD0010024080B582B000AF786009
:105720000448042104F00AF9034618460837BD4628
:1057300080BD00BF0010024080B584B002AF786029
:10574000002300930020054904220023FCF7ACFD50
:10575000002318460837BD4680BD00BF0010024038
:1057600080B584B002AF7860002300930120054922
:1057700004220023FCF798FD002318460837BD4695
:1057800080BD00BF0010024080B584B002AF7860D9
:10579000002300930020054904220123FCF784FD27
:1057A000002318460837BD4680BD00BF00100240E8
:1057B00080B584B002AF78600023009300200549D3
:1057C00004220223FCF770FD002318460837BD466B
:1057D00080BD00BF0010024080B582B000AF78608D
:1057E00004484FF4807104F0C3F8034618460837A4
:1057F000BD4680BD0010024080B582B000AF786029
:1058000039603B68002B05D106484FF4807104F0E5
:10581000D7F804E003484FF4807104F0C3F8083768
:10582000BD4680BD0010024080B582B000AF7860F8
:1058300004484FF4807104F081F803461846083795
:10584000BD4680BD0010024080B584B002AF7860D4
:1058500000230093002005494FF480720023FCF7D9
:1058600023FD002318460837BD4680BD00100240C6
:1058700080B584B002AF7860002300930120054911
:105880004FF480720023FCF70FFD00231846083701
:10589000BD4680BD0010024080B584B002AF786084
:1058A00000230093002005494FF480720123FCF788
:1058B000FBFC002318460837BD4680BD001002409F
:1058C00080B584B002AF78600023009300200549C2
:1058D0004FF480720223FCF7E7FC002318460837D8
:1058E000BD4680BD0010024080B582B000AF786038
:1058F0000448082104F03CF8034618460837BD4622
:1059000080BD00BF0010024080B582B000AF78605B
:1059100039603B68002B04D10548082104F050F899
:1059200003E00348082104F03DF80837BD4680BD78
:105930000010024080B582B000AF786004480821B2
:1059400003F0FCFF034618460837BD4680BD00BF84
:105950000010024080B584B002AF7860002300934D
:105960000020054908220023FCF79EFC002318466E
:105970000837BD4680BD00BF0010024080B584B02E
:1059800002AF78600023009301200549082200231C
:10599000FCF78AFC002318460837BD4680BD00BFCF
:1059A0000010024080B584B002AF786000230093FD
:1059B0000020054908220123FCF776FC0023184645
:1059C0000837BD4680BD00BF0010024080B584B0DE
:1059D00002AF7860002300930020054908220223CB
:1059E000FCF762FC002318460837BD4680BD00BFA7
:1059F0000010024080B582B000AF786004482021DA
:105A000003F0B6FF034618460837BD4680BD00BF09
:105A10000008024080B582B000AF786039603B6812
:105A2000002B04D10548202103F0CAFF03E00348FE
:105A3000202103F0B7FF0837BD4680BD00080240B3
:105A400080B582B000AF78600448202103F076FF73
:105A5000034618460837BD4680BD00BF0008024017
:105A600080B584B002AF7860002300930020054920
:105A700020220023FCF718FC002318460837BD46F7
:105A800080BD00BF0008024080B584B002AF7860DE
:105A90007B680222DA60002300930120044920225F
:105AA0000023FCF701FC002318460837BD4680BDE3
:105AB0000008024080B584B002AF786000230093F4
:105AC0000020054920220123FCF7EEFB00231846A5
:105AD0000837BD4680BD00BF0008024080B584B0D5
